{
	"@openzeppelin/contracts/proxy/transparent/ProxyAdmin.sol": {
		"ProxyAdmin": {
			"abi": [
				{
					"inputs": [
						{
							"internalType": "address",
							"name": "initialOwner",
							"type": "address"
						}
					],
					"stateMutability": "nonpayable",
					"type": "constructor"
				},
				{
					"inputs": [
						{
							"internalType": "address",
							"name": "owner",
							"type": "address"
						}
					],
					"name": "OwnableInvalidOwner",
					"type": "error"
				},
				{
					"inputs": [
						{
							"internalType": "address",
							"name": "account",
							"type": "address"
						}
					],
					"name": "OwnableUnauthorizedAccount",
					"type": "error"
				},
				{
					"anonymous": false,
					"inputs": [
						{
							"indexed": true,
							"internalType": "address",
							"name": "previousOwner",
							"type": "address"
						},
						{
							"indexed": true,
							"internalType": "address",
							"name": "newOwner",
							"type": "address"
						}
					],
					"name": "OwnershipTransferred",
					"type": "event"
				},
				{
					"inputs": [],
					"name": "UPGRADE_INTERFACE_VERSION",
					"outputs": [
						{
							"internalType": "string",
							"name": "",
							"type": "string"
						}
					],
					"stateMutability": "view",
					"type": "function"
				},
				{
					"inputs": [],
					"name": "owner",
					"outputs": [
						{
							"internalType": "address",
							"name": "",
							"type": "address"
						}
					],
					"stateMutability": "view",
					"type": "function"
				},
				{
					"inputs": [],
					"name": "renounceOwnership",
					"outputs": [],
					"stateMutability": "nonpayable",
					"type": "function"
				},
				{
					"inputs": [
						{
							"internalType": "address",
							"name": "newOwner",
							"type": "address"
						}
					],
					"name": "transferOwnership",
					"outputs": [],
					"stateMutability": "nonpayable",
					"type": "function"
				},
				{
					"inputs": [
						{
							"internalType": "contract ITransparentUpgradeableProxy",
							"name": "proxy",
							"type": "address"
						},
						{
							"internalType": "address",
							"name": "implementation",
							"type": "address"
						},
						{
							"internalType": "bytes",
							"name": "data",
							"type": "bytes"
						}
					],
					"name": "upgradeAndCall",
					"outputs": [],
					"stateMutability": "payable",
					"type": "function"
				}
			],
			"devdoc": {
				"details": "This is an auxiliary contract meant to be assigned as the admin of a {TransparentUpgradeableProxy}. For an explanation of why you would want to use this see the documentation for {TransparentUpgradeableProxy}.",
				"errors": {
					"OwnableInvalidOwner(address)": [
						{
							"details": "The owner is not a valid owner account. (eg. `address(0)`)"
						}
					],
					"OwnableUnauthorizedAccount(address)": [
						{
							"details": "The caller account is not authorized to perform an operation."
						}
					]
				},
				"kind": "dev",
				"methods": {
					"constructor": {
						"details": "Sets the initial owner who can perform upgrades."
					},
					"owner()": {
						"details": "Returns the address of the current owner."
					},
					"renounceOwnership()": {
						"details": "Leaves the contract without owner. It will not be possible to call `onlyOwner` functions. Can only be called by the current owner. NOTE: Renouncing ownership will leave the contract without an owner, thereby disabling any functionality that is only available to the owner."
					},
					"transferOwnership(address)": {
						"details": "Transfers ownership of the contract to a new account (`newOwner`). Can only be called by the current owner."
					},
					"upgradeAndCall(address,address,bytes)": {
						"details": "Upgrades `proxy` to `implementation` and calls a function on the new implementation. See {TransparentUpgradeableProxy-_dispatchUpgradeToAndCall}. Requirements: - This contract must be the admin of `proxy`. - If `data` is empty, `msg.value` must be zero."
					}
				},
				"stateVariables": {
					"UPGRADE_INTERFACE_VERSION": {
						"details": "The version of the upgrade interface of the contract. If this getter is missing, both `upgrade(address)` and `upgradeAndCall(address,bytes)` are present, and `upgradeTo` must be used if no function should be called, while `upgradeAndCall` will invoke the `receive` function if the second argument is the empty byte string. If the getter returns `\"5.0.0\"`, only `upgradeAndCall(address,bytes)` is present, and the second argument must be the empty byte string if no function should be called, making it impossible to invoke the `receive` function during an upgrade."
					}
				},
				"version": 1
			},
			"evm": {
				"assembly": "    /* \"@openzeppelin/contracts/proxy/transparent/ProxyAdmin.sol\":502:1944  contract ProxyAdmin is Ownable {... */\n  0x80\n  jumpi(tag_7, callvalue)\n  0x1f\n  bytecodeSize\n  codesize\n  dup2\n  swap1\n  sub\n  swap2\n  dup3\n  add\n  not(0x1f)\n  and\n  dup4\n  add\n  swap2\n  sub(shl(0x40, 0x01), 0x01)\n  dup4\n  gt\n  dup5\n  dup5\n  lt\n  or\n  tag_3\n  jumpi\n  dup1\n  dup5\n  swap3\n  0x20\n  swap5\n  0x40\n  mstore\n  dup4\n  codecopy\n  dup2\n  add\n  sub\n  slt\n  tag_7\n  jumpi\n  mload\n  sub(shl(0xa0, 0x01), 0x01)\n  swap1\n  dup2\n  dup2\n  and\n  swap1\n  dup2\n  swap1\n  sub\n  tag_7\n  jumpi\n    /* \"@openzeppelin/contracts/access/Ownable.sol\":1273:1299  initialOwner == address(0) */\n  dup1\n  iszero\n    /* \"@openzeppelin/contracts/access/Ownable.sol\":1269:1364  if (initialOwner == address(0)) {... */\n  tag_9\n  jumpi\n  0x00\n    /* \"@openzeppelin/contracts/proxy/transparent/ProxyAdmin.sol\":502:1944  contract ProxyAdmin is Ownable {... */\n  dup1\n  sload\n  not(sub(shl(0xa0, 0x01), 0x01))\n  dup2\n  and\n  dup4\n  or\n  dup3\n  sstore\n  mload(0x40)\n  swap4\n  and\n  swap1\n    /* \"@openzeppelin/contracts/access/Ownable.sol\":3052:3092  OwnershipTransferred(oldOwner, newOwner) */\n  0x8be0079c531659141344cd1fd0a4f28419497f9722a3daafe3b4186f6b6457e0\n  swap1\n  dup1\n  log3\n    /* \"@openzeppelin/contracts/proxy/transparent/ProxyAdmin.sol\":502:1944  contract ProxyAdmin is Ownable {... */\n  dataSize(sub_0)\n  swap1\n  dup2\n  dataOffset(sub_0)\n  dup3\n  codecopy\n  return\n    /* \"@openzeppelin/contracts/access/Ownable.sol\":1269:1364  if (initialOwner == address(0)) {... */\ntag_9:\n    /* \"@openzeppelin/contracts/proxy/transparent/ProxyAdmin.sol\":502:1944  contract ProxyAdmin is Ownable {... */\n  mload(0x40)\n  shl(0xe0, 0x1e4fbdf7)\n    /* \"@openzeppelin/contracts/access/Ownable.sol\":1322:1353  OwnableInvalidOwner(address(0)) */\n  dup2\n  mstore\n  0x00\n  0x04\n  dup3\n  add\n    /* \"@openzeppelin/contracts/proxy/transparent/ProxyAdmin.sol\":502:1944  contract ProxyAdmin is Ownable {... */\n  mstore\n  0x24\n  swap1\n    /* \"@openzeppelin/contracts/access/Ownable.sol\":1322:1353  OwnableInvalidOwner(address(0)) */\n  revert\n    /* \"@openzeppelin/contracts/proxy/transparent/ProxyAdmin.sol\":502:1944  contract ProxyAdmin is Ownable {... */\ntag_7:\n  0x00\n  dup1\n  revert\ntag_3:\n  mstore(0x00, shl(0xe0, 0x4e487b71))\n  mstore(0x04, 0x41)\n  revert(0x00, 0x24)\nstop\n\nsub_0: assembly {\n        /* \"@openzeppelin/contracts/proxy/transparent/ProxyAdmin.sol\":502:1944  contract ProxyAdmin is Ownable {... */\n      0x40\n      0x80\n      dup2\n      mstore\n      0x04\n      dup1\n      calldatasize\n      lt\n      iszero\n      tag_3\n      jumpi\n      0x00\n      dup1\n      revert\n    tag_3:\n      0x00\n      swap2\n      shr(0xe0, calldataload(0x00))\n      dup1\n      0x715018a6\n      eq\n      tag_5\n      jumpi\n      dup1\n      0x8da5cb5b\n      eq\n      tag_7\n      jumpi\n      dup1\n      0x9623609d\n      eq\n      tag_9\n      jumpi\n      dup1\n      0xad3cb1cc\n      eq\n      tag_11\n      jumpi\n      0xf2fde38b\n      eq\n      tag_13\n      jumpi\n      0x00\n      dup1\n      revert\n    tag_13:\n      jumpi(tag_17, callvalue)\n      jumpi(tag_17, slt(add(not(0x03), calldatasize), 0x20))\n      sub(shl(0xa0, 0x01), 0x01)\n      dup3\n      calldataload\n      dup2\n      dup2\n      and\n      swap4\n      swap2\n      swap3\n      swap1\n      dup5\n      swap1\n      sub\n      tag_19\n      jumpi\n        /* \"@openzeppelin/contracts/access/Ownable.sol\":1500:1562  modifier onlyOwner() {... */\n      tag_21\n      tag_2\n      jump\t// in\n    tag_21:\n        /* \"@openzeppelin/contracts/access/Ownable.sol\":2627:2649  newOwner == address(0) */\n      dup4\n      iszero\n        /* \"@openzeppelin/contracts/access/Ownable.sol\":2623:2714  if (newOwner == address(0)) {... */\n      tag_22\n      jumpi\n        /* \"@openzeppelin/contracts/proxy/transparent/ProxyAdmin.sol\":502:1944  contract ProxyAdmin is Ownable {... */\n      pop\n      pop\n      sload(0x00)\n      dup3\n      shl(0xa0, 0xffffffffffffffffffffffff)\n      dup3\n      and\n      or\n      0x00\n      sstore\n      and\n        /* \"@openzeppelin/contracts/access/Ownable.sol\":3052:3092  OwnershipTransferred(oldOwner, newOwner) */\n      0x8be0079c531659141344cd1fd0a4f28419497f9722a3daafe3b4186f6b6457e0\n        /* \"@openzeppelin/contracts/proxy/transparent/ProxyAdmin.sol\":502:1944  contract ProxyAdmin is Ownable {... */\n      0x00\n        /* \"@openzeppelin/contracts/access/Ownable.sol\":3052:3092  OwnershipTransferred(oldOwner, newOwner) */\n      dup1\n      log3\n        /* \"@openzeppelin/contracts/proxy/transparent/ProxyAdmin.sol\":502:1944  contract ProxyAdmin is Ownable {... */\n      dup1\n      return\n        /* \"@openzeppelin/contracts/access/Ownable.sol\":2623:2714  if (newOwner == address(0)) {... */\n    tag_22:\n        /* \"@openzeppelin/contracts/proxy/transparent/ProxyAdmin.sol\":502:1944  contract ProxyAdmin is Ownable {... */\n      mload\n      shl(0xe0, 0x1e4fbdf7)\n        /* \"@openzeppelin/contracts/access/Ownable.sol\":2672:2703  OwnableInvalidOwner(address(0)) */\n      dup2\n      mstore\n      swap1\n      dup2\n      add\n        /* \"@openzeppelin/contracts/proxy/transparent/ProxyAdmin.sol\":502:1944  contract ProxyAdmin is Ownable {... */\n      dup5\n      swap1\n      mstore\n      0x24\n      swap1\n        /* \"@openzeppelin/contracts/access/Ownable.sol\":2672:2703  OwnableInvalidOwner(address(0)) */\n      revert\n        /* \"@openzeppelin/contracts/proxy/transparent/ProxyAdmin.sol\":502:1944  contract ProxyAdmin is Ownable {... */\n    tag_19:\n      0x00\n      dup1\n      revert\n    tag_17:\n      dup3\n      dup1\n      revert\n    tag_11:\n      pop\n      dup3\n      jumpi(tag_26, callvalue)\n      dup1\n      add(calldatasize, not(0x03))\n      slt\n      tag_26\n      jumpi\n      pop\n      dup1\n      mload\n      swap1\n      dup1\n      dup3\n      add\n      dup3\n      dup2\n      lt\n      0xffffffffffffffff\n      dup3\n      gt\n      or\n      tag_28\n      jumpi\n      tag_30\n      swap4\n      pop\n      dup2\n      mstore\n      0x05\n      dup3\n      mstore\n      shl(0xdc, 0x0352e302e3)\n      0x20\n      dup4\n      add\n      mstore\n      mload\n      swap2\n      dup3\n      swap2\n      0x20\n      dup4\n      mstore\n      0x20\n      dup4\n      add\n      swap1\n      tag_1\n      jump\t// in\n    tag_30:\n      sub\n      swap1\n      return\n    tag_28:\n      0x41\n      dup5\n      mstore(0x00, shl(0xe0, 0x4e487b71))\n      mstore\n      revert(0x00, 0x24)\n    tag_26:\n      dup1\n      revert\n    tag_9:\n      pop\n      jumpi(tag_19, slt(add(not(0x03), calldatasize), 0x60))\n      sub(shl(0xa0, 0x01), 0x01)\n      dup3\n      calldataload\n      dup2\n      dup2\n      and\n      swap4\n      swap1\n      dup5\n      swap1\n      sub\n      tag_19\n      jumpi\n      0x24\n      swap2\n      dup3\n      calldataload\n      swap1\n      dup2\n      and\n      dup1\n      swap2\n      sub\n      tag_19\n      jumpi\n      0xffffffffffffffff\n      swap1\n      calldataload(0x44)\n      dup3\n      dup2\n      gt\n      tag_19\n      jumpi\n      calldatasize\n      0x23\n      dup3\n      add\n      slt\n      iszero\n      tag_19\n      jumpi\n      dup1\n      dup5\n      add\n      calldataload\n      dup4\n      dup2\n      gt\n      tag_41\n      jumpi\n      dup7\n      mload\n      swap2\n      0x1f\n      dup3\n      add\n      not(0x1f)\n      swap1\n      dup2\n      and\n      0x3f\n      add\n      and\n      dup4\n      add\n      dup6\n      dup2\n      gt\n      dup5\n      dup3\n      lt\n      or\n      tag_43\n      jumpi\n      dup9\n      mstore\n      dup2\n      dup4\n      mstore\n      calldatasize\n      dup8\n      dup4\n      dup4\n      add\n      add\n      gt\n      tag_19\n      jumpi\n      dup2\n      0x00\n      swap3\n      dup9\n      0x20\n      swap4\n      add\n      dup4\n      dup7\n      add\n      calldatacopy\n      dup4\n      add\n      add\n      mstore\n        /* \"@openzeppelin/contracts/access/Ownable.sol\":1500:1562  modifier onlyOwner() {... */\n      tag_47\n      tag_2\n      jump\t// in\n    tag_47:\n        /* \"@openzeppelin/contracts/proxy/transparent/ProxyAdmin.sol\":1873:1935  proxy.upgradeToAndCall{value: msg.value}(implementation, data) */\n      dup7\n      extcodesize\n      iszero\n      tag_19\n      jumpi\n        /* \"@openzeppelin/contracts/proxy/transparent/ProxyAdmin.sol\":502:1944  contract ProxyAdmin is Ownable {... */\n      tag_50\n      swap7\n      0x00\n      swap3\n      dup8\n      mload\n      dup1\n      swap10\n      dup2\n      swap5\n      dup3\n      swap4\n      shl(0xe1, 0x278f7943)\n        /* \"@openzeppelin/contracts/proxy/transparent/ProxyAdmin.sol\":1873:1935  proxy.upgradeToAndCall{value: msg.value}(implementation, data) */\n      dup5\n      mstore\n      dup10\n      dup5\n      add\n        /* \"@openzeppelin/contracts/proxy/transparent/ProxyAdmin.sol\":502:1944  contract ProxyAdmin is Ownable {... */\n      mstore\n      dup11\n      dup11\n      dup5\n      add\n      mstore\n      0x44\n      dup4\n      add\n      swap1\n      tag_1\n      jump\t// in\n    tag_50:\n        /* \"@openzeppelin/contracts/proxy/transparent/ProxyAdmin.sol\":1873:1935  proxy.upgradeToAndCall{value: msg.value}(implementation, data) */\n      sub\n        /* \"@openzeppelin/contracts/proxy/transparent/ProxyAdmin.sol\":1903:1912  msg.value */\n      swap2\n      callvalue\n        /* \"@openzeppelin/contracts/proxy/transparent/ProxyAdmin.sol\":1873:1935  proxy.upgradeToAndCall{value: msg.value}(implementation, data) */\n      swap1\n      gas\n      call\n      dup1\n      iszero\n      tag_51\n      jumpi\n      tag_53\n      jumpi\n        /* \"@openzeppelin/contracts/proxy/transparent/ProxyAdmin.sol\":502:1944  contract ProxyAdmin is Ownable {... */\n      dup6\n      dup1\n      return\n        /* \"@openzeppelin/contracts/proxy/transparent/ProxyAdmin.sol\":1873:1935  proxy.upgradeToAndCall{value: msg.value}(implementation, data) */\n    tag_53:\n        /* \"@openzeppelin/contracts/proxy/transparent/ProxyAdmin.sol\":502:1944  contract ProxyAdmin is Ownable {... */\n      swap1\n      swap2\n      swap3\n      swap4\n      dup1\n      swap6\n      pop\n      gt\n      tag_55\n      jumpi\n      pop\n      pop\n      mstore\n      stop\n    tag_55:\n      0x41\n      swap1\n      mstore(0x00, shl(0xe0, 0x4e487b71))\n      mstore\n      0x00\n      revert\n        /* \"@openzeppelin/contracts/proxy/transparent/ProxyAdmin.sol\":1873:1935  proxy.upgradeToAndCall{value: msg.value}(implementation, data) */\n    tag_51:\n        /* \"@openzeppelin/contracts/proxy/transparent/ProxyAdmin.sol\":502:1944  contract ProxyAdmin is Ownable {... */\n      dup5\n      mload\n      returndatasize\n      0x00\n      dup3\n      returndatacopy\n      returndatasize\n      swap1\n      revert\n    tag_43:\n      dup8\n      0x41\n      dup9\n      mstore(0x00, shl(0xe0, 0x4e487b71))\n      mstore\n      0x00\n      revert\n    tag_41:\n      dup6\n      0x41\n      dup7\n      mstore(0x00, shl(0xe0, 0x4e487b71))\n      mstore\n      0x00\n      revert\n    tag_7:\n      pop\n      jumpi(tag_19, callvalue)\n      jumpi(tag_19, slt(add(not(0x03), calldatasize), 0x00))\n      sload(0x00)\n      swap1\n      mload\n      sub(shl(0xa0, 0x01), 0x01)\n      swap1\n      swap2\n      and\n      dup2\n      mstore\n      0x20\n      swap1\n      return\n    tag_5:\n      jumpi(tag_19, callvalue)\n      jumpi(tag_19, slt(add(not(0x03), calldatasize), 0x00))\n        /* \"@openzeppelin/contracts/access/Ownable.sol\":1500:1562  modifier onlyOwner() {... */\n      tag_65\n      tag_2\n      jump\t// in\n    tag_65:\n        /* \"@openzeppelin/contracts/proxy/transparent/ProxyAdmin.sol\":502:1944  contract ProxyAdmin is Ownable {... */\n      0x00\n      dup1\n      sload\n      not(sub(shl(0xa0, 0x01), 0x01))\n      dup2\n      and\n      dup3\n      sstore\n      sub(shl(0xa0, 0x01), 0x01)\n      and\n        /* \"@openzeppelin/contracts/access/Ownable.sol\":3052:3092  OwnershipTransferred(oldOwner, newOwner) */\n      0x8be0079c531659141344cd1fd0a4f28419497f9722a3daafe3b4186f6b6457e0\n        /* \"@openzeppelin/contracts/proxy/transparent/ProxyAdmin.sol\":502:1944  contract ProxyAdmin is Ownable {... */\n      dup3\n      dup1\n        /* \"@openzeppelin/contracts/access/Ownable.sol\":3052:3092  OwnershipTransferred(oldOwner, newOwner) */\n      log3\n        /* \"@openzeppelin/contracts/proxy/transparent/ProxyAdmin.sol\":502:1944  contract ProxyAdmin is Ownable {... */\n      stop\n    tag_1:\n      swap2\n      swap1\n      dup3\n      mload\n      swap3\n      dup4\n      dup3\n      mstore\n      0x00\n    tag_66:\n      dup5\n      dup2\n      lt\n      tag_67\n      jumpi\n      pop\n      pop\n      dup3\n      0x00\n      0x20\n      dup1\n      swap5\n      swap6\n      dup5\n      add\n      add\n      mstore\n      0x1f\n      dup1\n      not\n      swap2\n      add\n      and\n      add\n      add\n      swap1\n      jump\t// out\n    tag_67:\n      0x20\n      dup2\n      dup4\n      add\n      dup2\n      add\n      mload\n      dup5\n      dup4\n      add\n      dup3\n      add\n      mstore\n      add\n      jump(tag_66)\n        /* \"@openzeppelin/contracts/access/Ownable.sol\":1796:1958  function _checkOwner() internal view virtual {... */\n    tag_2:\n        /* \"@openzeppelin/contracts/access/Ownable.sol\":1710:1716  _owner */\n      0x00\n        /* \"@openzeppelin/contracts/proxy/transparent/ProxyAdmin.sol\":502:1944  contract ProxyAdmin is Ownable {... */\n      sload\n      sub(shl(0xa0, 0x01), 0x01)\n      and\n        /* \"@openzeppelin/contracts/utils/Context.sol\":735:745  msg.sender */\n      caller\n        /* \"@openzeppelin/contracts/access/Ownable.sol\":1855:1878  owner() != _msgSender() */\n      sub\n        /* \"@openzeppelin/contracts/access/Ownable.sol\":1851:1952  if (owner() != _msgSender()) {... */\n      tag_69\n      jumpi\n        /* \"@openzeppelin/contracts/access/Ownable.sol\":1796:1958  function _checkOwner() internal view virtual {... */\n      jump\t// out\n        /* \"@openzeppelin/contracts/access/Ownable.sol\":1851:1952  if (owner() != _msgSender()) {... */\n    tag_69:\n        /* \"@openzeppelin/contracts/proxy/transparent/ProxyAdmin.sol\":502:1944  contract ProxyAdmin is Ownable {... */\n      mload(0x40)\n      shl(0xe0, 0x118cdaa7)\n        /* \"@openzeppelin/contracts/access/Ownable.sol\":1901:1941  OwnableUnauthorizedAccount(_msgSender()) */\n      dup2\n      mstore\n        /* \"@openzeppelin/contracts/utils/Context.sol\":735:745  msg.sender */\n      caller\n        /* \"@openzeppelin/contracts/access/Ownable.sol\":1901:1941  OwnableUnauthorizedAccount(_msgSender()) */\n      0x04\n      dup3\n      add\n        /* \"@openzeppelin/contracts/proxy/transparent/ProxyAdmin.sol\":502:1944  contract ProxyAdmin is Ownable {... */\n      mstore\n      0x24\n      swap1\n        /* \"@openzeppelin/contracts/access/Ownable.sol\":1901:1941  OwnableUnauthorizedAccount(_msgSender()) */\n      revert\n\n    auxdata: 0xa26469706673582212202511997dc6977dafd72956e9ad133465f75b5af624a4699435908ab7ae2c83ec64736f6c63430008180033\n}\n",
				"bytecode": {
					"linkReferences": {},
					"object": "6080346100b957601f61048338819003918201601f19168301916001600160401b038311848410176100bd578084926020946040528339810103126100b957516001600160a01b0390818116908190036100b95780156100a1575f80546001600160a01b03198116831782556040519316907f8be0079c531659141344cd1fd0a4f28419497f9722a3daafe3b4186f6b6457e09080a36103b190816100d28239f35b604051631e4fbdf760e01b81525f6004820152602490fd5b5f80fd5b634e487b7160e01b5f52604160045260245ffdfe604060808152600480361015610013575f80fd5b5f915f3560e01c8063715018a6146102bb5780638da5cb5b146102945780639623609d1461015c578063ad3cb1cc146100eb5763f2fde38b14610054575f80fd5b346100e75760203660031901126100e7576001600160a01b038235818116939192908490036100e357610085610350565b83156100cd5750505f54826bffffffffffffffffffffffff60a01b8216175f55167f8be0079c531659141344cd1fd0a4f28419497f9722a3daafe3b4186f6b6457e05f80a380f35b51631e4fbdf760e01b8152908101849052602490fd5b5f80fd5b8280fd5b5082346101595780600319360112610159575080519080820182811067ffffffffffffffff821117610146576101429350815260058252640352e302e360dc1b602083015251918291602083526020830190610312565b0390f35b604184634e487b7160e01b5f525260245ffd5b80fd5b5060603660031901126100e3576001600160a01b03823581811693908490036100e35760249182359081168091036100e35767ffffffffffffffff906044358281116100e357366023820112156100e3578084013583811161028257865191601f8201601f19908116603f0116830185811184821017610270578852818352368783830101116100e357815f92886020930183860137830101526101fe610350565b863b156100e357610230965f92875180998194829363278f794360e11b8452898401528a8a8401526044830190610312565b039134905af1801561026657610244578580f35b909192938095501161025557505052005b604190634e487b7160e01b5f52525ffd5b84513d5f823e3d90fd5b87604188634e487b7160e01b5f52525ffd5b85604186634e487b7160e01b5f52525ffd5b50346100e3575f3660031901126100e3575f5490516001600160a01b039091168152602090f35b346100e3575f3660031901126100e3576102d3610350565b5f80546001600160a01b0319811682556001600160a01b03167f8be0079c531659141344cd1fd0a4f28419497f9722a3daafe3b4186f6b6457e08280a3005b91908251928382525f5b84811061033c575050825f602080949584010152601f8019910116010190565b60208183018101518483018201520161031c565b5f546001600160a01b0316330361036357565b60405163118cdaa760e01b8152336004820152602490fdfea26469706673582212202511997dc6977dafd72956e9ad133465f75b5af624a4699435908ab7ae2c83ec64736f6c63430008180033",
					"opcodes": "PUSH1 0x80 CALLVALUE PUSH2 0xB9 JUMPI PUSH1 0x1F PUSH2 0x483 CODESIZE DUP2 SWAP1 SUB SWAP2 DUP3 ADD PUSH1 0x1F NOT AND DUP4 ADD SWAP2 PUSH1 0x1 PUSH1 0x1 PUSH1 0x40 SHL SUB DUP4 GT DUP5 DUP5 LT OR PUSH2 0xBD JUMPI DUP1 DUP5 SWAP3 PUSH1 0x20 SWAP5 PUSH1 0x40 MSTORE DUP4 CODECOPY DUP2 ADD SUB SLT PUSH2 0xB9 JUMPI MLOAD PUSH1 0x1 PUSH1 0x1 PUSH1 0xA0 SHL SUB SWAP1 DUP2 DUP2 AND SWAP1 DUP2 SWAP1 SUB PUSH2 0xB9 JUMPI DUP1 ISZERO PUSH2 0xA1 JUMPI PUSH0 DUP1 SLOAD PUSH1 0x1 PUSH1 0x1 PUSH1 0xA0 SHL SUB NOT DUP2 AND DUP4 OR DUP3 SSTORE PUSH1 0x40 MLOAD SWAP4 AND SWAP1 PUSH32 0x8BE0079C531659141344CD1FD0A4F28419497F9722A3DAAFE3B4186F6B6457E0 SWAP1 DUP1 LOG3 PUSH2 0x3B1 SWAP1 DUP2 PUSH2 0xD2 DUP3 CODECOPY RETURN JUMPDEST PUSH1 0x40 MLOAD PUSH4 0x1E4FBDF7 PUSH1 0xE0 SHL DUP2 MSTORE PUSH0 PUSH1 0x4 DUP3 ADD MSTORE PUSH1 0x24 SWAP1 REVERT JUMPDEST PUSH0 DUP1 REVERT JUMPDEST PUSH4 0x4E487B71 PUSH1 0xE0 SHL PUSH0 MSTORE PUSH1 0x41 PUSH1 0x4 MSTORE PUSH1 0x24 PUSH0 REVERT INVALID PUSH1 0x40 PUSH1 0x80 DUP2 MSTORE PUSH1 0x4 DUP1 CALLDATASIZE LT ISZERO PUSH2 0x13 JUMPI PUSH0 DUP1 REVERT JUMPDEST PUSH0 SWAP2 PUSH0 CALLDATALOAD PUSH1 0xE0 SHR DUP1 PUSH4 0x715018A6 EQ PUSH2 0x2BB JUMPI DUP1 PUSH4 0x8DA5CB5B EQ PUSH2 0x294 JUMPI DUP1 PUSH4 0x9623609D EQ PUSH2 0x15C JUMPI DUP1 PUSH4 0xAD3CB1CC EQ PUSH2 0xEB JUMPI PUSH4 0xF2FDE38B EQ PUSH2 0x54 JUMPI PUSH0 DUP1 REVERT JUMPDEST CALLVALUE PUSH2 0xE7 JUMPI PUSH1 0x20 CALLDATASIZE PUSH1 0x3 NOT ADD SLT PUSH2 0xE7 JUMPI PUSH1 0x1 PUSH1 0x1 PUSH1 0xA0 SHL SUB DUP3 CALLDATALOAD DUP2 DUP2 AND SWAP4 SWAP2 SWAP3 SWAP1 DUP5 SWAP1 SUB PUSH2 0xE3 JUMPI PUSH2 0x85 PUSH2 0x350 JUMP JUMPDEST DUP4 ISZERO PUSH2 0xCD JUMPI POP POP PUSH0 SLOAD DUP3 PUSH12 0xFFFFFFFFFFFFFFFFFFFFFFFF PUSH1 0xA0 SHL DUP3 AND OR PUSH0 SSTORE AND PUSH32 0x8BE0079C531659141344CD1FD0A4F28419497F9722A3DAAFE3B4186F6B6457E0 PUSH0 DUP1 LOG3 DUP1 RETURN JUMPDEST MLOAD PUSH4 0x1E4FBDF7 PUSH1 0xE0 SHL DUP2 MSTORE SWAP1 DUP2 ADD DUP5 SWAP1 MSTORE PUSH1 0x24 SWAP1 REVERT JUMPDEST PUSH0 DUP1 REVERT JUMPDEST DUP3 DUP1 REVERT JUMPDEST POP DUP3 CALLVALUE PUSH2 0x159 JUMPI DUP1 PUSH1 0x3 NOT CALLDATASIZE ADD SLT PUSH2 0x159 JUMPI POP DUP1 MLOAD SWAP1 DUP1 DUP3 ADD DUP3 DUP2 LT PUSH8 0xFFFFFFFFFFFFFFFF DUP3 GT OR PUSH2 0x146 JUMPI PUSH2 0x142 SWAP4 POP DUP2 MSTORE PUSH1 0x5 DUP3 MSTORE PUSH5 0x352E302E3 PUSH1 0xDC SHL PUSH1 0x20 DUP4 ADD MSTORE MLOAD SWAP2 DUP3 SWAP2 PUSH1 0x20 DUP4 MSTORE PUSH1 0x20 DUP4 ADD SWAP1 PUSH2 0x312 JUMP JUMPDEST SUB SWAP1 RETURN JUMPDEST PUSH1 0x41 DUP5 PUSH4 0x4E487B71 PUSH1 0xE0 SHL PUSH0 MSTORE MSTORE PUSH1 0x24 PUSH0 REVERT JUMPDEST DUP1 REVERT JUMPDEST POP PUSH1 0x60 CALLDATASIZE PUSH1 0x3 NOT ADD SLT PUSH2 0xE3 JUMPI PUSH1 0x1 PUSH1 0x1 PUSH1 0xA0 SHL SUB DUP3 CALLDATALOAD DUP2 DUP2 AND SWAP4 SWAP1 DUP5 SWAP1 SUB PUSH2 0xE3 JUMPI PUSH1 0x24 SWAP2 DUP3 CALLDATALOAD SWAP1 DUP2 AND DUP1 SWAP2 SUB PUSH2 0xE3 JUMPI PUSH8 0xFFFFFFFFFFFFFFFF SWAP1 PUSH1 0x44 CALLDATALOAD DUP3 DUP2 GT PUSH2 0xE3 JUMPI CALLDATASIZE PUSH1 0x23 DUP3 ADD SLT ISZERO PUSH2 0xE3 JUMPI DUP1 DUP5 ADD CALLDATALOAD DUP4 DUP2 GT PUSH2 0x282 JUMPI DUP7 MLOAD SWAP2 PUSH1 0x1F DUP3 ADD PUSH1 0x1F NOT SWAP1 DUP2 AND PUSH1 0x3F ADD AND DUP4 ADD DUP6 DUP2 GT DUP5 DUP3 LT OR PUSH2 0x270 JUMPI DUP9 MSTORE DUP2 DUP4 MSTORE CALLDATASIZE DUP8 DUP4 DUP4 ADD ADD GT PUSH2 0xE3 JUMPI DUP2 PUSH0 SWAP3 DUP9 PUSH1 0x20 SWAP4 ADD DUP4 DUP7 ADD CALLDATACOPY DUP4 ADD ADD MSTORE PUSH2 0x1FE PUSH2 0x350 JUMP JUMPDEST DUP7 EXTCODESIZE ISZERO PUSH2 0xE3 JUMPI PUSH2 0x230 SWAP7 PUSH0 SWAP3 DUP8 MLOAD DUP1 SWAP10 DUP2 SWAP5 DUP3 SWAP4 PUSH4 0x278F7943 PUSH1 0xE1 SHL DUP5 MSTORE DUP10 DUP5 ADD MSTORE DUP11 DUP11 DUP5 ADD MSTORE PUSH1 0x44 DUP4 ADD SWAP1 PUSH2 0x312 JUMP JUMPDEST SUB SWAP2 CALLVALUE SWAP1 GAS CALL DUP1 ISZERO PUSH2 0x266 JUMPI PUSH2 0x244 JUMPI DUP6 DUP1 RETURN JUMPDEST SWAP1 SWAP2 SWAP3 SWAP4 DUP1 SWAP6 POP GT PUSH2 0x255 JUMPI POP POP MSTORE STOP JUMPDEST PUSH1 0x41 SWAP1 PUSH4 0x4E487B71 PUSH1 0xE0 SHL PUSH0 MSTORE MSTORE PUSH0 REVERT JUMPDEST DUP5 MLOAD RETURNDATASIZE PUSH0 DUP3 RETURNDATACOPY RETURNDATASIZE SWAP1 REVERT JUMPDEST DUP8 PUSH1 0x41 DUP9 PUSH4 0x4E487B71 PUSH1 0xE0 SHL PUSH0 MSTORE MSTORE PUSH0 REVERT JUMPDEST DUP6 PUSH1 0x41 DUP7 PUSH4 0x4E487B71 PUSH1 0xE0 SHL PUSH0 MSTORE MSTORE PUSH0 REVERT JUMPDEST POP CALLVALUE PUSH2 0xE3 JUMPI PUSH0 CALLDATASIZE PUSH1 0x3 NOT ADD SLT PUSH2 0xE3 JUMPI PUSH0 SLOAD SWAP1 MLOAD PUSH1 0x1 PUSH1 0x1 PUSH1 0xA0 SHL SUB SWAP1 SWAP2 AND DUP2 MSTORE PUSH1 0x20 SWAP1 RETURN JUMPDEST CALLVALUE PUSH2 0xE3 JUMPI PUSH0 CALLDATASIZE PUSH1 0x3 NOT ADD SLT PUSH2 0xE3 JUMPI PUSH2 0x2D3 PUSH2 0x350 JUMP JUMPDEST PUSH0 DUP1 SLOAD PUSH1 0x1 PUSH1 0x1 PUSH1 0xA0 SHL SUB NOT DUP2 AND DUP3 SSTORE PUSH1 0x1 PUSH1 0x1 PUSH1 0xA0 SHL SUB AND PUSH32 0x8BE0079C531659141344CD1FD0A4F28419497F9722A3DAAFE3B4186F6B6457E0 DUP3 DUP1 LOG3 STOP JUMPDEST SWAP2 SWAP1 DUP3 MLOAD SWAP3 DUP4 DUP3 MSTORE PUSH0 JUMPDEST DUP5 DUP2 LT PUSH2 0x33C JUMPI POP POP DUP3 PUSH0 PUSH1 0x20 DUP1 SWAP5 SWAP6 DUP5 ADD ADD MSTORE PUSH1 0x1F DUP1 NOT SWAP2 ADD AND ADD ADD SWAP1 JUMP JUMPDEST PUSH1 0x20 DUP2 DUP4 ADD DUP2 ADD MLOAD DUP5 DUP4 ADD DUP3 ADD MSTORE ADD PUSH2 0x31C JUMP JUMPDEST PUSH0 SLOAD PUSH1 0x1 PUSH1 0x1 PUSH1 0xA0 SHL SUB AND CALLER SUB PUSH2 0x363 JUMPI JUMP JUMPDEST PUSH1 0x40 MLOAD PUSH4 0x118CDAA7 PUSH1 0xE0 SHL DUP2 MSTORE CALLER PUSH1 0x4 DUP3 ADD MSTORE PUSH1 0x24 SWAP1 REVERT INVALID LOG2 PUSH5 0x6970667358 0x22 SLT KECCAK256 0x25 GT SWAP10 PUSH30 0xC6977DAFD72956E9AD133465F75B5AF624A4699435908AB7AE2C83EC6473 PUSH16 0x6C634300081800330000000000000000 "
				},
				"gasEstimates": {
					"creation": {
						"codeDepositCost": "189000",
						"executionCost": "infinite",
						"totalCost": "infinite"
					},
					"external": {
						"UPGRADE_INTERFACE_VERSION()": "infinite",
						"owner()": "2306",
						"renounceOwnership()": "28053",
						"transferOwnership(address)": "28206",
						"upgradeAndCall(address,address,bytes)": "infinite"
					}
				},
				"methodIdentifiers": {
					"UPGRADE_INTERFACE_VERSION()": "ad3cb1cc",
					"owner()": "8da5cb5b",
					"renounceOwnership()": "715018a6",
					"transferOwnership(address)": "f2fde38b",
					"upgradeAndCall(address,address,bytes)": "9623609d"
				}
			},
			"storageLayout": {
				"storage": [
					{
						"astId": 8,
						"contract": "@openzeppelin/contracts/proxy/transparent/ProxyAdmin.sol:ProxyAdmin",
						"label": "_owner",
						"offset": 0,
						"slot": "0",
						"type": "t_address"
					}
				],
				"types": {
					"t_address": {
						"encoding": "inplace",
						"label": "address",
						"numberOfBytes": "20"
					}
				}
			},
			"userdoc": {
				"kind": "user",
				"methods": {},
				"version": 1
			}
		}
	}
}