{
	"QuailFinance.sol": {
		"QuailFinance": {
			"abi": [
				{
					"inputs": [],
					"name": "ECDSAInvalidSignature",
					"type": "error"
				},
				{
					"inputs": [
						{
							"internalType": "uint256",
							"name": "length",
							"type": "uint256"
						}
					],
					"name": "ECDSAInvalidSignatureLength",
					"type": "error"
				},
				{
					"inputs": [
						{
							"internalType": "bytes32",
							"name": "s",
							"type": "bytes32"
						}
					],
					"name": "ECDSAInvalidSignatureS",
					"type": "error"
				},
				{
					"inputs": [],
					"name": "InvalidInitialization",
					"type": "error"
				},
				{
					"inputs": [],
					"name": "NotInitializing",
					"type": "error"
				},
				{
					"inputs": [
						{
							"internalType": "address",
							"name": "owner",
							"type": "address"
						}
					],
					"name": "OwnableInvalidOwner",
					"type": "error"
				},
				{
					"inputs": [
						{
							"internalType": "address",
							"name": "account",
							"type": "address"
						}
					],
					"name": "OwnableUnauthorizedAccount",
					"type": "error"
				},
				{
					"anonymous": false,
					"inputs": [
						{
							"indexed": false,
							"internalType": "uint64",
							"name": "version",
							"type": "uint64"
						}
					],
					"name": "Initialized",
					"type": "event"
				},
				{
					"anonymous": false,
					"inputs": [
						{
							"indexed": true,
							"internalType": "address",
							"name": "previousOwner",
							"type": "address"
						},
						{
							"indexed": true,
							"internalType": "address",
							"name": "newOwner",
							"type": "address"
						}
					],
					"name": "OwnershipTransferred",
					"type": "event"
				},
				{
					"anonymous": false,
					"inputs": [
						{
							"indexed": false,
							"internalType": "uint256",
							"name": "potId",
							"type": "uint256"
						},
						{
							"indexed": false,
							"internalType": "string",
							"name": "name",
							"type": "string"
						},
						{
							"indexed": false,
							"internalType": "address",
							"name": "participant",
							"type": "address"
						},
						{
							"indexed": false,
							"internalType": "uint256",
							"name": "amount",
							"type": "uint256"
						},
						{
							"indexed": false,
							"internalType": "uint256",
							"name": "rotationCycleInSeconds",
							"type": "uint256"
						},
						{
							"indexed": false,
							"internalType": "uint256",
							"name": "_interestDenominator",
							"type": "uint256"
						},
						{
							"indexed": false,
							"internalType": "uint256",
							"name": "_interestNumerator",
							"type": "uint256"
						},
						{
							"indexed": false,
							"internalType": "uint256",
							"name": "_numParticipants",
							"type": "uint256"
						}
					],
					"name": "ParticipantJoined",
					"type": "event"
				},
				{
					"anonymous": false,
					"inputs": [
						{
							"indexed": false,
							"internalType": "uint256",
							"name": "potId",
							"type": "uint256"
						},
						{
							"indexed": false,
							"internalType": "string",
							"name": "name",
							"type": "string"
						},
						{
							"indexed": false,
							"internalType": "address",
							"name": "creator",
							"type": "address"
						},
						{
							"indexed": false,
							"internalType": "uint256",
							"name": "amount",
							"type": "uint256"
						},
						{
							"indexed": false,
							"internalType": "uint256",
							"name": "rotationCycleInSeconds",
							"type": "uint256"
						},
						{
							"indexed": false,
							"internalType": "uint256",
							"name": "_interestDenominator",
							"type": "uint256"
						},
						{
							"indexed": false,
							"internalType": "uint256",
							"name": "_interestNumerator",
							"type": "uint256"
						},
						{
							"indexed": false,
							"internalType": "uint256",
							"name": "_numParticipants",
							"type": "uint256"
						},
						{
							"indexed": false,
							"internalType": "uint64",
							"name": "sequenceNumber",
							"type": "uint64"
						},
						{
							"indexed": false,
							"internalType": "bytes32",
							"name": "userCommitment",
							"type": "bytes32"
						}
					],
					"name": "PotCreated",
					"type": "event"
				},
				{
					"anonymous": false,
					"inputs": [
						{
							"indexed": false,
							"internalType": "uint256",
							"name": "potId",
							"type": "uint256"
						},
						{
							"indexed": false,
							"internalType": "address",
							"name": "winner",
							"type": "address"
						},
						{
							"indexed": false,
							"internalType": "uint256",
							"name": "round",
							"type": "uint256"
						},
						{
							"indexed": false,
							"internalType": "uint64",
							"name": "sequenceNumber",
							"type": "uint64"
						},
						{
							"indexed": false,
							"internalType": "bytes32",
							"name": "userCommitment",
							"type": "bytes32"
						},
						{
							"indexed": false,
							"internalType": "uint256",
							"name": "usedRiskPoolBalance",
							"type": "uint256"
						}
					],
					"name": "RotationCompleted",
					"type": "event"
				},
				{
					"inputs": [],
					"name": "BLAST",
					"outputs": [
						{
							"internalType": "contract IBlast",
							"name": "",
							"type": "address"
						}
					],
					"stateMutability": "view",
					"type": "function"
				},
				{
					"inputs": [],
					"name": "USDB",
					"outputs": [
						{
							"internalType": "contract IERC20Rebasing",
							"name": "",
							"type": "address"
						}
					],
					"stateMutability": "view",
					"type": "function"
				},
				{
					"inputs": [],
					"name": "admin",
					"outputs": [
						{
							"internalType": "address",
							"name": "",
							"type": "address"
						}
					],
					"stateMutability": "view",
					"type": "function"
				},
				{
					"inputs": [
						{
							"internalType": "uint256",
							"name": "_potId",
							"type": "uint256"
						},
						{
							"internalType": "uint256",
							"name": "_amount",
							"type": "uint256"
						}
					],
					"name": "calculateRiskPoolBalance",
					"outputs": [
						{
							"internalType": "uint256",
							"name": "",
							"type": "uint256"
						}
					],
					"stateMutability": "view",
					"type": "function"
				},
				{
					"inputs": [
						{
							"internalType": "address",
							"name": "newAdmin",
							"type": "address"
						}
					],
					"name": "changeAdminSigner",
					"outputs": [],
					"stateMutability": "nonpayable",
					"type": "function"
				},
				{
					"inputs": [
						{
							"internalType": "uint256",
							"name": "claimAmount",
							"type": "uint256"
						},
						{
							"internalType": "bytes32[]",
							"name": "merkleProof",
							"type": "bytes32[]"
						}
					],
					"name": "claimFunds",
					"outputs": [],
					"stateMutability": "nonpayable",
					"type": "function"
				},
				{
					"inputs": [],
					"name": "claimMyContractsGas",
					"outputs": [],
					"stateMutability": "nonpayable",
					"type": "function"
				},
				{
					"inputs": [
						{
							"internalType": "uint256",
							"name": "_potId",
							"type": "uint256"
						}
					],
					"name": "claimReward",
					"outputs": [],
					"stateMutability": "nonpayable",
					"type": "function"
				},
				{
					"inputs": [
						{
							"internalType": "string",
							"name": "_name",
							"type": "string"
						},
						{
							"internalType": "bytes32",
							"name": "userCommitment",
							"type": "bytes32"
						},
						{
							"internalType": "uint256",
							"name": "_rotationCycleInSeconds",
							"type": "uint256"
						},
						{
							"internalType": "uint256",
							"name": "_interestDenominator",
							"type": "uint256"
						},
						{
							"internalType": "uint256",
							"name": "_interestNumerator",
							"type": "uint256"
						},
						{
							"internalType": "uint256",
							"name": "_numParticipants",
							"type": "uint256"
						},
						{
							"internalType": "uint256",
							"name": "_amount",
							"type": "uint256"
						}
					],
					"name": "createPot",
					"outputs": [],
					"stateMutability": "payable",
					"type": "function"
				},
				{
					"inputs": [],
					"name": "getEntropyFee",
					"outputs": [
						{
							"internalType": "uint256",
							"name": "fee",
							"type": "uint256"
						}
					],
					"stateMutability": "view",
					"type": "function"
				},
				{
					"inputs": [
						{
							"internalType": "bytes32",
							"name": "_messageHash",
							"type": "bytes32"
						}
					],
					"name": "getEthSignedMessageHash",
					"outputs": [
						{
							"internalType": "bytes32",
							"name": "",
							"type": "bytes32"
						}
					],
					"stateMutability": "pure",
					"type": "function"
				},
				{
					"inputs": [
						{
							"internalType": "uint256",
							"name": "potId",
							"type": "uint256"
						}
					],
					"name": "getRiskPoolBalance",
					"outputs": [
						{
							"internalType": "uint256",
							"name": "riskPoolBalance",
							"type": "uint256"
						}
					],
					"stateMutability": "view",
					"type": "function"
				},
				{
					"inputs": [
						{
							"internalType": "address",
							"name": "",
							"type": "address"
						}
					],
					"name": "hasClaimed",
					"outputs": [
						{
							"internalType": "uint256",
							"name": "",
							"type": "uint256"
						}
					],
					"stateMutability": "view",
					"type": "function"
				},
				{
					"inputs": [
						{
							"internalType": "uint256",
							"name": "",
							"type": "uint256"
						},
						{
							"internalType": "uint256",
							"name": "",
							"type": "uint256"
						},
						{
							"internalType": "address",
							"name": "",
							"type": "address"
						}
					],
					"name": "hasJoinedPot",
					"outputs": [
						{
							"internalType": "bool",
							"name": "",
							"type": "bool"
						}
					],
					"stateMutability": "view",
					"type": "function"
				},
				{
					"inputs": [
						{
							"internalType": "address",
							"name": "_entropy",
							"type": "address"
						},
						{
							"internalType": "address",
							"name": "_entropyProvider",
							"type": "address"
						},
						{
							"internalType": "address",
							"name": "adminSigner",
							"type": "address"
						}
					],
					"name": "initialize",
					"outputs": [],
					"stateMutability": "nonpayable",
					"type": "function"
				},
				{
					"inputs": [
						{
							"internalType": "uint256",
							"name": "_potId",
							"type": "uint256"
						},
						{
							"internalType": "bytes",
							"name": "signature",
							"type": "bytes"
						},
						{
							"internalType": "uint256",
							"name": "nonce",
							"type": "uint256"
						}
					],
					"name": "joinPot",
					"outputs": [],
					"stateMutability": "nonpayable",
					"type": "function"
				},
				{
					"inputs": [],
					"name": "merkleRoot",
					"outputs": [
						{
							"internalType": "bytes32",
							"name": "",
							"type": "bytes32"
						}
					],
					"stateMutability": "view",
					"type": "function"
				},
				{
					"inputs": [],
					"name": "owner",
					"outputs": [
						{
							"internalType": "address",
							"name": "",
							"type": "address"
						}
					],
					"stateMutability": "view",
					"type": "function"
				},
				{
					"inputs": [],
					"name": "potCreationFee",
					"outputs": [
						{
							"internalType": "uint256",
							"name": "",
							"type": "uint256"
						}
					],
					"stateMutability": "view",
					"type": "function"
				},
				{
					"inputs": [
						{
							"internalType": "uint256",
							"name": "",
							"type": "uint256"
						}
					],
					"name": "pots",
					"outputs": [
						{
							"internalType": "string",
							"name": "name",
							"type": "string"
						},
						{
							"internalType": "uint256",
							"name": "amount",
							"type": "uint256"
						},
						{
							"internalType": "uint256",
							"name": "riskPoolBalance",
							"type": "uint256"
						},
						{
							"internalType": "uint256",
							"name": "useRiskPoolBalance",
							"type": "uint256"
						},
						{
							"internalType": "uint256",
							"name": "rotationCycleInSeconds",
							"type": "uint256"
						},
						{
							"internalType": "uint256",
							"name": "lastRotationTime",
							"type": "uint256"
						},
						{
							"internalType": "uint256",
							"name": "interestNumerator",
							"type": "uint256"
						},
						{
							"internalType": "uint256",
							"name": "interestDenominator",
							"type": "uint256"
						},
						{
							"internalType": "uint256",
							"name": "numParticipants",
							"type": "uint256"
						},
						{
							"internalType": "uint256",
							"name": "currentRound",
							"type": "uint256"
						},
						{
							"internalType": "uint64",
							"name": "sequenceNumber",
							"type": "uint64"
						},
						{
							"internalType": "address",
							"name": "potCreator",
							"type": "address"
						}
					],
					"stateMutability": "view",
					"type": "function"
				},
				{
					"inputs": [],
					"name": "renounceOwnership",
					"outputs": [],
					"stateMutability": "nonpayable",
					"type": "function"
				},
				{
					"inputs": [
						{
							"internalType": "uint256",
							"name": "_potId",
							"type": "uint256"
						},
						{
							"internalType": "bytes32",
							"name": "userCommitment",
							"type": "bytes32"
						},
						{
							"internalType": "bytes32",
							"name": "userRandom",
							"type": "bytes32"
						},
						{
							"internalType": "bytes32",
							"name": "providerRandom",
							"type": "bytes32"
						}
					],
					"name": "rotateLiquidity",
					"outputs": [],
					"stateMutability": "payable",
					"type": "function"
				},
				{
					"inputs": [
						{
							"internalType": "bytes32",
							"name": "_merkleRoot",
							"type": "bytes32"
						},
						{
							"internalType": "uint256",
							"name": "_amount",
							"type": "uint256"
						}
					],
					"name": "setMerkleRoot",
					"outputs": [],
					"stateMutability": "payable",
					"type": "function"
				},
				{
					"inputs": [],
					"name": "totalRevenue",
					"outputs": [
						{
							"internalType": "uint256",
							"name": "",
							"type": "uint256"
						}
					],
					"stateMutability": "view",
					"type": "function"
				},
				{
					"inputs": [],
					"name": "totalYielDeposited",
					"outputs": [
						{
							"internalType": "uint256",
							"name": "",
							"type": "uint256"
						}
					],
					"stateMutability": "view",
					"type": "function"
				},
				{
					"inputs": [
						{
							"internalType": "address",
							"name": "newOwner",
							"type": "address"
						}
					],
					"name": "transferOwnership",
					"outputs": [],
					"stateMutability": "nonpayable",
					"type": "function"
				},
				{
					"inputs": [
						{
							"internalType": "uint256",
							"name": "_amount",
							"type": "uint256"
						}
					],
					"name": "updatePotCreationFee",
					"outputs": [],
					"stateMutability": "nonpayable",
					"type": "function"
				},
				{
					"inputs": [],
					"name": "usdbToken",
					"outputs": [
						{
							"internalType": "contract IERC20",
							"name": "",
							"type": "address"
						}
					],
					"stateMutability": "view",
					"type": "function"
				},
				{
					"inputs": [
						{
							"internalType": "uint256",
							"name": "_potId",
							"type": "uint256"
						},
						{
							"internalType": "uint256",
							"name": "_amount",
							"type": "uint256"
						},
						{
							"internalType": "bytes",
							"name": "signature",
							"type": "bytes"
						},
						{
							"internalType": "uint256",
							"name": "nonce",
							"type": "uint256"
						}
					],
					"name": "useRiskPool",
					"outputs": [],
					"stateMutability": "nonpayable",
					"type": "function"
				},
				{
					"inputs": [],
					"name": "withdrawRevenue",
					"outputs": [],
					"stateMutability": "nonpayable",
					"type": "function"
				}
			],
			"devdoc": {
				"errors": {
					"ECDSAInvalidSignature()": [
						{
							"details": "The signature derives the `address(0)`."
						}
					],
					"ECDSAInvalidSignatureLength(uint256)": [
						{
							"details": "The signature has an invalid length."
						}
					],
					"ECDSAInvalidSignatureS(bytes32)": [
						{
							"details": "The signature has an S value that is in the upper half order."
						}
					],
					"InvalidInitialization()": [
						{
							"details": "The contract is already initialized."
						}
					],
					"NotInitializing()": [
						{
							"details": "The contract is not initializing."
						}
					],
					"OwnableInvalidOwner(address)": [
						{
							"details": "The owner is not a valid owner account. (eg. `address(0)`)"
						}
					],
					"OwnableUnauthorizedAccount(address)": [
						{
							"details": "The caller account is not authorized to perform an operation."
						}
					]
				},
				"events": {
					"Initialized(uint64)": {
						"details": "Triggered when the contract has been initialized or reinitialized."
					}
				},
				"kind": "dev",
				"methods": {
					"owner()": {
						"details": "Returns the address of the current owner."
					},
					"renounceOwnership()": {
						"details": "Leaves the contract without owner. It will not be possible to call `onlyOwner` functions. Can only be called by the current owner. NOTE: Renouncing ownership will leave the contract without an owner, thereby disabling any functionality that is only available to the owner."
					},
					"transferOwnership(address)": {
						"details": "Transfers ownership of the contract to a new account (`newOwner`). Can only be called by the current owner."
					}
				},
				"version": 1
			},
			"evm": {
				"assembly": "    /* \"QuailFinance.sol\":674:17755  contract QuailFinance is Initializable, OwnableUpgradeable {... */\n  mstore(0x40, 0x80)\n    /* \"QuailFinance.sol\":969:970  1 */\n  0x01\n    /* \"QuailFinance.sol\":941:970  uint256 private nextPotId = 1 */\n  0x04\n  sstore\n    /* \"QuailFinance.sol\":674:17755  contract QuailFinance is Initializable, OwnableUpgradeable {... */\n  callvalue\n  dup1\n  iszero\n  tag_1\n  jumpi\n  0x00\n  dup1\n  revert\ntag_1:\n  pop\n  dataSize(sub_0)\n  dup1\n  dataOffset(sub_0)\n  0x00\n  codecopy\n  0x00\n  return\nstop\n\nsub_0: assembly {\n        /* \"QuailFinance.sol\":674:17755  contract QuailFinance is Initializable, OwnableUpgradeable {... */\n      mstore(0x40, 0x80)\n      jumpi(tag_1, lt(calldatasize, 0x04))\n      shr(0xe0, calldataload(0x00))\n      dup1\n      0x818c5548\n      gt\n      tag_32\n      jumpi\n      dup1\n      0xc0c53b8b\n      gt\n      tag_33\n      jumpi\n      dup1\n      0xf2fde38b\n      gt\n      tag_34\n      jumpi\n      dup1\n      0xf2fde38b\n      eq\n      tag_28\n      jumpi\n      dup1\n      0xf78aedf9\n      eq\n      tag_29\n      jumpi\n      dup1\n      0xf851a440\n      eq\n      tag_30\n      jumpi\n      dup1\n      0xfa540801\n      eq\n      tag_31\n      jumpi\n      0x00\n      dup1\n      revert\n    tag_34:\n      dup1\n      0xc0c53b8b\n      eq\n      tag_24\n      jumpi\n      dup1\n      0xc3c3df4f\n      eq\n      tag_25\n      jumpi\n      dup1\n      0xca829f10\n      eq\n      tag_26\n      jumpi\n      dup1\n      0xec71687b\n      eq\n      tag_27\n      jumpi\n      0x00\n      dup1\n      revert\n    tag_33:\n      dup1\n      0x91dc969e\n      gt\n      tag_35\n      jumpi\n      dup1\n      0x91dc969e\n      eq\n      tag_20\n      jumpi\n      dup1\n      0x97d75776\n      eq\n      tag_21\n      jumpi\n      dup1\n      0xae169a50\n      eq\n      tag_22\n      jumpi\n      dup1\n      0xbf2d9e0b\n      eq\n      tag_23\n      jumpi\n      0x00\n      dup1\n      revert\n    tag_35:\n      dup1\n      0x818c5548\n      eq\n      tag_17\n      jumpi\n      dup1\n      0x82199e3f\n      eq\n      tag_18\n      jumpi\n      dup1\n      0x8da5cb5b\n      eq\n      tag_19\n      jumpi\n      0x00\n      dup1\n      revert\n    tag_32:\n      dup1\n      0x4da1ec40\n      gt\n      tag_36\n      jumpi\n      dup1\n      0x73b2e80e\n      gt\n      tag_37\n      jumpi\n      dup1\n      0x73b2e80e\n      eq\n      tag_13\n      jumpi\n      dup1\n      0x77d5d2dc\n      eq\n      tag_14\n      jumpi\n      dup1\n      0x7c382d0b\n      eq\n      tag_15\n      jumpi\n      dup1\n      0x7d77990c\n      eq\n      tag_16\n      jumpi\n      0x00\n      dup1\n      revert\n    tag_37:\n      dup1\n      0x4da1ec40\n      eq\n      tag_9\n      jumpi\n      dup1\n      0x4f573cb2\n      eq\n      tag_10\n      jumpi\n      dup1\n      0x61e7d805\n      eq\n      tag_11\n      jumpi\n      dup1\n      0x715018a6\n      eq\n      tag_12\n      jumpi\n      0x00\n      dup1\n      revert\n    tag_36:\n      dup1\n      0x2eb4a7ab\n      gt\n      tag_38\n      jumpi\n      dup1\n      0x2eb4a7ab\n      eq\n      tag_5\n      jumpi\n      dup1\n      0x31a0edec\n      eq\n      tag_6\n      jumpi\n      dup1\n      0x4a80409e\n      eq\n      tag_7\n      jumpi\n      dup1\n      0x4d781b31\n      eq\n      tag_8\n      jumpi\n      0x00\n      dup1\n      revert\n    tag_38:\n      dup1\n      0x07dd3f44\n      eq\n      tag_2\n      jumpi\n      dup1\n      0x0fae6443\n      eq\n      tag_3\n      jumpi\n      dup1\n      0x2d971e63\n      eq\n      tag_4\n      jumpi\n    tag_1:\n      0x00\n      dup1\n      revert\n        /* \"QuailFinance.sol\":1153:1186  uint256 public totalYielDeposited */\n    tag_2:\n      callvalue\n      dup1\n      iszero\n      tag_39\n      jumpi\n      0x00\n      dup1\n      revert\n    tag_39:\n      pop\n      tag_40\n      sload(0x07)\n      dup2\n      jump\n    tag_40:\n      mload(0x40)\n        /* \"#utility.yul\":160:185   */\n      swap1\n      dup2\n      mstore\n        /* \"#utility.yul\":148:150   */\n      0x20\n        /* \"#utility.yul\":133:151   */\n      add\n        /* \"QuailFinance.sol\":1153:1186  uint256 public totalYielDeposited */\n    tag_42:\n      mload(0x40)\n      dup1\n      swap2\n      sub\n      swap1\n      return\n        /* \"QuailFinance.sol\":6365:8361  function createPot(string memory _name, bytes32 userCommitment, uint256 _rotationCycleInSeconds, uint256 _interestDenominator, uint256 _interestNumerator, uint256 _numParticipants, uint256 _amount) public payable {... */\n    tag_3:\n      tag_44\n      tag_45\n      calldatasize\n      0x04\n      tag_46\n      jump\t// in\n    tag_45:\n      tag_47\n      jump\t// in\n    tag_44:\n      stop\n        /* \"QuailFinance.sol\":17420:17533  function getEntropyFee() public view returns (uint256 fee) {... */\n    tag_4:\n      callvalue\n      dup1\n      iszero\n      tag_48\n      jumpi\n      0x00\n      dup1\n      revert\n    tag_48:\n      pop\n      tag_40\n      tag_50\n      jump\t// in\n        /* \"QuailFinance.sol\":861:886  bytes32 public merkleRoot */\n    tag_5:\n      callvalue\n      dup1\n      iszero\n      tag_52\n      jumpi\n      0x00\n      dup1\n      revert\n    tag_52:\n      pop\n      tag_40\n      sload(0x03)\n      dup2\n      jump\n        /* \"QuailFinance.sol\":4423:4519  IERC20Rebasing public constant USDB = IERC20Rebasing(0x4200000000000000000000000000000000000022) */\n    tag_6:\n      callvalue\n      dup1\n      iszero\n      tag_57\n      jumpi\n      0x00\n      dup1\n      revert\n    tag_57:\n      pop\n      tag_58\n      add(shl(0x99, 0x21), 0x22)\n      dup2\n      jump\n    tag_58:\n      mload(0x40)\n      sub(shl(0xa0, 0x01), 0x01)\n        /* \"#utility.yul\":2206:2238   */\n      swap1\n      swap2\n      and\n        /* \"#utility.yul\":2188:2239   */\n      dup2\n      mstore\n        /* \"#utility.yul\":2176:2178   */\n      0x20\n        /* \"#utility.yul\":2161:2179   */\n      add\n        /* \"QuailFinance.sol\":4423:4519  IERC20Rebasing public constant USDB = IERC20Rebasing(0x4200000000000000000000000000000000000022) */\n      tag_42\n        /* \"#utility.yul\":2019:2245   */\n      jump\n        /* \"QuailFinance.sol\":1192:1215  IERC20 public usdbToken */\n    tag_7:\n      callvalue\n      dup1\n      iszero\n      tag_62\n      jumpi\n      0x00\n      dup1\n      revert\n    tag_62:\n      pop\n      sload(0x08)\n      tag_58\n      swap1\n      sub(shl(0xa0, 0x01), 0x01)\n      and\n      dup2\n      jump\n        /* \"QuailFinance.sol\":17538:17753  function getRiskPoolBalance(uint256 potId) public view returns (uint256 riskPoolBalance) {... */\n    tag_8:\n      callvalue\n      dup1\n      iszero\n      tag_67\n      jumpi\n      0x00\n      dup1\n      revert\n    tag_67:\n      pop\n      tag_40\n      tag_69\n      calldatasize\n      0x04\n      tag_70\n      jump\t// in\n    tag_69:\n        /* \"QuailFinance.sol\":17602:17625  uint256 riskPoolBalance */\n      0x00\n        /* \"QuailFinance.sol\":17655:17666  pots[potId] */\n      swap1\n      dup2\n      mstore\n        /* \"QuailFinance.sol\":17655:17659  pots */\n      0x0a\n        /* \"QuailFinance.sol\":17655:17666  pots[potId] */\n      0x20\n      mstore\n      0x40\n      swap1\n      keccak256\n        /* \"QuailFinance.sol\":17695:17714  pot.riskPoolBalance */\n      0x02\n      add\n      sload\n      swap1\n        /* \"QuailFinance.sol\":17538:17753  function getRiskPoolBalance(uint256 potId) public view returns (uint256 riskPoolBalance) {... */\n      jump\n        /* \"QuailFinance.sol\":1445:1529  mapping(uint256 => mapping(uint256 => mapping(address => bool))) public hasJoinedPot */\n    tag_9:\n      callvalue\n      dup1\n      iszero\n      tag_73\n      jumpi\n      0x00\n      dup1\n      revert\n    tag_73:\n      pop\n      tag_74\n      tag_75\n      calldatasize\n      0x04\n      tag_76\n      jump\t// in\n    tag_75:\n      0x0c\n      0x20\n      swap1\n      dup2\n      mstore\n      0x00\n      swap4\n      dup5\n      mstore\n      0x40\n      dup1\n      dup6\n      keccak256\n      dup3\n      mstore\n      swap3\n      dup5\n      mstore\n      dup3\n      dup5\n      keccak256\n      swap1\n      mstore\n      dup3\n      mstore\n      swap1\n      keccak256\n      sload\n      0xff\n      and\n      dup2\n      jump\n    tag_74:\n      mload(0x40)\n        /* \"#utility.yul\":3327:3341   */\n      swap1\n      iszero\n        /* \"#utility.yul\":3320:3342   */\n      iszero\n        /* \"#utility.yul\":3302:3343   */\n      dup2\n      mstore\n        /* \"#utility.yul\":3290:3292   */\n      0x20\n        /* \"#utility.yul\":3275:3293   */\n      add\n        /* \"QuailFinance.sol\":1445:1529  mapping(uint256 => mapping(uint256 => mapping(address => bool))) public hasJoinedPot */\n      tag_42\n        /* \"#utility.yul\":3162:3349   */\n      jump\n        /* \"QuailFinance.sol\":15078:15441  function withdrawRevenue() external onlyOwner {... */\n    tag_10:\n      callvalue\n      dup1\n      iszero\n      tag_80\n      jumpi\n      0x00\n      dup1\n      revert\n    tag_80:\n      pop\n      tag_44\n      tag_82\n      jump\t// in\n        /* \"QuailFinance.sol\":16158:17008  function claimFunds(uint256 claimAmount, bytes32[] calldata merkleProof) external {... */\n    tag_11:\n      callvalue\n      dup1\n      iszero\n      tag_83\n      jumpi\n      0x00\n      dup1\n      revert\n    tag_83:\n      pop\n      tag_44\n      tag_85\n      calldatasize\n      0x04\n      tag_86\n      jump\t// in\n    tag_85:\n      tag_87\n      jump\t// in\n        /* \"@openzeppelin/contracts-upgradeable/access/OwnableUpgradeable.sol\":3155:3256  function renounceOwnership() public virtual onlyOwner {... */\n    tag_12:\n      callvalue\n      dup1\n      iszero\n      tag_88\n      jumpi\n      0x00\n      dup1\n      revert\n    tag_88:\n      pop\n      tag_44\n      tag_90\n      jump\t// in\n        /* \"QuailFinance.sol\":1245:1290  mapping(address => uint256) public hasClaimed */\n    tag_13:\n      callvalue\n      dup1\n      iszero\n      tag_91\n      jumpi\n      0x00\n      dup1\n      revert\n    tag_91:\n      pop\n      tag_40\n      tag_93\n      calldatasize\n      0x04\n      tag_94\n      jump\t// in\n    tag_93:\n      mstore(0x20, 0x09)\n      0x00\n      swap1\n      dup2\n      mstore\n      0x40\n      swap1\n      keccak256\n      sload\n      dup2\n      jump\n        /* \"QuailFinance.sol\":15476:15586  function claimMyContractsGas() external onlyOwner{... */\n    tag_14:\n      callvalue\n      dup1\n      iszero\n      tag_97\n      jumpi\n      0x00\n      dup1\n      revert\n    tag_97:\n      pop\n      tag_44\n      tag_99\n      jump\t// in\n        /* \"QuailFinance.sol\":15724:15938  function setMerkleRoot(bytes32 _merkleRoot, uint256 _amount) external onlyOwner payable{... */\n    tag_15:\n      tag_44\n      tag_101\n      calldatasize\n      0x04\n      tag_102\n      jump\t// in\n    tag_101:\n      tag_103\n      jump\t// in\n        /* \"QuailFinance.sol\":14624:14842  function calculateRiskPoolBalance(uint256 _potId, uint256 _amount) public view returns (uint256) {... */\n    tag_16:\n      callvalue\n      dup1\n      iszero\n      tag_104\n      jumpi\n      0x00\n      dup1\n      revert\n    tag_104:\n      pop\n      tag_40\n      tag_106\n      calldatasize\n      0x04\n      tag_102\n      jump\t// in\n    tag_106:\n      tag_108\n      jump\t// in\n        /* \"QuailFinance.sol\":13503:14114  function useRiskPool(uint256 _potId, uint256 _amount, bytes memory signature, uint256 nonce) public {... */\n    tag_17:\n      callvalue\n      dup1\n      iszero\n      tag_110\n      jumpi\n      0x00\n      dup1\n      revert\n    tag_110:\n      pop\n      tag_44\n      tag_112\n      calldatasize\n      0x04\n      tag_113\n      jump\t// in\n    tag_112:\n      tag_114\n      jump\t// in\n        /* \"QuailFinance.sol\":16046:16152  function updatePotCreationFee(uint256 _amount) external onlyOwner{... */\n    tag_18:\n      callvalue\n      dup1\n      iszero\n      tag_115\n      jumpi\n      0x00\n      dup1\n      revert\n    tag_115:\n      pop\n      tag_44\n      tag_117\n      calldatasize\n      0x04\n      tag_70\n      jump\t// in\n    tag_117:\n      tag_118\n      jump\t// in\n        /* \"@openzeppelin/contracts-upgradeable/access/OwnableUpgradeable.sol\":2441:2585  function owner() public view virtual returns (address) {... */\n    tag_19:\n      callvalue\n      dup1\n      iszero\n      tag_119\n      jumpi\n      0x00\n      dup1\n      revert\n    tag_119:\n      pop\n        /* \"@openzeppelin/contracts-upgradeable/access/OwnableUpgradeable.sol\":1313:1335  OwnableStorageLocation */\n      0x9016d09d72d40fdae2fd8ceac6b6234c7706214fd39c1cd1e609a0528c199300\n        /* \"@openzeppelin/contracts-upgradeable/access/OwnableUpgradeable.sol\":2570:2578  $._owner */\n      sload\n      sub(shl(0xa0, 0x01), 0x01)\n      and\n        /* \"@openzeppelin/contracts-upgradeable/access/OwnableUpgradeable.sol\":2441:2585  function owner() public view virtual returns (address) {... */\n      jump(tag_58)\n        /* \"QuailFinance.sol\":15944:16040  function changeAdminSigner(address newAdmin) external onlyOwner{... */\n    tag_20:\n      callvalue\n      dup1\n      iszero\n      tag_124\n      jumpi\n      0x00\n      dup1\n      revert\n    tag_124:\n      pop\n      tag_44\n      tag_126\n      calldatasize\n      0x04\n      tag_94\n      jump\t// in\n    tag_126:\n      tag_127\n      jump\t// in\n        /* \"QuailFinance.sol\":998:1079  IBlast public constant BLAST = IBlast(0x4300000000000000000000000000000000000002) */\n    tag_21:\n      callvalue\n      dup1\n      iszero\n      tag_128\n      jumpi\n      0x00\n      dup1\n      revert\n    tag_128:\n      pop\n      tag_58\n      add(shl(0x98, 0x43), 0x02)\n      dup2\n      jump\n        /* \"QuailFinance.sol\":14120:14561  function claimReward(uint256 _potId) external {... */\n    tag_22:\n      callvalue\n      dup1\n      iszero\n      tag_133\n      jumpi\n      0x00\n      dup1\n      revert\n    tag_133:\n      pop\n      tag_44\n      tag_135\n      calldatasize\n      0x04\n      tag_70\n      jump\t// in\n    tag_135:\n      tag_136\n      jump\t// in\n        /* \"QuailFinance.sol\":1085:1112  uint256 public totalRevenue */\n    tag_23:\n      callvalue\n      dup1\n      iszero\n      tag_137\n      jumpi\n      0x00\n      dup1\n      revert\n    tag_137:\n      pop\n      tag_40\n      sload(0x05)\n      dup2\n      jump\n        /* \"QuailFinance.sol\":4525:5319  function initialize(address _entropy, address _entropyProvider, address adminSigner) public initializer {... */\n    tag_24:\n      callvalue\n      dup1\n      iszero\n      tag_141\n      jumpi\n      0x00\n      dup1\n      revert\n    tag_141:\n      pop\n      tag_44\n      tag_143\n      calldatasize\n      0x04\n      tag_144\n      jump\t// in\n    tag_143:\n      tag_145\n      jump\t// in\n        /* \"QuailFinance.sol\":1296:1331  mapping(uint256 => Pot) public pots */\n    tag_25:\n      callvalue\n      dup1\n      iszero\n      tag_146\n      jumpi\n      0x00\n      dup1\n      revert\n    tag_146:\n      pop\n      tag_147\n      tag_148\n      calldatasize\n      0x04\n      tag_70\n      jump\t// in\n    tag_148:\n      tag_149\n      jump\t// in\n    tag_147:\n      mload(0x40)\n      tag_42\n      swap13\n      swap12\n      swap11\n      swap10\n      swap9\n      swap8\n      swap7\n      swap6\n      swap5\n      swap4\n      swap3\n      swap2\n      swap1\n      tag_151\n      jump\t// in\n        /* \"QuailFinance.sol\":11092:13006  function rotateLiquidity(uint256 _potId, bytes32 userCommitment, bytes32 userRandom, bytes32 providerRandom) external payable  {... */\n    tag_26:\n      tag_44\n      tag_153\n      calldatasize\n      0x04\n      tag_154\n      jump\t// in\n    tag_153:\n      tag_155\n      jump\t// in\n        /* \"QuailFinance.sol\":1118:1147  uint256 public potCreationFee */\n    tag_27:\n      callvalue\n      dup1\n      iszero\n      tag_156\n      jumpi\n      0x00\n      dup1\n      revert\n    tag_156:\n      pop\n      tag_40\n      sload(0x06)\n      dup2\n      jump\n        /* \"@openzeppelin/contracts-upgradeable/access/OwnableUpgradeable.sol\":3405:3620  function transferOwnership(address newOwner) public virtual onlyOwner {... */\n    tag_28:\n      callvalue\n      dup1\n      iszero\n      tag_160\n      jumpi\n      0x00\n      dup1\n      revert\n    tag_160:\n      pop\n      tag_44\n      tag_162\n      calldatasize\n      0x04\n      tag_94\n      jump\t// in\n    tag_162:\n      tag_163\n      jump\t// in\n        /* \"QuailFinance.sol\":9023:10111  function joinPot(uint256 _potId, bytes memory signature, uint256 nonce) external {... */\n    tag_29:\n      callvalue\n      dup1\n      iszero\n      tag_164\n      jumpi\n      0x00\n      dup1\n      revert\n    tag_164:\n      pop\n      tag_44\n      tag_166\n      calldatasize\n      0x04\n      tag_167\n      jump\t// in\n    tag_166:\n      tag_168\n      jump\t// in\n        /* \"QuailFinance.sol\":806:826  address public admin */\n    tag_30:\n      callvalue\n      dup1\n      iszero\n      tag_169\n      jumpi\n      0x00\n      dup1\n      revert\n    tag_169:\n      pop\n      sload(0x02)\n      tag_58\n      swap1\n      sub(shl(0xa0, 0x01), 0x01)\n      and\n      dup2\n      jump\n        /* \"QuailFinance.sol\":17014:17414  function getEthSignedMessageHash(bytes32 _messageHash)... */\n    tag_31:\n      callvalue\n      dup1\n      iszero\n      tag_173\n      jumpi\n      0x00\n      dup1\n      revert\n    tag_173:\n      pop\n      tag_40\n      tag_175\n      calldatasize\n      0x04\n      tag_70\n      jump\t// in\n    tag_175:\n      tag_177\n      jump\t// in\n        /* \"QuailFinance.sol\":6365:8361  function createPot(string memory _name, bytes32 userCommitment, uint256 _rotationCycleInSeconds, uint256 _interestDenominator, uint256 _interestNumerator, uint256 _numParticipants, uint256 _amount) public payable {... */\n    tag_47:\n        /* \"QuailFinance.sol\":6588:6599  uint256 fee */\n      0x00\n        /* \"QuailFinance.sol\":6602:6609  entropy */\n      dup1\n      sload\n      0x01\n        /* \"QuailFinance.sol\":6617:6632  entropyProvider */\n      sload\n        /* \"QuailFinance.sol\":6602:6633  entropy.getFee(entropyProvider) */\n      mload(0x40)\n      shl(0xe3, 0x17119229)\n      dup2\n      mstore\n      sub(shl(0xa0, 0x01), 0x01)\n        /* \"QuailFinance.sol\":6617:6632  entropyProvider */\n      swap2\n      dup3\n      and\n        /* \"QuailFinance.sol\":6602:6633  entropy.getFee(entropyProvider) */\n      0x04\n      dup3\n      add\n        /* \"#utility.yul\":2188:2239   */\n      mstore\n        /* \"QuailFinance.sol\":6602:6609  entropy */\n      swap2\n      and\n      swap1\n        /* \"QuailFinance.sol\":6602:6616  entropy.getFee */\n      0xb88c9148\n      swap1\n        /* \"#utility.yul\":2161:2179   */\n      0x24\n      add\n        /* \"QuailFinance.sol\":6602:6633  entropy.getFee(entropyProvider) */\n      0x20\n      mload(0x40)\n      dup1\n      dup4\n      sub\n      dup2\n      dup7\n      gas\n      staticcall\n      iszero\n      dup1\n      iszero\n      tag_182\n      jumpi\n      returndatasize\n      0x00\n      dup1\n      returndatacopy\n      revert(0x00, returndatasize)\n    tag_182:\n      pop\n      pop\n      pop\n      pop\n      mload(0x40)\n      returndatasize\n      not(0x1f)\n      0x1f\n      dup3\n      add\n      and\n      dup3\n      add\n      dup1\n      0x40\n      mstore\n      pop\n      dup2\n      add\n      swap1\n      tag_183\n      swap2\n      swap1\n      tag_184\n      jump\t// in\n    tag_183:\n      sub(shl(0x80, 0x01), 0x01)\n        /* \"QuailFinance.sol\":6588:6633  uint256 fee = entropy.getFee(entropyProvider) */\n      and\n      swap1\n      pop\n        /* \"QuailFinance.sol\":6668:6682  potCreationFee */\n      sload(0x06)\n        /* \"QuailFinance.sol\":6664:6667  fee */\n      dup2\n        /* \"QuailFinance.sol\":6664:6682  fee+potCreationFee */\n      tag_185\n      swap2\n      swap1\n      tag_186\n      jump\t// in\n    tag_185:\n        /* \"QuailFinance.sol\":6651:6660  msg.value */\n      callvalue\n        /* \"QuailFinance.sol\":6651:6682  msg.value == fee+potCreationFee */\n      eq\n        /* \"QuailFinance.sol\":6643:6703  require(msg.value == fee+potCreationFee, \"Insufficient fee\") */\n      tag_187\n      jumpi\n      mload(0x40)\n      shl(0xe5, 0x461bcd)\n      dup2\n      mstore\n        /* \"#utility.yul\":9547:9549   */\n      0x20\n        /* \"QuailFinance.sol\":6643:6703  require(msg.value == fee+potCreationFee, \"Insufficient fee\") */\n      0x04\n      dup3\n      add\n        /* \"#utility.yul\":9529:9550   */\n      mstore\n        /* \"#utility.yul\":9586:9588   */\n      0x10\n        /* \"#utility.yul\":9566:9584   */\n      0x24\n      dup3\n      add\n        /* \"#utility.yul\":9559:9589   */\n      mstore\n      shl(0x80, 0x496e73756666696369656e7420666565)\n        /* \"#utility.yul\":9605:9623   */\n      0x44\n      dup3\n      add\n        /* \"#utility.yul\":9598:9644   */\n      mstore\n        /* \"#utility.yul\":9661:9679   */\n      0x64\n      add\n        /* \"QuailFinance.sol\":6643:6703  require(msg.value == fee+potCreationFee, \"Insufficient fee\") */\n    tag_188:\n      mload(0x40)\n      dup1\n      swap2\n      sub\n      swap1\n      revert\n    tag_187:\n        /* \"QuailFinance.sol\":6748:6749  0 */\n      0x00\n        /* \"QuailFinance.sol\":6722:6745  _rotationCycleInSeconds */\n      dup7\n        /* \"QuailFinance.sol\":6722:6749  _rotationCycleInSeconds > 0 */\n      gt\n        /* \"QuailFinance.sol\":6714:6785  require(_rotationCycleInSeconds > 0, \"Rotation cycle must be positive\") */\n      tag_190\n      jumpi\n      mload(0x40)\n      shl(0xe5, 0x461bcd)\n      dup2\n      mstore\n        /* \"#utility.yul\":9892:9894   */\n      0x20\n        /* \"QuailFinance.sol\":6714:6785  require(_rotationCycleInSeconds > 0, \"Rotation cycle must be positive\") */\n      0x04\n      dup3\n      add\n        /* \"#utility.yul\":9874:9895   */\n      mstore\n        /* \"#utility.yul\":9931:9933   */\n      0x1f\n        /* \"#utility.yul\":9911:9929   */\n      0x24\n      dup3\n      add\n        /* \"#utility.yul\":9904:9934   */\n      mstore\n        /* \"#utility.yul\":9970:10003   */\n      0x526f746174696f6e206379636c65206d75737420626520706f73697469766500\n        /* \"#utility.yul\":9950:9968   */\n      0x44\n      dup3\n      add\n        /* \"#utility.yul\":9943:10004   */\n      mstore\n        /* \"#utility.yul\":10021:10039   */\n      0x64\n      add\n        /* \"QuailFinance.sol\":6714:6785  require(_rotationCycleInSeconds > 0, \"Rotation cycle must be positive\") */\n      tag_188\n        /* \"#utility.yul\":9690:10045   */\n      jump\n        /* \"QuailFinance.sol\":6714:6785  require(_rotationCycleInSeconds > 0, \"Rotation cycle must be positive\") */\n    tag_190:\n        /* \"QuailFinance.sol\":6826:6827  0 */\n      0x00\n        /* \"QuailFinance.sol\":6803:6823  _interestDenominator */\n      dup6\n        /* \"QuailFinance.sol\":6803:6827  _interestDenominator > 0 */\n      gt\n        /* \"QuailFinance.sol\":6795:6869  require(_interestDenominator > 0, \"Interest denominator must be positive\") */\n      tag_193\n      jumpi\n      mload(0x40)\n      shl(0xe5, 0x461bcd)\n      dup2\n      mstore\n        /* \"#utility.yul\":10252:10254   */\n      0x20\n        /* \"QuailFinance.sol\":6795:6869  require(_interestDenominator > 0, \"Interest denominator must be positive\") */\n      0x04\n      dup3\n      add\n        /* \"#utility.yul\":10234:10255   */\n      mstore\n        /* \"#utility.yul\":10291:10293   */\n      0x25\n        /* \"#utility.yul\":10271:10289   */\n      0x24\n      dup3\n      add\n        /* \"#utility.yul\":10264:10294   */\n      mstore\n        /* \"#utility.yul\":10330:10364   */\n      0x496e7465726573742064656e6f6d696e61746f72206d75737420626520706f73\n        /* \"#utility.yul\":10310:10328   */\n      0x44\n      dup3\n      add\n        /* \"#utility.yul\":10303:10365   */\n      mstore\n      shl(0xd8, 0x6974697665)\n        /* \"#utility.yul\":10381:10399   */\n      0x64\n      dup3\n      add\n        /* \"#utility.yul\":10374:10409   */\n      mstore\n        /* \"#utility.yul\":10426:10445   */\n      0x84\n      add\n        /* \"QuailFinance.sol\":6795:6869  require(_interestDenominator > 0, \"Interest denominator must be positive\") */\n      tag_188\n        /* \"#utility.yul\":10050:10451   */\n      jump\n        /* \"QuailFinance.sol\":6795:6869  require(_interestDenominator > 0, \"Interest denominator must be positive\") */\n    tag_193:\n        /* \"QuailFinance.sol\":6909:6929  _interestDenominator */\n      dup5\n        /* \"QuailFinance.sol\":6887:6905  _interestNumerator */\n      dup5\n        /* \"QuailFinance.sol\":6887:6929  _interestNumerator <= _interestDenominator */\n      gt\n      iszero\n        /* \"QuailFinance.sol\":6879:6985  require(_interestNumerator <= _interestDenominator, \"Numerator must be less than or equal to denominator\") */\n      tag_196\n      jumpi\n      mload(0x40)\n      shl(0xe5, 0x461bcd)\n      dup2\n      mstore\n        /* \"#utility.yul\":10658:10660   */\n      0x20\n        /* \"QuailFinance.sol\":6879:6985  require(_interestNumerator <= _interestDenominator, \"Numerator must be less than or equal to denominator\") */\n      0x04\n      dup3\n      add\n        /* \"#utility.yul\":10640:10661   */\n      mstore\n        /* \"#utility.yul\":10697:10699   */\n      0x33\n        /* \"#utility.yul\":10677:10695   */\n      0x24\n      dup3\n      add\n        /* \"#utility.yul\":10670:10700   */\n      mstore\n        /* \"#utility.yul\":10736:10770   */\n      0x4e756d657261746f72206d757374206265206c657373207468616e206f722065\n        /* \"#utility.yul\":10716:10734   */\n      0x44\n      dup3\n      add\n        /* \"#utility.yul\":10709:10771   */\n      mstore\n      shl(0x69, 0x38bab0b6103a37903232b737b6b4b730ba37b9)\n        /* \"#utility.yul\":10787:10805   */\n      0x64\n      dup3\n      add\n        /* \"#utility.yul\":10780:10829   */\n      mstore\n        /* \"#utility.yul\":10846:10865   */\n      0x84\n      add\n        /* \"QuailFinance.sol\":6879:6985  require(_interestNumerator <= _interestDenominator, \"Numerator must be less than or equal to denominator\") */\n      tag_188\n        /* \"#utility.yul\":10456:10871   */\n      jump\n        /* \"QuailFinance.sol\":6879:6985  require(_interestNumerator <= _interestDenominator, \"Numerator must be less than or equal to denominator\") */\n    tag_196:\n        /* \"QuailFinance.sol\":7011:7020  nextPotId */\n      0x04\n        /* \"QuailFinance.sol\":7011:7022  nextPotId++ */\n      dup1\n      sload\n        /* \"QuailFinance.sol\":6995:7008  uint256 potId */\n      0x00\n      swap2\n      dup3\n        /* \"QuailFinance.sol\":7011:7022  nextPotId++ */\n      tag_199\n      dup4\n      tag_200\n      jump\t// in\n    tag_199:\n      swap1\n      swap2\n      sstore\n      pop\n        /* \"QuailFinance.sol\":7040:7049  usdbToken */\n      sload(0x08)\n        /* \"QuailFinance.sol\":7040:7098  usdbToken.transferFrom(msg.sender, address(this), _amount) */\n      mload(0x40)\n      shl(0xe0, 0x23b872dd)\n      dup2\n      mstore\n        /* \"QuailFinance.sol\":7063:7073  msg.sender */\n      caller\n        /* \"QuailFinance.sol\":7040:7098  usdbToken.transferFrom(msg.sender, address(this), _amount) */\n      0x04\n      dup3\n      add\n        /* \"#utility.yul\":11256:11290   */\n      mstore\n        /* \"QuailFinance.sol\":7083:7087  this */\n      address\n        /* \"#utility.yul\":11306:11324   */\n      0x24\n      dup3\n      add\n        /* \"#utility.yul\":11299:11342   */\n      mstore\n        /* \"#utility.yul\":11358:11376   */\n      0x44\n      dup2\n      add\n        /* \"#utility.yul\":11351:11385   */\n      dup7\n      swap1\n      mstore\n        /* \"QuailFinance.sol\":6995:7022  uint256 potId = nextPotId++ */\n      swap2\n      swap3\n      pop\n      sub(shl(0xa0, 0x01), 0x01)\n        /* \"QuailFinance.sol\":7040:7049  usdbToken */\n      and\n      swap1\n        /* \"QuailFinance.sol\":7040:7062  usdbToken.transferFrom */\n      0x23b872dd\n      swap1\n        /* \"#utility.yul\":11191:11209   */\n      0x64\n      add\n        /* \"QuailFinance.sol\":7040:7098  usdbToken.transferFrom(msg.sender, address(this), _amount) */\n      0x20\n      mload(0x40)\n      dup1\n      dup4\n      sub\n      dup2\n      0x00\n      dup8\n      gas\n      call\n      iszero\n      dup1\n      iszero\n      tag_204\n      jumpi\n      returndatasize\n      0x00\n      dup1\n      returndatacopy\n      revert(0x00, returndatasize)\n    tag_204:\n      pop\n      pop\n      pop\n      pop\n      mload(0x40)\n      returndatasize\n      not(0x1f)\n      0x1f\n      dup3\n      add\n      and\n      dup3\n      add\n      dup1\n      0x40\n      mstore\n      pop\n      dup2\n      add\n      swap1\n      tag_205\n      swap2\n      swap1\n      tag_206\n      jump\t// in\n    tag_205:\n        /* \"QuailFinance.sol\":7032:7144  require(usdbToken.transferFrom(msg.sender, address(this), _amount), \"Creator should deposit the initial amount\") */\n      tag_207\n      jumpi\n      mload(0x40)\n      shl(0xe5, 0x461bcd)\n      dup2\n      mstore\n        /* \"#utility.yul\":11880:11882   */\n      0x20\n        /* \"QuailFinance.sol\":7032:7144  require(usdbToken.transferFrom(msg.sender, address(this), _amount), \"Creator should deposit the initial amount\") */\n      0x04\n      dup3\n      add\n        /* \"#utility.yul\":11862:11883   */\n      mstore\n        /* \"#utility.yul\":11919:11921   */\n      0x29\n        /* \"#utility.yul\":11899:11917   */\n      0x24\n      dup3\n      add\n        /* \"#utility.yul\":11892:11922   */\n      mstore\n        /* \"#utility.yul\":11958:11992   */\n      0x43726561746f722073686f756c64206465706f7369742074686520696e697469\n        /* \"#utility.yul\":11938:11956   */\n      0x44\n      dup3\n      add\n        /* \"#utility.yul\":11931:11993   */\n      mstore\n      shl(0xba, 0x185b08185b5bdd5b9d)\n        /* \"#utility.yul\":12009:12027   */\n      0x64\n      dup3\n      add\n        /* \"#utility.yul\":12002:12041   */\n      mstore\n        /* \"#utility.yul\":12058:12077   */\n      0x84\n      add\n        /* \"QuailFinance.sol\":7032:7144  require(usdbToken.transferFrom(msg.sender, address(this), _amount), \"Creator should deposit the initial amount\") */\n      tag_188\n        /* \"#utility.yul\":11678:12083   */\n      jump\n        /* \"QuailFinance.sol\":7032:7144  require(usdbToken.transferFrom(msg.sender, address(this), _amount), \"Creator should deposit the initial amount\") */\n    tag_207:\n        /* \"QuailFinance.sol\":7154:7175  uint64 sequenceNumber */\n      0x00\n        /* \"QuailFinance.sol\":7178:7185  entropy */\n      dup1\n      sload\n      0x01\n        /* \"QuailFinance.sol\":7219:7234  entropyProvider */\n      dup1\n      sload\n        /* \"QuailFinance.sol\":7178:7290  entropy.request{value: fee}(... */\n      mload(0x40)\n      shl(0xe0, 0x93cbf217)\n      dup2\n      mstore\n      sub(shl(0xa0, 0x01), 0x01)\n        /* \"QuailFinance.sol\":7219:7234  entropyProvider */\n      swap2\n      dup3\n      and\n        /* \"QuailFinance.sol\":7178:7290  entropy.request{value: fee}(... */\n      0x04\n      dup3\n      add\n        /* \"#utility.yul\":12284:12335   */\n      mstore\n        /* \"#utility.yul\":12351:12369   */\n      0x24\n      dup2\n      add\n        /* \"#utility.yul\":12344:12378   */\n      dup14\n      swap1\n      mstore\n        /* \"#utility.yul\":12394:12412   */\n      0x44\n      dup2\n      add\n        /* \"#utility.yul\":12387:12437   */\n      swap3\n      swap1\n      swap3\n      mstore\n        /* \"QuailFinance.sol\":7178:7185  entropy */\n      swap1\n      swap2\n      and\n      swap1\n        /* \"QuailFinance.sol\":7178:7193  entropy.request */\n      0x93cbf217\n      swap1\n        /* \"QuailFinance.sol\":7201:7204  fee */\n      dup6\n      swap1\n        /* \"#utility.yul\":12257:12275   */\n      0x64\n      add\n        /* \"QuailFinance.sol\":7178:7290  entropy.request{value: fee}(... */\n      0x20\n      mload(0x40)\n      dup1\n      dup4\n      sub\n      dup2\n      dup6\n      dup9\n      gas\n      call\n      iszero\n      dup1\n      iszero\n      tag_213\n      jumpi\n      returndatasize\n      0x00\n      dup1\n      returndatacopy\n      revert(0x00, returndatasize)\n    tag_213:\n      pop\n      pop\n      pop\n      pop\n      pop\n      mload(0x40)\n      returndatasize\n      not(0x1f)\n      0x1f\n      dup3\n      add\n      and\n      dup3\n      add\n      dup1\n      0x40\n      mstore\n      pop\n      dup2\n      add\n      swap1\n      tag_214\n      swap2\n      swap1\n      tag_215\n      jump\t// in\n    tag_214:\n        /* \"QuailFinance.sol\":7154:7290  uint64 sequenceNumber = entropy.request{value: fee}(... */\n      swap1\n      pop\n        /* \"QuailFinance.sol\":7316:7330  potCreationFee */\n      sload(0x06)\n        /* \"QuailFinance.sol\":7300:7312  totalRevenue */\n      0x05\n      0x00\n        /* \"QuailFinance.sol\":7300:7330  totalRevenue += potCreationFee */\n      dup3\n      dup3\n      sload\n      tag_216\n      swap2\n      swap1\n      tag_186\n      jump\t// in\n    tag_216:\n      swap1\n      swap2\n      sstore\n      pop\n      pop\n        /* \"QuailFinance.sol\":7378:7396  Pot storage newPot */\n      0x00\n        /* \"QuailFinance.sol\":7399:7410  pots[potId] */\n      dup3\n      dup2\n      mstore\n        /* \"QuailFinance.sol\":7399:7403  pots */\n      0x0a\n        /* \"QuailFinance.sol\":7399:7410  pots[potId] */\n      0x20\n      mstore\n      0x40\n      swap1\n      keccak256\n      dup1\n        /* \"QuailFinance.sol\":7420:7439  newPot.name = _name */\n      tag_217\n        /* \"QuailFinance.sol\":7434:7439  _name */\n      dup13\n        /* \"QuailFinance.sol\":7399:7410  pots[potId] */\n      dup3\n        /* \"QuailFinance.sol\":7420:7439  newPot.name = _name */\n      tag_218\n      jump\t// in\n    tag_217:\n      pop\n        /* \"QuailFinance.sol\":7465:7472  _amount */\n      dup5\n        /* \"QuailFinance.sol\":7449:7455  newPot */\n      dup2\n        /* \"QuailFinance.sol\":7449:7462  newPot.amount */\n      0x01\n      add\n        /* \"QuailFinance.sol\":7449:7472  newPot.amount = _amount */\n      dup2\n      swap1\n      sstore\n      pop\n        /* \"QuailFinance.sol\":7507:7508  0 */\n      0x00\n        /* \"QuailFinance.sol\":7482:7488  newPot */\n      dup2\n        /* \"QuailFinance.sol\":7482:7504  newPot.riskPoolBalance */\n      0x02\n      add\n        /* \"QuailFinance.sol\":7482:7508  newPot.riskPoolBalance = 0 */\n      dup2\n      swap1\n      sstore\n      pop\n        /* \"QuailFinance.sol\":7542:7556  sequenceNumber */\n      dup2\n        /* \"QuailFinance.sol\":7518:7524  newPot */\n      dup2\n        /* \"QuailFinance.sol\":7518:7539  newPot.sequenceNumber */\n      0x0a\n      add\n      0x00\n        /* \"QuailFinance.sol\":7518:7556  newPot.sequenceNumber = sequenceNumber */\n      0x0100\n      exp\n      dup2\n      sload\n      dup2\n      sub(shl(0x40, 0x01), 0x01)\n      mul\n      not\n      and\n      swap1\n      dup4\n      sub(shl(0x40, 0x01), 0x01)\n      and\n      mul\n      or\n      swap1\n      sstore\n      pop\n        /* \"QuailFinance.sol\":7586:7596  msg.sender */\n      caller\n        /* \"QuailFinance.sol\":7566:7572  newPot */\n      dup2\n        /* \"QuailFinance.sol\":7566:7583  newPot.potCreator */\n      0x0a\n      add\n      0x08\n        /* \"QuailFinance.sol\":7566:7596  newPot.potCreator = msg.sender */\n      0x0100\n      exp\n      dup2\n      sload\n      dup2\n      sub(shl(0xa0, 0x01), 0x01)\n      mul\n      not\n      and\n      swap1\n      dup4\n      sub(shl(0xa0, 0x01), 0x01)\n      and\n      mul\n      or\n      swap1\n      sstore\n      pop\n        /* \"QuailFinance.sol\":7638:7661  _rotationCycleInSeconds */\n      dup9\n        /* \"QuailFinance.sol\":7606:7612  newPot */\n      dup2\n        /* \"QuailFinance.sol\":7606:7635  newPot.rotationCycleInSeconds */\n      0x04\n      add\n        /* \"QuailFinance.sol\":7606:7661  newPot.rotationCycleInSeconds = _rotationCycleInSeconds */\n      dup2\n      swap1\n      sstore\n      pop\n        /* \"QuailFinance.sol\":7698:7716  _interestNumerator */\n      dup7\n        /* \"QuailFinance.sol\":7671:7677  newPot */\n      dup2\n        /* \"QuailFinance.sol\":7671:7695  newPot.interestNumerator */\n      0x06\n      add\n        /* \"QuailFinance.sol\":7671:7716  newPot.interestNumerator = _interestNumerator */\n      dup2\n      swap1\n      sstore\n      pop\n        /* \"QuailFinance.sol\":7755:7775  _interestDenominator */\n      dup8\n        /* \"QuailFinance.sol\":7726:7732  newPot */\n      dup2\n        /* \"QuailFinance.sol\":7726:7752  newPot.interestDenominator */\n      0x07\n      add\n        /* \"QuailFinance.sol\":7726:7775  newPot.interestDenominator = _interestDenominator */\n      dup2\n      swap1\n      sstore\n      pop\n        /* \"QuailFinance.sol\":7811:7826  block.timestamp */\n      timestamp\n        /* \"QuailFinance.sol\":7785:7791  newPot */\n      dup2\n        /* \"QuailFinance.sol\":7785:7808  newPot.lastRotationTime */\n      0x05\n      add\n        /* \"QuailFinance.sol\":7785:7826  newPot.lastRotationTime = block.timestamp */\n      dup2\n      swap1\n      sstore\n      pop\n        /* \"QuailFinance.sol\":7861:7877  _numParticipants */\n      dup6\n        /* \"QuailFinance.sol\":7836:7842  newPot */\n      dup2\n        /* \"QuailFinance.sol\":7836:7858  newPot.numParticipants */\n      0x08\n      add\n        /* \"QuailFinance.sol\":7836:7877  newPot.numParticipants = _numParticipants */\n      dup2\n      swap1\n      sstore\n      pop\n        /* \"QuailFinance.sol\":7909:7910  1 */\n      0x01\n        /* \"QuailFinance.sol\":7887:7893  newPot */\n      dup2\n        /* \"QuailFinance.sol\":7887:7906  newPot.currentRound */\n      0x09\n      add\n        /* \"QuailFinance.sol\":7887:7910  newPot.currentRound = 1 */\n      dup2\n      swap1\n      sstore\n      pop\n        /* \"QuailFinance.sol\":7920:7926  newPot */\n      dup1\n        /* \"QuailFinance.sol\":7920:7939  newPot.participants */\n      0x0b\n      add\n        /* \"QuailFinance.sol\":7945:7955  msg.sender */\n      caller\n        /* \"QuailFinance.sol\":7920:7956  newPot.participants.push(msg.sender) */\n      swap1\n      dup1\n      0x01\n      dup2\n      sload\n      add\n      dup1\n      dup3\n      sstore\n      dup1\n      swap2\n      pop\n      pop\n      0x01\n      swap1\n      sub\n      swap1\n      0x00\n      mstore\n      keccak256(0x00, 0x20)\n      add\n      0x00\n      swap1\n      swap2\n      swap1\n      swap2\n      swap1\n      swap2\n      0x0100\n      exp\n      dup2\n      sload\n      dup2\n      sub(shl(0xa0, 0x01), 0x01)\n      mul\n      not\n      and\n      swap1\n      dup4\n      sub(shl(0xa0, 0x01), 0x01)\n      and\n      mul\n      or\n      swap1\n      sstore\n      pop\n        /* \"QuailFinance.sol\":8021:8025  true */\n      0x01\n        /* \"QuailFinance.sol\":7966:7978  hasJoinedPot */\n      0x0c\n        /* \"QuailFinance.sol\":7966:7985  hasJoinedPot[potId] */\n      0x00\n        /* \"QuailFinance.sol\":7979:7984  potId */\n      dup6\n        /* \"QuailFinance.sol\":7966:7985  hasJoinedPot[potId] */\n      dup2\n      mstore\n      0x20\n      add\n      swap1\n      dup2\n      mstore\n      0x20\n      add\n      0x00\n      keccak256\n        /* \"QuailFinance.sol\":7966:8006  hasJoinedPot[potId][newPot.currentRound] */\n      0x00\n        /* \"QuailFinance.sol\":7986:7992  newPot */\n      dup4\n        /* \"QuailFinance.sol\":7986:8005  newPot.currentRound */\n      0x09\n      add\n      sload\n        /* \"QuailFinance.sol\":7966:8006  hasJoinedPot[potId][newPot.currentRound] */\n      dup2\n      mstore\n      0x20\n      add\n      swap1\n      dup2\n      mstore\n      0x20\n      add\n      0x00\n      keccak256\n        /* \"QuailFinance.sol\":7966:8018  hasJoinedPot[potId][newPot.currentRound][msg.sender] */\n      0x00\n        /* \"QuailFinance.sol\":8007:8017  msg.sender */\n      caller\n      sub(shl(0xa0, 0x01), 0x01)\n        /* \"QuailFinance.sol\":7966:8018  hasJoinedPot[potId][newPot.currentRound][msg.sender] */\n      and\n      sub(shl(0xa0, 0x01), 0x01)\n      and\n      dup2\n      mstore\n      0x20\n      add\n      swap1\n      dup2\n      mstore\n      0x20\n      add\n      0x00\n      keccak256\n      0x00\n        /* \"QuailFinance.sol\":7966:8025  hasJoinedPot[potId][newPot.currentRound][msg.sender] = true */\n      0x0100\n      exp\n      dup2\n      sload\n      dup2\n      0xff\n      mul\n      not\n      and\n      swap1\n      dup4\n      iszero\n      iszero\n      mul\n      or\n      swap1\n      sstore\n      pop\n        /* \"QuailFinance.sol\":8217:8354  ParticipantJoined(potId, _name, msg.sender, _amount, _rotationCycleInSeconds, _interestNumerator, _interestDenominator, _numParticipants) */\n      0x43d2f309913f6afc5d717f60864d2d192b69963d25204b6a12765e2795bf027f\n        /* \"QuailFinance.sol\":8235:8240  potId */\n      dup4\n        /* \"QuailFinance.sol\":8242:8247  _name */\n      dup13\n        /* \"QuailFinance.sol\":8249:8259  msg.sender */\n      caller\n        /* \"QuailFinance.sol\":8261:8268  _amount */\n      dup9\n        /* \"QuailFinance.sol\":8270:8293  _rotationCycleInSeconds */\n      dup14\n        /* \"QuailFinance.sol\":8295:8313  _interestNumerator */\n      dup13\n        /* \"QuailFinance.sol\":8315:8335  _interestDenominator */\n      dup15\n        /* \"QuailFinance.sol\":8337:8353  _numParticipants */\n      dup14\n        /* \"QuailFinance.sol\":8217:8354  ParticipantJoined(potId, _name, msg.sender, _amount, _rotationCycleInSeconds, _interestNumerator, _interestDenominator, _numParticipants) */\n      mload(0x40)\n      tag_220\n      swap9\n      swap8\n      swap7\n      swap6\n      swap5\n      swap4\n      swap3\n      swap2\n      swap1\n      tag_221\n      jump\t// in\n    tag_220:\n      mload(0x40)\n      dup1\n      swap2\n      sub\n      swap1\n      log1\n        /* \"QuailFinance.sol\":6578:8361  {... */\n      pop\n      pop\n      pop\n      pop\n        /* \"QuailFinance.sol\":6365:8361  function createPot(string memory _name, bytes32 userCommitment, uint256 _rotationCycleInSeconds, uint256 _interestDenominator, uint256 _interestNumerator, uint256 _numParticipants, uint256 _amount) public payable {... */\n      pop\n      pop\n      pop\n      pop\n      pop\n      pop\n      pop\n      jump\t// out\n        /* \"QuailFinance.sol\":17420:17533  function getEntropyFee() public view returns (uint256 fee) {... */\n    tag_50:\n        /* \"QuailFinance.sol\":17466:17477  uint256 fee */\n      0x00\n        /* \"QuailFinance.sol\":17495:17502  entropy */\n      dup1\n      sload\n      0x01\n        /* \"QuailFinance.sol\":17510:17525  entropyProvider */\n      sload\n        /* \"QuailFinance.sol\":17495:17526  entropy.getFee(entropyProvider) */\n      mload(0x40)\n      shl(0xe3, 0x17119229)\n      dup2\n      mstore\n      sub(shl(0xa0, 0x01), 0x01)\n        /* \"QuailFinance.sol\":17510:17525  entropyProvider */\n      swap2\n      dup3\n      and\n        /* \"QuailFinance.sol\":17495:17526  entropy.getFee(entropyProvider) */\n      0x04\n      dup3\n      add\n        /* \"#utility.yul\":2188:2239   */\n      mstore\n        /* \"QuailFinance.sol\":17495:17502  entropy */\n      swap2\n      and\n      swap1\n        /* \"QuailFinance.sol\":17495:17509  entropy.getFee */\n      0xb88c9148\n      swap1\n        /* \"#utility.yul\":2161:2179   */\n      0x24\n      add\n        /* \"QuailFinance.sol\":17495:17526  entropy.getFee(entropyProvider) */\n      0x20\n      mload(0x40)\n      dup1\n      dup4\n      sub\n      dup2\n      dup7\n      gas\n      staticcall\n      iszero\n      dup1\n      iszero\n      tag_225\n      jumpi\n      returndatasize\n      0x00\n      dup1\n      returndatacopy\n      revert(0x00, returndatasize)\n    tag_225:\n      pop\n      pop\n      pop\n      pop\n      mload(0x40)\n      returndatasize\n      not(0x1f)\n      0x1f\n      dup3\n      add\n      and\n      dup3\n      add\n      dup1\n      0x40\n      mstore\n      pop\n      dup2\n      add\n      swap1\n      tag_226\n      swap2\n      swap1\n      tag_184\n      jump\t// in\n    tag_226:\n      sub(shl(0x80, 0x01), 0x01)\n        /* \"QuailFinance.sol\":17489:17526  fee = entropy.getFee(entropyProvider) */\n      and\n      swap1\n      pop\n        /* \"QuailFinance.sol\":17420:17533  function getEntropyFee() public view returns (uint256 fee) {... */\n      swap1\n      jump\t// out\n        /* \"QuailFinance.sol\":15078:15441  function withdrawRevenue() external onlyOwner {... */\n    tag_82:\n        /* \"@openzeppelin/contracts-upgradeable/access/OwnableUpgradeable.sol\":2334:2347  _checkOwner() */\n      tag_229\n        /* \"@openzeppelin/contracts-upgradeable/access/OwnableUpgradeable.sol\":2334:2345  _checkOwner */\n      tag_230\n        /* \"@openzeppelin/contracts-upgradeable/access/OwnableUpgradeable.sol\":2334:2347  _checkOwner() */\n      jump\t// in\n    tag_229:\n        /* \"QuailFinance.sol\":15158:15170  totalRevenue */\n      sload(0x05)\n        /* \"QuailFinance.sol\":15188:15205  revenueAmount > 0 */\n      dup1\n        /* \"QuailFinance.sol\":15180:15232  require(revenueAmount > 0, \"No revenue to withdraw\") */\n      tag_232\n      jumpi\n      mload(0x40)\n      shl(0xe5, 0x461bcd)\n      dup2\n      mstore\n        /* \"#utility.yul\":16272:16274   */\n      0x20\n        /* \"QuailFinance.sol\":15180:15232  require(revenueAmount > 0, \"No revenue to withdraw\") */\n      0x04\n      dup3\n      add\n        /* \"#utility.yul\":16254:16275   */\n      mstore\n        /* \"#utility.yul\":16311:16313   */\n      0x16\n        /* \"#utility.yul\":16291:16309   */\n      0x24\n      dup3\n      add\n        /* \"#utility.yul\":16284:16314   */\n      mstore\n      shl(0x50, 0x4e6f20726576656e756520746f207769746864726177)\n        /* \"#utility.yul\":16330:16348   */\n      0x44\n      dup3\n      add\n        /* \"#utility.yul\":16323:16375   */\n      mstore\n        /* \"#utility.yul\":16392:16410   */\n      0x64\n      add\n        /* \"QuailFinance.sol\":15180:15232  require(revenueAmount > 0, \"No revenue to withdraw\") */\n      tag_188\n        /* \"#utility.yul\":16070:16416   */\n      jump\n        /* \"QuailFinance.sol\":15180:15232  require(revenueAmount > 0, \"No revenue to withdraw\") */\n    tag_232:\n        /* \"QuailFinance.sol\":15257:15258  0 */\n      0x00\n        /* \"QuailFinance.sol\":15242:15254  totalRevenue */\n      0x05\n        /* \"QuailFinance.sol\":15242:15258  totalRevenue = 0 */\n      dup2\n      swap1\n      sstore\n        /* \"QuailFinance.sol\":15390:15433  payable(msg.sender).transfer(revenueAmount) */\n      mload(0x40)\n        /* \"QuailFinance.sol\":15398:15408  msg.sender */\n      caller\n      swap2\n        /* \"QuailFinance.sol\":15390:15433  payable(msg.sender).transfer(revenueAmount) */\n      dup4\n      iszero\n      0x08fc\n      mul\n      swap2\n        /* \"QuailFinance.sol\":15419:15432  revenueAmount */\n      dup5\n      swap2\n        /* \"QuailFinance.sol\":15390:15433  payable(msg.sender).transfer(revenueAmount) */\n      dup2\n        /* \"QuailFinance.sol\":15257:15258  0 */\n      dup2\n        /* \"QuailFinance.sol\":15390:15433  payable(msg.sender).transfer(revenueAmount) */\n      dup2\n        /* \"QuailFinance.sol\":15419:15432  revenueAmount */\n      dup6\n        /* \"QuailFinance.sol\":15398:15408  msg.sender */\n      dup9\n        /* \"QuailFinance.sol\":15390:15433  payable(msg.sender).transfer(revenueAmount) */\n      dup9\n      call\n      swap4\n      pop\n      pop\n      pop\n      pop\n      iszero\n      dup1\n      iszero\n      tag_236\n      jumpi\n      returndatasize\n      0x00\n      dup1\n      returndatacopy\n      revert(0x00, returndatasize)\n    tag_236:\n      pop\n        /* \"QuailFinance.sol\":15124:15441  {... */\n      pop\n        /* \"QuailFinance.sol\":15078:15441  function withdrawRevenue() external onlyOwner {... */\n      jump\t// out\n        /* \"QuailFinance.sol\":16158:17008  function claimFunds(uint256 claimAmount, bytes32[] calldata merkleProof) external {... */\n    tag_87:\n        /* \"QuailFinance.sol\":16310:16351  abi.encodePacked(msg.sender, claimAmount) */\n      mload(0x40)\n      not(sub(shl(0x60, 0x01), 0x01))\n        /* \"QuailFinance.sol\":16327:16337  msg.sender */\n      caller\n        /* \"#utility.yul\":16598:16600   */\n      0x60\n        /* \"#utility.yul\":16594:16609   */\n      shl\n        /* \"#utility.yul\":16590:16643   */\n      and\n        /* \"QuailFinance.sol\":16310:16351  abi.encodePacked(msg.sender, claimAmount) */\n      0x20\n      dup3\n      add\n        /* \"#utility.yul\":16578:16644   */\n      mstore\n        /* \"#utility.yul\":16660:16672   */\n      0x34\n      dup2\n      add\n        /* \"#utility.yul\":16653:16681   */\n      dup5\n      swap1\n      mstore\n        /* \"QuailFinance.sol\":16285:16297  bytes32 leaf */\n      0x00\n      swap1\n        /* \"#utility.yul\":16697:16709   */\n      0x54\n      add\n        /* \"QuailFinance.sol\":16310:16351  abi.encodePacked(msg.sender, claimAmount) */\n      mload(0x40)\n      0x20\n      dup2\n      dup4\n      sub\n      sub\n      dup2\n      mstore\n      swap1\n      0x40\n      mstore\n        /* \"QuailFinance.sol\":16300:16352  keccak256(abi.encodePacked(msg.sender, claimAmount)) */\n      dup1\n      mload\n      swap1\n      0x20\n      add\n      keccak256\n        /* \"QuailFinance.sol\":16285:16352  bytes32 leaf = keccak256(abi.encodePacked(msg.sender, claimAmount)) */\n      swap1\n      pop\n        /* \"QuailFinance.sol\":16370:16419  MerkleProof.verify(merkleProof, merkleRoot, leaf) */\n      tag_240\n        /* \"QuailFinance.sol\":16389:16400  merkleProof */\n      dup4\n      dup4\n        /* \"QuailFinance.sol\":16370:16419  MerkleProof.verify(merkleProof, merkleRoot, leaf) */\n      dup1\n      dup1\n      0x20\n      mul\n      0x20\n      add\n      mload(0x40)\n      swap1\n      dup2\n      add\n      0x40\n      mstore\n      dup1\n      swap4\n      swap3\n      swap2\n      swap1\n      dup2\n      dup2\n      mstore\n      0x20\n      add\n      dup4\n      dup4\n      0x20\n      mul\n      dup1\n      dup3\n      dup5\n      calldatacopy\n      0x00\n      swap3\n      add\n      swap2\n      swap1\n      swap2\n      mstore\n      pop\n      pop\n        /* \"QuailFinance.sol\":16402:16412  merkleRoot */\n      sload(0x03)\n      swap2\n      pop\n        /* \"QuailFinance.sol\":16414:16418  leaf */\n      dup5\n      swap1\n      pop\n        /* \"QuailFinance.sol\":16370:16388  MerkleProof.verify */\n      tag_241\n        /* \"QuailFinance.sol\":16370:16419  MerkleProof.verify(merkleProof, merkleRoot, leaf) */\n      jump\t// in\n    tag_240:\n        /* \"QuailFinance.sol\":16362:16438  require(MerkleProof.verify(merkleProof, merkleRoot, leaf), \"Invalid proof.\") */\n      tag_242\n      jumpi\n      mload(0x40)\n      shl(0xe5, 0x461bcd)\n      dup2\n      mstore\n        /* \"#utility.yul\":16922:16924   */\n      0x20\n        /* \"QuailFinance.sol\":16362:16438  require(MerkleProof.verify(merkleProof, merkleRoot, leaf), \"Invalid proof.\") */\n      0x04\n      dup3\n      add\n        /* \"#utility.yul\":16904:16925   */\n      mstore\n        /* \"#utility.yul\":16961:16963   */\n      0x0e\n        /* \"#utility.yul\":16941:16959   */\n      0x24\n      dup3\n      add\n        /* \"#utility.yul\":16934:16964   */\n      mstore\n      shl(0x91, 0x24b73b30b634b210383937b7b317)\n        /* \"#utility.yul\":16980:16998   */\n      0x44\n      dup3\n      add\n        /* \"#utility.yul\":16973:17017   */\n      mstore\n        /* \"#utility.yul\":17034:17052   */\n      0x64\n      add\n        /* \"QuailFinance.sol\":16362:16438  require(MerkleProof.verify(merkleProof, merkleRoot, leaf), \"Invalid proof.\") */\n      tag_188\n        /* \"#utility.yul\":16720:17058   */\n      jump\n        /* \"QuailFinance.sol\":16362:16438  require(MerkleProof.verify(merkleProof, merkleRoot, leaf), \"Invalid proof.\") */\n    tag_242:\n        /* \"QuailFinance.sol\":16484:16494  msg.sender */\n      caller\n        /* \"QuailFinance.sol\":16448:16470  uint256 alreadyClaimed */\n      0x00\n        /* \"QuailFinance.sol\":16473:16495  hasClaimed[msg.sender] */\n      swap1\n      dup2\n      mstore\n        /* \"QuailFinance.sol\":16473:16483  hasClaimed */\n      0x09\n        /* \"QuailFinance.sol\":16473:16495  hasClaimed[msg.sender] */\n      0x20\n      mstore\n      0x40\n      swap1\n      keccak256\n      sload\n        /* \"QuailFinance.sol\":16513:16541  alreadyClaimed < claimAmount */\n      dup5\n      dup2\n      lt\n        /* \"QuailFinance.sol\":16505:16588  require(alreadyClaimed < claimAmount, \"No funds left to claim or already claimed.\") */\n      tag_245\n      jumpi\n      mload(0x40)\n      shl(0xe5, 0x461bcd)\n      dup2\n      mstore\n        /* \"#utility.yul\":17265:17267   */\n      0x20\n        /* \"QuailFinance.sol\":16505:16588  require(alreadyClaimed < claimAmount, \"No funds left to claim or already claimed.\") */\n      0x04\n      dup3\n      add\n        /* \"#utility.yul\":17247:17268   */\n      mstore\n        /* \"#utility.yul\":17304:17306   */\n      0x2a\n        /* \"#utility.yul\":17284:17302   */\n      0x24\n      dup3\n      add\n        /* \"#utility.yul\":17277:17307   */\n      mstore\n        /* \"#utility.yul\":17343:17377   */\n      0x4e6f2066756e6473206c65667420746f20636c61696d206f7220616c72656164\n        /* \"#utility.yul\":17323:17341   */\n      0x44\n      dup3\n      add\n        /* \"#utility.yul\":17316:17378   */\n      mstore\n      shl(0xb1, 0x3c9031b630b4b6b2b217)\n        /* \"#utility.yul\":17394:17412   */\n      0x64\n      dup3\n      add\n        /* \"#utility.yul\":17387:17427   */\n      mstore\n        /* \"#utility.yul\":17444:17463   */\n      0x84\n      add\n        /* \"QuailFinance.sol\":16505:16588  require(alreadyClaimed < claimAmount, \"No funds left to claim or already claimed.\") */\n      tag_188\n        /* \"#utility.yul\":17063:17469   */\n      jump\n        /* \"QuailFinance.sol\":16505:16588  require(alreadyClaimed < claimAmount, \"No funds left to claim or already claimed.\") */\n    tag_245:\n        /* \"QuailFinance.sol\":16598:16621  uint256 claimableAmount */\n      0x00\n        /* \"QuailFinance.sol\":16624:16652  claimAmount - alreadyClaimed */\n      tag_248\n        /* \"QuailFinance.sol\":16638:16652  alreadyClaimed */\n      dup3\n        /* \"QuailFinance.sol\":16624:16635  claimAmount */\n      dup8\n        /* \"QuailFinance.sol\":16624:16652  claimAmount - alreadyClaimed */\n      tag_249\n      jump\t// in\n    tag_248:\n        /* \"QuailFinance.sol\":16598:16652  uint256 claimableAmount = claimAmount - alreadyClaimed */\n      swap1\n      pop\n        /* \"QuailFinance.sol\":16692:16707  claimableAmount */\n      dup1\n        /* \"QuailFinance.sol\":16670:16688  totalYielDeposited */\n      sload(0x07)\n        /* \"QuailFinance.sol\":16670:16707  totalYielDeposited >= claimableAmount */\n      lt\n      iszero\n        /* \"QuailFinance.sol\":16662:16733  require(totalYielDeposited >= claimableAmount, \"No funds in the vault\") */\n      tag_250\n      jumpi\n      mload(0x40)\n      shl(0xe5, 0x461bcd)\n      dup2\n      mstore\n        /* \"#utility.yul\":17809:17811   */\n      0x20\n        /* \"QuailFinance.sol\":16662:16733  require(totalYielDeposited >= claimableAmount, \"No funds in the vault\") */\n      0x04\n      dup3\n      add\n        /* \"#utility.yul\":17791:17812   */\n      mstore\n        /* \"#utility.yul\":17848:17850   */\n      0x15\n        /* \"#utility.yul\":17828:17846   */\n      0x24\n      dup3\n      add\n        /* \"#utility.yul\":17821:17851   */\n      mstore\n      shl(0x5a, 0x139bc8199d5b991cc81a5b881d1a19481d985d5b1d)\n        /* \"#utility.yul\":17867:17885   */\n      0x44\n      dup3\n      add\n        /* \"#utility.yul\":17860:17911   */\n      mstore\n        /* \"#utility.yul\":17928:17946   */\n      0x64\n      add\n        /* \"QuailFinance.sol\":16662:16733  require(totalYielDeposited >= claimableAmount, \"No funds in the vault\") */\n      tag_188\n        /* \"#utility.yul\":17607:17952   */\n      jump\n        /* \"QuailFinance.sol\":16662:16733  require(totalYielDeposited >= claimableAmount, \"No funds in the vault\") */\n    tag_250:\n        /* \"QuailFinance.sol\":16791:16801  msg.sender */\n      caller\n        /* \"QuailFinance.sol\":16780:16802  hasClaimed[msg.sender] */\n      0x00\n      swap1\n      dup2\n      mstore\n        /* \"QuailFinance.sol\":16780:16790  hasClaimed */\n      0x09\n        /* \"QuailFinance.sol\":16780:16802  hasClaimed[msg.sender] */\n      0x20\n      mstore\n      0x40\n      dup2\n      keccak256\n        /* \"QuailFinance.sol\":16780:16816  hasClaimed[msg.sender] = claimAmount */\n      dup8\n      swap1\n      sstore\n        /* \"QuailFinance.sol\":16826:16844  totalYielDeposited */\n      0x07\n        /* \"QuailFinance.sol\":16826:16863  totalYielDeposited -= claimableAmount */\n      dup1\n      sload\n        /* \"QuailFinance.sol\":16848:16863  claimableAmount */\n      dup4\n      swap3\n        /* \"QuailFinance.sol\":16780:16802  hasClaimed[msg.sender] */\n      swap1\n        /* \"QuailFinance.sol\":16826:16863  totalYielDeposited -= claimableAmount */\n      tag_253\n      swap1\n        /* \"QuailFinance.sol\":16848:16863  claimableAmount */\n      dup5\n      swap1\n        /* \"QuailFinance.sol\":16826:16863  totalYielDeposited -= claimableAmount */\n      tag_249\n      jump\t// in\n    tag_253:\n      swap1\n      swap2\n      sstore\n      pop\n      pop\n        /* \"QuailFinance.sol\":16928:16937  usdbToken */\n      sload(0x08)\n        /* \"QuailFinance.sol\":16928:16975  usdbToken.transfer(msg.sender, claimableAmount) */\n      mload(0x40)\n      shl(0xe0, 0xa9059cbb)\n      dup2\n      mstore\n        /* \"QuailFinance.sol\":16947:16957  msg.sender */\n      caller\n        /* \"QuailFinance.sol\":16928:16975  usdbToken.transfer(msg.sender, claimableAmount) */\n      0x04\n      dup3\n      add\n        /* \"#utility.yul\":18131:18182   */\n      mstore\n        /* \"#utility.yul\":18198:18216   */\n      0x24\n      dup2\n      add\n        /* \"#utility.yul\":18191:18225   */\n      dup4\n      swap1\n      mstore\n      sub(shl(0xa0, 0x01), 0x01)\n        /* \"QuailFinance.sol\":16928:16937  usdbToken */\n      swap1\n      swap2\n      and\n      swap1\n        /* \"QuailFinance.sol\":16928:16946  usdbToken.transfer */\n      0xa9059cbb\n      swap1\n        /* \"#utility.yul\":18104:18122   */\n      0x44\n      add\n        /* \"QuailFinance.sol\":16928:16975  usdbToken.transfer(msg.sender, claimableAmount) */\n      0x20\n      mload(0x40)\n      dup1\n      dup4\n      sub\n      dup2\n      0x00\n      dup8\n      gas\n      call\n      iszero\n      dup1\n      iszero\n      tag_257\n      jumpi\n      returndatasize\n      0x00\n      dup1\n      returndatacopy\n      revert(0x00, returndatasize)\n    tag_257:\n      pop\n      pop\n      pop\n      pop\n      mload(0x40)\n      returndatasize\n      not(0x1f)\n      0x1f\n      dup3\n      add\n      and\n      dup3\n      add\n      dup1\n      0x40\n      mstore\n      pop\n      dup2\n      add\n      swap1\n      tag_258\n      swap2\n      swap1\n      tag_206\n      jump\t// in\n    tag_258:\n        /* \"QuailFinance.sol\":16920:17001  require(usdbToken.transfer(msg.sender, claimableAmount), \"Yield transfer failed\") */\n      tag_259\n      jumpi\n      mload(0x40)\n      shl(0xe5, 0x461bcd)\n      dup2\n      mstore\n        /* \"#utility.yul\":18438:18440   */\n      0x20\n        /* \"QuailFinance.sol\":16920:17001  require(usdbToken.transfer(msg.sender, claimableAmount), \"Yield transfer failed\") */\n      0x04\n      dup3\n      add\n        /* \"#utility.yul\":18420:18441   */\n      mstore\n        /* \"#utility.yul\":18477:18479   */\n      0x15\n        /* \"#utility.yul\":18457:18475   */\n      0x24\n      dup3\n      add\n        /* \"#utility.yul\":18450:18480   */\n      mstore\n      shl(0x5a, 0x165a595b19081d1c985b9cd9995c8819985a5b1959)\n        /* \"#utility.yul\":18496:18514   */\n      0x44\n      dup3\n      add\n        /* \"#utility.yul\":18489:18540   */\n      mstore\n        /* \"#utility.yul\":18557:18575   */\n      0x64\n      add\n        /* \"QuailFinance.sol\":16920:17001  require(usdbToken.transfer(msg.sender, claimableAmount), \"Yield transfer failed\") */\n      tag_188\n        /* \"#utility.yul\":18236:18581   */\n      jump\n        /* \"QuailFinance.sol\":16920:17001  require(usdbToken.transfer(msg.sender, claimableAmount), \"Yield transfer failed\") */\n    tag_259:\n        /* \"QuailFinance.sol\":16240:17008  {... */\n      pop\n      pop\n      pop\n        /* \"QuailFinance.sol\":16158:17008  function claimFunds(uint256 claimAmount, bytes32[] calldata merkleProof) external {... */\n      pop\n      pop\n      pop\n      jump\t// out\n        /* \"@openzeppelin/contracts-upgradeable/access/OwnableUpgradeable.sol\":3155:3256  function renounceOwnership() public virtual onlyOwner {... */\n    tag_90:\n        /* \"@openzeppelin/contracts-upgradeable/access/OwnableUpgradeable.sol\":2334:2347  _checkOwner() */\n      tag_263\n        /* \"@openzeppelin/contracts-upgradeable/access/OwnableUpgradeable.sol\":2334:2345  _checkOwner */\n      tag_230\n        /* \"@openzeppelin/contracts-upgradeable/access/OwnableUpgradeable.sol\":2334:2347  _checkOwner() */\n      jump\t// in\n    tag_263:\n        /* \"@openzeppelin/contracts-upgradeable/access/OwnableUpgradeable.sol\":3219:3249  _transferOwnership(address(0)) */\n      tag_265\n        /* \"@openzeppelin/contracts-upgradeable/access/OwnableUpgradeable.sol\":3246:3247  0 */\n      0x00\n        /* \"@openzeppelin/contracts-upgradeable/access/OwnableUpgradeable.sol\":3219:3237  _transferOwnership */\n      tag_266\n        /* \"@openzeppelin/contracts-upgradeable/access/OwnableUpgradeable.sol\":3219:3249  _transferOwnership(address(0)) */\n      jump\t// in\n    tag_265:\n        /* \"@openzeppelin/contracts-upgradeable/access/OwnableUpgradeable.sol\":3155:3256  function renounceOwnership() public virtual onlyOwner {... */\n      jump\t// out\n        /* \"QuailFinance.sol\":15476:15586  function claimMyContractsGas() external onlyOwner{... */\n    tag_99:\n        /* \"@openzeppelin/contracts-upgradeable/access/OwnableUpgradeable.sol\":2334:2347  _checkOwner() */\n      tag_268\n        /* \"@openzeppelin/contracts-upgradeable/access/OwnableUpgradeable.sol\":2334:2345  _checkOwner */\n      tag_230\n        /* \"@openzeppelin/contracts-upgradeable/access/OwnableUpgradeable.sol\":2334:2347  _checkOwner() */\n      jump\t// in\n    tag_268:\n        /* \"QuailFinance.sol\":15535:15579  BLAST.claimAllGas(address(this), msg.sender) */\n      mload(0x40)\n      shl(0xe1, 0x4aa7d2f7)\n      dup2\n      mstore\n        /* \"QuailFinance.sol\":15561:15565  this */\n      address\n        /* \"QuailFinance.sol\":15535:15579  BLAST.claimAllGas(address(this), msg.sender) */\n      0x04\n      dup3\n      add\n        /* \"#utility.yul\":18798:18832   */\n      mstore\n        /* \"QuailFinance.sol\":15568:15578  msg.sender */\n      caller\n        /* \"#utility.yul\":18848:18866   */\n      0x24\n      dup3\n      add\n        /* \"#utility.yul\":18841:18884   */\n      mstore\n      add(shl(0x98, 0x43), 0x02)\n        /* \"QuailFinance.sol\":1036:1078  0x4300000000000000000000000000000000000002 */\n      swap1\n        /* \"QuailFinance.sol\":15535:15552  BLAST.claimAllGas */\n      0x954fa5ee\n      swap1\n        /* \"#utility.yul\":18733:18751   */\n      0x44\n      add\n        /* \"QuailFinance.sol\":15535:15579  BLAST.claimAllGas(address(this), msg.sender) */\n      0x20\n      mload(0x40)\n      dup1\n      dup4\n      sub\n      dup2\n      0x00\n      dup8\n      gas\n      call\n      iszero\n      dup1\n      iszero\n      tag_273\n      jumpi\n      returndatasize\n      0x00\n      dup1\n      returndatacopy\n      revert(0x00, returndatasize)\n    tag_273:\n      pop\n      pop\n      pop\n      pop\n      mload(0x40)\n      returndatasize\n      not(0x1f)\n      0x1f\n      dup3\n      add\n      and\n      dup3\n      add\n      dup1\n      0x40\n      mstore\n      pop\n      dup2\n      add\n      swap1\n      tag_274\n      swap2\n      swap1\n      tag_275\n      jump\t// in\n    tag_274:\n      pop\n        /* \"QuailFinance.sol\":15476:15586  function claimMyContractsGas() external onlyOwner{... */\n      jump\t// out\n        /* \"QuailFinance.sol\":15724:15938  function setMerkleRoot(bytes32 _merkleRoot, uint256 _amount) external onlyOwner payable{... */\n    tag_103:\n        /* \"@openzeppelin/contracts-upgradeable/access/OwnableUpgradeable.sol\":2334:2347  _checkOwner() */\n      tag_277\n        /* \"@openzeppelin/contracts-upgradeable/access/OwnableUpgradeable.sol\":2334:2345  _checkOwner */\n      tag_230\n        /* \"@openzeppelin/contracts-upgradeable/access/OwnableUpgradeable.sol\":2334:2347  _checkOwner() */\n      jump\t// in\n    tag_277:\n        /* \"QuailFinance.sol\":15821:15831  merkleRoot */\n      0x03\n        /* \"QuailFinance.sol\":15821:15845  merkleRoot = _merkleRoot */\n      dup3\n      swap1\n      sstore\n        /* \"QuailFinance.sol\":15855:15892  payable(msg.sender).transfer(_amount) */\n      mload(0x40)\n        /* \"QuailFinance.sol\":15863:15873  msg.sender */\n      caller\n      swap1\n        /* \"QuailFinance.sol\":15855:15892  payable(msg.sender).transfer(_amount) */\n      dup3\n      iszero\n      0x08fc\n      mul\n      swap1\n        /* \"QuailFinance.sol\":15884:15891  _amount */\n      dup4\n      swap1\n        /* \"QuailFinance.sol\":15855:15892  payable(msg.sender).transfer(_amount) */\n      0x00\n      dup2\n      dup2\n      dup2\n        /* \"QuailFinance.sol\":15884:15891  _amount */\n      dup6\n        /* \"QuailFinance.sol\":15863:15873  msg.sender */\n      dup9\n        /* \"QuailFinance.sol\":15855:15892  payable(msg.sender).transfer(_amount) */\n      dup9\n      call\n      swap4\n      pop\n      pop\n      pop\n      pop\n      iszero\n      dup1\n      iszero\n      tag_280\n      jumpi\n      returndatasize\n      0x00\n      dup1\n      returndatacopy\n      revert(0x00, returndatasize)\n    tag_280:\n      pop\n        /* \"QuailFinance.sol\":15924:15931  _amount */\n      dup1\n        /* \"QuailFinance.sol\":15902:15920  totalYielDeposited */\n      0x07\n      0x00\n        /* \"QuailFinance.sol\":15902:15931  totalYielDeposited += _amount */\n      dup3\n      dup3\n      sload\n      tag_281\n      swap2\n      swap1\n      tag_186\n      jump\t// in\n    tag_281:\n      swap1\n      swap2\n      sstore\n      pop\n      pop\n      pop\n      pop\n        /* \"QuailFinance.sol\":15724:15938  function setMerkleRoot(bytes32 _merkleRoot, uint256 _amount) external onlyOwner payable{... */\n      jump\t// out\n        /* \"QuailFinance.sol\":14624:14842  function calculateRiskPoolBalance(uint256 _potId, uint256 _amount) public view returns (uint256) {... */\n    tag_108:\n        /* \"QuailFinance.sol\":14712:14719  uint256 */\n      0x00\n        /* \"QuailFinance.sol\":14749:14761  pots[_potId] */\n      dup3\n      dup2\n      mstore\n        /* \"QuailFinance.sol\":14749:14753  pots */\n      0x0a\n        /* \"QuailFinance.sol\":14749:14761  pots[_potId] */\n      0x20\n      mstore\n      0x40\n      dup2\n      keccak256\n        /* \"QuailFinance.sol\":14812:14835  pot.interestDenominator */\n      0x07\n      dup2\n      add\n      sload\n        /* \"QuailFinance.sol\":14788:14809  pot.interestNumerator */\n      0x06\n      dup3\n      add\n      sload\n        /* \"QuailFinance.sol\":14778:14809  _amount * pot.interestNumerator */\n      tag_283\n      swap1\n        /* \"QuailFinance.sol\":14778:14785  _amount */\n      dup6\n        /* \"QuailFinance.sol\":14778:14809  _amount * pot.interestNumerator */\n      tag_284\n      jump\t// in\n    tag_283:\n        /* \"QuailFinance.sol\":14778:14835  _amount * pot.interestNumerator / pot.interestDenominator */\n      tag_285\n      swap2\n      swap1\n      tag_286\n      jump\t// in\n    tag_285:\n        /* \"QuailFinance.sol\":14771:14835  return _amount * pot.interestNumerator / pot.interestDenominator */\n      swap2\n      pop\n      pop\n        /* \"QuailFinance.sol\":14624:14842  function calculateRiskPoolBalance(uint256 _potId, uint256 _amount) public view returns (uint256) {... */\n    tag_282:\n      swap3\n      swap2\n      pop\n      pop\n      jump\t// out\n        /* \"QuailFinance.sol\":13503:14114  function useRiskPool(uint256 _potId, uint256 _amount, bytes memory signature, uint256 nonce) public {... */\n    tag_114:\n        /* \"QuailFinance.sol\":13613:13628  Pot storage pot */\n      0x00\n        /* \"QuailFinance.sol\":13631:13643  pots[_potId] */\n      dup5\n      dup2\n      mstore\n        /* \"QuailFinance.sol\":13631:13635  pots */\n      0x0a\n        /* \"QuailFinance.sol\":13631:13643  pots[_potId] */\n      0x20\n      swap1\n      dup2\n      mstore\n      0x40\n      dup1\n      dup4\n      keccak256\n        /* \"QuailFinance.sol\":13685:13737  abi.encodePacked(_potId, msg.sender, _amount, nonce) */\n      dup2\n      mload\n      dup1\n      dup5\n      add\n        /* \"#utility.yul\":19727:19746   */\n      dup10\n      swap1\n      mstore\n        /* \"QuailFinance.sol\":13710:13720  msg.sender */\n      caller\n        /* \"#utility.yul\":19784:19786   */\n      0x60\n        /* \"#utility.yul\":19780:19795   */\n      shl\n      not(sub(shl(0x60, 0x01), 0x01))\n        /* \"#utility.yul\":19776:19829   */\n      and\n        /* \"#utility.yul\":19762:19774   */\n      dup2\n      dup5\n      add\n        /* \"#utility.yul\":19755:19830   */\n      mstore\n        /* \"#utility.yul\":19846:19858   */\n      0x54\n      dup2\n      add\n        /* \"#utility.yul\":19839:19867   */\n      dup9\n      swap1\n      mstore\n        /* \"#utility.yul\":19883:19895   */\n      0x74\n      dup1\n      dup3\n      add\n        /* \"#utility.yul\":19876:19904   */\n      dup8\n      swap1\n      mstore\n        /* \"QuailFinance.sol\":13685:13737  abi.encodePacked(_potId, msg.sender, _amount, nonce) */\n      dup4\n      mload\n      dup1\n      dup4\n      sub\n      swap1\n      swap2\n      add\n      dup2\n      mstore\n        /* \"#utility.yul\":19920:19933   */\n      0x94\n      swap1\n      swap2\n      add\n        /* \"QuailFinance.sol\":13685:13737  abi.encodePacked(_potId, msg.sender, _amount, nonce) */\n      swap1\n      swap3\n      mstore\n        /* \"QuailFinance.sol\":13675:13738  keccak256(abi.encodePacked(_potId, msg.sender, _amount, nonce)) */\n      dup2\n      mload\n      swap2\n      swap1\n      swap3\n      add\n      keccak256\n        /* \"QuailFinance.sol\":13631:13643  pots[_potId] */\n      swap1\n      swap2\n        /* \"QuailFinance.sol\":13779:13815  getEthSignedMessageHash(messageHash) */\n      tag_290\n        /* \"QuailFinance.sol\":13675:13738  keccak256(abi.encodePacked(_potId, msg.sender, _amount, nonce)) */\n      dup3\n        /* \"QuailFinance.sol\":13779:13802  getEthSignedMessageHash */\n      tag_177\n        /* \"QuailFinance.sol\":13779:13815  getEthSignedMessageHash(messageHash) */\n      jump\t// in\n    tag_290:\n        /* \"QuailFinance.sol\":13748:13815  bytes32 ethSignedMessageHash = getEthSignedMessageHash(messageHash) */\n      swap1\n      pop\n        /* \"QuailFinance.sol\":13842:13881  ethSignedMessageHash.recover(signature) */\n      tag_291\n        /* \"QuailFinance.sol\":13748:13815  bytes32 ethSignedMessageHash = getEthSignedMessageHash(messageHash) */\n      dup2\n        /* \"QuailFinance.sol\":13871:13880  signature */\n      dup7\n        /* \"QuailFinance.sol\":13842:13870  ethSignedMessageHash.recover */\n      tag_292\n        /* \"QuailFinance.sol\":13842:13881  ethSignedMessageHash.recover(signature) */\n      jump\t// in\n    tag_291:\n        /* \"QuailFinance.sol\":13833:13838  admin */\n      sload(0x02)\n      sub(shl(0xa0, 0x01), 0x01)\n      swap1\n      dup2\n      and\n        /* \"QuailFinance.sol\":13833:13881  admin == ethSignedMessageHash.recover(signature) */\n      swap2\n      and\n      eq\n        /* \"QuailFinance.sol\":13825:13915  require(admin == ethSignedMessageHash.recover(signature), \"Signature verification failed\") */\n      tag_293\n      jumpi\n      mload(0x40)\n      shl(0xe5, 0x461bcd)\n      dup2\n      mstore\n        /* \"#utility.yul\":20146:20148   */\n      0x20\n        /* \"QuailFinance.sol\":13825:13915  require(admin == ethSignedMessageHash.recover(signature), \"Signature verification failed\") */\n      0x04\n      dup3\n      add\n        /* \"#utility.yul\":20128:20149   */\n      mstore\n        /* \"#utility.yul\":20185:20187   */\n      0x1d\n        /* \"#utility.yul\":20165:20183   */\n      0x24\n      dup3\n      add\n        /* \"#utility.yul\":20158:20188   */\n      mstore\n        /* \"#utility.yul\":20224:20255   */\n      0x5369676e617475726520766572696669636174696f6e206661696c6564000000\n        /* \"#utility.yul\":20204:20222   */\n      0x44\n      dup3\n      add\n        /* \"#utility.yul\":20197:20256   */\n      mstore\n        /* \"#utility.yul\":20273:20291   */\n      0x64\n      add\n        /* \"QuailFinance.sol\":13825:13915  require(admin == ethSignedMessageHash.recover(signature), \"Signature verification failed\") */\n      tag_188\n        /* \"#utility.yul\":19944:20297   */\n      jump\n        /* \"QuailFinance.sol\":13825:13915  require(admin == ethSignedMessageHash.recover(signature), \"Signature verification failed\") */\n    tag_293:\n        /* \"QuailFinance.sol\":13956:13963  _amount */\n      dup6\n        /* \"QuailFinance.sol\":13933:13936  pot */\n      dup4\n        /* \"QuailFinance.sol\":13933:13952  pot.riskPoolBalance */\n      0x02\n      add\n      sload\n        /* \"QuailFinance.sol\":13933:13963  pot.riskPoolBalance >= _amount */\n      lt\n      iszero\n        /* \"QuailFinance.sol\":13925:14024  require(pot.riskPoolBalance >= _amount, \"amount should be less than or equal to risk pool balance\") */\n      tag_296\n      jumpi\n      mload(0x40)\n      shl(0xe5, 0x461bcd)\n      dup2\n      mstore\n        /* \"#utility.yul\":20504:20506   */\n      0x20\n        /* \"QuailFinance.sol\":13925:14024  require(pot.riskPoolBalance >= _amount, \"amount should be less than or equal to risk pool balance\") */\n      0x04\n      dup3\n      add\n        /* \"#utility.yul\":20486:20507   */\n      mstore\n        /* \"#utility.yul\":20543:20545   */\n      0x38\n        /* \"#utility.yul\":20523:20541   */\n      0x24\n      dup3\n      add\n        /* \"#utility.yul\":20516:20546   */\n      mstore\n        /* \"#utility.yul\":20582:20616   */\n      0x616d6f756e742073686f756c64206265206c657373207468616e206f72206571\n        /* \"#utility.yul\":20562:20580   */\n      0x44\n      dup3\n      add\n        /* \"#utility.yul\":20555:20617   */\n      mstore\n        /* \"#utility.yul\":20653:20679   */\n      0x75616c20746f207269736b20706f6f6c2062616c616e63650000000000000000\n        /* \"#utility.yul\":20633:20651   */\n      0x64\n      dup3\n      add\n        /* \"#utility.yul\":20626:20680   */\n      mstore\n        /* \"#utility.yul\":20697:20716   */\n      0x84\n      add\n        /* \"QuailFinance.sol\":13925:14024  require(pot.riskPoolBalance >= _amount, \"amount should be less than or equal to risk pool balance\") */\n      tag_188\n        /* \"#utility.yul\":20302:20722   */\n      jump\n        /* \"QuailFinance.sol\":13925:14024  require(pot.riskPoolBalance >= _amount, \"amount should be less than or equal to risk pool balance\") */\n    tag_296:\n        /* \"QuailFinance.sol\":14059:14066  _amount */\n      dup6\n        /* \"QuailFinance.sol\":14034:14037  pot */\n      dup4\n        /* \"QuailFinance.sol\":14034:14056  pot.useRiskPoolBalance */\n      0x03\n      add\n        /* \"QuailFinance.sol\":14034:14066  pot.useRiskPoolBalance = _amount */\n      dup2\n      swap1\n      sstore\n      pop\n        /* \"QuailFinance.sol\":14100:14107  _amount */\n      dup6\n        /* \"QuailFinance.sol\":14076:14079  pot */\n      dup4\n        /* \"QuailFinance.sol\":14076:14095  pot.riskPoolBalance */\n      0x02\n      add\n      0x00\n        /* \"QuailFinance.sol\":14076:14107  pot.riskPoolBalance  -= _amount */\n      dup3\n      dup3\n      sload\n      tag_299\n      swap2\n      swap1\n      tag_249\n      jump\t// in\n    tag_299:\n      swap1\n      swap2\n      sstore\n      pop\n      pop\n      pop\n      pop\n      pop\n      pop\n      pop\n      pop\n      pop\n        /* \"QuailFinance.sol\":13503:14114  function useRiskPool(uint256 _potId, uint256 _amount, bytes memory signature, uint256 nonce) public {... */\n      jump\t// out\n        /* \"QuailFinance.sol\":16046:16152  function updatePotCreationFee(uint256 _amount) external onlyOwner{... */\n    tag_118:\n        /* \"@openzeppelin/contracts-upgradeable/access/OwnableUpgradeable.sol\":2334:2347  _checkOwner() */\n      tag_301\n        /* \"@openzeppelin/contracts-upgradeable/access/OwnableUpgradeable.sol\":2334:2345  _checkOwner */\n      tag_230\n        /* \"@openzeppelin/contracts-upgradeable/access/OwnableUpgradeable.sol\":2334:2347  _checkOwner() */\n      jump\t// in\n    tag_301:\n        /* \"QuailFinance.sol\":16121:16135  potCreationFee */\n      0x06\n        /* \"QuailFinance.sol\":16121:16145  potCreationFee = _amount */\n      sstore\n        /* \"QuailFinance.sol\":16046:16152  function updatePotCreationFee(uint256 _amount) external onlyOwner{... */\n      jump\t// out\n        /* \"QuailFinance.sol\":15944:16040  function changeAdminSigner(address newAdmin) external onlyOwner{... */\n    tag_127:\n        /* \"@openzeppelin/contracts-upgradeable/access/OwnableUpgradeable.sol\":2334:2347  _checkOwner() */\n      tag_307\n        /* \"@openzeppelin/contracts-upgradeable/access/OwnableUpgradeable.sol\":2334:2345  _checkOwner */\n      tag_230\n        /* \"@openzeppelin/contracts-upgradeable/access/OwnableUpgradeable.sol\":2334:2347  _checkOwner() */\n      jump\t// in\n    tag_307:\n        /* \"QuailFinance.sol\":16017:16022  admin */\n      0x02\n        /* \"QuailFinance.sol\":16017:16033  admin = newAdmin */\n      dup1\n      sload\n      not(sub(shl(0xa0, 0x01), 0x01))\n      and\n      sub(shl(0xa0, 0x01), 0x01)\n      swap3\n      swap1\n      swap3\n      and\n      swap2\n      swap1\n      swap2\n      or\n      swap1\n      sstore\n        /* \"QuailFinance.sol\":15944:16040  function changeAdminSigner(address newAdmin) external onlyOwner{... */\n      jump\t// out\n        /* \"QuailFinance.sol\":14120:14561  function claimReward(uint256 _potId) external {... */\n    tag_136:\n        /* \"QuailFinance.sol\":14176:14191  Pot storage pot */\n      0x00\n        /* \"QuailFinance.sol\":14194:14206  pots[_potId] */\n      dup2\n      dup2\n      mstore\n        /* \"QuailFinance.sol\":14194:14198  pots */\n      0x0a\n        /* \"QuailFinance.sol\":14194:14206  pots[_potId] */\n      0x20\n      swap1\n      dup2\n      mstore\n      0x40\n      dup1\n      dup4\n      keccak256\n        /* \"QuailFinance.sol\":14238:14248  msg.sender */\n      caller\n        /* \"QuailFinance.sol\":14224:14249  pot.amountWon[msg.sender] */\n      dup5\n      mstore\n        /* \"QuailFinance.sol\":14224:14237  pot.amountWon */\n      0x0d\n      dup2\n      add\n        /* \"QuailFinance.sol\":14224:14249  pot.amountWon[msg.sender] */\n      swap1\n      swap3\n      mstore\n      swap1\n      swap2\n      keccak256\n      sload\n        /* \"QuailFinance.sol\":14216:14276  require(pot.amountWon[msg.sender] > 0, \"No reward to claim\") */\n      tag_310\n      jumpi\n      mload(0x40)\n      shl(0xe5, 0x461bcd)\n      dup2\n      mstore\n        /* \"#utility.yul\":20929:20931   */\n      0x20\n        /* \"QuailFinance.sol\":14216:14276  require(pot.amountWon[msg.sender] > 0, \"No reward to claim\") */\n      0x04\n      dup3\n      add\n        /* \"#utility.yul\":20911:20932   */\n      mstore\n        /* \"#utility.yul\":20968:20970   */\n      0x12\n        /* \"#utility.yul\":20948:20966   */\n      0x24\n      dup3\n      add\n        /* \"#utility.yul\":20941:20971   */\n      mstore\n      shl(0x70, 0x4e6f2072657761726420746f20636c61696d)\n        /* \"#utility.yul\":20987:21005   */\n      0x44\n      dup3\n      add\n        /* \"#utility.yul\":20980:21028   */\n      mstore\n        /* \"#utility.yul\":21045:21063   */\n      0x64\n      add\n        /* \"QuailFinance.sol\":14216:14276  require(pot.amountWon[msg.sender] > 0, \"No reward to claim\") */\n      tag_188\n        /* \"#utility.yul\":20727:21069   */\n      jump\n        /* \"QuailFinance.sol\":14216:14276  require(pot.amountWon[msg.sender] > 0, \"No reward to claim\") */\n    tag_310:\n        /* \"QuailFinance.sol\":14374:14384  msg.sender */\n      caller\n        /* \"QuailFinance.sol\":14336:14357  uint256 amountToClaim */\n      0x00\n        /* \"QuailFinance.sol\":14360:14385  pot.amountWon[msg.sender] */\n      dup2\n      dup2\n      mstore\n        /* \"QuailFinance.sol\":14360:14373  pot.amountWon */\n      0x0d\n      dup4\n      add\n        /* \"QuailFinance.sol\":14360:14385  pot.amountWon[msg.sender] */\n      0x20\n      mstore\n      0x40\n      dup1\n      dup3\n      keccak256\n      dup1\n      sload\n        /* \"QuailFinance.sol\":14442:14471  pot.amountWon[msg.sender] = 0 */\n      swap3\n      swap1\n      sstore\n        /* \"QuailFinance.sol\":14489:14498  usdbToken */\n      sload(0x08)\n        /* \"QuailFinance.sol\":14489:14534  usdbToken.transfer(msg.sender, amountToClaim) */\n      swap1\n      mload\n      shl(0xe0, 0xa9059cbb)\n      dup2\n      mstore\n      0x04\n      dup2\n      add\n        /* \"#utility.yul\":18131:18182   */\n      swap4\n      swap1\n      swap4\n      mstore\n        /* \"#utility.yul\":18198:18216   */\n      0x24\n      dup4\n      add\n        /* \"#utility.yul\":18191:18225   */\n      dup3\n      swap1\n      mstore\n        /* \"QuailFinance.sol\":14360:14385  pot.amountWon[msg.sender] */\n      swap1\n      swap2\n      sub(shl(0xa0, 0x01), 0x01)\n        /* \"QuailFinance.sol\":14489:14498  usdbToken */\n      swap1\n      swap2\n      and\n      swap1\n        /* \"QuailFinance.sol\":14489:14507  usdbToken.transfer */\n      0xa9059cbb\n      swap1\n        /* \"#utility.yul\":18104:18122   */\n      0x44\n      add\n        /* \"QuailFinance.sol\":14489:14534  usdbToken.transfer(msg.sender, amountToClaim) */\n      0x20\n      mload(0x40)\n      dup1\n      dup4\n      sub\n      dup2\n      0x00\n      dup8\n      gas\n      call\n      iszero\n      dup1\n      iszero\n      tag_315\n      jumpi\n      returndatasize\n      0x00\n      dup1\n      returndatacopy\n      revert(0x00, returndatasize)\n    tag_315:\n      pop\n      pop\n      pop\n      pop\n      mload(0x40)\n      returndatasize\n      not(0x1f)\n      0x1f\n      dup3\n      add\n      and\n      dup3\n      add\n      dup1\n      0x40\n      mstore\n      pop\n      dup2\n      add\n      swap1\n      tag_316\n      swap2\n      swap1\n      tag_206\n      jump\t// in\n    tag_316:\n        /* \"QuailFinance.sol\":14481:14554  require(usdbToken.transfer(msg.sender, amountToClaim), \"Transfer failed\") */\n      tag_317\n      jumpi\n      mload(0x40)\n      shl(0xe5, 0x461bcd)\n      dup2\n      mstore\n        /* \"#utility.yul\":21276:21278   */\n      0x20\n        /* \"QuailFinance.sol\":14481:14554  require(usdbToken.transfer(msg.sender, amountToClaim), \"Transfer failed\") */\n      0x04\n      dup3\n      add\n        /* \"#utility.yul\":21258:21279   */\n      mstore\n        /* \"#utility.yul\":21315:21317   */\n      0x0f\n        /* \"#utility.yul\":21295:21313   */\n      0x24\n      dup3\n      add\n        /* \"#utility.yul\":21288:21318   */\n      mstore\n      shl(0x8a, 0x151c985b9cd9995c8819985a5b1959)\n        /* \"#utility.yul\":21334:21352   */\n      0x44\n      dup3\n      add\n        /* \"#utility.yul\":21327:21372   */\n      mstore\n        /* \"#utility.yul\":21389:21407   */\n      0x64\n      add\n        /* \"QuailFinance.sol\":14481:14554  require(usdbToken.transfer(msg.sender, amountToClaim), \"Transfer failed\") */\n      tag_188\n        /* \"#utility.yul\":21074:21413   */\n      jump\n        /* \"QuailFinance.sol\":14481:14554  require(usdbToken.transfer(msg.sender, amountToClaim), \"Transfer failed\") */\n    tag_317:\n        /* \"QuailFinance.sol\":14166:14561  {... */\n      pop\n      pop\n        /* \"QuailFinance.sol\":14120:14561  function claimReward(uint256 _potId) external {... */\n      pop\n      jump\t// out\n        /* \"QuailFinance.sol\":4525:5319  function initialize(address _entropy, address _entropyProvider, address adminSigner) public initializer {... */\n    tag_145:\n        /* \"@openzeppelin/contracts-upgradeable/proxy/utils/Initializable.sol\":8870:8891  INITIALIZABLE_STORAGE */\n      0xf0c57e16840df040f15088dc2f81fe391c3923bec73e23a9662efc9c229c6a00\n        /* \"@openzeppelin/contracts-upgradeable/proxy/utils/Initializable.sol\":4302:4317  $._initializing */\n      dup1\n      sload\n      shl(0x40, 0x01)\n      dup2\n      div\n      0xff\n      and\n        /* \"@openzeppelin/contracts-upgradeable/proxy/utils/Initializable.sol\":4301:4317  !$._initializing */\n      iszero\n      swap1\n      sub(shl(0x40, 0x01), 0x01)\n        /* \"@openzeppelin/contracts-upgradeable/proxy/utils/Initializable.sol\":4348:4362  $._initialized */\n      and\n        /* \"@openzeppelin/contracts-upgradeable/proxy/utils/Initializable.sol\":4158:4188  InitializableStorage storage $ */\n      0x00\n        /* \"@openzeppelin/contracts-upgradeable/proxy/utils/Initializable.sol\":4726:4742  initialized == 0 */\n      dup2\n      iszero\n        /* \"@openzeppelin/contracts-upgradeable/proxy/utils/Initializable.sol\":4726:4760  initialized == 0 && isTopLevelCall */\n      dup1\n      iszero\n      tag_323\n      jumpi\n      pop\n        /* \"@openzeppelin/contracts-upgradeable/proxy/utils/Initializable.sol\":4746:4760  isTopLevelCall */\n      dup3\n        /* \"@openzeppelin/contracts-upgradeable/proxy/utils/Initializable.sol\":4726:4760  initialized == 0 && isTopLevelCall */\n    tag_323:\n        /* \"@openzeppelin/contracts-upgradeable/proxy/utils/Initializable.sol\":4706:4760  bool initialSetup = initialized == 0 && isTopLevelCall */\n      swap1\n      pop\n        /* \"@openzeppelin/contracts-upgradeable/proxy/utils/Initializable.sol\":4770:4787  bool construction */\n      0x00\n        /* \"@openzeppelin/contracts-upgradeable/proxy/utils/Initializable.sol\":4790:4801  initialized */\n      dup3\n      sub(shl(0x40, 0x01), 0x01)\n        /* \"@openzeppelin/contracts-upgradeable/proxy/utils/Initializable.sol\":4790:4806  initialized == 1 */\n      and\n        /* \"@openzeppelin/contracts-upgradeable/proxy/utils/Initializable.sol\":4805:4806  1 */\n      0x01\n        /* \"@openzeppelin/contracts-upgradeable/proxy/utils/Initializable.sol\":4790:4806  initialized == 1 */\n      eq\n        /* \"@openzeppelin/contracts-upgradeable/proxy/utils/Initializable.sol\":4790:4840  initialized == 1 && address(this).code.length == 0 */\n      dup1\n      iszero\n      tag_324\n      jumpi\n      pop\n        /* \"@openzeppelin/contracts-upgradeable/proxy/utils/Initializable.sol\":4818:4822  this */\n      address\n        /* \"@openzeppelin/contracts-upgradeable/proxy/utils/Initializable.sol\":4810:4835  address(this).code.length */\n      extcodesize\n        /* \"@openzeppelin/contracts-upgradeable/proxy/utils/Initializable.sol\":4810:4840  address(this).code.length == 0 */\n      iszero\n        /* \"@openzeppelin/contracts-upgradeable/proxy/utils/Initializable.sol\":4790:4840  initialized == 1 && address(this).code.length == 0 */\n    tag_324:\n        /* \"@openzeppelin/contracts-upgradeable/proxy/utils/Initializable.sol\":4770:4840  bool construction = initialized == 1 && address(this).code.length == 0 */\n      swap1\n      pop\n        /* \"@openzeppelin/contracts-upgradeable/proxy/utils/Initializable.sol\":4856:4868  initialSetup */\n      dup2\n        /* \"@openzeppelin/contracts-upgradeable/proxy/utils/Initializable.sol\":4855:4868  !initialSetup */\n      iszero\n        /* \"@openzeppelin/contracts-upgradeable/proxy/utils/Initializable.sol\":4855:4885  !initialSetup && !construction */\n      dup1\n      iszero\n      tag_325\n      jumpi\n      pop\n        /* \"@openzeppelin/contracts-upgradeable/proxy/utils/Initializable.sol\":4873:4885  construction */\n      dup1\n        /* \"@openzeppelin/contracts-upgradeable/proxy/utils/Initializable.sol\":4872:4885  !construction */\n      iszero\n        /* \"@openzeppelin/contracts-upgradeable/proxy/utils/Initializable.sol\":4855:4885  !initialSetup && !construction */\n    tag_325:\n        /* \"@openzeppelin/contracts-upgradeable/proxy/utils/Initializable.sol\":4851:4942  if (!initialSetup && !construction) {... */\n      iszero\n      tag_326\n      jumpi\n        /* \"@openzeppelin/contracts-upgradeable/proxy/utils/Initializable.sol\":4908:4931  InvalidInitialization() */\n      mload(0x40)\n      shl(0xe0, 0xf92ee8a9)\n      dup2\n      mstore\n      0x04\n      add\n      mload(0x40)\n      dup1\n      swap2\n      sub\n      swap1\n      revert\n        /* \"@openzeppelin/contracts-upgradeable/proxy/utils/Initializable.sol\":4851:4942  if (!initialSetup && !construction) {... */\n    tag_326:\n        /* \"@openzeppelin/contracts-upgradeable/proxy/utils/Initializable.sol\":4951:4969  $._initialized = 1 */\n      dup5\n      sload\n      not(0xffffffffffffffff)\n      and\n        /* \"@openzeppelin/contracts-upgradeable/proxy/utils/Initializable.sol\":4968:4969  1 */\n      0x01\n        /* \"@openzeppelin/contracts-upgradeable/proxy/utils/Initializable.sol\":4951:4969  $._initialized = 1 */\n      or\n      dup6\n      sstore\n        /* \"@openzeppelin/contracts-upgradeable/proxy/utils/Initializable.sol\":4979:5046  if (isTopLevelCall) {... */\n      dup4\n      iszero\n      tag_327\n      jumpi\n        /* \"@openzeppelin/contracts-upgradeable/proxy/utils/Initializable.sol\":5013:5035  $._initializing = true */\n      dup5\n      sload\n      not(shl(0x40, 0xff))\n      and\n      shl(0x40, 0x01)\n      or\n      dup6\n      sstore\n        /* \"@openzeppelin/contracts-upgradeable/proxy/utils/Initializable.sol\":4979:5046  if (isTopLevelCall) {... */\n    tag_327:\n        /* \"QuailFinance.sol\":4744:4770  __Ownable_init(msg.sender) */\n      tag_329\n        /* \"QuailFinance.sol\":4759:4769  msg.sender */\n      caller\n        /* \"QuailFinance.sol\":4744:4758  __Ownable_init */\n      tag_330\n        /* \"QuailFinance.sol\":4744:4770  __Ownable_init(msg.sender) */\n      jump\t// in\n    tag_329:\n        /* \"QuailFinance.sol\":4780:4815  USDB.configure(YieldMode.CLAIMABLE) */\n      mload(0x40)\n      shl(0xe0, 0x1a33757d)\n      dup2\n      mstore\n      add(shl(0x99, 0x21), 0x22)\n        /* \"QuailFinance.sol\":4476:4518  0x4200000000000000000000000000000000000022 */\n      swap1\n        /* \"QuailFinance.sol\":4780:4794  USDB.configure */\n      0x1a33757d\n      swap1\n        /* \"QuailFinance.sol\":4780:4815  USDB.configure(YieldMode.CLAIMABLE) */\n      tag_331\n      swap1\n        /* \"QuailFinance.sol\":4795:4814  YieldMode.CLAIMABLE */\n      0x02\n      swap1\n        /* \"QuailFinance.sol\":4780:4815  USDB.configure(YieldMode.CLAIMABLE) */\n      0x04\n      add\n      tag_332\n      jump\t// in\n    tag_331:\n      0x20\n      mload(0x40)\n      dup1\n      dup4\n      sub\n      dup2\n      0x00\n      dup8\n      gas\n      call\n      iszero\n      dup1\n      iszero\n      tag_334\n      jumpi\n      returndatasize\n      0x00\n      dup1\n      returndatacopy\n      revert(0x00, returndatasize)\n    tag_334:\n      pop\n      pop\n      pop\n      pop\n      mload(0x40)\n      returndatasize\n      not(0x1f)\n      0x1f\n      dup3\n      add\n      and\n      dup3\n      add\n      dup1\n      0x40\n      mstore\n      pop\n      dup2\n      add\n      swap1\n      tag_335\n      swap2\n      swap1\n      tag_275\n      jump\t// in\n    tag_335:\n      pop\n        /* \"QuailFinance.sol\":4862:4871  usdbToken */\n      0x08\n        /* \"QuailFinance.sol\":4862:4924  usdbToken = IERC20(0x4200000000000000000000000000000000000022) */\n      dup1\n      sload\n      not(sub(shl(0xa0, 0x01), 0x01))\n      and\n      add(shl(0x99, 0x21), 0x22)\n      or\n      swap1\n      sstore\n        /* \"QuailFinance.sol\":4934:4963  BLAST.configureClaimableGas() */\n      0x40\n      dup1\n      mload\n      shl(0xe0, 0x4e606c47)\n      dup2\n      mstore\n      swap1\n      mload\n      add(shl(0x98, 0x43), 0x02)\n        /* \"QuailFinance.sol\":1036:1078  0x4300000000000000000000000000000000000002 */\n      swap2\n        /* \"QuailFinance.sol\":4934:4961  BLAST.configureClaimableGas */\n      0x4e606c47\n      swap2\n        /* \"QuailFinance.sol\":4934:4963  BLAST.configureClaimableGas() */\n      0x04\n      dup1\n      dup4\n      add\n      swap3\n        /* \"QuailFinance.sol\":4862:4871  usdbToken */\n      0x00\n      swap3\n        /* \"QuailFinance.sol\":4934:4963  BLAST.configureClaimableGas() */\n      swap2\n      swap1\n      dup3\n      swap1\n      sub\n      add\n      dup2\n        /* \"QuailFinance.sol\":4862:4871  usdbToken */\n      dup4\n        /* \"QuailFinance.sol\":1036:1078  0x4300000000000000000000000000000000000002 */\n      dup8\n        /* \"QuailFinance.sol\":4934:4963  BLAST.configureClaimableGas() */\n      dup1\n      extcodesize\n      iszero\n      dup1\n      iszero\n      tag_336\n      jumpi\n      0x00\n      dup1\n      revert\n    tag_336:\n      pop\n      gas\n      call\n      iszero\n      dup1\n      iszero\n      tag_338\n      jumpi\n      returndatasize\n      0x00\n      dup1\n      returndatacopy\n      revert(0x00, returndatasize)\n    tag_338:\n      pop\n      pop\n        /* \"QuailFinance.sol\":5037:5161  IBlastPoints(0x2fc95838c71e76ec69ff817983BFf17c710F34E0).configurePointsOperator(0xE4860D3973802C7C42450D7b9741921C7711D039) */\n      mload(0x40)\n      shl(0xe0, 0x36b91f2b)\n      dup2\n      mstore\n        /* \"QuailFinance.sol\":5118:5160  0xE4860D3973802C7C42450D7b9741921C7711D039 */\n      0xe4860d3973802c7c42450d7b9741921c7711d039\n        /* \"QuailFinance.sol\":5037:5161  IBlastPoints(0x2fc95838c71e76ec69ff817983BFf17c710F34E0).configurePointsOperator(0xE4860D3973802C7C42450D7b9741921C7711D039) */\n      0x04\n      dup3\n      add\n        /* \"#utility.yul\":2188:2239   */\n      mstore\n        /* \"QuailFinance.sol\":5050:5092  0x2fc95838c71e76ec69ff817983BFf17c710F34E0 */\n      0x2fc95838c71e76ec69ff817983bff17c710f34e0\n      swap3\n      pop\n        /* \"QuailFinance.sol\":5037:5117  IBlastPoints(0x2fc95838c71e76ec69ff817983BFf17c710F34E0).configurePointsOperator */\n      0x36b91f2b\n      swap2\n      pop\n        /* \"#utility.yul\":2161:2179   */\n      0x24\n      add\n        /* \"QuailFinance.sol\":5037:5161  IBlastPoints(0x2fc95838c71e76ec69ff817983BFf17c710F34E0).configurePointsOperator(0xE4860D3973802C7C42450D7b9741921C7711D039) */\n      0x00\n      mload(0x40)\n      dup1\n      dup4\n      sub\n      dup2\n      0x00\n      dup8\n      dup1\n      extcodesize\n      iszero\n      dup1\n      iszero\n      tag_340\n      jumpi\n      0x00\n      dup1\n      revert\n    tag_340:\n      pop\n      gas\n      call\n      iszero\n      dup1\n      iszero\n      tag_342\n      jumpi\n      returndatasize\n      0x00\n      dup1\n      returndatacopy\n      revert(0x00, returndatasize)\n    tag_342:\n      pop\n      pop\n        /* \"QuailFinance.sol\":5171:5178  entropy */\n      0x00\n        /* \"QuailFinance.sol\":5171:5199  entropy = IEntropy(_entropy) */\n      dup1\n      sload\n      sub(shl(0xa0, 0x01), 0x01)\n      dup1\n      dup14\n      and\n      not(sub(shl(0xa0, 0x01), 0x01))\n      swap3\n      dup4\n      and\n      or\n      swap1\n      swap3\n      sstore\n      0x01\n        /* \"QuailFinance.sol\":5209:5243  entropyProvider = _entropyProvider */\n      dup1\n      sload\n      dup13\n      dup5\n      and\n      swap1\n      dup4\n      and\n      or\n      swap1\n      sstore\n        /* \"QuailFinance.sol\":5253:5258  admin */\n      0x02\n        /* \"QuailFinance.sol\":5253:5272  admin = adminSigner */\n      dup1\n      sload\n      swap3\n      dup12\n      and\n      swap3\n      swap1\n      swap2\n      and\n      swap2\n      swap1\n      swap2\n      or\n      swap1\n      sstore\n      pop\n      pop\n        /* \"QuailFinance.sol\":5299:5315  1000000000000000 */\n      0x038d7ea4c68000\n        /* \"QuailFinance.sol\":5282:5296  potCreationFee */\n      0x06\n        /* \"QuailFinance.sol\":5282:5315  potCreationFee = 1000000000000000 */\n      sstore\n        /* \"@openzeppelin/contracts-upgradeable/proxy/utils/Initializable.sol\":5066:5167  if (isTopLevelCall) {... */\n      dup4\n      iszero\n      tag_343\n      jumpi\n        /* \"@openzeppelin/contracts-upgradeable/proxy/utils/Initializable.sol\":5100:5123  $._initializing = false */\n      dup5\n      sload\n      not(shl(0x40, 0xff))\n      and\n      dup6\n      sstore\n        /* \"@openzeppelin/contracts-upgradeable/proxy/utils/Initializable.sol\":5142:5156  Initialized(1) */\n      mload(0x40)\n      0x01\n        /* \"#utility.yul\":22050:22100   */\n      dup2\n      mstore\n        /* \"@openzeppelin/contracts-upgradeable/proxy/utils/Initializable.sol\":5142:5156  Initialized(1) */\n      0xc7f505b2f371ae2175ee4913f4499e1f2633a7b5936321eed1cdaeb6115181d2\n      swap1\n        /* \"#utility.yul\":22038:22040   */\n      0x20\n        /* \"#utility.yul\":22023:22041   */\n      add\n        /* \"@openzeppelin/contracts-upgradeable/proxy/utils/Initializable.sol\":5142:5156  Initialized(1) */\n      mload(0x40)\n      dup1\n      swap2\n      sub\n      swap1\n      log1\n        /* \"@openzeppelin/contracts-upgradeable/proxy/utils/Initializable.sol\":5066:5167  if (isTopLevelCall) {... */\n    tag_343:\n        /* \"@openzeppelin/contracts-upgradeable/proxy/utils/Initializable.sol\":4092:5173  {... */\n      pop\n      pop\n      pop\n      pop\n      pop\n        /* \"QuailFinance.sol\":4525:5319  function initialize(address _entropy, address _entropyProvider, address adminSigner) public initializer {... */\n      pop\n      pop\n      pop\n      jump\t// out\n        /* \"QuailFinance.sol\":1296:1331  mapping(uint256 => Pot) public pots */\n    tag_149:\n      mstore(0x20, 0x0a)\n      0x00\n      swap1\n      dup2\n      mstore\n      0x40\n      swap1\n      keccak256\n      dup1\n      sload\n      dup2\n      swap1\n      tag_346\n      swap1\n      tag_347\n      jump\t// in\n    tag_346:\n      dup1\n      0x1f\n      add\n      0x20\n      dup1\n      swap2\n      div\n      mul\n      0x20\n      add\n      mload(0x40)\n      swap1\n      dup2\n      add\n      0x40\n      mstore\n      dup1\n      swap3\n      swap2\n      swap1\n      dup2\n      dup2\n      mstore\n      0x20\n      add\n      dup3\n      dup1\n      sload\n      tag_348\n      swap1\n      tag_347\n      jump\t// in\n    tag_348:\n      dup1\n      iszero\n      tag_349\n      jumpi\n      dup1\n      0x1f\n      lt\n      tag_350\n      jumpi\n      0x0100\n      dup1\n      dup4\n      sload\n      div\n      mul\n      dup4\n      mstore\n      swap2\n      0x20\n      add\n      swap2\n      jump(tag_349)\n    tag_350:\n      dup3\n      add\n      swap2\n      swap1\n      0x00\n      mstore\n      keccak256(0x00, 0x20)\n      swap1\n    tag_351:\n      dup2\n      sload\n      dup2\n      mstore\n      swap1\n      0x01\n      add\n      swap1\n      0x20\n      add\n      dup1\n      dup4\n      gt\n      tag_351\n      jumpi\n      dup3\n      swap1\n      sub\n      0x1f\n      and\n      dup3\n      add\n      swap2\n    tag_349:\n      pop\n      pop\n      pop\n      pop\n      0x01\n      dup4\n      add\n      sload\n      0x02\n      dup5\n      add\n      sload\n      0x03\n      dup6\n      add\n      sload\n      0x04\n      dup7\n      add\n      sload\n      0x05\n      dup8\n      add\n      sload\n      0x06\n      dup9\n      add\n      sload\n      0x07\n      dup10\n      add\n      sload\n      0x08\n      dup11\n      add\n      sload\n      0x09\n      dup12\n      add\n      sload\n      0x0a\n      swap1\n      swap12\n      add\n      sload\n      swap10\n      swap11\n      swap8\n      swap10\n      swap7\n      swap9\n      pop\n      swap5\n      swap7\n      swap4\n      swap6\n      swap3\n      swap5\n      swap2\n      swap4\n      swap1\n      swap3\n      sub(shl(0x40, 0x01), 0x01)\n      dup2\n      and\n      swap1\n      shl(0x40, 0x01)\n      swap1\n      div\n      sub(shl(0xa0, 0x01), 0x01)\n      and\n      dup13\n      jump\t// out\n        /* \"QuailFinance.sol\":11092:13006  function rotateLiquidity(uint256 _potId, bytes32 userCommitment, bytes32 userRandom, bytes32 providerRandom) external payable  {... */\n    tag_155:\n        /* \"QuailFinance.sol\":11229:11244  Pot storage pot */\n      0x00\n        /* \"QuailFinance.sol\":11247:11259  pots[_potId] */\n      dup5\n      dup2\n      mstore\n        /* \"QuailFinance.sol\":11247:11251  pots */\n      0x0a\n        /* \"QuailFinance.sol\":11247:11259  pots[_potId] */\n      0x20\n      mstore\n      0x40\n      swap1\n      keccak256\n        /* \"QuailFinance.sol\":11319:11345  pot.rotationCycleInSeconds */\n      0x04\n      dup2\n      add\n      sload\n        /* \"QuailFinance.sol\":11296:11316  pot.lastRotationTime */\n      0x05\n      dup3\n      add\n      sload\n        /* \"QuailFinance.sol\":11296:11345  pot.lastRotationTime + pot.rotationCycleInSeconds */\n      tag_353\n      swap2\n        /* \"QuailFinance.sol\":11319:11345  pot.rotationCycleInSeconds */\n      swap1\n        /* \"QuailFinance.sol\":11296:11345  pot.lastRotationTime + pot.rotationCycleInSeconds */\n      tag_186\n      jump\t// in\n    tag_353:\n        /* \"QuailFinance.sol\":11277:11292  block.timestamp */\n      timestamp\n        /* \"QuailFinance.sol\":11277:11345  block.timestamp >= pot.lastRotationTime + pot.rotationCycleInSeconds */\n      lt\n      iszero\n        /* \"QuailFinance.sol\":11269:11375  require(block.timestamp >= pot.lastRotationTime + pot.rotationCycleInSeconds, \"Next rotation not yet due\") */\n      tag_354\n      jumpi\n      mload(0x40)\n      shl(0xe5, 0x461bcd)\n      dup2\n      mstore\n        /* \"#utility.yul\":22313:22315   */\n      0x20\n        /* \"QuailFinance.sol\":11269:11375  require(block.timestamp >= pot.lastRotationTime + pot.rotationCycleInSeconds, \"Next rotation not yet due\") */\n      0x04\n      dup3\n      add\n        /* \"#utility.yul\":22295:22316   */\n      mstore\n        /* \"#utility.yul\":22352:22354   */\n      0x19\n        /* \"#utility.yul\":22332:22350   */\n      0x24\n      dup3\n      add\n        /* \"#utility.yul\":22325:22355   */\n      mstore\n        /* \"#utility.yul\":22391:22418   */\n      0x4e65787420726f746174696f6e206e6f74207965742064756500000000000000\n        /* \"#utility.yul\":22371:22389   */\n      0x44\n      dup3\n      add\n        /* \"#utility.yul\":22364:22419   */\n      mstore\n        /* \"#utility.yul\":22436:22454   */\n      0x64\n      add\n        /* \"QuailFinance.sol\":11269:11375  require(block.timestamp >= pot.lastRotationTime + pot.rotationCycleInSeconds, \"Next rotation not yet due\") */\n      tag_188\n        /* \"#utility.yul\":22111:22460   */\n      jump\n        /* \"QuailFinance.sol\":11269:11375  require(block.timestamp >= pot.lastRotationTime + pot.rotationCycleInSeconds, \"Next rotation not yet due\") */\n    tag_354:\n        /* \"QuailFinance.sol\":11385:11405  bytes32 randomNumber */\n      0x00\n        /* \"QuailFinance.sol\":11408:11415  entropy */\n      dup1\n      sload\n      0x01\n        /* \"QuailFinance.sol\":11423:11438  entropyProvider */\n      sload\n        /* \"QuailFinance.sol\":11440:11458  pot.sequenceNumber */\n      0x0a\n      dup5\n      add\n      sload\n        /* \"QuailFinance.sol\":11408:11487  entropy.reveal(entropyProvider, pot.sequenceNumber, userRandom, providerRandom) */\n      mload(0x40)\n      shl(0xe0, 0x9371df51)\n      dup2\n      mstore\n      sub(shl(0xa0, 0x01), 0x01)\n        /* \"QuailFinance.sol\":11423:11438  entropyProvider */\n      swap3\n      dup4\n      and\n        /* \"QuailFinance.sol\":11408:11487  entropy.reveal(entropyProvider, pot.sequenceNumber, userRandom, providerRandom) */\n      0x04\n      dup3\n      add\n        /* \"#utility.yul\":22694:22745   */\n      mstore\n      sub(shl(0x40, 0x01), 0x01)\n        /* \"QuailFinance.sol\":11440:11458  pot.sequenceNumber */\n      swap1\n      swap2\n      and\n        /* \"#utility.yul\":22761:22779   */\n      0x24\n      dup3\n      add\n        /* \"#utility.yul\":22754:22813   */\n      mstore\n        /* \"#utility.yul\":22829:22847   */\n      0x44\n      dup2\n      add\n        /* \"#utility.yul\":22822:22856   */\n      dup8\n      swap1\n      mstore\n        /* \"#utility.yul\":22872:22890   */\n      0x64\n      dup2\n      add\n        /* \"#utility.yul\":22865:22899   */\n      dup7\n      swap1\n      mstore\n        /* \"QuailFinance.sol\":11408:11415  entropy */\n      swap2\n      and\n      swap1\n        /* \"QuailFinance.sol\":11408:11422  entropy.reveal */\n      0x9371df51\n      swap1\n        /* \"#utility.yul\":22666:22685   */\n      0x84\n      add\n        /* \"QuailFinance.sol\":11408:11487  entropy.reveal(entropyProvider, pot.sequenceNumber, userRandom, providerRandom) */\n      0x20\n      mload(0x40)\n      dup1\n      dup4\n      sub\n      dup2\n      0x00\n      dup8\n      gas\n      call\n      iszero\n      dup1\n      iszero\n      tag_360\n      jumpi\n      returndatasize\n      0x00\n      dup1\n      returndatacopy\n      revert(0x00, returndatasize)\n    tag_360:\n      pop\n      pop\n      pop\n      pop\n      mload(0x40)\n      returndatasize\n      not(0x1f)\n      0x1f\n      dup3\n      add\n      and\n      dup3\n      add\n      dup1\n      0x40\n      mstore\n      pop\n      dup2\n      add\n      swap1\n      tag_361\n      swap2\n      swap1\n      tag_275\n      jump\t// in\n    tag_361:\n        /* \"QuailFinance.sol\":11543:11559  pot.participants */\n      0x0b\n      dup4\n      add\n        /* \"QuailFinance.sol\":11543:11566  pot.participants.length */\n      sload\n        /* \"QuailFinance.sol\":11385:11487  bytes32 randomNumber = entropy.reveal(entropyProvider, pot.sequenceNumber, userRandom, providerRandom) */\n      swap1\n      swap2\n      pop\n        /* \"QuailFinance.sol\":11497:11516  uint256 winnerIndex */\n      0x00\n      swap1\n        /* \"QuailFinance.sol\":11519:11566  uint256(randomNumber) % pot.participants.length */\n      tag_363\n      swap1\n        /* \"QuailFinance.sol\":11385:11487  bytes32 randomNumber = entropy.reveal(entropyProvider, pot.sequenceNumber, userRandom, providerRandom) */\n      dup4\n        /* \"QuailFinance.sol\":11519:11566  uint256(randomNumber) % pot.participants.length */\n      tag_364\n      jump\t// in\n    tag_363:\n        /* \"QuailFinance.sol\":11497:11566  uint256 winnerIndex = uint256(randomNumber) % pot.participants.length */\n      swap1\n      pop\n        /* \"QuailFinance.sol\":11576:11590  address winner */\n      0x00\n        /* \"QuailFinance.sol\":11593:11596  pot */\n      dup4\n        /* \"QuailFinance.sol\":11593:11609  pot.participants */\n      0x0b\n      add\n        /* \"QuailFinance.sol\":11610:11621  winnerIndex */\n      dup3\n        /* \"QuailFinance.sol\":11593:11622  pot.participants[winnerIndex] */\n      dup2\n      sload\n      dup2\n      lt\n      tag_366\n      jumpi\n      tag_366\n      tag_367\n      jump\t// in\n    tag_366:\n      0x00\n      swap2\n      dup3\n      mstore\n      0x20\n      dup1\n      dup4\n      keccak256\n      swap1\n      swap2\n      add\n      sload\n        /* \"QuailFinance.sol\":11632:11643  pot.winners */\n      0x0c\n      dup8\n      add\n        /* \"QuailFinance.sol\":11632:11656  pot.winners.push(winner) */\n      dup1\n      sload\n        /* \"QuailFinance.sol\":11593:11622  pot.participants[winnerIndex] */\n      0x01\n        /* \"QuailFinance.sol\":11632:11656  pot.winners.push(winner) */\n      dup2\n      dup2\n      add\n      dup4\n      sstore\n      swap2\n      dup6\n      mstore\n      swap3\n      dup5\n      keccak256\n      swap1\n      swap3\n      add\n      dup1\n      sload\n      not(sub(shl(0xa0, 0x01), 0x01))\n      and\n      sub(shl(0xa0, 0x01), 0x01)\n        /* \"QuailFinance.sol\":11593:11622  pot.participants[winnerIndex] */\n      swap1\n      swap3\n      and\n        /* \"QuailFinance.sol\":11632:11656  pot.winners.push(winner) */\n      swap2\n      dup3\n      or\n      swap1\n      sstore\n        /* \"QuailFinance.sol\":11820:11830  pot.amount */\n      swap1\n      dup7\n      add\n      sload\n        /* \"QuailFinance.sol\":11794:11810  pot.participants */\n      0x0b\n      dup8\n      add\n        /* \"QuailFinance.sol\":11794:11817  pot.participants.length */\n      sload\n        /* \"QuailFinance.sol\":11593:11622  pot.participants[winnerIndex] */\n      swap2\n      swap4\n      pop\n        /* \"QuailFinance.sol\":11794:11830  pot.participants.length * pot.amount */\n      tag_370\n      swap2\n      tag_284\n      jump\t// in\n    tag_370:\n        /* \"QuailFinance.sol\":11769:11830  uint256 totalPotAmount = pot.participants.length * pot.amount */\n      swap1\n      pop\n        /* \"QuailFinance.sol\":11840:11866  uint256 amountAfterRevenue */\n      0x00\n        /* \"QuailFinance.sol\":11869:11898  deductRevenue(totalPotAmount) */\n      tag_371\n        /* \"QuailFinance.sol\":11883:11897  totalPotAmount */\n      dup3\n        /* \"QuailFinance.sol\":11869:11882  deductRevenue */\n      tag_372\n        /* \"QuailFinance.sol\":11869:11898  deductRevenue(totalPotAmount) */\n      jump\t// in\n    tag_371:\n        /* \"QuailFinance.sol\":11840:11898  uint256 amountAfterRevenue = deductRevenue(totalPotAmount) */\n      swap1\n      pop\n        /* \"QuailFinance.sol\":11953:11976  uint256 riskPoolBalance */\n      0x00\n        /* \"QuailFinance.sol\":11979:12030  calculateRiskPoolBalance(_potId,amountAfterRevenue) */\n      tag_373\n        /* \"QuailFinance.sol\":12004:12010  _potId */\n      dup12\n        /* \"QuailFinance.sol\":12011:12029  amountAfterRevenue */\n      dup4\n        /* \"QuailFinance.sol\":11979:12003  calculateRiskPoolBalance */\n      tag_108\n        /* \"QuailFinance.sol\":11979:12030  calculateRiskPoolBalance(_potId,amountAfterRevenue) */\n      jump\t// in\n    tag_373:\n        /* \"QuailFinance.sol\":12080:12102  pot.useRiskPoolBalance */\n      0x03\n      dup9\n      add\n      sload\n        /* \"QuailFinance.sol\":11953:12030  uint256 riskPoolBalance = calculateRiskPoolBalance(_potId,amountAfterRevenue) */\n      swap1\n      swap2\n      pop\n        /* \"QuailFinance.sol\":12080:12102  pot.useRiskPoolBalance */\n      dup1\n        /* \"QuailFinance.sol\":12137:12171  amountAfterRevenue-riskPoolBalance */\n      tag_374\n        /* \"QuailFinance.sol\":11953:12030  uint256 riskPoolBalance = calculateRiskPoolBalance(_potId,amountAfterRevenue) */\n      dup4\n        /* \"QuailFinance.sol\":12137:12155  amountAfterRevenue */\n      dup6\n        /* \"QuailFinance.sol\":12137:12171  amountAfterRevenue-riskPoolBalance */\n      tag_249\n      jump\t// in\n    tag_374:\n        /* \"QuailFinance.sol\":12136:12202  (amountAfterRevenue-riskPoolBalance)+currentlyUsingRiskPoolBalance */\n      tag_375\n      swap2\n      swap1\n      tag_186\n      jump\t// in\n    tag_375:\n      sub(shl(0xa0, 0x01), 0x01)\n        /* \"QuailFinance.sol\":12112:12133  pot.amountWon[winner] */\n      dup7\n      and\n      0x00\n      swap1\n      dup2\n      mstore\n        /* \"QuailFinance.sol\":12112:12125  pot.amountWon */\n      0x0d\n      dup11\n      add\n        /* \"QuailFinance.sol\":12112:12133  pot.amountWon[winner] */\n      0x20\n      mstore\n      0x40\n      dup2\n      keccak256\n        /* \"QuailFinance.sol\":12112:12202  pot.amountWon[winner] = (amountAfterRevenue-riskPoolBalance)+currentlyUsingRiskPoolBalance */\n      swap2\n      swap1\n      swap2\n      sstore\n        /* \"QuailFinance.sol\":12212:12231  pot.riskPoolBalance */\n      0x02\n      dup10\n      add\n        /* \"QuailFinance.sol\":12212:12250  pot.riskPoolBalance += riskPoolBalance */\n      dup1\n      sload\n        /* \"QuailFinance.sol\":12235:12250  riskPoolBalance */\n      dup5\n      swap3\n        /* \"QuailFinance.sol\":12112:12133  pot.amountWon[winner] */\n      swap1\n        /* \"QuailFinance.sol\":12212:12250  pot.riskPoolBalance += riskPoolBalance */\n      tag_376\n      swap1\n        /* \"QuailFinance.sol\":12235:12250  riskPoolBalance */\n      dup5\n      swap1\n        /* \"QuailFinance.sol\":12212:12250  pot.riskPoolBalance += riskPoolBalance */\n      tag_186\n      jump\t// in\n    tag_376:\n      swap1\n      swap2\n      sstore\n      pop\n      pop\n        /* \"QuailFinance.sol\":12285:12286  0 */\n      0x00\n        /* \"QuailFinance.sol\":12260:12282  pot.useRiskPoolBalance */\n      0x03\n      dup10\n      add\n        /* \"QuailFinance.sol\":12260:12286  pot.useRiskPoolBalance = 0 */\n      dup2\n      swap1\n      sstore\n      sub(shl(0xa0, 0x01), 0x01)\n        /* \"QuailFinance.sol\":12296:12314  pot.hasWon[winner] */\n      dup7\n      and\n      dup2\n      mstore\n        /* \"QuailFinance.sol\":12296:12306  pot.hasWon */\n      0x0e\n      dup10\n      add\n        /* \"QuailFinance.sol\":12296:12314  pot.hasWon[winner] */\n      0x20\n      mstore\n      0x40\n      swap1\n      keccak256\n        /* \"QuailFinance.sol\":12296:12321  pot.hasWon[winner] = true */\n      dup1\n      sload\n      not(0xff)\n      and\n        /* \"QuailFinance.sol\":12317:12321  true */\n      0x01\n        /* \"QuailFinance.sol\":12296:12321  pot.hasWon[winner] = true */\n      or\n      swap1\n      sstore\n        /* \"QuailFinance.sol\":12354:12369  block.timestamp */\n      timestamp\n        /* \"QuailFinance.sol\":12331:12351  pot.lastRotationTime */\n      0x05\n      dup10\n      add\n        /* \"QuailFinance.sol\":12331:12369  pot.lastRotationTime = block.timestamp */\n      sstore\n        /* \"QuailFinance.sol\":12446:12462  pot.participants */\n      0x0b\n      dup9\n      add\n        /* \"QuailFinance.sol\":12446:12469  pot.participants.length */\n      sload\n        /* \"QuailFinance.sol\":12446:12473  pot.participants.length > 0 */\n      iszero\n        /* \"QuailFinance.sol\":12442:12518  if (pot.participants.length > 0) {... */\n      tag_377\n      jumpi\n        /* \"QuailFinance.sol\":12489:12505  pot.currentRound */\n      0x09\n      dup9\n      add\n        /* \"QuailFinance.sol\":12489:12507  pot.currentRound++ */\n      dup1\n      sload\n      swap1\n        /* \"QuailFinance.sol\":12489:12505  pot.currentRound */\n      0x00\n        /* \"QuailFinance.sol\":12489:12507  pot.currentRound++ */\n      tag_378\n      dup4\n      tag_200\n      jump\t// in\n    tag_378:\n      swap2\n      swap1\n      pop\n      sstore\n      pop\n        /* \"QuailFinance.sol\":12442:12518  if (pot.participants.length > 0) {... */\n    tag_377:\n        /* \"QuailFinance.sol\":12527:12550  delete pot.participants */\n      tag_379\n        /* \"QuailFinance.sol\":12534:12550  pot.participants */\n      0x0b\n      dup10\n      add\n      0x00\n        /* \"QuailFinance.sol\":12527:12550  delete pot.participants */\n      tag_380\n      jump\t// in\n    tag_379:\n        /* \"QuailFinance.sol\":12560:12571  uint256 fee */\n      0x00\n        /* \"QuailFinance.sol\":12574:12581  entropy */\n      dup1\n      sload\n      0x01\n        /* \"QuailFinance.sol\":12589:12604  entropyProvider */\n      sload\n        /* \"QuailFinance.sol\":12574:12605  entropy.getFee(entropyProvider) */\n      mload(0x40)\n      shl(0xe3, 0x17119229)\n      dup2\n      mstore\n      sub(shl(0xa0, 0x01), 0x01)\n        /* \"QuailFinance.sol\":12589:12604  entropyProvider */\n      swap2\n      dup3\n      and\n        /* \"QuailFinance.sol\":12574:12605  entropy.getFee(entropyProvider) */\n      0x04\n      dup3\n      add\n        /* \"#utility.yul\":2188:2239   */\n      mstore\n        /* \"QuailFinance.sol\":12574:12581  entropy */\n      swap2\n      and\n      swap1\n        /* \"QuailFinance.sol\":12574:12588  entropy.getFee */\n      0xb88c9148\n      swap1\n        /* \"#utility.yul\":2161:2179   */\n      0x24\n      add\n        /* \"QuailFinance.sol\":12574:12605  entropy.getFee(entropyProvider) */\n      0x20\n      mload(0x40)\n      dup1\n      dup4\n      sub\n      dup2\n      dup7\n      gas\n      staticcall\n      iszero\n      dup1\n      iszero\n      tag_383\n      jumpi\n      returndatasize\n      0x00\n      dup1\n      returndatacopy\n      revert(0x00, returndatasize)\n    tag_383:\n      pop\n      pop\n      pop\n      pop\n      mload(0x40)\n      returndatasize\n      not(0x1f)\n      0x1f\n      dup3\n      add\n      and\n      dup3\n      add\n      dup1\n      0x40\n      mstore\n      pop\n      dup2\n      add\n      swap1\n      tag_384\n      swap2\n      swap1\n      tag_184\n      jump\t// in\n    tag_384:\n      sub(shl(0x80, 0x01), 0x01)\n        /* \"QuailFinance.sol\":12560:12605  uint256 fee = entropy.getFee(entropyProvider) */\n      and\n      swap1\n      pop\n        /* \"QuailFinance.sol\":12636:12639  fee */\n      dup1\n        /* \"QuailFinance.sol\":12623:12632  msg.value */\n      callvalue\n        /* \"QuailFinance.sol\":12623:12639  msg.value == fee */\n      eq\n        /* \"QuailFinance.sol\":12615:12660  require(msg.value == fee, \"Insufficient fee\") */\n      tag_385\n      jumpi\n      mload(0x40)\n      shl(0xe5, 0x461bcd)\n      dup2\n      mstore\n        /* \"#utility.yul\":9547:9549   */\n      0x20\n        /* \"QuailFinance.sol\":12615:12660  require(msg.value == fee, \"Insufficient fee\") */\n      0x04\n      dup3\n      add\n        /* \"#utility.yul\":9529:9550   */\n      mstore\n        /* \"#utility.yul\":9586:9588   */\n      0x10\n        /* \"#utility.yul\":9566:9584   */\n      0x24\n      dup3\n      add\n        /* \"#utility.yul\":9559:9589   */\n      mstore\n      shl(0x80, 0x496e73756666696369656e7420666565)\n        /* \"#utility.yul\":9605:9623   */\n      0x44\n      dup3\n      add\n        /* \"#utility.yul\":9598:9644   */\n      mstore\n        /* \"#utility.yul\":9661:9679   */\n      0x64\n      add\n        /* \"QuailFinance.sol\":12615:12660  require(msg.value == fee, \"Insufficient fee\") */\n      tag_188\n        /* \"#utility.yul\":9345:9685   */\n      jump\n        /* \"QuailFinance.sol\":12615:12660  require(msg.value == fee, \"Insufficient fee\") */\n    tag_385:\n        /* \"QuailFinance.sol\":11219:13006  {... */\n      pop\n      pop\n      pop\n      pop\n      pop\n      pop\n      pop\n      pop\n      pop\n        /* \"QuailFinance.sol\":11092:13006  function rotateLiquidity(uint256 _potId, bytes32 userCommitment, bytes32 userRandom, bytes32 providerRandom) external payable  {... */\n      pop\n      pop\n      pop\n      pop\n      jump\t// out\n        /* \"@openzeppelin/contracts-upgradeable/access/OwnableUpgradeable.sol\":3405:3620  function transferOwnership(address newOwner) public virtual onlyOwner {... */\n    tag_163:\n        /* \"@openzeppelin/contracts-upgradeable/access/OwnableUpgradeable.sol\":2334:2347  _checkOwner() */\n      tag_388\n        /* \"@openzeppelin/contracts-upgradeable/access/OwnableUpgradeable.sol\":2334:2345  _checkOwner */\n      tag_230\n        /* \"@openzeppelin/contracts-upgradeable/access/OwnableUpgradeable.sol\":2334:2347  _checkOwner() */\n      jump\t// in\n    tag_388:\n      sub(shl(0xa0, 0x01), 0x01)\n        /* \"@openzeppelin/contracts-upgradeable/access/OwnableUpgradeable.sol\":3489:3511  newOwner == address(0) */\n      dup2\n      and\n        /* \"@openzeppelin/contracts-upgradeable/access/OwnableUpgradeable.sol\":3485:3576  if (newOwner == address(0)) {... */\n      tag_390\n      jumpi\n        /* \"@openzeppelin/contracts-upgradeable/access/OwnableUpgradeable.sol\":3534:3565  OwnableInvalidOwner(address(0)) */\n      mload(0x40)\n      shl(0xe0, 0x1e4fbdf7)\n      dup2\n      mstore\n        /* \"@openzeppelin/contracts-upgradeable/access/OwnableUpgradeable.sol\":3562:3563  0 */\n      0x00\n        /* \"@openzeppelin/contracts-upgradeable/access/OwnableUpgradeable.sol\":3534:3565  OwnableInvalidOwner(address(0)) */\n      0x04\n      dup3\n      add\n        /* \"#utility.yul\":2188:2239   */\n      mstore\n        /* \"#utility.yul\":2161:2179   */\n      0x24\n      add\n        /* \"@openzeppelin/contracts-upgradeable/access/OwnableUpgradeable.sol\":3534:3565  OwnableInvalidOwner(address(0)) */\n      tag_188\n        /* \"#utility.yul\":2019:2245   */\n      jump\n        /* \"@openzeppelin/contracts-upgradeable/access/OwnableUpgradeable.sol\":3485:3576  if (newOwner == address(0)) {... */\n    tag_390:\n        /* \"@openzeppelin/contracts-upgradeable/access/OwnableUpgradeable.sol\":3585:3613  _transferOwnership(newOwner) */\n      tag_274\n        /* \"@openzeppelin/contracts-upgradeable/access/OwnableUpgradeable.sol\":3604:3612  newOwner */\n      dup2\n        /* \"@openzeppelin/contracts-upgradeable/access/OwnableUpgradeable.sol\":3585:3603  _transferOwnership */\n      tag_266\n        /* \"@openzeppelin/contracts-upgradeable/access/OwnableUpgradeable.sol\":3585:3613  _transferOwnership(newOwner) */\n      jump\t// in\n        /* \"QuailFinance.sol\":9023:10111  function joinPot(uint256 _potId, bytes memory signature, uint256 nonce) external {... */\n    tag_168:\n        /* \"QuailFinance.sol\":9114:9129  Pot storage pot */\n      0x00\n        /* \"QuailFinance.sol\":9132:9144  pots[_potId] */\n      dup4\n      dup2\n      mstore\n        /* \"QuailFinance.sol\":9132:9136  pots */\n      0x0a\n        /* \"QuailFinance.sol\":9132:9144  pots[_potId] */\n      0x20\n      mstore\n      0x40\n      swap1\n      keccak256\n        /* \"QuailFinance.sol\":9188:9207  pot.numParticipants */\n      0x08\n      dup2\n      add\n      sload\n        /* \"QuailFinance.sol\":9162:9178  pot.participants */\n      0x0b\n      dup3\n      add\n        /* \"QuailFinance.sol\":9162:9185  pot.participants.length */\n      sload\n        /* \"QuailFinance.sol\":9162:9207  pot.participants.length < pot.numParticipants */\n      lt\n        /* \"QuailFinance.sol\":9154:9223  require(pot.participants.length < pot.numParticipants, \"Pot is full\") */\n      tag_394\n      jumpi\n      mload(0x40)\n      shl(0xe5, 0x461bcd)\n      dup2\n      mstore\n        /* \"#utility.yul\":23550:23552   */\n      0x20\n        /* \"QuailFinance.sol\":9154:9223  require(pot.participants.length < pot.numParticipants, \"Pot is full\") */\n      0x04\n      dup3\n      add\n        /* \"#utility.yul\":23532:23553   */\n      mstore\n        /* \"#utility.yul\":23589:23591   */\n      0x0b\n        /* \"#utility.yul\":23569:23587   */\n      0x24\n      dup3\n      add\n        /* \"#utility.yul\":23562:23592   */\n      mstore\n      shl(0xaa, 0x141bdd081a5cc8199d5b1b)\n        /* \"#utility.yul\":23608:23626   */\n      0x44\n      dup3\n      add\n        /* \"#utility.yul\":23601:23642   */\n      mstore\n        /* \"#utility.yul\":23659:23677   */\n      0x64\n      add\n        /* \"QuailFinance.sol\":9154:9223  require(pot.participants.length < pot.numParticipants, \"Pot is full\") */\n      tag_188\n        /* \"#utility.yul\":23348:23683   */\n      jump\n        /* \"QuailFinance.sol\":9154:9223  require(pot.participants.length < pot.numParticipants, \"Pot is full\") */\n    tag_394:\n        /* \"QuailFinance.sol\":9242:9262  hasJoinedPot[_potId] */\n      0x00\n      dup5\n      dup2\n      mstore\n        /* \"QuailFinance.sol\":9242:9254  hasJoinedPot */\n      0x0c\n        /* \"QuailFinance.sol\":9242:9262  hasJoinedPot[_potId] */\n      0x20\n      swap1\n      dup2\n      mstore\n      0x40\n      dup1\n      dup4\n      keccak256\n        /* \"QuailFinance.sol\":9263:9279  pot.currentRound */\n      0x09\n      dup6\n      add\n      sload\n        /* \"QuailFinance.sol\":9242:9280  hasJoinedPot[_potId][pot.currentRound] */\n      dup5\n      mstore\n      dup3\n      mstore\n      dup1\n      dup4\n      keccak256\n        /* \"QuailFinance.sol\":9281:9291  msg.sender */\n      caller\n        /* \"QuailFinance.sol\":9242:9292  hasJoinedPot[_potId][pot.currentRound][msg.sender] */\n      dup5\n      mstore\n      swap1\n      swap2\n      mstore\n      swap1\n      keccak256\n      sload\n      0xff\n      and\n        /* \"QuailFinance.sol\":9241:9292  !hasJoinedPot[_potId][pot.currentRound][msg.sender] */\n      iszero\n        /* \"QuailFinance.sol\":9233:9350  require(!hasJoinedPot[_potId][pot.currentRound][msg.sender], \"You have already joined this pot in the current round\") */\n      tag_397\n      jumpi\n      mload(0x40)\n      shl(0xe5, 0x461bcd)\n      dup2\n      mstore\n        /* \"#utility.yul\":23890:23892   */\n      0x20\n        /* \"QuailFinance.sol\":9233:9350  require(!hasJoinedPot[_potId][pot.currentRound][msg.sender], \"You have already joined this pot in the current round\") */\n      0x04\n      dup3\n      add\n        /* \"#utility.yul\":23872:23893   */\n      mstore\n        /* \"#utility.yul\":23929:23931   */\n      0x35\n        /* \"#utility.yul\":23909:23927   */\n      0x24\n      dup3\n      add\n        /* \"#utility.yul\":23902:23932   */\n      mstore\n        /* \"#utility.yul\":23968:24002   */\n      0x596f75206861766520616c7265616479206a6f696e6564207468697320706f74\n        /* \"#utility.yul\":23948:23966   */\n      0x44\n      dup3\n      add\n        /* \"#utility.yul\":23941:24003   */\n      mstore\n      shl(0x5a, 0x081a5b881d1a194818dd5c9c995b9d081c9bdd5b99)\n        /* \"#utility.yul\":24019:24037   */\n      0x64\n      dup3\n      add\n        /* \"#utility.yul\":24012:24063   */\n      mstore\n        /* \"#utility.yul\":24080:24099   */\n      0x84\n      add\n        /* \"QuailFinance.sol\":9233:9350  require(!hasJoinedPot[_potId][pot.currentRound][msg.sender], \"You have already joined this pot in the current round\") */\n      tag_188\n        /* \"#utility.yul\":23688:24105   */\n      jump\n        /* \"QuailFinance.sol\":9233:9350  require(!hasJoinedPot[_potId][pot.currentRound][msg.sender], \"You have already joined this pot in the current round\") */\n    tag_397:\n        /* \"QuailFinance.sol\":9360:9379  bytes32 messageHash */\n      0x00\n        /* \"QuailFinance.sol\":9409:9415  _potId */\n      dup5\n        /* \"QuailFinance.sol\":9417:9427  msg.sender */\n      caller\n        /* \"QuailFinance.sol\":9429:9432  pot */\n      dup4\n        /* \"QuailFinance.sol\":9429:9445  pot.currentRound */\n      0x09\n      add\n      sload\n        /* \"QuailFinance.sol\":9447:9452  nonce */\n      dup6\n        /* \"QuailFinance.sol\":9392:9453  abi.encodePacked(_potId, msg.sender, pot.currentRound, nonce) */\n      add(0x20, mload(0x40))\n      tag_400\n      swap5\n      swap4\n      swap3\n      swap2\n      swap1\n        /* \"#utility.yul\":19727:19746   */\n      swap4\n      dup5\n      mstore\n        /* \"#utility.yul\":19784:19786   */\n      0x60\n        /* \"#utility.yul\":19780:19795   */\n      swap3\n      swap1\n      swap3\n      shl\n      not(sub(shl(0x60, 0x01), 0x01))\n        /* \"#utility.yul\":19776:19829   */\n      and\n        /* \"#utility.yul\":19771:19773   */\n      0x20\n        /* \"#utility.yul\":19762:19774   */\n      dup5\n      add\n        /* \"#utility.yul\":19755:19830   */\n      mstore\n        /* \"#utility.yul\":19855:19857   */\n      0x34\n        /* \"#utility.yul\":19846:19858   */\n      dup4\n      add\n        /* \"#utility.yul\":19839:19867   */\n      mstore\n        /* \"#utility.yul\":19892:19894   */\n      0x54\n        /* \"#utility.yul\":19883:19895   */\n      dup3\n      add\n        /* \"#utility.yul\":19876:19904   */\n      mstore\n        /* \"#utility.yul\":19929:19932   */\n      0x74\n        /* \"#utility.yul\":19920:19933   */\n      add\n      swap1\n        /* \"#utility.yul\":19514:19939   */\n      jump\n        /* \"QuailFinance.sol\":9392:9453  abi.encodePacked(_potId, msg.sender, pot.currentRound, nonce) */\n    tag_400:\n      mload(0x40)\n      0x20\n      dup2\n      dup4\n      sub\n      sub\n      dup2\n      mstore\n      swap1\n      0x40\n      mstore\n        /* \"QuailFinance.sol\":9382:9454  keccak256(abi.encodePacked(_potId, msg.sender, pot.currentRound, nonce)) */\n      dup1\n      mload\n      swap1\n      0x20\n      add\n      keccak256\n        /* \"QuailFinance.sol\":9360:9454  bytes32 messageHash = keccak256(abi.encodePacked(_potId, msg.sender, pot.currentRound, nonce)) */\n      swap1\n      pop\n        /* \"QuailFinance.sol\":9464:9492  bytes32 ethSignedMessageHash */\n      0x00\n        /* \"QuailFinance.sol\":9495:9531  getEthSignedMessageHash(messageHash) */\n      tag_401\n        /* \"QuailFinance.sol\":9519:9530  messageHash */\n      dup3\n        /* \"QuailFinance.sol\":9495:9518  getEthSignedMessageHash */\n      tag_177\n        /* \"QuailFinance.sol\":9495:9531  getEthSignedMessageHash(messageHash) */\n      jump\t// in\n    tag_401:\n        /* \"QuailFinance.sol\":9464:9531  bytes32 ethSignedMessageHash = getEthSignedMessageHash(messageHash) */\n      swap1\n      pop\n        /* \"QuailFinance.sol\":9558:9597  ethSignedMessageHash.recover(signature) */\n      tag_402\n        /* \"QuailFinance.sol\":9464:9531  bytes32 ethSignedMessageHash = getEthSignedMessageHash(messageHash) */\n      dup2\n        /* \"QuailFinance.sol\":9587:9596  signature */\n      dup7\n        /* \"QuailFinance.sol\":9558:9586  ethSignedMessageHash.recover */\n      tag_292\n        /* \"QuailFinance.sol\":9558:9597  ethSignedMessageHash.recover(signature) */\n      jump\t// in\n    tag_402:\n        /* \"QuailFinance.sol\":9549:9554  admin */\n      sload(0x02)\n      sub(shl(0xa0, 0x01), 0x01)\n      swap1\n      dup2\n      and\n        /* \"QuailFinance.sol\":9549:9597  admin == ethSignedMessageHash.recover(signature) */\n      swap2\n      and\n      eq\n        /* \"QuailFinance.sol\":9541:9631  require(admin == ethSignedMessageHash.recover(signature), \"Signature verification failed\") */\n      tag_403\n      jumpi\n      mload(0x40)\n      shl(0xe5, 0x461bcd)\n      dup2\n      mstore\n        /* \"#utility.yul\":20146:20148   */\n      0x20\n        /* \"QuailFinance.sol\":9541:9631  require(admin == ethSignedMessageHash.recover(signature), \"Signature verification failed\") */\n      0x04\n      dup3\n      add\n        /* \"#utility.yul\":20128:20149   */\n      mstore\n        /* \"#utility.yul\":20185:20187   */\n      0x1d\n        /* \"#utility.yul\":20165:20183   */\n      0x24\n      dup3\n      add\n        /* \"#utility.yul\":20158:20188   */\n      mstore\n        /* \"#utility.yul\":20224:20255   */\n      0x5369676e617475726520766572696669636174696f6e206661696c6564000000\n        /* \"#utility.yul\":20204:20222   */\n      0x44\n      dup3\n      add\n        /* \"#utility.yul\":20197:20256   */\n      mstore\n        /* \"#utility.yul\":20273:20291   */\n      0x64\n      add\n        /* \"QuailFinance.sol\":9541:9631  require(admin == ethSignedMessageHash.recover(signature), \"Signature verification failed\") */\n      tag_188\n        /* \"#utility.yul\":19944:20297   */\n      jump\n        /* \"QuailFinance.sol\":9541:9631  require(admin == ethSignedMessageHash.recover(signature), \"Signature verification failed\") */\n    tag_403:\n        /* \"QuailFinance.sol\":9641:9661  hasJoinedPot[_potId] */\n      0x00\n      dup7\n      dup2\n      mstore\n        /* \"QuailFinance.sol\":9641:9653  hasJoinedPot */\n      0x0c\n        /* \"QuailFinance.sol\":9641:9661  hasJoinedPot[_potId] */\n      0x20\n      swap1\n      dup2\n      mstore\n      0x40\n      dup1\n      dup4\n      keccak256\n        /* \"QuailFinance.sol\":9662:9678  pot.currentRound */\n      0x09\n      dup8\n      add\n      sload\n        /* \"QuailFinance.sol\":9641:9679  hasJoinedPot[_potId][pot.currentRound] */\n      dup5\n      mstore\n      dup3\n      mstore\n      dup1\n      dup4\n      keccak256\n        /* \"QuailFinance.sol\":9680:9690  msg.sender */\n      caller\n        /* \"QuailFinance.sol\":9641:9691  hasJoinedPot[_potId][pot.currentRound][msg.sender] */\n      dup1\n      dup6\n      mstore\n      swap3\n      mstore\n      swap2\n      dup3\n      swap1\n      keccak256\n        /* \"QuailFinance.sol\":9641:9698  hasJoinedPot[_potId][pot.currentRound][msg.sender] = true */\n      dup1\n      sload\n      not(0xff)\n      and\n        /* \"QuailFinance.sol\":9694:9698  true */\n      0x01\n        /* \"QuailFinance.sol\":9641:9698  hasJoinedPot[_potId][pot.currentRound][msg.sender] = true */\n      swap1\n      dup2\n      or\n      swap1\n      swap2\n      sstore\n        /* \"QuailFinance.sol\":9757:9766  usdbToken */\n      sload(0x08)\n        /* \"QuailFinance.sol\":9807:9817  pot.amount */\n      swap1\n      dup7\n      add\n      sload\n        /* \"QuailFinance.sol\":9757:9818  usdbToken.transferFrom(msg.sender, address(this), pot.amount) */\n      swap3\n      mload\n      shl(0xe0, 0x23b872dd)\n      dup2\n      mstore\n      0x04\n      dup2\n      add\n        /* \"#utility.yul\":11256:11290   */\n      swap3\n      swap1\n      swap3\n      mstore\n        /* \"QuailFinance.sol\":9800:9804  this */\n      address\n        /* \"#utility.yul\":11306:11324   */\n      0x24\n      dup4\n      add\n        /* \"#utility.yul\":11299:11342   */\n      mstore\n        /* \"#utility.yul\":11358:11376   */\n      0x44\n      dup3\n      add\n        /* \"#utility.yul\":11351:11385   */\n      swap3\n      swap1\n      swap3\n      mstore\n      sub(shl(0xa0, 0x01), 0x01)\n        /* \"QuailFinance.sol\":9757:9766  usdbToken */\n      swap1\n      swap2\n      and\n      swap1\n        /* \"QuailFinance.sol\":9757:9779  usdbToken.transferFrom */\n      0x23b872dd\n      swap1\n        /* \"#utility.yul\":11191:11209   */\n      0x64\n      add\n        /* \"QuailFinance.sol\":9757:9818  usdbToken.transferFrom(msg.sender, address(this), pot.amount) */\n      0x20\n      mload(0x40)\n      dup1\n      dup4\n      sub\n      dup2\n      0x00\n      dup8\n      gas\n      call\n      iszero\n      dup1\n      iszero\n      tag_407\n      jumpi\n      returndatasize\n      0x00\n      dup1\n      returndatacopy\n      revert(0x00, returndatasize)\n    tag_407:\n      pop\n      pop\n      pop\n      pop\n      mload(0x40)\n      returndatasize\n      not(0x1f)\n      0x1f\n      dup3\n      add\n      and\n      dup3\n      add\n      dup1\n      0x40\n      mstore\n      pop\n      dup2\n      add\n      swap1\n      tag_408\n      swap2\n      swap1\n      tag_206\n      jump\t// in\n    tag_408:\n        /* \"QuailFinance.sol\":9749:9838  require(usdbToken.transferFrom(msg.sender, address(this), pot.amount), \"Transfer failed\") */\n      tag_409\n      jumpi\n      mload(0x40)\n      shl(0xe5, 0x461bcd)\n      dup2\n      mstore\n        /* \"#utility.yul\":21276:21278   */\n      0x20\n        /* \"QuailFinance.sol\":9749:9838  require(usdbToken.transferFrom(msg.sender, address(this), pot.amount), \"Transfer failed\") */\n      0x04\n      dup3\n      add\n        /* \"#utility.yul\":21258:21279   */\n      mstore\n        /* \"#utility.yul\":21315:21317   */\n      0x0f\n        /* \"#utility.yul\":21295:21313   */\n      0x24\n      dup3\n      add\n        /* \"#utility.yul\":21288:21318   */\n      mstore\n      shl(0x8a, 0x151c985b9cd9995c8819985a5b1959)\n        /* \"#utility.yul\":21334:21352   */\n      0x44\n      dup3\n      add\n        /* \"#utility.yul\":21327:21372   */\n      mstore\n        /* \"#utility.yul\":21389:21407   */\n      0x64\n      add\n        /* \"QuailFinance.sol\":9749:9838  require(usdbToken.transferFrom(msg.sender, address(this), pot.amount), \"Transfer failed\") */\n      tag_188\n        /* \"#utility.yul\":21074:21413   */\n      jump\n        /* \"QuailFinance.sol\":9749:9838  require(usdbToken.transferFrom(msg.sender, address(this), pot.amount), \"Transfer failed\") */\n    tag_409:\n        /* \"QuailFinance.sol\":9864:9874  msg.sender */\n      caller\n        /* \"QuailFinance.sol\":9853:9875  pot.hasWon[msg.sender] */\n      0x00\n      swap1\n      dup2\n      mstore\n        /* \"QuailFinance.sol\":9853:9863  pot.hasWon */\n      0x0e\n      dup5\n      add\n        /* \"QuailFinance.sol\":9853:9875  pot.hasWon[msg.sender] */\n      0x20\n      mstore\n      0x40\n      swap1\n      keccak256\n      sload\n      0xff\n      and\n        /* \"QuailFinance.sol\":9848:9934  if (!pot.hasWon[msg.sender]){... */\n      tag_411\n      jumpi\n        /* \"QuailFinance.sol\":9890:9906  pot.participants */\n      0x0b\n      dup4\n      add\n        /* \"QuailFinance.sol\":9890:9923  pot.participants.push(msg.sender) */\n      dup1\n      sload\n      0x01\n      dup2\n      add\n      dup3\n      sstore\n      0x00\n      swap2\n      dup3\n      mstore\n      0x20\n      swap1\n      swap2\n      keccak256\n      add\n      dup1\n      sload\n      not(sub(shl(0xa0, 0x01), 0x01))\n      and\n        /* \"QuailFinance.sol\":9912:9922  msg.sender */\n      caller\n        /* \"QuailFinance.sol\":9890:9923  pot.participants.push(msg.sender) */\n      or\n      swap1\n      sstore\n        /* \"QuailFinance.sol\":9848:9934  if (!pot.hasWon[msg.sender]){... */\n    tag_411:\n        /* \"QuailFinance.sol\":9948:10104  ParticipantJoined(_potId, pot.name, msg.sender, pot.amount, pot.rotationCycleInSeconds, pot.interestNumerator, pot.interestDenominator, pot.numParticipants) */\n      0x43d2f309913f6afc5d717f60864d2d192b69963d25204b6a12765e2795bf027f\n        /* \"QuailFinance.sol\":9966:9972  _potId */\n      dup7\n        /* \"QuailFinance.sol\":9974:9977  pot */\n      dup5\n        /* \"QuailFinance.sol\":9974:9982  pot.name */\n      0x00\n      add\n        /* \"QuailFinance.sol\":9984:9994  msg.sender */\n      caller\n        /* \"QuailFinance.sol\":9996:9999  pot */\n      dup7\n        /* \"QuailFinance.sol\":9996:10006  pot.amount */\n      0x01\n      add\n      sload\n        /* \"QuailFinance.sol\":10008:10011  pot */\n      dup8\n        /* \"QuailFinance.sol\":10008:10034  pot.rotationCycleInSeconds */\n      0x04\n      add\n      sload\n        /* \"QuailFinance.sol\":10036:10039  pot */\n      dup9\n        /* \"QuailFinance.sol\":10036:10057  pot.interestNumerator */\n      0x06\n      add\n      sload\n        /* \"QuailFinance.sol\":10059:10062  pot */\n      dup10\n        /* \"QuailFinance.sol\":10059:10082  pot.interestDenominator */\n      0x07\n      add\n      sload\n        /* \"QuailFinance.sol\":10084:10087  pot */\n      dup11\n        /* \"QuailFinance.sol\":10084:10103  pot.numParticipants */\n      0x08\n      add\n      sload\n        /* \"QuailFinance.sol\":9948:10104  ParticipantJoined(_potId, pot.name, msg.sender, pot.amount, pot.rotationCycleInSeconds, pot.interestNumerator, pot.interestDenominator, pot.numParticipants) */\n      mload(0x40)\n      tag_413\n      swap9\n      swap8\n      swap7\n      swap6\n      swap5\n      swap4\n      swap3\n      swap2\n      swap1\n      tag_414\n      jump\t// in\n    tag_413:\n      mload(0x40)\n      dup1\n      swap2\n      sub\n      swap1\n      log1\n        /* \"QuailFinance.sol\":9104:10111  {... */\n      pop\n      pop\n      pop\n        /* \"QuailFinance.sol\":9023:10111  function joinPot(uint256 _potId, bytes memory signature, uint256 nonce) external {... */\n      pop\n      pop\n      pop\n      jump\t// out\n        /* \"QuailFinance.sol\":17014:17414  function getEthSignedMessageHash(bytes32 _messageHash)... */\n    tag_177:\n        /* \"QuailFinance.sol\":17331:17397  abi.encodePacked(\"\\x19Ethereum Signed Message:\\n32\", _messageHash) */\n      mload(0x40)\n        /* \"#utility.yul\":25855:25921   */\n      0x19457468657265756d205369676e6564204d6573736167653a0a333200000000\n        /* \"QuailFinance.sol\":17331:17397  abi.encodePacked(\"\\x19Ethereum Signed Message:\\n32\", _messageHash) */\n      0x20\n      dup3\n      add\n        /* \"#utility.yul\":25843:25922   */\n      mstore\n        /* \"#utility.yul\":25938:25950   */\n      0x3c\n      dup2\n      add\n        /* \"#utility.yul\":25931:25959   */\n      dup3\n      swap1\n      mstore\n        /* \"QuailFinance.sol\":17114:17121  bytes32 */\n      0x00\n      swap1\n        /* \"#utility.yul\":25975:25987   */\n      0x5c\n      add\n        /* \"QuailFinance.sol\":17331:17397  abi.encodePacked(\"\\x19Ethereum Signed Message:\\n32\", _messageHash) */\n      mload(0x40)\n      0x20\n      dup2\n      dup4\n      sub\n      sub\n      dup2\n      mstore\n      swap1\n      0x40\n      mstore\n        /* \"QuailFinance.sol\":17308:17407  keccak256(... */\n      dup1\n      mload\n      swap1\n      0x20\n      add\n      keccak256\n        /* \"QuailFinance.sol\":17301:17407  return keccak256(... */\n      swap1\n      pop\n        /* \"QuailFinance.sol\":17014:17414  function getEthSignedMessageHash(bytes32 _messageHash)... */\n      swap2\n      swap1\n      pop\n      jump\t// out\n        /* \"@openzeppelin/contracts-upgradeable/access/OwnableUpgradeable.sol\":2658:2820  function _checkOwner() internal view virtual {... */\n    tag_230:\n        /* \"@openzeppelin/contracts-upgradeable/utils/ContextUpgradeable.sol\":966:976  msg.sender */\n      caller\n        /* \"@openzeppelin/contracts-upgradeable/access/OwnableUpgradeable.sol\":2717:2724  owner() */\n      tag_421\n        /* \"@openzeppelin/contracts-upgradeable/access/OwnableUpgradeable.sol\":1313:1335  OwnableStorageLocation */\n      0x9016d09d72d40fdae2fd8ceac6b6234c7706214fd39c1cd1e609a0528c199300\n        /* \"@openzeppelin/contracts-upgradeable/access/OwnableUpgradeable.sol\":2570:2578  $._owner */\n      sload\n      sub(shl(0xa0, 0x01), 0x01)\n      and\n      swap1\n        /* \"@openzeppelin/contracts-upgradeable/access/OwnableUpgradeable.sol\":2441:2585  function owner() public view virtual returns (address) {... */\n      jump\n        /* \"@openzeppelin/contracts-upgradeable/access/OwnableUpgradeable.sol\":2717:2724  owner() */\n    tag_421:\n      sub(shl(0xa0, 0x01), 0x01)\n        /* \"@openzeppelin/contracts-upgradeable/access/OwnableUpgradeable.sol\":2717:2740  owner() != _msgSender() */\n      and\n      eq\n        /* \"@openzeppelin/contracts-upgradeable/access/OwnableUpgradeable.sol\":2713:2814  if (owner() != _msgSender()) {... */\n      tag_265\n      jumpi\n        /* \"@openzeppelin/contracts-upgradeable/access/OwnableUpgradeable.sol\":2763:2803  OwnableUnauthorizedAccount(_msgSender()) */\n      mload(0x40)\n      shl(0xe0, 0x118cdaa7)\n      dup2\n      mstore\n        /* \"@openzeppelin/contracts-upgradeable/utils/ContextUpgradeable.sol\":966:976  msg.sender */\n      caller\n        /* \"@openzeppelin/contracts-upgradeable/access/OwnableUpgradeable.sol\":2763:2803  OwnableUnauthorizedAccount(_msgSender()) */\n      0x04\n      dup3\n      add\n        /* \"#utility.yul\":2188:2239   */\n      mstore\n        /* \"#utility.yul\":2161:2179   */\n      0x24\n      add\n        /* \"@openzeppelin/contracts-upgradeable/access/OwnableUpgradeable.sol\":2763:2803  OwnableUnauthorizedAccount(_msgSender()) */\n      tag_188\n        /* \"#utility.yul\":2019:2245   */\n      jump\n        /* \"@openzeppelin/contracts/utils/cryptography/MerkleProof.sol\":1265:1419  function verify(bytes32[] memory proof, bytes32 root, bytes32 leaf) internal pure returns (bool) {... */\n    tag_241:\n        /* \"@openzeppelin/contracts/utils/cryptography/MerkleProof.sol\":1356:1360  bool */\n      0x00\n        /* \"@openzeppelin/contracts/utils/cryptography/MerkleProof.sol\":1408:1412  root */\n      dup3\n        /* \"@openzeppelin/contracts/utils/cryptography/MerkleProof.sol\":1379:1404  processProof(proof, leaf) */\n      tag_426\n        /* \"@openzeppelin/contracts/utils/cryptography/MerkleProof.sol\":1392:1397  proof */\n      dup6\n        /* \"@openzeppelin/contracts/utils/cryptography/MerkleProof.sol\":1399:1403  leaf */\n      dup5\n        /* \"@openzeppelin/contracts/utils/cryptography/MerkleProof.sol\":1379:1391  processProof */\n      tag_427\n        /* \"@openzeppelin/contracts/utils/cryptography/MerkleProof.sol\":1379:1404  processProof(proof, leaf) */\n      jump\t// in\n    tag_426:\n        /* \"@openzeppelin/contracts/utils/cryptography/MerkleProof.sol\":1379:1412  processProof(proof, leaf) == root */\n      eq\n      swap5\n        /* \"@openzeppelin/contracts/utils/cryptography/MerkleProof.sol\":1265:1419  function verify(bytes32[] memory proof, bytes32 root, bytes32 leaf) internal pure returns (bool) {... */\n      swap4\n      pop\n      pop\n      pop\n      pop\n      jump\t// out\n        /* \"@openzeppelin/contracts-upgradeable/access/OwnableUpgradeable.sol\":3774:4022  function _transferOwnership(address newOwner) internal virtual {... */\n    tag_266:\n        /* \"@openzeppelin/contracts-upgradeable/access/OwnableUpgradeable.sol\":1313:1335  OwnableStorageLocation */\n      0x9016d09d72d40fdae2fd8ceac6b6234c7706214fd39c1cd1e609a0528c199300\n        /* \"@openzeppelin/contracts-upgradeable/access/OwnableUpgradeable.sol\":3923:3931  $._owner */\n      dup1\n      sload\n      not(sub(shl(0xa0, 0x01), 0x01))\n        /* \"@openzeppelin/contracts-upgradeable/access/OwnableUpgradeable.sol\":3941:3960  $._owner = newOwner */\n      dup2\n      and\n      sub(shl(0xa0, 0x01), 0x01)\n      dup5\n      dup2\n      and\n      swap2\n      dup3\n      or\n      dup5\n      sstore\n        /* \"@openzeppelin/contracts-upgradeable/access/OwnableUpgradeable.sol\":3975:4015  OwnershipTransferred(oldOwner, newOwner) */\n      mload(0x40)\n        /* \"@openzeppelin/contracts-upgradeable/access/OwnableUpgradeable.sol\":3923:3931  $._owner */\n      swap3\n      and\n      swap2\n      dup3\n      swap1\n        /* \"@openzeppelin/contracts-upgradeable/access/OwnableUpgradeable.sol\":3975:4015  OwnershipTransferred(oldOwner, newOwner) */\n      0x8be0079c531659141344cd1fd0a4f28419497f9722a3daafe3b4186f6b6457e0\n      swap1\n        /* \"@openzeppelin/contracts-upgradeable/access/OwnableUpgradeable.sol\":3847:3871  OwnableStorage storage $ */\n      0x00\n      swap1\n        /* \"@openzeppelin/contracts-upgradeable/access/OwnableUpgradeable.sol\":3975:4015  OwnershipTransferred(oldOwner, newOwner) */\n      log3\n        /* \"@openzeppelin/contracts-upgradeable/access/OwnableUpgradeable.sol\":3837:4022  {... */\n      pop\n      pop\n        /* \"@openzeppelin/contracts-upgradeable/access/OwnableUpgradeable.sol\":3774:4022  function _transferOwnership(address newOwner) internal virtual {... */\n      pop\n      jump\t// out\n        /* \"@openzeppelin/contracts/utils/cryptography/ECDSA.sol\":3702:3957  function recover(bytes32 hash, bytes memory signature) internal pure returns (address) {... */\n    tag_292:\n        /* \"@openzeppelin/contracts/utils/cryptography/ECDSA.sol\":3780:3787  address */\n      0x00\n        /* \"@openzeppelin/contracts/utils/cryptography/ECDSA.sol\":3800:3817  address recovered */\n      dup1\n        /* \"@openzeppelin/contracts/utils/cryptography/ECDSA.sol\":3819:3837  RecoverError error */\n      0x00\n        /* \"@openzeppelin/contracts/utils/cryptography/ECDSA.sol\":3839:3855  bytes32 errorArg */\n      dup1\n        /* \"@openzeppelin/contracts/utils/cryptography/ECDSA.sol\":3859:3886  tryRecover(hash, signature) */\n      tag_431\n        /* \"@openzeppelin/contracts/utils/cryptography/ECDSA.sol\":3870:3874  hash */\n      dup7\n        /* \"@openzeppelin/contracts/utils/cryptography/ECDSA.sol\":3876:3885  signature */\n      dup7\n        /* \"@openzeppelin/contracts/utils/cryptography/ECDSA.sol\":3859:3869  tryRecover */\n      tag_432\n        /* \"@openzeppelin/contracts/utils/cryptography/ECDSA.sol\":3859:3886  tryRecover(hash, signature) */\n      jump\t// in\n    tag_431:\n        /* \"@openzeppelin/contracts/utils/cryptography/ECDSA.sol\":3799:3886  (address recovered, RecoverError error, bytes32 errorArg) = tryRecover(hash, signature) */\n      swap3\n      pop\n      swap3\n      pop\n      swap3\n      pop\n        /* \"@openzeppelin/contracts/utils/cryptography/ECDSA.sol\":3896:3924  _throwError(error, errorArg) */\n      tag_433\n        /* \"@openzeppelin/contracts/utils/cryptography/ECDSA.sol\":3908:3913  error */\n      dup3\n        /* \"@openzeppelin/contracts/utils/cryptography/ECDSA.sol\":3915:3923  errorArg */\n      dup3\n        /* \"@openzeppelin/contracts/utils/cryptography/ECDSA.sol\":3896:3907  _throwError */\n      tag_434\n        /* \"@openzeppelin/contracts/utils/cryptography/ECDSA.sol\":3896:3924  _throwError(error, errorArg) */\n      jump\t// in\n    tag_433:\n      pop\n        /* \"@openzeppelin/contracts/utils/cryptography/ECDSA.sol\":3941:3950  recovered */\n      swap1\n      swap5\n        /* \"@openzeppelin/contracts/utils/cryptography/ECDSA.sol\":3702:3957  function recover(bytes32 hash, bytes memory signature) internal pure returns (address) {... */\n      swap4\n      pop\n      pop\n      pop\n      pop\n      jump\t// out\n        /* \"@openzeppelin/contracts-upgradeable/access/OwnableUpgradeable.sol\":1847:1974  function __Ownable_init(address initialOwner) internal onlyInitializing {... */\n    tag_330:\n        /* \"@openzeppelin/contracts-upgradeable/proxy/utils/Initializable.sol\":6931:6951  _checkInitializing() */\n      tag_438\n        /* \"@openzeppelin/contracts-upgradeable/proxy/utils/Initializable.sol\":6931:6949  _checkInitializing */\n      tag_439\n        /* \"@openzeppelin/contracts-upgradeable/proxy/utils/Initializable.sol\":6931:6951  _checkInitializing() */\n      jump\t// in\n    tag_438:\n        /* \"@openzeppelin/contracts-upgradeable/access/OwnableUpgradeable.sol\":1929:1967  __Ownable_init_unchained(initialOwner) */\n      tag_274\n        /* \"@openzeppelin/contracts-upgradeable/access/OwnableUpgradeable.sol\":1954:1966  initialOwner */\n      dup2\n        /* \"@openzeppelin/contracts-upgradeable/access/OwnableUpgradeable.sol\":1929:1953  __Ownable_init_unchained */\n      tag_442\n        /* \"@openzeppelin/contracts-upgradeable/access/OwnableUpgradeable.sol\":1929:1967  __Ownable_init_unchained(initialOwner) */\n      jump\t// in\n        /* \"QuailFinance.sol\":14848:15072  function deductRevenue(uint256 _amount) private returns (uint256 netAmount) {... */\n    tag_372:\n        /* \"QuailFinance.sol\":14905:14922  uint256 netAmount */\n      0x00\n      dup1\n        /* \"QuailFinance.sol\":14952:14965  _amount / 100 */\n      tag_444\n        /* \"QuailFinance.sol\":14962:14965  100 */\n      0x64\n        /* \"QuailFinance.sol\":14952:14959  _amount */\n      dup5\n        /* \"QuailFinance.sol\":14952:14965  _amount / 100 */\n      tag_286\n      jump\t// in\n    tag_444:\n        /* \"QuailFinance.sol\":14934:14965  uint256 revenue = _amount / 100 */\n      swap1\n      pop\n        /* \"QuailFinance.sol\":14987:15004  _amount - revenue */\n      tag_445\n        /* \"QuailFinance.sol\":14934:14965  uint256 revenue = _amount / 100 */\n      dup2\n        /* \"QuailFinance.sol\":14987:14994  _amount */\n      dup5\n        /* \"QuailFinance.sol\":14987:15004  _amount - revenue */\n      tag_249\n      jump\t// in\n    tag_445:\n        /* \"QuailFinance.sol\":14975:15004  netAmount = _amount - revenue */\n      swap2\n      pop\n        /* \"QuailFinance.sol\":15030:15037  revenue */\n      dup1\n        /* \"QuailFinance.sol\":15014:15026  totalRevenue */\n      0x05\n      0x00\n        /* \"QuailFinance.sol\":15014:15037  totalRevenue += revenue */\n      dup3\n      dup3\n      sload\n      tag_446\n      swap2\n      swap1\n      tag_186\n      jump\t// in\n    tag_446:\n      swap1\n      swap2\n      sstore\n      pop\n        /* \"QuailFinance.sol\":14848:15072  function deductRevenue(uint256 _amount) private returns (uint256 netAmount) {... */\n      swap2\n      swap4\n      swap3\n      pop\n      pop\n      pop\n      jump\t// out\n        /* \"@openzeppelin/contracts/utils/cryptography/MerkleProof.sol\":1967:2257  function processProof(bytes32[] memory proof, bytes32 leaf) internal pure returns (bytes32) {... */\n    tag_427:\n        /* \"@openzeppelin/contracts/utils/cryptography/MerkleProof.sol\":2050:2057  bytes32 */\n      0x00\n        /* \"@openzeppelin/contracts/utils/cryptography/MerkleProof.sol\":2092:2096  leaf */\n      dup2\n        /* \"@openzeppelin/contracts/utils/cryptography/MerkleProof.sol\":2050:2057  bytes32 */\n      dup2\n        /* \"@openzeppelin/contracts/utils/cryptography/MerkleProof.sol\":2106:2222  for (uint256 i = 0; i < proof.length; i++) {... */\n    tag_449:\n        /* \"@openzeppelin/contracts/utils/cryptography/MerkleProof.sol\":2130:2135  proof */\n      dup5\n        /* \"@openzeppelin/contracts/utils/cryptography/MerkleProof.sol\":2130:2142  proof.length */\n      mload\n        /* \"@openzeppelin/contracts/utils/cryptography/MerkleProof.sol\":2126:2127  i */\n      dup2\n        /* \"@openzeppelin/contracts/utils/cryptography/MerkleProof.sol\":2126:2142  i < proof.length */\n      lt\n        /* \"@openzeppelin/contracts/utils/cryptography/MerkleProof.sol\":2106:2222  for (uint256 i = 0; i < proof.length; i++) {... */\n      iszero\n      tag_450\n      jumpi\n        /* \"@openzeppelin/contracts/utils/cryptography/MerkleProof.sol\":2178:2211  _hashPair(computedHash, proof[i]) */\n      tag_452\n        /* \"@openzeppelin/contracts/utils/cryptography/MerkleProof.sol\":2188:2200  computedHash */\n      dup3\n        /* \"@openzeppelin/contracts/utils/cryptography/MerkleProof.sol\":2202:2207  proof */\n      dup7\n        /* \"@openzeppelin/contracts/utils/cryptography/MerkleProof.sol\":2208:2209  i */\n      dup4\n        /* \"@openzeppelin/contracts/utils/cryptography/MerkleProof.sol\":2202:2210  proof[i] */\n      dup2\n      mload\n      dup2\n      lt\n      tag_454\n      jumpi\n      tag_454\n      tag_367\n      jump\t// in\n    tag_454:\n      0x20\n      mul\n      0x20\n      add\n      add\n      mload\n        /* \"@openzeppelin/contracts/utils/cryptography/MerkleProof.sol\":2178:2187  _hashPair */\n      tag_455\n        /* \"@openzeppelin/contracts/utils/cryptography/MerkleProof.sol\":2178:2211  _hashPair(computedHash, proof[i]) */\n      jump\t// in\n    tag_452:\n        /* \"@openzeppelin/contracts/utils/cryptography/MerkleProof.sol\":2163:2211  computedHash = _hashPair(computedHash, proof[i]) */\n      swap2\n      pop\n        /* \"@openzeppelin/contracts/utils/cryptography/MerkleProof.sol\":2144:2147  i++ */\n      0x01\n      add\n        /* \"@openzeppelin/contracts/utils/cryptography/MerkleProof.sol\":2106:2222  for (uint256 i = 0; i < proof.length; i++) {... */\n      jump(tag_449)\n    tag_450:\n      pop\n        /* \"@openzeppelin/contracts/utils/cryptography/MerkleProof.sol\":2238:2250  computedHash */\n      swap4\n        /* \"@openzeppelin/contracts/utils/cryptography/MerkleProof.sol\":1967:2257  function processProof(bytes32[] memory proof, bytes32 leaf) internal pure returns (bytes32) {... */\n      swap3\n      pop\n      pop\n      pop\n      jump\t// out\n        /* \"@openzeppelin/contracts/utils/cryptography/ECDSA.sol\":2129:2895  function tryRecover(bytes32 hash, bytes memory signature) internal pure returns (address, RecoverError, bytes32) {... */\n    tag_432:\n        /* \"@openzeppelin/contracts/utils/cryptography/ECDSA.sol\":2210:2217  address */\n      0x00\n        /* \"@openzeppelin/contracts/utils/cryptography/ECDSA.sol\":2219:2231  RecoverError */\n      dup1\n        /* \"@openzeppelin/contracts/utils/cryptography/ECDSA.sol\":2233:2240  bytes32 */\n      0x00\n        /* \"@openzeppelin/contracts/utils/cryptography/ECDSA.sol\":2256:2265  signature */\n      dup4\n        /* \"@openzeppelin/contracts/utils/cryptography/ECDSA.sol\":2256:2272  signature.length */\n      mload\n        /* \"@openzeppelin/contracts/utils/cryptography/ECDSA.sol\":2276:2278  65 */\n      0x41\n        /* \"@openzeppelin/contracts/utils/cryptography/ECDSA.sol\":2256:2278  signature.length == 65 */\n      sub\n        /* \"@openzeppelin/contracts/utils/cryptography/ECDSA.sol\":2252:2889  if (signature.length == 65) {... */\n      tag_457\n      jumpi\n        /* \"@openzeppelin/contracts/utils/cryptography/ECDSA.sol\":2592:2596  0x20 */\n      0x20\n        /* \"@openzeppelin/contracts/utils/cryptography/ECDSA.sol\":2577:2597  add(signature, 0x20) */\n      dup5\n      add\n        /* \"@openzeppelin/contracts/utils/cryptography/ECDSA.sol\":2571:2598  mload(add(signature, 0x20)) */\n      mload\n        /* \"@openzeppelin/contracts/utils/cryptography/ECDSA.sol\":2641:2645  0x40 */\n      0x40\n        /* \"@openzeppelin/contracts/utils/cryptography/ECDSA.sol\":2626:2646  add(signature, 0x40) */\n      dup6\n      add\n        /* \"@openzeppelin/contracts/utils/cryptography/ECDSA.sol\":2620:2647  mload(add(signature, 0x40)) */\n      mload\n        /* \"@openzeppelin/contracts/utils/cryptography/ECDSA.sol\":2698:2702  0x60 */\n      0x60\n        /* \"@openzeppelin/contracts/utils/cryptography/ECDSA.sol\":2683:2703  add(signature, 0x60) */\n      dup7\n      add\n        /* \"@openzeppelin/contracts/utils/cryptography/ECDSA.sol\":2677:2704  mload(add(signature, 0x60)) */\n      mload\n        /* \"@openzeppelin/contracts/utils/cryptography/ECDSA.sol\":2294:2303  bytes32 r */\n      0x00\n        /* \"@openzeppelin/contracts/utils/cryptography/ECDSA.sol\":2669:2705  byte(0, mload(add(signature, 0x60))) */\n      byte\n        /* \"@openzeppelin/contracts/utils/cryptography/ECDSA.sol\":2739:2764  tryRecover(hash, v, r, s) */\n      tag_458\n        /* \"@openzeppelin/contracts/utils/cryptography/ECDSA.sol\":2750:2754  hash */\n      dup9\n        /* \"@openzeppelin/contracts/utils/cryptography/ECDSA.sol\":2669:2705  byte(0, mload(add(signature, 0x60))) */\n      dup3\n        /* \"@openzeppelin/contracts/utils/cryptography/ECDSA.sol\":2571:2598  mload(add(signature, 0x20)) */\n      dup6\n        /* \"@openzeppelin/contracts/utils/cryptography/ECDSA.sol\":2620:2647  mload(add(signature, 0x40)) */\n      dup6\n        /* \"@openzeppelin/contracts/utils/cryptography/ECDSA.sol\":2739:2749  tryRecover */\n      tag_459\n        /* \"@openzeppelin/contracts/utils/cryptography/ECDSA.sol\":2739:2764  tryRecover(hash, v, r, s) */\n      jump\t// in\n    tag_458:\n        /* \"@openzeppelin/contracts/utils/cryptography/ECDSA.sol\":2732:2764  return tryRecover(hash, v, r, s) */\n      swap6\n      pop\n      swap6\n      pop\n      swap6\n      pop\n      pop\n      pop\n      pop\n      jump(tag_460)\n        /* \"@openzeppelin/contracts/utils/cryptography/ECDSA.sol\":2252:2889  if (signature.length == 65) {... */\n    tag_457:\n      pop\n      pop\n        /* \"@openzeppelin/contracts/utils/cryptography/ECDSA.sol\":2860:2876  signature.length */\n      dup2\n      mload\n        /* \"@openzeppelin/contracts/utils/cryptography/ECDSA.sol\":2811:2812  0 */\n      0x00\n      swap2\n      pop\n        /* \"@openzeppelin/contracts/utils/cryptography/ECDSA.sol\":2815:2850  RecoverError.InvalidSignatureLength */\n      0x02\n      swap1\n        /* \"@openzeppelin/contracts/utils/cryptography/ECDSA.sol\":2252:2889  if (signature.length == 65) {... */\n    tag_460:\n        /* \"@openzeppelin/contracts/utils/cryptography/ECDSA.sol\":2129:2895  function tryRecover(bytes32 hash, bytes memory signature) internal pure returns (address, RecoverError, bytes32) {... */\n      swap3\n      pop\n      swap3\n      pop\n      swap3\n      jump\t// out\n        /* \"@openzeppelin/contracts/utils/cryptography/ECDSA.sol\":7196:7728  function _throwError(RecoverError error, bytes32 errorArg) private pure {... */\n    tag_434:\n        /* \"@openzeppelin/contracts/utils/cryptography/ECDSA.sol\":7291:7311  RecoverError.NoError */\n      0x00\n        /* \"@openzeppelin/contracts/utils/cryptography/ECDSA.sol\":7282:7287  error */\n      dup3\n        /* \"@openzeppelin/contracts/utils/cryptography/ECDSA.sol\":7282:7311  error == RecoverError.NoError */\n      0x03\n      dup2\n      gt\n      iszero\n      tag_466\n      jumpi\n      tag_466\n      tag_464\n      jump\t// in\n    tag_466:\n      sub\n        /* \"@openzeppelin/contracts/utils/cryptography/ECDSA.sol\":7278:7722  if (error == RecoverError.NoError) {... */\n      tag_467\n      jumpi\n        /* \"@openzeppelin/contracts/utils/cryptography/ECDSA.sol\":7196:7728  function _throwError(RecoverError error, bytes32 errorArg) private pure {... */\n      pop\n      pop\n      jump\t// out\n        /* \"@openzeppelin/contracts/utils/cryptography/ECDSA.sol\":7278:7722  if (error == RecoverError.NoError) {... */\n    tag_467:\n        /* \"@openzeppelin/contracts/utils/cryptography/ECDSA.sol\":7387:7416  RecoverError.InvalidSignature */\n      0x01\n        /* \"@openzeppelin/contracts/utils/cryptography/ECDSA.sol\":7378:7383  error */\n      dup3\n        /* \"@openzeppelin/contracts/utils/cryptography/ECDSA.sol\":7378:7416  error == RecoverError.InvalidSignature */\n      0x03\n      dup2\n      gt\n      iszero\n      tag_472\n      jumpi\n      tag_472\n      tag_464\n      jump\t// in\n    tag_472:\n      sub\n        /* \"@openzeppelin/contracts/utils/cryptography/ECDSA.sol\":7374:7722  if (error == RecoverError.InvalidSignature) {... */\n      tag_473\n      jumpi\n        /* \"@openzeppelin/contracts/utils/cryptography/ECDSA.sol\":7439:7462  ECDSAInvalidSignature() */\n      mload(0x40)\n      shl(0xe0, 0xf645eedf)\n      dup2\n      mstore\n      0x04\n      add\n      mload(0x40)\n      dup1\n      swap2\n      sub\n      swap1\n      revert\n        /* \"@openzeppelin/contracts/utils/cryptography/ECDSA.sol\":7374:7722  if (error == RecoverError.InvalidSignature) {... */\n    tag_473:\n        /* \"@openzeppelin/contracts/utils/cryptography/ECDSA.sol\":7492:7527  RecoverError.InvalidSignatureLength */\n      0x02\n        /* \"@openzeppelin/contracts/utils/cryptography/ECDSA.sol\":7483:7488  error */\n      dup3\n        /* \"@openzeppelin/contracts/utils/cryptography/ECDSA.sol\":7483:7527  error == RecoverError.InvalidSignatureLength */\n      0x03\n      dup2\n      gt\n      iszero\n      tag_478\n      jumpi\n      tag_478\n      tag_464\n      jump\t// in\n    tag_478:\n      sub\n        /* \"@openzeppelin/contracts/utils/cryptography/ECDSA.sol\":7479:7722  if (error == RecoverError.InvalidSignatureLength) {... */\n      tag_479\n      jumpi\n        /* \"@openzeppelin/contracts/utils/cryptography/ECDSA.sol\":7550:7596  ECDSAInvalidSignatureLength(uint256(errorArg)) */\n      mload(0x40)\n      shl(0xe0, 0xfce698f7)\n      dup2\n      mstore\n      0x04\n      dup2\n      add\n        /* \"#utility.yul\":160:185   */\n      dup3\n      swap1\n      mstore\n        /* \"#utility.yul\":133:151   */\n      0x24\n      add\n        /* \"@openzeppelin/contracts/utils/cryptography/ECDSA.sol\":7550:7596  ECDSAInvalidSignatureLength(uint256(errorArg)) */\n      tag_188\n        /* \"#utility.yul\":14:191   */\n      jump\n        /* \"@openzeppelin/contracts/utils/cryptography/ECDSA.sol\":7479:7722  if (error == RecoverError.InvalidSignatureLength) {... */\n    tag_479:\n        /* \"@openzeppelin/contracts/utils/cryptography/ECDSA.sol\":7626:7656  RecoverError.InvalidSignatureS */\n      0x03\n        /* \"@openzeppelin/contracts/utils/cryptography/ECDSA.sol\":7617:7622  error */\n      dup3\n        /* \"@openzeppelin/contracts/utils/cryptography/ECDSA.sol\":7617:7656  error == RecoverError.InvalidSignatureS */\n      0x03\n      dup2\n      gt\n      iszero\n      tag_485\n      jumpi\n      tag_485\n      tag_464\n      jump\t// in\n    tag_485:\n      sub\n        /* \"@openzeppelin/contracts/utils/cryptography/ECDSA.sol\":7613:7722  if (error == RecoverError.InvalidSignatureS) {... */\n      tag_236\n      jumpi\n        /* \"@openzeppelin/contracts/utils/cryptography/ECDSA.sol\":7679:7711  ECDSAInvalidSignatureS(errorArg) */\n      mload(0x40)\n      shl(0xe2, 0x35e2f383)\n      dup2\n      mstore\n      0x04\n      dup2\n      add\n        /* \"#utility.yul\":160:185   */\n      dup3\n      swap1\n      mstore\n        /* \"#utility.yul\":133:151   */\n      0x24\n      add\n        /* \"@openzeppelin/contracts/utils/cryptography/ECDSA.sol\":7679:7711  ECDSAInvalidSignatureS(errorArg) */\n      tag_188\n        /* \"#utility.yul\":14:191   */\n      jump\n        /* \"@openzeppelin/contracts-upgradeable/proxy/utils/Initializable.sol\":7084:7225  function _checkInitializing() internal view virtual {... */\n    tag_439:\n        /* \"@openzeppelin/contracts-upgradeable/proxy/utils/Initializable.sol\":8870:8891  INITIALIZABLE_STORAGE */\n      0xf0c57e16840df040f15088dc2f81fe391c3923bec73e23a9662efc9c229c6a00\n        /* \"@openzeppelin/contracts-upgradeable/proxy/utils/Initializable.sol\":8560:8600  _getInitializableStorage()._initializing */\n      sload\n      shl(0x40, 0x01)\n      swap1\n      div\n      0xff\n      and\n        /* \"@openzeppelin/contracts-upgradeable/proxy/utils/Initializable.sol\":7146:7219  if (!_isInitializing()) {... */\n      tag_265\n      jumpi\n        /* \"@openzeppelin/contracts-upgradeable/proxy/utils/Initializable.sol\":7191:7208  NotInitializing() */\n      mload(0x40)\n      shl(0xe3, 0x1afcd79f)\n      dup2\n      mstore\n      0x04\n      add\n      mload(0x40)\n      dup1\n      swap2\n      sub\n      swap1\n      revert\n        /* \"@openzeppelin/contracts-upgradeable/access/OwnableUpgradeable.sol\":1980:2215  function __Ownable_init_unchained(address initialOwner) internal onlyInitializing {... */\n    tag_442:\n        /* \"@openzeppelin/contracts-upgradeable/proxy/utils/Initializable.sol\":6931:6951  _checkInitializing() */\n      tag_388\n        /* \"@openzeppelin/contracts-upgradeable/proxy/utils/Initializable.sol\":6931:6949  _checkInitializing */\n      tag_439\n        /* \"@openzeppelin/contracts-upgradeable/proxy/utils/Initializable.sol\":6931:6951  _checkInitializing() */\n      jump\t// in\n        /* \"@openzeppelin/contracts/utils/cryptography/MerkleProof.sol\":9229:9376  function _hashPair(bytes32 a, bytes32 b) private pure returns (bytes32) {... */\n    tag_455:\n        /* \"@openzeppelin/contracts/utils/cryptography/MerkleProof.sol\":9292:9299  bytes32 */\n      0x00\n        /* \"@openzeppelin/contracts/utils/cryptography/MerkleProof.sol\":9322:9323  b */\n      dup2\n        /* \"@openzeppelin/contracts/utils/cryptography/MerkleProof.sol\":9318:9319  a */\n      dup4\n        /* \"@openzeppelin/contracts/utils/cryptography/MerkleProof.sol\":9318:9323  a < b */\n      lt\n        /* \"@openzeppelin/contracts/utils/cryptography/MerkleProof.sol\":9318:9369  a < b ? _efficientHash(a, b) : _efficientHash(b, a) */\n      tag_499\n      jumpi\n        /* \"@openzeppelin/contracts/utils/cryptography/MerkleProof.sol\":9564:9577  bytes32 value */\n      0x00\n        /* \"@openzeppelin/contracts/utils/cryptography/MerkleProof.sol\":9655:9670  mstore(0x00, a) */\n      dup3\n      dup2\n      mstore\n        /* \"@openzeppelin/contracts/utils/cryptography/MerkleProof.sol\":9690:9694  0x20 */\n      0x20\n        /* \"@openzeppelin/contracts/utils/cryptography/MerkleProof.sol\":9683:9698  mstore(0x20, b) */\n      dup5\n      swap1\n      mstore\n        /* \"@openzeppelin/contracts/utils/cryptography/MerkleProof.sol\":9736:9740  0x40 */\n      0x40\n        /* \"@openzeppelin/contracts/utils/cryptography/MerkleProof.sol\":9720:9741  keccak256(0x00, 0x40) */\n      swap1\n      keccak256\n        /* \"@openzeppelin/contracts/utils/cryptography/MerkleProof.sol\":9318:9369  a < b ? _efficientHash(a, b) : _efficientHash(b, a) */\n      jump(tag_503)\n    tag_499:\n        /* \"@openzeppelin/contracts/utils/cryptography/MerkleProof.sol\":9564:9577  bytes32 value */\n      0x00\n        /* \"@openzeppelin/contracts/utils/cryptography/MerkleProof.sol\":9655:9670  mstore(0x00, a) */\n      dup4\n      dup2\n      mstore\n        /* \"@openzeppelin/contracts/utils/cryptography/MerkleProof.sol\":9690:9694  0x20 */\n      0x20\n        /* \"@openzeppelin/contracts/utils/cryptography/MerkleProof.sol\":9683:9698  mstore(0x20, b) */\n      dup4\n      swap1\n      mstore\n        /* \"@openzeppelin/contracts/utils/cryptography/MerkleProof.sol\":9736:9740  0x40 */\n      0x40\n        /* \"@openzeppelin/contracts/utils/cryptography/MerkleProof.sol\":9720:9741  keccak256(0x00, 0x40) */\n      swap1\n      keccak256\n        /* \"@openzeppelin/contracts/utils/cryptography/MerkleProof.sol\":9326:9346  _efficientHash(a, b) */\n    tag_503:\n        /* \"@openzeppelin/contracts/utils/cryptography/MerkleProof.sol\":9311:9369  return a < b ? _efficientHash(a, b) : _efficientHash(b, a) */\n      swap4\n        /* \"@openzeppelin/contracts/utils/cryptography/MerkleProof.sol\":9229:9376  function _hashPair(bytes32 a, bytes32 b) private pure returns (bytes32) {... */\n      swap3\n      pop\n      pop\n      pop\n      jump\t// out\n        /* \"@openzeppelin/contracts/utils/cryptography/ECDSA.sol\":5140:6670  function tryRecover(... */\n    tag_459:\n        /* \"@openzeppelin/contracts/utils/cryptography/ECDSA.sol\":5266:5273  address */\n      0x00\n      dup1\n      dup1\n        /* \"@openzeppelin/contracts/utils/cryptography/ECDSA.sol\":6199:6265  0x7FFFFFFFFFFFFFFFFFFFFFFFFFFFFFFF5D576E7357A4501DDFE92F46681B20A0 */\n      0x7fffffffffffffffffffffffffffffff5d576e7357a4501ddfe92f46681b20a0\n        /* \"@openzeppelin/contracts/utils/cryptography/ECDSA.sol\":6186:6265  uint256(s) > 0x7FFFFFFFFFFFFFFFFFFFFFFFFFFFFFFF5D576E7357A4501DDFE92F46681B20A0 */\n      dup5\n      gt\n        /* \"@openzeppelin/contracts/utils/cryptography/ECDSA.sol\":6182:6346  if (uint256(s) > 0x7FFFFFFFFFFFFFFFFFFFFFFFFFFFFFFF5D576E7357A4501DDFE92F46681B20A0) {... */\n      iszero\n      tag_505\n      jumpi\n      pop\n        /* \"@openzeppelin/contracts/utils/cryptography/ECDSA.sol\":6297:6298  0 */\n      0x00\n      swap2\n      pop\n        /* \"@openzeppelin/contracts/utils/cryptography/ECDSA.sol\":6301:6331  RecoverError.InvalidSignatureS */\n      0x03\n      swap1\n      pop\n        /* \"@openzeppelin/contracts/utils/cryptography/ECDSA.sol\":6333:6334  s */\n      dup3\n        /* \"@openzeppelin/contracts/utils/cryptography/ECDSA.sol\":6281:6335  return (address(0), RecoverError.InvalidSignatureS, s) */\n      jump(tag_504)\n        /* \"@openzeppelin/contracts/utils/cryptography/ECDSA.sol\":6182:6346  if (uint256(s) > 0x7FFFFFFFFFFFFFFFFFFFFFFFFFFFFFFF5D576E7357A4501DDFE92F46681B20A0) {... */\n    tag_505:\n        /* \"@openzeppelin/contracts/utils/cryptography/ECDSA.sol\":6457:6481  ecrecover(hash, v, r, s) */\n      0x40\n      dup1\n      mload\n        /* \"@openzeppelin/contracts/utils/cryptography/ECDSA.sol\":6440:6454  address signer */\n      0x00\n        /* \"@openzeppelin/contracts/utils/cryptography/ECDSA.sol\":6457:6481  ecrecover(hash, v, r, s) */\n      dup1\n      dup3\n      mstore\n      0x20\n      dup3\n      add\n      dup1\n      dup5\n      mstore\n        /* \"#utility.yul\":26225:26250   */\n      dup11\n      swap1\n      mstore\n        /* \"#utility.yul\":26298:26302   */\n      0xff\n        /* \"#utility.yul\":26286:26303   */\n      dup10\n      and\n        /* \"#utility.yul\":26266:26284   */\n      swap3\n      dup3\n      add\n        /* \"#utility.yul\":26259:26304   */\n      swap3\n      swap1\n      swap3\n      mstore\n        /* \"#utility.yul\":26320:26338   */\n      0x60\n      dup2\n      add\n        /* \"#utility.yul\":26313:26347   */\n      dup8\n      swap1\n      mstore\n        /* \"#utility.yul\":26363:26381   */\n      0x80\n      dup2\n      add\n        /* \"#utility.yul\":26356:26390   */\n      dup7\n      swap1\n      mstore\n        /* \"@openzeppelin/contracts/utils/cryptography/ECDSA.sol\":6457:6481  ecrecover(hash, v, r, s) */\n      0x01\n      swap1\n        /* \"#utility.yul\":26197:26216   */\n      0xa0\n      add\n        /* \"@openzeppelin/contracts/utils/cryptography/ECDSA.sol\":6457:6481  ecrecover(hash, v, r, s) */\n      0x20\n      mload(0x40)\n      0x20\n      dup2\n      sub\n      swap1\n      dup1\n      dup5\n      sub\n      swap1\n      dup6\n      gas\n      staticcall\n      iszero\n      dup1\n      iszero\n      tag_509\n      jumpi\n      returndatasize\n      0x00\n      dup1\n      returndatacopy\n      revert(0x00, returndatasize)\n    tag_509:\n      pop\n      pop\n      mload(add(not(0x1f), mload(0x40)))\n      swap2\n      pop\n      pop\n      sub(shl(0xa0, 0x01), 0x01)\n        /* \"@openzeppelin/contracts/utils/cryptography/ECDSA.sol\":6495:6515  signer == address(0) */\n      dup2\n      and\n        /* \"@openzeppelin/contracts/utils/cryptography/ECDSA.sol\":6491:6604  if (signer == address(0)) {... */\n      tag_510\n      jumpi\n      pop\n        /* \"@openzeppelin/contracts/utils/cryptography/ECDSA.sol\":6547:6548  0 */\n      0x00\n      swap3\n      pop\n        /* \"@openzeppelin/contracts/utils/cryptography/ECDSA.sol\":6551:6580  RecoverError.InvalidSignature */\n      0x01\n      swap2\n      pop\n        /* \"@openzeppelin/contracts/utils/cryptography/ECDSA.sol\":6547:6548  0 */\n      dup3\n      swap1\n      pop\n        /* \"@openzeppelin/contracts/utils/cryptography/ECDSA.sol\":6531:6593  return (address(0), RecoverError.InvalidSignature, bytes32(0)) */\n      jump(tag_504)\n        /* \"@openzeppelin/contracts/utils/cryptography/ECDSA.sol\":6491:6604  if (signer == address(0)) {... */\n    tag_510:\n        /* \"@openzeppelin/contracts/utils/cryptography/ECDSA.sol\":6622:6628  signer */\n      swap3\n      pop\n        /* \"@openzeppelin/contracts/utils/cryptography/ECDSA.sol\":6630:6650  RecoverError.NoError */\n      0x00\n      swap2\n      pop\n      dup2\n      swap1\n      pop\n        /* \"@openzeppelin/contracts/utils/cryptography/ECDSA.sol\":5140:6670  function tryRecover(... */\n    tag_504:\n      swap5\n      pop\n      swap5\n      pop\n      swap5\n      swap2\n      pop\n      pop\n      jump\t// out\n    tag_380:\n      pop\n      dup1\n      sload\n      0x00\n      dup3\n      sstore\n      swap1\n      0x00\n      mstore\n      keccak256(0x00, 0x20)\n      swap1\n      dup2\n      add\n      swap1\n      tag_274\n      swap2\n      swap1\n    tag_517:\n      dup1\n      dup3\n      gt\n      iszero\n      tag_518\n      jumpi\n      0x00\n      dup2\n      sstore\n      0x01\n      add\n      jump(tag_517)\n    tag_518:\n      pop\n      swap1\n      jump\t// out\n        /* \"#utility.yul\":196:323   */\n    tag_519:\n        /* \"#utility.yul\":257:267   */\n      0x4e487b71\n        /* \"#utility.yul\":252:255   */\n      0xe0\n        /* \"#utility.yul\":248:268   */\n      shl\n        /* \"#utility.yul\":245:246   */\n      0x00\n        /* \"#utility.yul\":238:269   */\n      mstore\n        /* \"#utility.yul\":288:292   */\n      0x41\n        /* \"#utility.yul\":285:286   */\n      0x04\n        /* \"#utility.yul\":278:293   */\n      mstore\n        /* \"#utility.yul\":312:316   */\n      0x24\n        /* \"#utility.yul\":309:310   */\n      0x00\n        /* \"#utility.yul\":302:317   */\n      revert\n        /* \"#utility.yul\":328:960   */\n    tag_520:\n        /* \"#utility.yul\":393:398   */\n      0x00\n      sub(shl(0x40, 0x01), 0x01)\n        /* \"#utility.yul\":464:466   */\n      dup1\n        /* \"#utility.yul\":456:462   */\n      dup5\n        /* \"#utility.yul\":453:467   */\n      gt\n        /* \"#utility.yul\":450:490   */\n      iszero\n      tag_535\n      jumpi\n        /* \"#utility.yul\":470:488   */\n      tag_535\n      tag_519\n      jump\t// in\n    tag_535:\n        /* \"#utility.yul\":545:547   */\n      0x40\n        /* \"#utility.yul\":539:548   */\n      mload\n        /* \"#utility.yul\":513:515   */\n      0x1f\n        /* \"#utility.yul\":599:614   */\n      dup6\n      add\n      not(0x1f)\n        /* \"#utility.yul\":595:619   */\n      swap1\n      dup2\n      and\n        /* \"#utility.yul\":621:623   */\n      0x3f\n        /* \"#utility.yul\":591:624   */\n      add\n        /* \"#utility.yul\":587:629   */\n      and\n        /* \"#utility.yul\":575:630   */\n      dup2\n      add\n      swap1\n        /* \"#utility.yul\":645:663   */\n      dup3\n      dup3\n      gt\n        /* \"#utility.yul\":665:687   */\n      dup2\n      dup4\n      lt\n        /* \"#utility.yul\":642:688   */\n      or\n        /* \"#utility.yul\":639:711   */\n      iszero\n      tag_537\n      jumpi\n        /* \"#utility.yul\":691:709   */\n      tag_537\n      tag_519\n      jump\t// in\n    tag_537:\n        /* \"#utility.yul\":731:741   */\n      dup2\n        /* \"#utility.yul\":727:729   */\n      0x40\n        /* \"#utility.yul\":720:742   */\n      mstore\n        /* \"#utility.yul\":760:766   */\n      dup1\n        /* \"#utility.yul\":751:766   */\n      swap4\n      pop\n        /* \"#utility.yul\":790:796   */\n      dup6\n        /* \"#utility.yul\":782:788   */\n      dup2\n        /* \"#utility.yul\":775:797   */\n      mstore\n        /* \"#utility.yul\":830:833   */\n      dup7\n        /* \"#utility.yul\":821:827   */\n      dup7\n        /* \"#utility.yul\":816:819   */\n      dup7\n        /* \"#utility.yul\":812:828   */\n      add\n        /* \"#utility.yul\":809:834   */\n      gt\n        /* \"#utility.yul\":806:851   */\n      iszero\n      tag_538\n      jumpi\n        /* \"#utility.yul\":847:848   */\n      0x00\n        /* \"#utility.yul\":844:845   */\n      dup1\n        /* \"#utility.yul\":837:849   */\n      revert\n        /* \"#utility.yul\":806:851   */\n    tag_538:\n        /* \"#utility.yul\":897:903   */\n      dup6\n        /* \"#utility.yul\":892:895   */\n      dup6\n        /* \"#utility.yul\":885:889   */\n      0x20\n        /* \"#utility.yul\":877:883   */\n      dup4\n        /* \"#utility.yul\":873:890   */\n      add\n        /* \"#utility.yul\":860:904   */\n      calldatacopy\n        /* \"#utility.yul\":952:953   */\n      0x00\n        /* \"#utility.yul\":945:949   */\n      0x20\n        /* \"#utility.yul\":936:942   */\n      dup8\n        /* \"#utility.yul\":928:934   */\n      dup4\n        /* \"#utility.yul\":924:943   */\n      add\n        /* \"#utility.yul\":920:950   */\n      add\n        /* \"#utility.yul\":913:954   */\n      mstore\n      pop\n      pop\n      pop\n        /* \"#utility.yul\":328:960   */\n      swap4\n      swap3\n      pop\n      pop\n      pop\n      jump\t// out\n        /* \"#utility.yul\":965:1832   */\n    tag_46:\n        /* \"#utility.yul\":1088:1094   */\n      0x00\n        /* \"#utility.yul\":1096:1102   */\n      dup1\n        /* \"#utility.yul\":1104:1110   */\n      0x00\n        /* \"#utility.yul\":1112:1118   */\n      dup1\n        /* \"#utility.yul\":1120:1126   */\n      0x00\n        /* \"#utility.yul\":1128:1134   */\n      dup1\n        /* \"#utility.yul\":1136:1142   */\n      0x00\n        /* \"#utility.yul\":1189:1192   */\n      0xe0\n        /* \"#utility.yul\":1177:1186   */\n      dup9\n        /* \"#utility.yul\":1168:1175   */\n      dup11\n        /* \"#utility.yul\":1164:1187   */\n      sub\n        /* \"#utility.yul\":1160:1193   */\n      slt\n        /* \"#utility.yul\":1157:1210   */\n      iszero\n      tag_540\n      jumpi\n        /* \"#utility.yul\":1206:1207   */\n      0x00\n        /* \"#utility.yul\":1203:1204   */\n      dup1\n        /* \"#utility.yul\":1196:1208   */\n      revert\n        /* \"#utility.yul\":1157:1210   */\n    tag_540:\n        /* \"#utility.yul\":1246:1255   */\n      dup8\n        /* \"#utility.yul\":1233:1256   */\n      calldataload\n      sub(shl(0x40, 0x01), 0x01)\n        /* \"#utility.yul\":1271:1277   */\n      dup2\n        /* \"#utility.yul\":1268:1298   */\n      gt\n        /* \"#utility.yul\":1265:1315   */\n      iszero\n      tag_541\n      jumpi\n        /* \"#utility.yul\":1311:1312   */\n      0x00\n        /* \"#utility.yul\":1308:1309   */\n      dup1\n        /* \"#utility.yul\":1301:1313   */\n      revert\n        /* \"#utility.yul\":1265:1315   */\n    tag_541:\n        /* \"#utility.yul\":1334:1356   */\n      dup9\n      add\n        /* \"#utility.yul\":1387:1391   */\n      0x1f\n        /* \"#utility.yul\":1379:1392   */\n      dup2\n      add\n        /* \"#utility.yul\":1375:1402   */\n      dup11\n      sgt\n        /* \"#utility.yul\":1365:1420   */\n      tag_542\n      jumpi\n        /* \"#utility.yul\":1416:1417   */\n      0x00\n        /* \"#utility.yul\":1413:1414   */\n      dup1\n        /* \"#utility.yul\":1406:1418   */\n      revert\n        /* \"#utility.yul\":1365:1420   */\n    tag_542:\n        /* \"#utility.yul\":1439:1515   */\n      tag_543\n        /* \"#utility.yul\":1507:1514   */\n      dup11\n        /* \"#utility.yul\":1502:1504   */\n      dup3\n        /* \"#utility.yul\":1489:1505   */\n      calldataload\n        /* \"#utility.yul\":1482:1486   */\n      0x20\n        /* \"#utility.yul\":1478:1480   */\n      dup5\n        /* \"#utility.yul\":1474:1487   */\n      add\n        /* \"#utility.yul\":1439:1515   */\n      tag_520\n      jump\t// in\n    tag_543:\n        /* \"#utility.yul\":1429:1515   */\n      swap11\n        /* \"#utility.yul\":1562:1566   */\n      0x20\n        /* \"#utility.yul\":1547:1567   */\n      dup11\n      add\n        /* \"#utility.yul\":1534:1568   */\n      calldataload\n      swap11\n      pop\n        /* \"#utility.yul\":1615:1617   */\n      0x40\n        /* \"#utility.yul\":1600:1618   */\n      dup11\n      add\n        /* \"#utility.yul\":1587:1619   */\n      calldataload\n      swap10\n        /* \"#utility.yul\":1666:1668   */\n      0x60\n        /* \"#utility.yul\":1651:1669   */\n      dup2\n      add\n        /* \"#utility.yul\":1638:1670   */\n      calldataload\n      swap10\n      pop\n        /* \"#utility.yul\":1717:1720   */\n      0x80\n        /* \"#utility.yul\":1702:1721   */\n      dup2\n      add\n        /* \"#utility.yul\":1689:1722   */\n      calldataload\n      swap9\n      pop\n        /* \"#utility.yul\":1769:1772   */\n      0xa0\n        /* \"#utility.yul\":1754:1773   */\n      dup2\n      add\n        /* \"#utility.yul\":1741:1774   */\n      calldataload\n      swap8\n      pop\n        /* \"#utility.yul\":1821:1824   */\n      0xc0\n        /* \"#utility.yul\":1806:1825   */\n      add\n        /* \"#utility.yul\":1793:1826   */\n      calldataload\n      swap6\n      pop\n        /* \"#utility.yul\":965:1832   */\n      swap4\n      pop\n      pop\n      pop\n      pop\n      jump\t// out\n        /* \"#utility.yul\":2472:2652   */\n    tag_70:\n        /* \"#utility.yul\":2531:2537   */\n      0x00\n        /* \"#utility.yul\":2584:2586   */\n      0x20\n        /* \"#utility.yul\":2572:2581   */\n      dup3\n        /* \"#utility.yul\":2563:2570   */\n      dup5\n        /* \"#utility.yul\":2559:2582   */\n      sub\n        /* \"#utility.yul\":2555:2587   */\n      slt\n        /* \"#utility.yul\":2552:2604   */\n      iszero\n      tag_548\n      jumpi\n        /* \"#utility.yul\":2600:2601   */\n      0x00\n        /* \"#utility.yul\":2597:2598   */\n      dup1\n        /* \"#utility.yul\":2590:2602   */\n      revert\n        /* \"#utility.yul\":2552:2604   */\n    tag_548:\n      pop\n        /* \"#utility.yul\":2623:2646   */\n      calldataload\n      swap2\n        /* \"#utility.yul\":2472:2652   */\n      swap1\n      pop\n      jump\t// out\n        /* \"#utility.yul\":2657:2830   */\n    tag_521:\n        /* \"#utility.yul\":2725:2745   */\n      dup1\n      calldataload\n      sub(shl(0xa0, 0x01), 0x01)\n        /* \"#utility.yul\":2774:2805   */\n      dup2\n      and\n        /* \"#utility.yul\":2764:2806   */\n      dup2\n      eq\n        /* \"#utility.yul\":2754:2824   */\n      tag_550\n      jumpi\n        /* \"#utility.yul\":2820:2821   */\n      0x00\n        /* \"#utility.yul\":2817:2818   */\n      dup1\n        /* \"#utility.yul\":2810:2822   */\n      revert\n        /* \"#utility.yul\":2754:2824   */\n    tag_550:\n        /* \"#utility.yul\":2657:2830   */\n      swap2\n      swap1\n      pop\n      jump\t// out\n        /* \"#utility.yul\":2835:3157   */\n    tag_76:\n        /* \"#utility.yul\":2912:2918   */\n      0x00\n        /* \"#utility.yul\":2920:2926   */\n      dup1\n        /* \"#utility.yul\":2928:2934   */\n      0x00\n        /* \"#utility.yul\":2981:2983   */\n      0x60\n        /* \"#utility.yul\":2969:2978   */\n      dup5\n        /* \"#utility.yul\":2960:2967   */\n      dup7\n        /* \"#utility.yul\":2956:2979   */\n      sub\n        /* \"#utility.yul\":2952:2984   */\n      slt\n        /* \"#utility.yul\":2949:3001   */\n      iszero\n      tag_552\n      jumpi\n        /* \"#utility.yul\":2997:2998   */\n      0x00\n        /* \"#utility.yul\":2994:2995   */\n      dup1\n        /* \"#utility.yul\":2987:2999   */\n      revert\n        /* \"#utility.yul\":2949:3001   */\n    tag_552:\n        /* \"#utility.yul\":3033:3042   */\n      dup4\n        /* \"#utility.yul\":3020:3043   */\n      calldataload\n        /* \"#utility.yul\":3010:3043   */\n      swap3\n      pop\n        /* \"#utility.yul\":3090:3092   */\n      0x20\n        /* \"#utility.yul\":3079:3088   */\n      dup5\n        /* \"#utility.yul\":3075:3093   */\n      add\n        /* \"#utility.yul\":3062:3094   */\n      calldataload\n        /* \"#utility.yul\":3052:3094   */\n      swap2\n      pop\n        /* \"#utility.yul\":3113:3151   */\n      tag_553\n        /* \"#utility.yul\":3147:3149   */\n      0x40\n        /* \"#utility.yul\":3136:3145   */\n      dup6\n        /* \"#utility.yul\":3132:3150   */\n      add\n        /* \"#utility.yul\":3113:3151   */\n      tag_521\n      jump\t// in\n    tag_553:\n        /* \"#utility.yul\":3103:3151   */\n      swap1\n      pop\n        /* \"#utility.yul\":2835:3157   */\n      swap3\n      pop\n      swap3\n      pop\n      swap3\n      jump\t// out\n        /* \"#utility.yul\":3354:4037   */\n    tag_86:\n        /* \"#utility.yul\":3449:3455   */\n      0x00\n        /* \"#utility.yul\":3457:3463   */\n      dup1\n        /* \"#utility.yul\":3465:3471   */\n      0x00\n        /* \"#utility.yul\":3518:3520   */\n      0x40\n        /* \"#utility.yul\":3506:3515   */\n      dup5\n        /* \"#utility.yul\":3497:3504   */\n      dup7\n        /* \"#utility.yul\":3493:3516   */\n      sub\n        /* \"#utility.yul\":3489:3521   */\n      slt\n        /* \"#utility.yul\":3486:3538   */\n      iszero\n      tag_556\n      jumpi\n        /* \"#utility.yul\":3534:3535   */\n      0x00\n        /* \"#utility.yul\":3531:3532   */\n      dup1\n        /* \"#utility.yul\":3524:3536   */\n      revert\n        /* \"#utility.yul\":3486:3538   */\n    tag_556:\n        /* \"#utility.yul\":3570:3579   */\n      dup4\n        /* \"#utility.yul\":3557:3580   */\n      calldataload\n        /* \"#utility.yul\":3547:3580   */\n      swap3\n      pop\n        /* \"#utility.yul\":3631:3633   */\n      0x20\n        /* \"#utility.yul\":3620:3629   */\n      dup5\n        /* \"#utility.yul\":3616:3634   */\n      add\n        /* \"#utility.yul\":3603:3635   */\n      calldataload\n      sub(shl(0x40, 0x01), 0x01)\n        /* \"#utility.yul\":3695:3697   */\n      dup1\n        /* \"#utility.yul\":3687:3693   */\n      dup3\n        /* \"#utility.yul\":3684:3698   */\n      gt\n        /* \"#utility.yul\":3681:3715   */\n      iszero\n      tag_557\n      jumpi\n        /* \"#utility.yul\":3711:3712   */\n      0x00\n        /* \"#utility.yul\":3708:3709   */\n      dup1\n        /* \"#utility.yul\":3701:3713   */\n      revert\n        /* \"#utility.yul\":3681:3715   */\n    tag_557:\n        /* \"#utility.yul\":3749:3755   */\n      dup2\n        /* \"#utility.yul\":3738:3747   */\n      dup7\n        /* \"#utility.yul\":3734:3756   */\n      add\n        /* \"#utility.yul\":3724:3756   */\n      swap2\n      pop\n        /* \"#utility.yul\":3794:3801   */\n      dup7\n        /* \"#utility.yul\":3787:3791   */\n      0x1f\n        /* \"#utility.yul\":3783:3785   */\n      dup4\n        /* \"#utility.yul\":3779:3792   */\n      add\n        /* \"#utility.yul\":3775:3802   */\n      slt\n        /* \"#utility.yul\":3765:3820   */\n      tag_558\n      jumpi\n        /* \"#utility.yul\":3816:3817   */\n      0x00\n        /* \"#utility.yul\":3813:3814   */\n      dup1\n        /* \"#utility.yul\":3806:3818   */\n      revert\n        /* \"#utility.yul\":3765:3820   */\n    tag_558:\n        /* \"#utility.yul\":3856:3858   */\n      dup2\n        /* \"#utility.yul\":3843:3859   */\n      calldataload\n        /* \"#utility.yul\":3882:3884   */\n      dup2\n        /* \"#utility.yul\":3874:3880   */\n      dup2\n        /* \"#utility.yul\":3871:3885   */\n      gt\n        /* \"#utility.yul\":3868:3902   */\n      iszero\n      tag_559\n      jumpi\n        /* \"#utility.yul\":3898:3899   */\n      0x00\n        /* \"#utility.yul\":3895:3896   */\n      dup1\n        /* \"#utility.yul\":3888:3900   */\n      revert\n        /* \"#utility.yul\":3868:3902   */\n    tag_559:\n        /* \"#utility.yul\":3951:3958   */\n      dup8\n        /* \"#utility.yul\":3946:3948   */\n      0x20\n        /* \"#utility.yul\":3936:3942   */\n      dup3\n        /* \"#utility.yul\":3933:3934   */\n      0x05\n        /* \"#utility.yul\":3929:3943   */\n      shl\n        /* \"#utility.yul\":3925:3927   */\n      dup6\n        /* \"#utility.yul\":3921:3944   */\n      add\n        /* \"#utility.yul\":3917:3949   */\n      add\n        /* \"#utility.yul\":3914:3959   */\n      gt\n        /* \"#utility.yul\":3911:3976   */\n      iszero\n      tag_560\n      jumpi\n        /* \"#utility.yul\":3972:3973   */\n      0x00\n        /* \"#utility.yul\":3969:3970   */\n      dup1\n        /* \"#utility.yul\":3962:3974   */\n      revert\n        /* \"#utility.yul\":3911:3976   */\n    tag_560:\n        /* \"#utility.yul\":4003:4005   */\n      0x20\n        /* \"#utility.yul\":3999:4001   */\n      dup4\n        /* \"#utility.yul\":3995:4006   */\n      add\n        /* \"#utility.yul\":3985:4006   */\n      swap5\n      pop\n        /* \"#utility.yul\":4025:4031   */\n      dup1\n        /* \"#utility.yul\":4015:4031   */\n      swap4\n      pop\n      pop\n      pop\n      pop\n        /* \"#utility.yul\":3354:4037   */\n      swap3\n      pop\n      swap3\n      pop\n      swap3\n      jump\t// out\n        /* \"#utility.yul\":4042:4228   */\n    tag_94:\n        /* \"#utility.yul\":4101:4107   */\n      0x00\n        /* \"#utility.yul\":4154:4156   */\n      0x20\n        /* \"#utility.yul\":4142:4151   */\n      dup3\n        /* \"#utility.yul\":4133:4140   */\n      dup5\n        /* \"#utility.yul\":4129:4152   */\n      sub\n        /* \"#utility.yul\":4125:4157   */\n      slt\n        /* \"#utility.yul\":4122:4174   */\n      iszero\n      tag_562\n      jumpi\n        /* \"#utility.yul\":4170:4171   */\n      0x00\n        /* \"#utility.yul\":4167:4168   */\n      dup1\n        /* \"#utility.yul\":4160:4172   */\n      revert\n        /* \"#utility.yul\":4122:4174   */\n    tag_562:\n        /* \"#utility.yul\":4193:4222   */\n      tag_503\n        /* \"#utility.yul\":4212:4221   */\n      dup3\n        /* \"#utility.yul\":4193:4222   */\n      tag_521\n      jump\t// in\n        /* \"#utility.yul\":4233:4481   */\n    tag_102:\n        /* \"#utility.yul\":4301:4307   */\n      0x00\n        /* \"#utility.yul\":4309:4315   */\n      dup1\n        /* \"#utility.yul\":4362:4364   */\n      0x40\n        /* \"#utility.yul\":4350:4359   */\n      dup4\n        /* \"#utility.yul\":4341:4348   */\n      dup6\n        /* \"#utility.yul\":4337:4360   */\n      sub\n        /* \"#utility.yul\":4333:4365   */\n      slt\n        /* \"#utility.yul\":4330:4382   */\n      iszero\n      tag_565\n      jumpi\n        /* \"#utility.yul\":4378:4379   */\n      0x00\n        /* \"#utility.yul\":4375:4376   */\n      dup1\n        /* \"#utility.yul\":4368:4380   */\n      revert\n        /* \"#utility.yul\":4330:4382   */\n    tag_565:\n      pop\n      pop\n        /* \"#utility.yul\":4401:4424   */\n      dup1\n      calldataload\n      swap3\n        /* \"#utility.yul\":4471:4473   */\n      0x20\n        /* \"#utility.yul\":4456:4474   */\n      swap1\n      swap2\n      add\n        /* \"#utility.yul\":4443:4475   */\n      calldataload\n      swap2\n      pop\n        /* \"#utility.yul\":4233:4481   */\n      jump\t// out\n        /* \"#utility.yul\":4739:4960   */\n    tag_522:\n        /* \"#utility.yul\":4781:4786   */\n      0x00\n        /* \"#utility.yul\":4834:4837   */\n      dup3\n        /* \"#utility.yul\":4827:4831   */\n      0x1f\n        /* \"#utility.yul\":4819:4825   */\n      dup4\n        /* \"#utility.yul\":4815:4832   */\n      add\n        /* \"#utility.yul\":4811:4838   */\n      slt\n        /* \"#utility.yul\":4801:4856   */\n      tag_569\n      jumpi\n        /* \"#utility.yul\":4852:4853   */\n      0x00\n        /* \"#utility.yul\":4849:4850   */\n      dup1\n        /* \"#utility.yul\":4842:4854   */\n      revert\n        /* \"#utility.yul\":4801:4856   */\n    tag_569:\n        /* \"#utility.yul\":4874:4954   */\n      tag_503\n        /* \"#utility.yul\":4950:4953   */\n      dup4\n        /* \"#utility.yul\":4941:4947   */\n      dup4\n        /* \"#utility.yul\":4928:4948   */\n      calldataload\n        /* \"#utility.yul\":4921:4925   */\n      0x20\n        /* \"#utility.yul\":4913:4919   */\n      dup6\n        /* \"#utility.yul\":4909:4926   */\n      add\n        /* \"#utility.yul\":4874:4954   */\n      tag_520\n      jump\t// in\n        /* \"#utility.yul\":4965:5490   */\n    tag_113:\n        /* \"#utility.yul\":5060:5066   */\n      0x00\n        /* \"#utility.yul\":5068:5074   */\n      dup1\n        /* \"#utility.yul\":5076:5082   */\n      0x00\n        /* \"#utility.yul\":5084:5090   */\n      dup1\n        /* \"#utility.yul\":5137:5140   */\n      0x80\n        /* \"#utility.yul\":5125:5134   */\n      dup6\n        /* \"#utility.yul\":5116:5123   */\n      dup8\n        /* \"#utility.yul\":5112:5135   */\n      sub\n        /* \"#utility.yul\":5108:5141   */\n      slt\n        /* \"#utility.yul\":5105:5158   */\n      iszero\n      tag_572\n      jumpi\n        /* \"#utility.yul\":5154:5155   */\n      0x00\n        /* \"#utility.yul\":5151:5152   */\n      dup1\n        /* \"#utility.yul\":5144:5156   */\n      revert\n        /* \"#utility.yul\":5105:5158   */\n    tag_572:\n        /* \"#utility.yul\":5190:5199   */\n      dup5\n        /* \"#utility.yul\":5177:5200   */\n      calldataload\n        /* \"#utility.yul\":5167:5200   */\n      swap4\n      pop\n        /* \"#utility.yul\":5247:5249   */\n      0x20\n        /* \"#utility.yul\":5236:5245   */\n      dup6\n        /* \"#utility.yul\":5232:5250   */\n      add\n        /* \"#utility.yul\":5219:5251   */\n      calldataload\n        /* \"#utility.yul\":5209:5251   */\n      swap3\n      pop\n        /* \"#utility.yul\":5302:5304   */\n      0x40\n        /* \"#utility.yul\":5291:5300   */\n      dup6\n        /* \"#utility.yul\":5287:5305   */\n      add\n        /* \"#utility.yul\":5274:5306   */\n      calldataload\n      sub(shl(0x40, 0x01), 0x01)\n        /* \"#utility.yul\":5321:5327   */\n      dup2\n        /* \"#utility.yul\":5318:5348   */\n      gt\n        /* \"#utility.yul\":5315:5365   */\n      iszero\n      tag_573\n      jumpi\n        /* \"#utility.yul\":5361:5362   */\n      0x00\n        /* \"#utility.yul\":5358:5359   */\n      dup1\n        /* \"#utility.yul\":5351:5363   */\n      revert\n        /* \"#utility.yul\":5315:5365   */\n    tag_573:\n        /* \"#utility.yul\":5384:5433   */\n      tag_574\n        /* \"#utility.yul\":5425:5432   */\n      dup8\n        /* \"#utility.yul\":5416:5422   */\n      dup3\n        /* \"#utility.yul\":5405:5414   */\n      dup9\n        /* \"#utility.yul\":5401:5423   */\n      add\n        /* \"#utility.yul\":5384:5433   */\n      tag_522\n      jump\t// in\n    tag_574:\n        /* \"#utility.yul\":4965:5490   */\n      swap5\n      swap8\n      swap4\n      swap7\n      pop\n        /* \"#utility.yul\":5374:5433   */\n      swap4\n      swap5\n        /* \"#utility.yul\":5480:5482   */\n      0x60\n        /* \"#utility.yul\":5465:5483   */\n      add\n        /* \"#utility.yul\":5452:5484   */\n      calldataload\n      swap4\n      pop\n      pop\n      pop\n        /* \"#utility.yul\":4965:5490   */\n      jump\t// out\n        /* \"#utility.yul\":6035:6369   */\n    tag_144:\n        /* \"#utility.yul\":6112:6118   */\n      0x00\n        /* \"#utility.yul\":6120:6126   */\n      dup1\n        /* \"#utility.yul\":6128:6134   */\n      0x00\n        /* \"#utility.yul\":6181:6183   */\n      0x60\n        /* \"#utility.yul\":6169:6178   */\n      dup5\n        /* \"#utility.yul\":6160:6167   */\n      dup7\n        /* \"#utility.yul\":6156:6179   */\n      sub\n        /* \"#utility.yul\":6152:6184   */\n      slt\n        /* \"#utility.yul\":6149:6201   */\n      iszero\n      tag_579\n      jumpi\n        /* \"#utility.yul\":6197:6198   */\n      0x00\n        /* \"#utility.yul\":6194:6195   */\n      dup1\n        /* \"#utility.yul\":6187:6199   */\n      revert\n        /* \"#utility.yul\":6149:6201   */\n    tag_579:\n        /* \"#utility.yul\":6220:6249   */\n      tag_580\n        /* \"#utility.yul\":6239:6248   */\n      dup5\n        /* \"#utility.yul\":6220:6249   */\n      tag_521\n      jump\t// in\n    tag_580:\n        /* \"#utility.yul\":6210:6249   */\n      swap3\n      pop\n        /* \"#utility.yul\":6268:6306   */\n      tag_581\n        /* \"#utility.yul\":6302:6304   */\n      0x20\n        /* \"#utility.yul\":6291:6300   */\n      dup6\n        /* \"#utility.yul\":6287:6305   */\n      add\n        /* \"#utility.yul\":6268:6306   */\n      tag_521\n      jump\t// in\n    tag_581:\n        /* \"#utility.yul\":6258:6306   */\n      swap2\n      pop\n        /* \"#utility.yul\":6325:6363   */\n      tag_553\n        /* \"#utility.yul\":6359:6361   */\n      0x40\n        /* \"#utility.yul\":6348:6357   */\n      dup6\n        /* \"#utility.yul\":6344:6362   */\n      add\n        /* \"#utility.yul\":6325:6363   */\n      tag_521\n      jump\t// in\n        /* \"#utility.yul\":6374:6663   */\n    tag_524:\n        /* \"#utility.yul\":6416:6419   */\n      0x00\n        /* \"#utility.yul\":6454:6459   */\n      dup2\n        /* \"#utility.yul\":6448:6460   */\n      mload\n        /* \"#utility.yul\":6481:6487   */\n      dup1\n        /* \"#utility.yul\":6476:6479   */\n      dup5\n        /* \"#utility.yul\":6469:6488   */\n      mstore\n        /* \"#utility.yul\":6537:6543   */\n      dup1\n        /* \"#utility.yul\":6530:6534   */\n      0x20\n        /* \"#utility.yul\":6523:6528   */\n      dup5\n        /* \"#utility.yul\":6519:6535   */\n      add\n        /* \"#utility.yul\":6512:6516   */\n      0x20\n        /* \"#utility.yul\":6507:6510   */\n      dup7\n        /* \"#utility.yul\":6503:6517   */\n      add\n        /* \"#utility.yul\":6497:6544   */\n      mcopy\n        /* \"#utility.yul\":6589:6590   */\n      0x00\n        /* \"#utility.yul\":6582:6586   */\n      0x20\n        /* \"#utility.yul\":6573:6579   */\n      dup3\n        /* \"#utility.yul\":6568:6571   */\n      dup7\n        /* \"#utility.yul\":6564:6580   */\n      add\n        /* \"#utility.yul\":6560:6587   */\n      add\n        /* \"#utility.yul\":6553:6591   */\n      mstore\n        /* \"#utility.yul\":6652:6656   */\n      0x20\n        /* \"#utility.yul\":6645:6647   */\n      0x1f\n        /* \"#utility.yul\":6641:6648   */\n      not\n        /* \"#utility.yul\":6636:6638   */\n      0x1f\n        /* \"#utility.yul\":6628:6634   */\n      dup4\n        /* \"#utility.yul\":6624:6639   */\n      add\n        /* \"#utility.yul\":6620:6649   */\n      and\n        /* \"#utility.yul\":6615:6618   */\n      dup6\n        /* \"#utility.yul\":6611:6650   */\n      add\n        /* \"#utility.yul\":6607:6657   */\n      add\n        /* \"#utility.yul\":6600:6657   */\n      swap2\n      pop\n      pop\n        /* \"#utility.yul\":6374:6663   */\n      swap3\n      swap2\n      pop\n      pop\n      jump\t// out\n        /* \"#utility.yul\":6668:7732   */\n    tag_151:\n        /* \"#utility.yul\":7125:7128   */\n      0x0180\n        /* \"#utility.yul\":7114:7123   */\n      dup2\n        /* \"#utility.yul\":7107:7129   */\n      mstore\n        /* \"#utility.yul\":7088:7092   */\n      0x00\n        /* \"#utility.yul\":7146:7192   */\n      tag_585\n        /* \"#utility.yul\":7187:7190   */\n      0x0180\n        /* \"#utility.yul\":7176:7185   */\n      dup4\n        /* \"#utility.yul\":7172:7191   */\n      add\n        /* \"#utility.yul\":7164:7170   */\n      dup16\n        /* \"#utility.yul\":7146:7192   */\n      tag_524\n      jump\t// in\n    tag_585:\n        /* \"#utility.yul\":7223:7225   */\n      0x20\n        /* \"#utility.yul\":7208:7226   */\n      dup4\n      add\n        /* \"#utility.yul\":7201:7235   */\n      swap14\n      swap1\n      swap14\n      mstore\n      pop\n        /* \"#utility.yul\":7266:7268   */\n      0x40\n        /* \"#utility.yul\":7251:7269   */\n      dup2\n      add\n        /* \"#utility.yul\":7244:7278   */\n      swap11\n      swap1\n      swap11\n      mstore\n        /* \"#utility.yul\":7309:7311   */\n      0x60\n        /* \"#utility.yul\":7294:7312   */\n      dup11\n      add\n        /* \"#utility.yul\":7287:7321   */\n      swap9\n      swap1\n      swap9\n      mstore\n        /* \"#utility.yul\":7352:7355   */\n      0x80\n        /* \"#utility.yul\":7337:7356   */\n      dup10\n      add\n        /* \"#utility.yul\":7330:7365   */\n      swap7\n      swap1\n      swap7\n      mstore\n        /* \"#utility.yul\":7396:7399   */\n      0xa0\n        /* \"#utility.yul\":7381:7400   */\n      dup9\n      add\n        /* \"#utility.yul\":7374:7409   */\n      swap5\n      swap1\n      swap5\n      mstore\n        /* \"#utility.yul\":7440:7443   */\n      0xc0\n        /* \"#utility.yul\":7425:7444   */\n      dup8\n      add\n        /* \"#utility.yul\":7418:7453   */\n      swap3\n      swap1\n      swap3\n      mstore\n        /* \"#utility.yul\":7484:7487   */\n      0xe0\n        /* \"#utility.yul\":7469:7488   */\n      dup7\n      add\n        /* \"#utility.yul\":7462:7497   */\n      mstore\n        /* \"#utility.yul\":7528:7531   */\n      0x0100\n        /* \"#utility.yul\":7513:7532   */\n      dup6\n      add\n        /* \"#utility.yul\":7506:7541   */\n      mstore\n        /* \"#utility.yul\":7572:7575   */\n      0x0120\n        /* \"#utility.yul\":7557:7576   */\n      dup5\n      add\n        /* \"#utility.yul\":7550:7585   */\n      mstore\n      sub(shl(0x40, 0x01), 0x01)\n        /* \"#utility.yul\":7622:7654   */\n      and\n        /* \"#utility.yul\":7616:7619   */\n      0x0140\n        /* \"#utility.yul\":7601:7620   */\n      dup4\n      add\n        /* \"#utility.yul\":7594:7655   */\n      mstore\n      sub(shl(0xa0, 0x01), 0x01)\n        /* \"#utility.yul\":7692:7725   */\n      and\n        /* \"#utility.yul\":7686:7689   */\n      0x0160\n        /* \"#utility.yul\":7671:7690   */\n      swap1\n      swap2\n      add\n        /* \"#utility.yul\":7664:7726   */\n      mstore\n        /* \"#utility.yul\":7138:7192   */\n      swap2\n        /* \"#utility.yul\":6668:7732   */\n      swap1\n      pop\n      jump\t// out\n        /* \"#utility.yul\":7737:8122   */\n    tag_154:\n        /* \"#utility.yul\":7823:7829   */\n      0x00\n        /* \"#utility.yul\":7831:7837   */\n      dup1\n        /* \"#utility.yul\":7839:7845   */\n      0x00\n        /* \"#utility.yul\":7847:7853   */\n      dup1\n        /* \"#utility.yul\":7900:7903   */\n      0x80\n        /* \"#utility.yul\":7888:7897   */\n      dup6\n        /* \"#utility.yul\":7879:7886   */\n      dup8\n        /* \"#utility.yul\":7875:7898   */\n      sub\n        /* \"#utility.yul\":7871:7904   */\n      slt\n        /* \"#utility.yul\":7868:7921   */\n      iszero\n      tag_587\n      jumpi\n        /* \"#utility.yul\":7917:7918   */\n      0x00\n        /* \"#utility.yul\":7914:7915   */\n      dup1\n        /* \"#utility.yul\":7907:7919   */\n      revert\n        /* \"#utility.yul\":7868:7921   */\n    tag_587:\n      pop\n      pop\n        /* \"#utility.yul\":7940:7963   */\n      dup3\n      calldataload\n      swap5\n        /* \"#utility.yul\":8010:8012   */\n      0x20\n        /* \"#utility.yul\":7995:8013   */\n      dup5\n      add\n        /* \"#utility.yul\":7982:8014   */\n      calldataload\n      swap5\n      pop\n        /* \"#utility.yul\":8061:8063   */\n      0x40\n        /* \"#utility.yul\":8046:8064   */\n      dup5\n      add\n        /* \"#utility.yul\":8033:8065   */\n      calldataload\n      swap4\n        /* \"#utility.yul\":8112:8114   */\n      0x60\n        /* \"#utility.yul\":8097:8115   */\n      add\n        /* \"#utility.yul\":8084:8116   */\n      calldataload\n      swap3\n      pop\n        /* \"#utility.yul\":7737:8122   */\n      swap1\n      pop\n      jump\t// out\n        /* \"#utility.yul\":8127:8583   */\n    tag_167:\n        /* \"#utility.yul\":8213:8219   */\n      0x00\n        /* \"#utility.yul\":8221:8227   */\n      dup1\n        /* \"#utility.yul\":8229:8235   */\n      0x00\n        /* \"#utility.yul\":8282:8284   */\n      0x60\n        /* \"#utility.yul\":8270:8279   */\n      dup5\n        /* \"#utility.yul\":8261:8268   */\n      dup7\n        /* \"#utility.yul\":8257:8280   */\n      sub\n        /* \"#utility.yul\":8253:8285   */\n      slt\n        /* \"#utility.yul\":8250:8302   */\n      iszero\n      tag_589\n      jumpi\n        /* \"#utility.yul\":8298:8299   */\n      0x00\n        /* \"#utility.yul\":8295:8296   */\n      dup1\n        /* \"#utility.yul\":8288:8300   */\n      revert\n        /* \"#utility.yul\":8250:8302   */\n    tag_589:\n        /* \"#utility.yul\":8334:8343   */\n      dup4\n        /* \"#utility.yul\":8321:8344   */\n      calldataload\n        /* \"#utility.yul\":8311:8344   */\n      swap3\n      pop\n        /* \"#utility.yul\":8395:8397   */\n      0x20\n        /* \"#utility.yul\":8384:8393   */\n      dup5\n        /* \"#utility.yul\":8380:8398   */\n      add\n        /* \"#utility.yul\":8367:8399   */\n      calldataload\n      sub(shl(0x40, 0x01), 0x01)\n        /* \"#utility.yul\":8414:8420   */\n      dup2\n        /* \"#utility.yul\":8411:8441   */\n      gt\n        /* \"#utility.yul\":8408:8458   */\n      iszero\n      tag_590\n      jumpi\n        /* \"#utility.yul\":8454:8455   */\n      0x00\n        /* \"#utility.yul\":8451:8452   */\n      dup1\n        /* \"#utility.yul\":8444:8456   */\n      revert\n        /* \"#utility.yul\":8408:8458   */\n    tag_590:\n        /* \"#utility.yul\":8477:8526   */\n      tag_591\n        /* \"#utility.yul\":8518:8525   */\n      dup7\n        /* \"#utility.yul\":8509:8515   */\n      dup3\n        /* \"#utility.yul\":8498:8507   */\n      dup8\n        /* \"#utility.yul\":8494:8516   */\n      add\n        /* \"#utility.yul\":8477:8526   */\n      tag_522\n      jump\t// in\n    tag_591:\n        /* \"#utility.yul\":8467:8526   */\n      swap3\n      pop\n      pop\n        /* \"#utility.yul\":8573:8575   */\n      0x40\n        /* \"#utility.yul\":8562:8571   */\n      dup5\n        /* \"#utility.yul\":8558:8576   */\n      add\n        /* \"#utility.yul\":8545:8577   */\n      calldataload\n        /* \"#utility.yul\":8535:8577   */\n      swap1\n      pop\n        /* \"#utility.yul\":8127:8583   */\n      swap3\n      pop\n      swap3\n      pop\n      swap3\n      jump\t// out\n        /* \"#utility.yul\":8773:9078   */\n    tag_184:\n        /* \"#utility.yul\":8843:8849   */\n      0x00\n        /* \"#utility.yul\":8896:8898   */\n      0x20\n        /* \"#utility.yul\":8884:8893   */\n      dup3\n        /* \"#utility.yul\":8875:8882   */\n      dup5\n        /* \"#utility.yul\":8871:8894   */\n      sub\n        /* \"#utility.yul\":8867:8899   */\n      slt\n        /* \"#utility.yul\":8864:8916   */\n      iszero\n      tag_595\n      jumpi\n        /* \"#utility.yul\":8912:8913   */\n      0x00\n        /* \"#utility.yul\":8909:8910   */\n      dup1\n        /* \"#utility.yul\":8902:8914   */\n      revert\n        /* \"#utility.yul\":8864:8916   */\n    tag_595:\n        /* \"#utility.yul\":8944:8953   */\n      dup2\n        /* \"#utility.yul\":8938:8954   */\n      mload\n      sub(shl(0x80, 0x01), 0x01)\n        /* \"#utility.yul\":8987:8992   */\n      dup2\n        /* \"#utility.yul\":8983:9029   */\n      and\n        /* \"#utility.yul\":8976:8981   */\n      dup2\n        /* \"#utility.yul\":8973:9030   */\n      eq\n        /* \"#utility.yul\":8963:9048   */\n      tag_503\n      jumpi\n        /* \"#utility.yul\":9044:9045   */\n      0x00\n        /* \"#utility.yul\":9041:9042   */\n      dup1\n        /* \"#utility.yul\":9034:9046   */\n      revert\n        /* \"#utility.yul\":9083:9210   */\n    tag_525:\n        /* \"#utility.yul\":9144:9154   */\n      0x4e487b71\n        /* \"#utility.yul\":9139:9142   */\n      0xe0\n        /* \"#utility.yul\":9135:9155   */\n      shl\n        /* \"#utility.yul\":9132:9133   */\n      0x00\n        /* \"#utility.yul\":9125:9156   */\n      mstore\n        /* \"#utility.yul\":9175:9179   */\n      0x11\n        /* \"#utility.yul\":9172:9173   */\n      0x04\n        /* \"#utility.yul\":9165:9180   */\n      mstore\n        /* \"#utility.yul\":9199:9203   */\n      0x24\n        /* \"#utility.yul\":9196:9197   */\n      0x00\n        /* \"#utility.yul\":9189:9204   */\n      revert\n        /* \"#utility.yul\":9215:9340   */\n    tag_186:\n        /* \"#utility.yul\":9280:9289   */\n      dup1\n      dup3\n      add\n        /* \"#utility.yul\":9301:9311   */\n      dup1\n      dup3\n      gt\n        /* \"#utility.yul\":9298:9334   */\n      iszero\n      tag_282\n      jumpi\n        /* \"#utility.yul\":9314:9332   */\n      tag_282\n      tag_525\n      jump\t// in\n        /* \"#utility.yul\":10876:11011   */\n    tag_200:\n        /* \"#utility.yul\":10915:10918   */\n      0x00\n        /* \"#utility.yul\":10936:10953   */\n      0x01\n      dup3\n      add\n        /* \"#utility.yul\":10933:10976   */\n      tag_607\n      jumpi\n        /* \"#utility.yul\":10956:10974   */\n      tag_607\n      tag_525\n      jump\t// in\n    tag_607:\n      pop\n        /* \"#utility.yul\":11003:11004   */\n      0x01\n        /* \"#utility.yul\":10992:11005   */\n      add\n      swap1\n        /* \"#utility.yul\":10876:11011   */\n      jump\t// out\n        /* \"#utility.yul\":11396:11673   */\n    tag_206:\n        /* \"#utility.yul\":11463:11469   */\n      0x00\n        /* \"#utility.yul\":11516:11518   */\n      0x20\n        /* \"#utility.yul\":11504:11513   */\n      dup3\n        /* \"#utility.yul\":11495:11502   */\n      dup5\n        /* \"#utility.yul\":11491:11514   */\n      sub\n        /* \"#utility.yul\":11487:11519   */\n      slt\n        /* \"#utility.yul\":11484:11536   */\n      iszero\n      tag_610\n      jumpi\n        /* \"#utility.yul\":11532:11533   */\n      0x00\n        /* \"#utility.yul\":11529:11530   */\n      dup1\n        /* \"#utility.yul\":11522:11534   */\n      revert\n        /* \"#utility.yul\":11484:11536   */\n    tag_610:\n        /* \"#utility.yul\":11564:11573   */\n      dup2\n        /* \"#utility.yul\":11558:11574   */\n      mload\n        /* \"#utility.yul\":11617:11622   */\n      dup1\n        /* \"#utility.yul\":11610:11623   */\n      iszero\n        /* \"#utility.yul\":11603:11624   */\n      iszero\n        /* \"#utility.yul\":11596:11601   */\n      dup2\n        /* \"#utility.yul\":11593:11625   */\n      eq\n        /* \"#utility.yul\":11583:11643   */\n      tag_503\n      jumpi\n        /* \"#utility.yul\":11639:11640   */\n      0x00\n        /* \"#utility.yul\":11636:11637   */\n      dup1\n        /* \"#utility.yul\":11629:11641   */\n      revert\n        /* \"#utility.yul\":12448:12736   */\n    tag_215:\n        /* \"#utility.yul\":12517:12523   */\n      0x00\n        /* \"#utility.yul\":12570:12572   */\n      0x20\n        /* \"#utility.yul\":12558:12567   */\n      dup3\n        /* \"#utility.yul\":12549:12556   */\n      dup5\n        /* \"#utility.yul\":12545:12568   */\n      sub\n        /* \"#utility.yul\":12541:12573   */\n      slt\n        /* \"#utility.yul\":12538:12590   */\n      iszero\n      tag_615\n      jumpi\n        /* \"#utility.yul\":12586:12587   */\n      0x00\n        /* \"#utility.yul\":12583:12584   */\n      dup1\n        /* \"#utility.yul\":12576:12588   */\n      revert\n        /* \"#utility.yul\":12538:12590   */\n    tag_615:\n        /* \"#utility.yul\":12618:12627   */\n      dup2\n        /* \"#utility.yul\":12612:12628   */\n      mload\n      sub(shl(0x40, 0x01), 0x01)\n        /* \"#utility.yul\":12661:12666   */\n      dup2\n        /* \"#utility.yul\":12657:12687   */\n      and\n        /* \"#utility.yul\":12650:12655   */\n      dup2\n        /* \"#utility.yul\":12647:12688   */\n      eq\n        /* \"#utility.yul\":12637:12706   */\n      tag_503\n      jumpi\n        /* \"#utility.yul\":12702:12703   */\n      0x00\n        /* \"#utility.yul\":12699:12700   */\n      dup1\n        /* \"#utility.yul\":12692:12704   */\n      revert\n        /* \"#utility.yul\":12741:13121   */\n    tag_347:\n        /* \"#utility.yul\":12820:12821   */\n      0x01\n        /* \"#utility.yul\":12816:12828   */\n      dup2\n      dup2\n      shr\n      swap1\n        /* \"#utility.yul\":12863:12875   */\n      dup3\n      and\n      dup1\n        /* \"#utility.yul\":12884:12945   */\n      tag_618\n      jumpi\n        /* \"#utility.yul\":12938:12942   */\n      0x7f\n        /* \"#utility.yul\":12930:12936   */\n      dup3\n        /* \"#utility.yul\":12926:12943   */\n      and\n        /* \"#utility.yul\":12916:12943   */\n      swap2\n      pop\n        /* \"#utility.yul\":12884:12945   */\n    tag_618:\n        /* \"#utility.yul\":12991:12993   */\n      0x20\n        /* \"#utility.yul\":12983:12989   */\n      dup3\n        /* \"#utility.yul\":12980:12994   */\n      lt\n        /* \"#utility.yul\":12960:12978   */\n      dup2\n        /* \"#utility.yul\":12957:12995   */\n      sub\n        /* \"#utility.yul\":12954:13115   */\n      tag_619\n      jumpi\n        /* \"#utility.yul\":13037:13047   */\n      0x4e487b71\n        /* \"#utility.yul\":13032:13035   */\n      0xe0\n        /* \"#utility.yul\":13028:13048   */\n      shl\n        /* \"#utility.yul\":13025:13026   */\n      0x00\n        /* \"#utility.yul\":13018:13049   */\n      mstore\n        /* \"#utility.yul\":13072:13076   */\n      0x22\n        /* \"#utility.yul\":13069:13070   */\n      0x04\n        /* \"#utility.yul\":13062:13077   */\n      mstore\n        /* \"#utility.yul\":13100:13104   */\n      0x24\n        /* \"#utility.yul\":13097:13098   */\n      0x00\n        /* \"#utility.yul\":13090:13105   */\n      revert\n        /* \"#utility.yul\":12954:13115   */\n    tag_619:\n      pop\n        /* \"#utility.yul\":12741:13121   */\n      swap2\n      swap1\n      pop\n      jump\t// out\n        /* \"#utility.yul\":13252:13770   */\n    tag_527:\n        /* \"#utility.yul\":13354:13356   */\n      0x1f\n        /* \"#utility.yul\":13349:13352   */\n      dup3\n        /* \"#utility.yul\":13346:13357   */\n      gt\n        /* \"#utility.yul\":13343:13764   */\n      iszero\n      tag_317\n      jumpi\n        /* \"#utility.yul\":13390:13395   */\n      dup1\n        /* \"#utility.yul\":13387:13388   */\n      0x00\n        /* \"#utility.yul\":13380:13396   */\n      mstore\n        /* \"#utility.yul\":13434:13438   */\n      0x20\n        /* \"#utility.yul\":13431:13432   */\n      0x00\n        /* \"#utility.yul\":13421:13439   */\n      keccak256\n        /* \"#utility.yul\":13504:13506   */\n      0x1f\n        /* \"#utility.yul\":13492:13502   */\n      dup5\n        /* \"#utility.yul\":13488:13507   */\n      add\n        /* \"#utility.yul\":13485:13486   */\n      0x05\n        /* \"#utility.yul\":13481:13508   */\n      shr\n        /* \"#utility.yul\":13475:13479   */\n      dup2\n        /* \"#utility.yul\":13471:13509   */\n      add\n        /* \"#utility.yul\":13540:13544   */\n      0x20\n        /* \"#utility.yul\":13528:13538   */\n      dup6\n        /* \"#utility.yul\":13525:13545   */\n      lt\n        /* \"#utility.yul\":13522:13569   */\n      iszero\n      tag_623\n      jumpi\n      pop\n        /* \"#utility.yul\":13563:13567   */\n      dup1\n        /* \"#utility.yul\":13522:13569   */\n    tag_623:\n        /* \"#utility.yul\":13618:13620   */\n      0x1f\n        /* \"#utility.yul\":13613:13616   */\n      dup5\n        /* \"#utility.yul\":13609:13621   */\n      add\n        /* \"#utility.yul\":13606:13607   */\n      0x05\n        /* \"#utility.yul\":13602:13622   */\n      shr\n        /* \"#utility.yul\":13596:13600   */\n      dup3\n        /* \"#utility.yul\":13592:13623   */\n      add\n        /* \"#utility.yul\":13582:13623   */\n      swap2\n      pop\n        /* \"#utility.yul\":13673:13754   */\n    tag_624:\n        /* \"#utility.yul\":13691:13693   */\n      dup2\n        /* \"#utility.yul\":13684:13689   */\n      dup2\n        /* \"#utility.yul\":13681:13694   */\n      lt\n        /* \"#utility.yul\":13673:13754   */\n      iszero\n      tag_626\n      jumpi\n        /* \"#utility.yul\":13750:13751   */\n      0x00\n        /* \"#utility.yul\":13736:13752   */\n      dup2\n      sstore\n        /* \"#utility.yul\":13717:13718   */\n      0x01\n        /* \"#utility.yul\":13706:13719   */\n      add\n        /* \"#utility.yul\":13673:13754   */\n      jump(tag_624)\n    tag_626:\n        /* \"#utility.yul\":13677:13680   */\n      pop\n      pop\n        /* \"#utility.yul\":13252:13770   */\n      pop\n      pop\n      pop\n      jump\t// out\n        /* \"#utility.yul\":13946:15291   */\n    tag_218:\n        /* \"#utility.yul\":14072:14075   */\n      dup2\n        /* \"#utility.yul\":14066:14076   */\n      mload\n      sub(shl(0x40, 0x01), 0x01)\n        /* \"#utility.yul\":14091:14097   */\n      dup2\n        /* \"#utility.yul\":14088:14118   */\n      gt\n        /* \"#utility.yul\":14085:14141   */\n      iszero\n      tag_630\n      jumpi\n        /* \"#utility.yul\":14121:14139   */\n      tag_630\n      tag_519\n      jump\t// in\n    tag_630:\n        /* \"#utility.yul\":14150:14247   */\n      tag_631\n        /* \"#utility.yul\":14240:14246   */\n      dup2\n        /* \"#utility.yul\":14200:14238   */\n      tag_632\n        /* \"#utility.yul\":14232:14236   */\n      dup5\n        /* \"#utility.yul\":14226:14237   */\n      sload\n        /* \"#utility.yul\":14200:14238   */\n      tag_347\n      jump\t// in\n    tag_632:\n        /* \"#utility.yul\":14194:14198   */\n      dup5\n        /* \"#utility.yul\":14150:14247   */\n      tag_527\n      jump\t// in\n    tag_631:\n        /* \"#utility.yul\":14302:14306   */\n      0x20\n      dup1\n        /* \"#utility.yul\":14359:14361   */\n      0x1f\n        /* \"#utility.yul\":14348:14362   */\n      dup4\n      gt\n        /* \"#utility.yul\":14376:14377   */\n      0x01\n        /* \"#utility.yul\":14371:15034   */\n      dup2\n      eq\n      tag_634\n      jumpi\n        /* \"#utility.yul\":15078:15079   */\n      0x00\n        /* \"#utility.yul\":15095:15101   */\n      dup5\n        /* \"#utility.yul\":15092:15181   */\n      iszero\n      tag_635\n      jumpi\n      pop\n        /* \"#utility.yul\":15147:15166   */\n      dup6\n      dup4\n      add\n        /* \"#utility.yul\":15141:15167   */\n      mload\n        /* \"#utility.yul\":15092:15181   */\n    tag_635:\n      not(0x00)\n        /* \"#utility.yul\":13903:13904   */\n      0x03\n        /* \"#utility.yul\":13899:13910   */\n      dup7\n      swap1\n      shl\n        /* \"#utility.yul\":13895:13919   */\n      shr\n        /* \"#utility.yul\":13891:13920   */\n      not\n        /* \"#utility.yul\":13881:13921   */\n      and\n        /* \"#utility.yul\":13927:13928   */\n      0x01\n        /* \"#utility.yul\":13923:13934   */\n      dup6\n      swap1\n      shl\n        /* \"#utility.yul\":13878:13935   */\n      or\n        /* \"#utility.yul\":15194:15275   */\n      dup6\n      sstore\n        /* \"#utility.yul\":14341:15285   */\n      jump(tag_259)\n        /* \"#utility.yul\":14371:15034   */\n    tag_634:\n        /* \"#utility.yul\":13199:13200   */\n      0x00\n        /* \"#utility.yul\":13192:13206   */\n      dup6\n      dup2\n      mstore\n        /* \"#utility.yul\":13236:13240   */\n      0x20\n        /* \"#utility.yul\":13223:13241   */\n      dup2\n      keccak256\n      not(0x1f)\n        /* \"#utility.yul\":14407:14427   */\n      dup7\n      and\n      swap2\n        /* \"#utility.yul\":14525:14761   */\n    tag_638:\n        /* \"#utility.yul\":14539:14546   */\n      dup3\n        /* \"#utility.yul\":14536:14537   */\n      dup2\n        /* \"#utility.yul\":14533:14547   */\n      lt\n        /* \"#utility.yul\":14525:14761   */\n      iszero\n      tag_640\n      jumpi\n        /* \"#utility.yul\":14628:14647   */\n      dup9\n      dup7\n      add\n        /* \"#utility.yul\":14622:14648   */\n      mload\n        /* \"#utility.yul\":14607:14649   */\n      dup3\n      sstore\n        /* \"#utility.yul\":14720:14747   */\n      swap5\n      dup5\n      add\n      swap5\n        /* \"#utility.yul\":14688:14689   */\n      0x01\n        /* \"#utility.yul\":14676:14690   */\n      swap1\n      swap2\n      add\n      swap1\n        /* \"#utility.yul\":14555:14574   */\n      dup5\n      add\n        /* \"#utility.yul\":14525:14761   */\n      jump(tag_638)\n    tag_640:\n        /* \"#utility.yul\":14529:14532   */\n      pop\n        /* \"#utility.yul\":14789:14795   */\n      dup6\n        /* \"#utility.yul\":14780:14787   */\n      dup3\n        /* \"#utility.yul\":14777:14796   */\n      lt\n        /* \"#utility.yul\":14774:14975   */\n      iszero\n      tag_641\n      jumpi\n        /* \"#utility.yul\":14850:14869   */\n      dup8\n      dup6\n      add\n        /* \"#utility.yul\":14844:14870   */\n      mload\n      not(0x00)\n        /* \"#utility.yul\":14933:14934   */\n      0x03\n        /* \"#utility.yul\":14929:14943   */\n      dup9\n      swap1\n      shl\n        /* \"#utility.yul\":14945:14948   */\n      0xf8\n        /* \"#utility.yul\":14925:14949   */\n      and\n        /* \"#utility.yul\":14921:14958   */\n      shr\n        /* \"#utility.yul\":14917:14959   */\n      not\n        /* \"#utility.yul\":14902:14960   */\n      and\n        /* \"#utility.yul\":14887:14961   */\n      dup2\n      sstore\n        /* \"#utility.yul\":14774:14975   */\n    tag_641:\n      pop\n      pop\n      pop\n      pop\n      pop\n        /* \"#utility.yul\":15021:15022   */\n      0x01\n        /* \"#utility.yul\":15005:15019   */\n      swap1\n      dup2\n      shl\n        /* \"#utility.yul\":15001:15023   */\n      add\n        /* \"#utility.yul\":14988:15024   */\n      swap1\n      sstore\n      pop\n        /* \"#utility.yul\":13946:15291   */\n      jump\t// out\n        /* \"#utility.yul\":15296:16065   */\n    tag_221:\n        /* \"#utility.yul\":15604:15608   */\n      0x00\n        /* \"#utility.yul\":15633:15636   */\n      0x0100\n        /* \"#utility.yul\":15663:15669   */\n      dup11\n        /* \"#utility.yul\":15652:15661   */\n      dup4\n        /* \"#utility.yul\":15645:15670   */\n      mstore\n        /* \"#utility.yul\":15706:15708   */\n      dup1\n        /* \"#utility.yul\":15701:15703   */\n      0x20\n        /* \"#utility.yul\":15690:15699   */\n      dup5\n        /* \"#utility.yul\":15686:15704   */\n      add\n        /* \"#utility.yul\":15679:15709   */\n      mstore\n        /* \"#utility.yul\":15726:15771   */\n      tag_643\n        /* \"#utility.yul\":15767:15769   */\n      dup2\n        /* \"#utility.yul\":15756:15765   */\n      dup5\n        /* \"#utility.yul\":15752:15770   */\n      add\n        /* \"#utility.yul\":15744:15750   */\n      dup12\n        /* \"#utility.yul\":15726:15771   */\n      tag_524\n      jump\t// in\n    tag_643:\n      sub(shl(0xa0, 0x01), 0x01)\n        /* \"#utility.yul\":15807:15839   */\n      swap10\n      swap1\n      swap10\n      and\n        /* \"#utility.yul\":15802:15804   */\n      0x40\n        /* \"#utility.yul\":15787:15805   */\n      dup5\n      add\n        /* \"#utility.yul\":15780:15840   */\n      mstore\n      pop\n      pop\n        /* \"#utility.yul\":15871:15873   */\n      0x60\n        /* \"#utility.yul\":15856:15874   */\n      dup2\n      add\n        /* \"#utility.yul\":15849:15883   */\n      swap6\n      swap1\n      swap6\n      mstore\n        /* \"#utility.yul\":15914:15917   */\n      0x80\n        /* \"#utility.yul\":15899:15918   */\n      dup6\n      add\n        /* \"#utility.yul\":15892:15927   */\n      swap4\n      swap1\n      swap4\n      mstore\n        /* \"#utility.yul\":15827:15830   */\n      0xa0\n        /* \"#utility.yul\":15943:15962   */\n      dup5\n      add\n        /* \"#utility.yul\":15936:15971   */\n      swap2\n      swap1\n      swap2\n      mstore\n        /* \"#utility.yul\":16002:16005   */\n      0xc0\n        /* \"#utility.yul\":15987:16006   */\n      dup4\n      add\n        /* \"#utility.yul\":15980:16015   */\n      mstore\n        /* \"#utility.yul\":16046:16049   */\n      0xe0\n        /* \"#utility.yul\":16031:16050   */\n      swap1\n      swap2\n      add\n        /* \"#utility.yul\":16024:16059   */\n      mstore\n        /* \"#utility.yul\":15718:15771   */\n      swap3\n        /* \"#utility.yul\":15296:16065   */\n      swap2\n      pop\n      pop\n      jump\t// out\n        /* \"#utility.yul\":17474:17602   */\n    tag_249:\n        /* \"#utility.yul\":17541:17550   */\n      dup2\n      dup2\n      sub\n        /* \"#utility.yul\":17562:17573   */\n      dup2\n      dup2\n      gt\n        /* \"#utility.yul\":17559:17596   */\n      iszero\n      tag_282\n      jumpi\n        /* \"#utility.yul\":17576:17594   */\n      tag_282\n      tag_525\n      jump\t// in\n        /* \"#utility.yul\":18895:19079   */\n    tag_275:\n        /* \"#utility.yul\":18965:18971   */\n      0x00\n        /* \"#utility.yul\":19018:19020   */\n      0x20\n        /* \"#utility.yul\":19006:19015   */\n      dup3\n        /* \"#utility.yul\":18997:19004   */\n      dup5\n        /* \"#utility.yul\":18993:19016   */\n      sub\n        /* \"#utility.yul\":18989:19021   */\n      slt\n        /* \"#utility.yul\":18986:19038   */\n      iszero\n      tag_656\n      jumpi\n        /* \"#utility.yul\":19034:19035   */\n      0x00\n        /* \"#utility.yul\":19031:19032   */\n      dup1\n        /* \"#utility.yul\":19024:19036   */\n      revert\n        /* \"#utility.yul\":18986:19038   */\n    tag_656:\n      pop\n        /* \"#utility.yul\":19057:19073   */\n      mload\n      swap2\n        /* \"#utility.yul\":18895:19079   */\n      swap1\n      pop\n      jump\t// out\n        /* \"#utility.yul\":19084:19252   */\n    tag_284:\n        /* \"#utility.yul\":19157:19166   */\n      dup1\n      dup3\n      mul\n        /* \"#utility.yul\":19188:19197   */\n      dup2\n      iszero\n        /* \"#utility.yul\":19205:19220   */\n      dup3\n      dup3\n      div\n        /* \"#utility.yul\":19199:19221   */\n      dup5\n      eq\n        /* \"#utility.yul\":19185:19222   */\n      or\n        /* \"#utility.yul\":19175:19246   */\n      tag_282\n      jumpi\n        /* \"#utility.yul\":19226:19244   */\n      tag_282\n      tag_525\n      jump\t// in\n        /* \"#utility.yul\":19257:19384   */\n    tag_529:\n        /* \"#utility.yul\":19318:19328   */\n      0x4e487b71\n        /* \"#utility.yul\":19313:19316   */\n      0xe0\n        /* \"#utility.yul\":19309:19329   */\n      shl\n        /* \"#utility.yul\":19306:19307   */\n      0x00\n        /* \"#utility.yul\":19299:19330   */\n      mstore\n        /* \"#utility.yul\":19349:19353   */\n      0x12\n        /* \"#utility.yul\":19346:19347   */\n      0x04\n        /* \"#utility.yul\":19339:19354   */\n      mstore\n        /* \"#utility.yul\":19373:19377   */\n      0x24\n        /* \"#utility.yul\":19370:19371   */\n      0x00\n        /* \"#utility.yul\":19363:19378   */\n      revert\n        /* \"#utility.yul\":19389:19509   */\n    tag_286:\n        /* \"#utility.yul\":19429:19430   */\n      0x00\n        /* \"#utility.yul\":19455:19456   */\n      dup3\n        /* \"#utility.yul\":19445:19480   */\n      tag_663\n      jumpi\n        /* \"#utility.yul\":19460:19478   */\n      tag_663\n      tag_529\n      jump\t// in\n    tag_663:\n      pop\n        /* \"#utility.yul\":19494:19503   */\n      div\n      swap1\n        /* \"#utility.yul\":19389:19509   */\n      jump\t// out\n        /* \"#utility.yul\":21418:21545   */\n    tag_464:\n        /* \"#utility.yul\":21479:21489   */\n      0x4e487b71\n        /* \"#utility.yul\":21474:21477   */\n      0xe0\n        /* \"#utility.yul\":21470:21490   */\n      shl\n        /* \"#utility.yul\":21467:21468   */\n      0x00\n        /* \"#utility.yul\":21460:21491   */\n      mstore\n        /* \"#utility.yul\":21510:21514   */\n      0x21\n        /* \"#utility.yul\":21507:21508   */\n      0x04\n        /* \"#utility.yul\":21500:21515   */\n      mstore\n        /* \"#utility.yul\":21534:21538   */\n      0x24\n        /* \"#utility.yul\":21531:21532   */\n      0x00\n        /* \"#utility.yul\":21524:21539   */\n      revert\n        /* \"#utility.yul\":21550:21892   */\n    tag_332:\n        /* \"#utility.yul\":21696:21698   */\n      0x20\n        /* \"#utility.yul\":21681:21699   */\n      dup2\n      add\n        /* \"#utility.yul\":21729:21730   */\n      0x03\n        /* \"#utility.yul\":21718:21731   */\n      dup4\n      lt\n        /* \"#utility.yul\":21708:21852   */\n      tag_671\n      jumpi\n        /* \"#utility.yul\":21774:21784   */\n      0x4e487b71\n        /* \"#utility.yul\":21769:21772   */\n      0xe0\n        /* \"#utility.yul\":21765:21785   */\n      shl\n        /* \"#utility.yul\":21762:21763   */\n      0x00\n        /* \"#utility.yul\":21755:21786   */\n      mstore\n        /* \"#utility.yul\":21809:21813   */\n      0x21\n        /* \"#utility.yul\":21806:21807   */\n      0x04\n        /* \"#utility.yul\":21799:21814   */\n      mstore\n        /* \"#utility.yul\":21837:21841   */\n      0x24\n        /* \"#utility.yul\":21834:21835   */\n      0x00\n        /* \"#utility.yul\":21827:21842   */\n      revert\n        /* \"#utility.yul\":21708:21852   */\n    tag_671:\n        /* \"#utility.yul\":21861:21886   */\n      swap2\n      swap1\n      mstore\n        /* \"#utility.yul\":21550:21892   */\n      swap1\n      jump\t// out\n        /* \"#utility.yul\":23099:23211   */\n    tag_364:\n        /* \"#utility.yul\":23131:23132   */\n      0x00\n        /* \"#utility.yul\":23157:23158   */\n      dup3\n        /* \"#utility.yul\":23147:23182   */\n      tag_679\n      jumpi\n        /* \"#utility.yul\":23162:23180   */\n      tag_679\n      tag_529\n      jump\t// in\n    tag_679:\n      pop\n        /* \"#utility.yul\":23196:23205   */\n      mod\n      swap1\n        /* \"#utility.yul\":23099:23211   */\n      jump\t// out\n        /* \"#utility.yul\":23216:23343   */\n    tag_367:\n        /* \"#utility.yul\":23277:23287   */\n      0x4e487b71\n        /* \"#utility.yul\":23272:23275   */\n      0xe0\n        /* \"#utility.yul\":23268:23288   */\n      shl\n        /* \"#utility.yul\":23265:23266   */\n      0x00\n        /* \"#utility.yul\":23258:23289   */\n      mstore\n        /* \"#utility.yul\":23308:23312   */\n      0x32\n        /* \"#utility.yul\":23305:23306   */\n      0x04\n        /* \"#utility.yul\":23298:23313   */\n      mstore\n        /* \"#utility.yul\":23332:23336   */\n      0x24\n        /* \"#utility.yul\":23329:23330   */\n      0x00\n        /* \"#utility.yul\":23322:23337   */\n      revert\n        /* \"#utility.yul\":24110:25608   */\n    tag_414:\n        /* \"#utility.yul\":24415:24419   */\n      0x00\n        /* \"#utility.yul\":24444:24447   */\n      0x0100\n        /* \"#utility.yul\":24474:24480   */\n      dup11\n        /* \"#utility.yul\":24463:24472   */\n      dup4\n        /* \"#utility.yul\":24456:24481   */\n      mstore\n        /* \"#utility.yul\":24500:24502   */\n      0x20\n        /* \"#utility.yul\":24538:24540   */\n      dup2\n        /* \"#utility.yul\":24533:24535   */\n      0x20\n        /* \"#utility.yul\":24522:24531   */\n      dup6\n        /* \"#utility.yul\":24518:24536   */\n      add\n        /* \"#utility.yul\":24511:24541   */\n      mstore\n        /* \"#utility.yul\":24561:24562   */\n      0x00\n        /* \"#utility.yul\":24594:24600   */\n      dup12\n        /* \"#utility.yul\":24588:24601   */\n      sload\n        /* \"#utility.yul\":24624:24660   */\n      tag_684\n        /* \"#utility.yul\":24650:24659   */\n      dup2\n        /* \"#utility.yul\":24624:24660   */\n      tag_347\n      jump\t// in\n    tag_684:\n        /* \"#utility.yul\":24676:24694   */\n      swap4\n      dup7\n      add\n        /* \"#utility.yul\":24669:24703   */\n      dup5\n      swap1\n      mstore\n        /* \"#utility.yul\":24722:24725   */\n      0x0120\n      swap4\n        /* \"#utility.yul\":24744:24745   */\n      0x01\n        /* \"#utility.yul\":24761:24778   */\n      dup3\n      dup2\n      and\n        /* \"#utility.yul\":24787:24945   */\n      dup1\n      iszero\n      tag_686\n      jumpi\n        /* \"#utility.yul\":24959:24960   */\n      0x01\n        /* \"#utility.yul\":24954:25308   */\n      dup2\n      eq\n      tag_687\n      jumpi\n        /* \"#utility.yul\":24754:25308   */\n      jump(tag_685)\n        /* \"#utility.yul\":24787:24945   */\n    tag_686:\n      not(0xff)\n        /* \"#utility.yul\":24835:24859   */\n      dup5\n      and\n        /* \"#utility.yul\":24815:24833   */\n      dup10\n      dup9\n      add\n        /* \"#utility.yul\":24808:24860   */\n      mstore\n        /* \"#utility.yul\":24913:24927   */\n      dup3\n      iszero\n        /* \"#utility.yul\":24906:24928   */\n      iszero\n        /* \"#utility.yul\":24903:24904   */\n      0x05\n        /* \"#utility.yul\":24899:24929   */\n      shl\n        /* \"#utility.yul\":24884:24930   */\n      dup10\n      add\n        /* \"#utility.yul\":24880:24935   */\n      dup8\n      add\n      swap5\n      pop\n        /* \"#utility.yul\":24787:24945   */\n      jump(tag_685)\n        /* \"#utility.yul\":24954:25308   */\n    tag_687:\n        /* \"#utility.yul\":24985:24991   */\n      dup16\n        /* \"#utility.yul\":24982:24983   */\n      0x00\n        /* \"#utility.yul\":24975:24992   */\n      mstore\n        /* \"#utility.yul\":25033:25035   */\n      0x20\n        /* \"#utility.yul\":25030:25031   */\n      0x00\n        /* \"#utility.yul\":25020:25036   */\n      keccak256\n        /* \"#utility.yul\":25058:25059   */\n      0x00\n        /* \"#utility.yul\":25072:25252   */\n    tag_688:\n        /* \"#utility.yul\":25086:25092   */\n      dup5\n        /* \"#utility.yul\":25083:25084   */\n      dup2\n        /* \"#utility.yul\":25080:25093   */\n      lt\n        /* \"#utility.yul\":25072:25252   */\n      iszero\n      tag_690\n      jumpi\n        /* \"#utility.yul\":25179:25193   */\n      dup2\n      sload\n        /* \"#utility.yul\":25155:25172   */\n      dup12\n      dup3\n      add\n        /* \"#utility.yul\":25151:25177   */\n      dup11\n      add\n        /* \"#utility.yul\":25144:25194   */\n      mstore\n        /* \"#utility.yul\":25222:25238   */\n      swap1\n      dup4\n      add\n      swap1\n        /* \"#utility.yul\":25101:25111   */\n      dup8\n      add\n        /* \"#utility.yul\":25072:25252   */\n      jump(tag_688)\n    tag_690:\n        /* \"#utility.yul\":25276:25293   */\n      dup11\n      add\n        /* \"#utility.yul\":25272:25298   */\n      dup9\n      add\n      swap6\n      pop\n      pop\n        /* \"#utility.yul\":24754:25308   */\n    tag_685:\n      pop\n      pop\n      pop\n      sub(shl(0xa0, 0x01), 0x01)\n        /* \"#utility.yul\":5561:5592   */\n      dup13\n      and\n        /* \"#utility.yul\":25379:25381   */\n      0x40\n        /* \"#utility.yul\":25364:25382   */\n      dup8\n      add\n        /* \"#utility.yul\":5549:5593   */\n      mstore\n      pop\n        /* \"#utility.yul\":25325:25328   */\n      swap3\n      pop\n        /* \"#utility.yul\":25337:25383   */\n      tag_691\n      swap2\n      pop\n      pop\n        /* \"#utility.yul\":5495:5599   */\n      jump\n        /* \"#utility.yul\":25337:25383   */\n    tag_691:\n        /* \"#utility.yul\":25414:25416   */\n      0x60\n        /* \"#utility.yul\":25399:25417   */\n      dup3\n      add\n        /* \"#utility.yul\":25392:25426   */\n      swap7\n      swap1\n      swap7\n      mstore\n        /* \"#utility.yul\":25457:25460   */\n      0x80\n        /* \"#utility.yul\":25442:25461   */\n      dup2\n      add\n        /* \"#utility.yul\":25435:25470   */\n      swap5\n      swap1\n      swap5\n      mstore\n        /* \"#utility.yul\":25501:25504   */\n      0xa0\n        /* \"#utility.yul\":25486:25505   */\n      dup5\n      add\n        /* \"#utility.yul\":25479:25514   */\n      swap3\n      swap1\n      swap3\n      mstore\n        /* \"#utility.yul\":25545:25548   */\n      0xc0\n        /* \"#utility.yul\":25530:25549   */\n      dup4\n      add\n        /* \"#utility.yul\":25523:25558   */\n      mstore\n        /* \"#utility.yul\":25589:25592   */\n      0xe0\n        /* \"#utility.yul\":25574:25593   */\n      swap1\n      swap2\n      add\n        /* \"#utility.yul\":25567:25602   */\n      mstore\n        /* \"#utility.yul\":24110:25608   */\n      swap4\n      swap3\n      pop\n      pop\n      pop\n      jump\t// out\n\n    auxdata: 0xa264697066735822122096a67523fa89acdfe6f3396c27e51ca66844fbafde6f713e49aabbd8c73bbec764736f6c63430008190033\n}\n",
				"bytecode": {
					"linkReferences": {},
					"object": "608060405260016004553480156013575f80fd5b50612858806100215f395ff3fe6080604052600436106101c5575f3560e01c8063818c5548116100f2578063c0c53b8b11610092578063f2fde38b11610062578063f2fde38b1461051a578063f78aedf914610539578063f851a44014610558578063fa54080114610577575f80fd5b8063c0c53b8b1461049c578063c3c3df4f146104bb578063ca829f10146104f2578063ec71687b14610505575f80fd5b806391dc969e116100cd57806391dc969e1461042f57806397d757761461044e578063ae169a5014610468578063bf2d9e0b14610487575f80fd5b8063818c5548146103b557806382199e3f146103d45780638da5cb5b146103f3575f80fd5b80634da1ec401161016857806373b2e80e1161013857806373b2e80e1461034457806377d5d2dc1461036f5780637c382d0b146103835780637d77990c14610396575f80fd5b80634da1ec40146102ae5780634f573cb2146102fd57806361e7d80514610311578063715018a614610330575f80fd5b80632eb4a7ab116101a35780632eb4a7ab1461021a57806331a0edec1461022f5780634a80409e146102615780634d781b3114610280575f80fd5b806307dd3f44146101c95780630fae6443146101f15780632d971e6314610206575b5f80fd5b3480156101d4575f80fd5b506101de60075481565b6040519081526020015b60405180910390f35b6102046101ff3660046120fa565b610596565b005b348015610211575f80fd5b506101de610aad565b348015610225575f80fd5b506101de60035481565b34801561023a575f80fd5b506102496022602160991b0181565b6040516001600160a01b0390911681526020016101e8565b34801561026c575f80fd5b50600854610249906001600160a01b031681565b34801561028b575f80fd5b506101de61029a366004612174565b5f908152600a602052604090206002015490565b3480156102b9575f80fd5b506102ed6102c83660046121a6565b600c60209081525f938452604080852082529284528284209052825290205460ff1681565b60405190151581526020016101e8565b348015610308575f80fd5b50610204610b29565b34801561031c575f80fd5b5061020461032b3660046121d8565b610bad565b34801561033b575f80fd5b50610204610e12565b34801561034f575f80fd5b506101de61035e36600461224f565b60096020525f908152604090205481565b34801561037a575f80fd5b50610204610e25565b610204610391366004612268565b610e9b565b3480156103a1575f80fd5b506101de6103b0366004612268565b610eed565b3480156103c0575f80fd5b506102046103cf3660046122a6565b610f22565b3480156103df575f80fd5b506102046103ee366004612174565b61108c565b3480156103fe575f80fd5b507f9016d09d72d40fdae2fd8ceac6b6234c7706214fd39c1cd1e609a0528c199300546001600160a01b0316610249565b34801561043a575f80fd5b5061020461044936600461224f565b611099565b348015610459575f80fd5b506102496002604360981b0181565b348015610473575f80fd5b50610204610482366004612174565b6110c3565b348015610492575f80fd5b506101de60055481565b3480156104a7575f80fd5b506102046104b63660046122f9565b6111f0565b3480156104c6575f80fd5b506104da6104d5366004612174565b611490565b6040516101e89c9b9a9998979695949392919061235e565b6102046105003660046123d8565b611587565b348015610510575f80fd5b506101de60065481565b348015610525575f80fd5b5061020461053436600461224f565b61189d565b348015610544575f80fd5b50610204610553366004612407565b6118d7565b348015610563575f80fd5b50600254610249906001600160a01b031681565b348015610582575f80fd5b506101de610591366004612174565b611c18565b5f8054600154604051631711922960e31b81526001600160a01b03918216600482015291169063b88c914890602401602060405180830381865afa1580156105e0573d5f803e3d5ffd5b505050506040513d601f19601f820116820180604052508101906106049190612452565b6001600160801b031690506006548161061d919061248c565b34146106635760405162461bcd60e51b815260206004820152601060248201526f496e73756666696369656e742066656560801b60448201526064015b60405180910390fd5b5f86116106b25760405162461bcd60e51b815260206004820152601f60248201527f526f746174696f6e206379636c65206d75737420626520706f73697469766500604482015260640161065a565b5f851161070f5760405162461bcd60e51b815260206004820152602560248201527f496e7465726573742064656e6f6d696e61746f72206d75737420626520706f73604482015264697469766560d81b606482015260840161065a565b8484111561077b5760405162461bcd60e51b815260206004820152603360248201527f4e756d657261746f72206d757374206265206c657373207468616e206f72206560448201527238bab0b6103a37903232b737b6b4b730ba37b960691b606482015260840161065a565b600480545f918261078b8361249f565b909155506008546040516323b872dd60e01b8152336004820152306024820152604481018690529192506001600160a01b0316906323b872dd906064016020604051808303815f875af11580156107e4573d5f803e3d5ffd5b505050506040513d601f19601f8201168201806040525081019061080891906124b7565b6108665760405162461bcd60e51b815260206004820152602960248201527f43726561746f722073686f756c64206465706f7369742074686520696e697469604482015268185b08185b5bdd5b9d60ba1b606482015260840161065a565b5f8054600180546040516393cbf21760e01b81526001600160a01b039182166004820152602481018d90526044810192909252909116906393cbf21790859060640160206040518083038185885af11580156108c4573d5f803e3d5ffd5b50505050506040513d601f19601f820116820180604052508101906108e991906124d6565b905060065460055f8282546108fe919061248c565b90915550505f828152600a602052604090208061091b8c8261257f565b508481600101819055505f81600201819055508181600a015f6101000a8154816001600160401b0302191690836001600160401b031602179055503381600a0160086101000a8154816001600160a01b0302191690836001600160a01b031602179055508881600401819055508681600601819055508781600701819055504281600501819055508581600801819055506001816009018190555080600b0133908060018154018082558091505060019003905f5260205f20015f9091909190916101000a8154816001600160a01b0302191690836001600160a01b031602179055506001600c5f8581526020019081526020015f205f836009015481526020019081526020015f205f336001600160a01b03166001600160a01b031681526020019081526020015f205f6101000a81548160ff0219169083151502179055507f43d2f309913f6afc5d717f60864d2d192b69963d25204b6a12765e2795bf027f838c33888d8c8e8d604051610a9898979695949392919061263a565b60405180910390a15050505050505050505050565b5f8054600154604051631711922960e31b81526001600160a01b03918216600482015291169063b88c914890602401602060405180830381865afa158015610af7573d5f803e3d5ffd5b505050506040513d601f19601f82011682018060405250810190610b1b9190612452565b6001600160801b0316905090565b610b31611c6a565b60055480610b7a5760405162461bcd60e51b81526020600482015260166024820152754e6f20726576656e756520746f20776974686472617760501b604482015260640161065a565b5f6005819055604051339183156108fc02918491818181858888f19350505050158015610ba9573d5f803e3d5ffd5b5050565b6040516001600160601b03193360601b166020820152603481018490525f90605401604051602081830303815290604052805190602001209050610c278383808060200260200160405190810160405280939291908181526020018383602002808284375f92019190915250506003549150849050611cc5565b610c645760405162461bcd60e51b815260206004820152600e60248201526d24b73b30b634b210383937b7b31760911b604482015260640161065a565b335f90815260096020526040902054848110610cd55760405162461bcd60e51b815260206004820152602a60248201527f4e6f2066756e6473206c65667420746f20636c61696d206f7220616c726561646044820152693c9031b630b4b6b2b21760b11b606482015260840161065a565b5f610ce0828761268f565b9050806007541015610d2c5760405162461bcd60e51b8152602060048201526015602482015274139bc8199d5b991cc81a5b881d1a19481d985d5b1d605a1b604482015260640161065a565b335f90815260096020526040812087905560078054839290610d4f90849061268f565b909155505060085460405163a9059cbb60e01b8152336004820152602481018390526001600160a01b039091169063a9059cbb906044016020604051808303815f875af1158015610da2573d5f803e3d5ffd5b505050506040513d601f19601f82011682018060405250810190610dc691906124b7565b610e0a5760405162461bcd60e51b8152602060048201526015602482015274165a595b19081d1c985b9cd9995c8819985a5b1959605a1b604482015260640161065a565b505050505050565b610e1a611c6a565b610e235f611cda565b565b610e2d611c6a565b604051634aa7d2f760e11b81523060048201523360248201526002604360981b019063954fa5ee906044016020604051808303815f875af1158015610e74573d5f803e3d5ffd5b505050506040513d601f19601f82011682018060405250810190610e9891906126a2565b50565b610ea3611c6a565b6003829055604051339082156108fc029083905f818181858888f19350505050158015610ed2573d5f803e3d5ffd5b508060075f828254610ee4919061248c565b90915550505050565b5f828152600a6020526040812060078101546006820154610f0e90856126b9565b610f1891906126e4565b9150505b92915050565b5f848152600a6020908152604080832081518084018990523360601b6001600160601b03191681840152605481018890526074808201879052835180830390910181526094909101909252815191909201209091610f7f82611c18565b9050610f8b8186611d4a565b6002546001600160a01b03908116911614610fe85760405162461bcd60e51b815260206004820152601d60248201527f5369676e617475726520766572696669636174696f6e206661696c6564000000604482015260640161065a565b85836002015410156110625760405162461bcd60e51b815260206004820152603860248201527f616d6f756e742073686f756c64206265206c657373207468616e206f7220657160448201527f75616c20746f207269736b20706f6f6c2062616c616e63650000000000000000606482015260840161065a565b85836003018190555085836002015f82825461107e919061268f565b909155505050505050505050565b611094611c6a565b600655565b6110a1611c6a565b600280546001600160a01b0319166001600160a01b0392909216919091179055565b5f818152600a60209081526040808320338452600d8101909252909120546111225760405162461bcd60e51b81526020600482015260126024820152714e6f2072657761726420746f20636c61696d60701b604482015260640161065a565b335f818152600d830160205260408082208054929055600854905163a9059cbb60e01b815260048101939093526024830182905290916001600160a01b039091169063a9059cbb906044016020604051808303815f875af1158015611189573d5f803e3d5ffd5b505050506040513d601f19601f820116820180604052508101906111ad91906124b7565b6111eb5760405162461bcd60e51b815260206004820152600f60248201526e151c985b9cd9995c8819985a5b1959608a1b604482015260640161065a565b505050565b7ff0c57e16840df040f15088dc2f81fe391c3923bec73e23a9662efc9c229c6a008054600160401b810460ff1615906001600160401b03165f811580156112345750825b90505f826001600160401b0316600114801561124f5750303b155b90508115801561125d575080155b1561127b5760405163f92ee8a960e01b815260040160405180910390fd5b845467ffffffffffffffff1916600117855583156112a557845460ff60401b1916600160401b1785555b6112ae33611d72565b604051631a33757d60e01b81526022602160991b0190631a33757d906112d99060029060040161270b565b6020604051808303815f875af11580156112f5573d5f803e3d5ffd5b505050506040513d601f19601f8201168201806040525081019061131991906126a2565b50600880546001600160a01b0319166022602160991b0117905560408051634e606c4760e01b815290516002604360981b0191634e606c47916004808301925f92919082900301818387803b158015611370575f80fd5b505af1158015611382573d5f803e3d5ffd5b50506040516336b91f2b60e01b815273e4860d3973802c7c42450d7b9741921c7711d0396004820152732fc95838c71e76ec69ff817983bff17c710f34e092506336b91f2b91506024015f604051808303815f87803b1580156113e3575f80fd5b505af11580156113f5573d5f803e3d5ffd5b50505f80546001600160a01b03808d166001600160a01b031992831617909255600180548c841690831617905560028054928b1692909116919091179055505066038d7ea4c68000600655831561148657845460ff60401b19168555604051600181527fc7f505b2f371ae2175ee4913f4499e1f2633a7b5936321eed1cdaeb6115181d29060200160405180910390a15b5050505050505050565b600a6020525f90815260409020805481906114aa906124fc565b80601f01602080910402602001604051908101604052809291908181526020018280546114d6906124fc565b80156115215780601f106114f857610100808354040283529160200191611521565b820191905f5260205f20905b81548152906001019060200180831161150457829003601f168201915b50505050600183015460028401546003850154600486015460058701546006880154600789015460088a015460098b0154600a909b0154999a9799969850949693959294919390926001600160401b03811690600160401b90046001600160a01b03168c565b5f848152600a60205260409020600481015460058201546115a8919061248c565b4210156115f75760405162461bcd60e51b815260206004820152601960248201527f4e65787420726f746174696f6e206e6f74207965742064756500000000000000604482015260640161065a565b5f8054600154600a840154604051639371df5160e01b81526001600160a01b0392831660048201526001600160401b0390911660248201526044810187905260648101869052911690639371df51906084016020604051808303815f875af1158015611665573d5f803e3d5ffd5b505050506040513d601f19601f8201168201806040525081019061168991906126a2565b600b8301549091505f9061169d9083612731565b90505f83600b0182815481106116b5576116b5612744565b5f918252602080832090910154600c870180546001818101835591855292842090920180546001600160a01b0319166001600160a01b03909216918217905590860154600b870154919350611709916126b9565b90505f61171582611d83565b90505f6117228b83610eed565b600388015490915080611735838561268f565b61173f919061248c565b6001600160a01b0386165f908152600d8a01602052604081209190915560028901805484929061177090849061248c565b90915550505f600389018190556001600160a01b0386168152600e890160205260409020805460ff19166001179055426005890155600b880154156117c657600988018054905f6117c08361249f565b91905055505b6117d3600b89015f612046565b5f8054600154604051631711922960e31b81526001600160a01b03918216600482015291169063b88c914890602401602060405180830381865afa15801561181d573d5f803e3d5ffd5b505050506040513d601f19601f820116820180604052508101906118419190612452565b6001600160801b0316905080341461188e5760405162461bcd60e51b815260206004820152601060248201526f496e73756666696369656e742066656560801b604482015260640161065a565b50505050505050505050505050565b6118a5611c6a565b6001600160a01b0381166118ce57604051631e4fbdf760e01b81525f600482015260240161065a565b610e9881611cda565b5f838152600a602052604090206008810154600b820154106119295760405162461bcd60e51b815260206004820152600b60248201526a141bdd081a5cc8199d5b1b60aa1b604482015260640161065a565b5f848152600c6020908152604080832060098501548452825280832033845290915290205460ff16156119bc5760405162461bcd60e51b815260206004820152603560248201527f596f75206861766520616c7265616479206a6f696e6564207468697320706f74604482015274081a5b881d1a194818dd5c9c995b9d081c9bdd5b99605a1b606482015260840161065a565b5f84338360090154856040516020016119fb949392919093845260609290921b6001600160601b03191660208401526034830152605482015260740190565b6040516020818303038152906040528051906020012090505f611a1d82611c18565b9050611a298186611d4a565b6002546001600160a01b03908116911614611a865760405162461bcd60e51b815260206004820152601d60248201527f5369676e617475726520766572696669636174696f6e206661696c6564000000604482015260640161065a565b5f868152600c6020908152604080832060098701548452825280832033808552925291829020805460ff191660019081179091556008549086015492516323b872dd60e01b8152600481019290925230602483015260448201929092526001600160a01b03909116906323b872dd906064016020604051808303815f875af1158015611b14573d5f803e3d5ffd5b505050506040513d601f19601f82011682018060405250810190611b3891906124b7565b611b765760405162461bcd60e51b815260206004820152600f60248201526e151c985b9cd9995c8819985a5b1959608a1b604482015260640161065a565b335f908152600e8401602052604090205460ff16611bb557600b830180546001810182555f91825260209091200180546001600160a01b031916331790555b7f43d2f309913f6afc5d717f60864d2d192b69963d25204b6a12765e2795bf027f86845f013386600101548760040154886006015489600701548a60080154604051611c08989796959493929190612758565b60405180910390a1505050505050565b6040517f19457468657265756d205369676e6564204d6573736167653a0a3332000000006020820152603c81018290525f90605c01604051602081830303815290604052805190602001209050919050565b33611c9c7f9016d09d72d40fdae2fd8ceac6b6234c7706214fd39c1cd1e609a0528c199300546001600160a01b031690565b6001600160a01b031614610e235760405163118cdaa760e01b815233600482015260240161065a565b5f82611cd18584611dbb565b14949350505050565b7f9016d09d72d40fdae2fd8ceac6b6234c7706214fd39c1cd1e609a0528c19930080546001600160a01b031981166001600160a01b03848116918217845560405192169182907f8be0079c531659141344cd1fd0a4f28419497f9722a3daafe3b4186f6b6457e0905f90a3505050565b5f805f80611d588686611dfd565b925092509250611d688282611e46565b5090949350505050565b611d7a611efe565b610e9881611f47565b5f80611d906064846126e4565b9050611d9c818461268f565b91508060055f828254611daf919061248c565b90915550919392505050565b5f81815b8451811015611df557611deb82868381518110611dde57611dde612744565b6020026020010151611f4f565b9150600101611dbf565b509392505050565b5f805f8351604103611e34576020840151604085015160608601515f1a611e2688828585611f7e565b955095509550505050611e3f565b505081515f91506002905b9250925092565b5f826003811115611e5957611e596126f7565b03611e62575050565b6001826003811115611e7657611e766126f7565b03611e945760405163f645eedf60e01b815260040160405180910390fd5b6002826003811115611ea857611ea86126f7565b03611ec95760405163fce698f760e01b81526004810182905260240161065a565b6003826003811115611edd57611edd6126f7565b03610ba9576040516335e2f38360e21b81526004810182905260240161065a565b7ff0c57e16840df040f15088dc2f81fe391c3923bec73e23a9662efc9c229c6a0054600160401b900460ff16610e2357604051631afcd79f60e31b815260040160405180910390fd5b6118a5611efe565b5f818310611f69575f828152602084905260409020611f77565b5f8381526020839052604090205b9392505050565b5f80807f7fffffffffffffffffffffffffffffff5d576e7357a4501ddfe92f46681b20a0841115611fb757505f9150600390508261203c565b604080515f808252602082018084528a905260ff891692820192909252606081018790526080810186905260019060a0016020604051602081039080840390855afa158015612008573d5f803e3d5ffd5b5050604051601f1901519150506001600160a01b03811661203357505f92506001915082905061203c565b92505f91508190505b9450945094915050565b5080545f8255905f5260205f2090810190610e9891905b80821115612070575f815560010161205d565b5090565b634e487b7160e01b5f52604160045260245ffd5b5f6001600160401b03808411156120a1576120a1612074565b604051601f8501601f19908116603f011681019082821181831017156120c9576120c9612074565b816040528093508581528686860111156120e1575f80fd5b858560208301375f602087830101525050509392505050565b5f805f805f805f60e0888a031215612110575f80fd5b87356001600160401b03811115612125575f80fd5b8801601f81018a13612135575f80fd5b6121448a823560208401612088565b9a60208a01359a5060408a013599606081013599506080810135985060a0810135975060c0013595509350505050565b5f60208284031215612184575f80fd5b5035919050565b80356001600160a01b03811681146121a1575f80fd5b919050565b5f805f606084860312156121b8575f80fd5b83359250602084013591506121cf6040850161218b565b90509250925092565b5f805f604084860312156121ea575f80fd5b8335925060208401356001600160401b0380821115612207575f80fd5b818601915086601f83011261221a575f80fd5b813581811115612228575f80fd5b8760208260051b850101111561223c575f80fd5b6020830194508093505050509250925092565b5f6020828403121561225f575f80fd5b611f778261218b565b5f8060408385031215612279575f80fd5b50508035926020909101359150565b5f82601f830112612297575f80fd5b611f7783833560208501612088565b5f805f80608085870312156122b9575f80fd5b843593506020850135925060408501356001600160401b038111156122dc575f80fd5b6122e887828801612288565b949793965093946060013593505050565b5f805f6060848603121561230b575f80fd5b6123148461218b565b92506123226020850161218b565b91506121cf6040850161218b565b5f81518084528060208401602086015e5f602082860101526020601f19601f83011685010191505092915050565b61018081525f61237261018083018f612330565b602083019d909d5250604081019a909a5260608a0198909852608089019690965260a088019490945260c087019290925260e08601526101008501526101208401526001600160401b03166101408301526001600160a01b031661016090910152919050565b5f805f80608085870312156123eb575f80fd5b5050823594602084013594506040840135936060013592509050565b5f805f60608486031215612419575f80fd5b8335925060208401356001600160401b03811115612435575f80fd5b61244186828701612288565b925050604084013590509250925092565b5f60208284031215612462575f80fd5b81516001600160801b0381168114611f77575f80fd5b634e487b7160e01b5f52601160045260245ffd5b80820180821115610f1c57610f1c612478565b5f600182016124b0576124b0612478565b5060010190565b5f602082840312156124c7575f80fd5b81518015158114611f77575f80fd5b5f602082840312156124e6575f80fd5b81516001600160401b0381168114611f77575f80fd5b600181811c9082168061251057607f821691505b60208210810361252e57634e487b7160e01b5f52602260045260245ffd5b50919050565b601f8211156111eb57805f5260205f20601f840160051c810160208510156125595750805b601f840160051c820191505b81811015612578575f8155600101612565565b5050505050565b81516001600160401b0381111561259857612598612074565b6125ac816125a684546124fc565b84612534565b602080601f8311600181146125df575f84156125c85750858301515b5f19600386901b1c1916600185901b178555610e0a565b5f85815260208120601f198616915b8281101561260d578886015182559484019460019091019084016125ee565b508582101561262a57878501515f19600388901b60f8161c191681555b5050505050600190811b01905550565b5f6101008a83528060208401526126538184018b612330565b6001600160a01b0399909916604084015250506060810195909552608085019390935260a084019190915260c083015260e09091015292915050565b81810381811115610f1c57610f1c612478565b5f602082840312156126b2575f80fd5b5051919050565b8082028115828204841417610f1c57610f1c612478565b634e487b7160e01b5f52601260045260245ffd5b5f826126f2576126f26126d0565b500490565b634e487b7160e01b5f52602160045260245ffd5b602081016003831061272b57634e487b7160e01b5f52602160045260245ffd5b91905290565b5f8261273f5761273f6126d0565b500690565b634e487b7160e01b5f52603260045260245ffd5b5f6101008a835260208160208501525f8b54612773816124fc565b938601849052610120936001828116801561279557600181146127af576127db565b60ff1984168988015282151560051b8901870194506127db565b8f5f5260205f205f5b848110156127d35781548b82018a01529083019087016127b8565b8a0188019550505b5050506001600160a01b038c1660408701525092506127f8915050565b6060820196909652608081019490945260a084019290925260c083015260e090910152939250505056fea264697066735822122096a67523fa89acdfe6f3396c27e51ca66844fbafde6f713e49aabbd8c73bbec764736f6c63430008190033",
					"opcodes": "PUSH1 0x80 PUSH1 0x40 MSTORE PUSH1 0x1 PUSH1 0x4 SSTORE CALLVALUE DUP1 ISZERO PUSH1 0x13 JUMPI PUSH0 DUP1 REVERT JUMPDEST POP PUSH2 0x2858 DUP1 PUSH2 0x21 PUSH0 CODECOPY PUSH0 RETURN INVALID PUSH1 0x80 PUSH1 0x40 MSTORE PUSH1 0x4 CALLDATASIZE LT PUSH2 0x1C5 JUMPI PUSH0 CALLDATALOAD PUSH1 0xE0 SHR DUP1 PUSH4 0x818C5548 GT PUSH2 0xF2 JUMPI DUP1 PUSH4 0xC0C53B8B GT PUSH2 0x92 JUMPI DUP1 PUSH4 0xF2FDE38B GT PUSH2 0x62 JUMPI DUP1 PUSH4 0xF2FDE38B EQ PUSH2 0x51A JUMPI DUP1 PUSH4 0xF78AEDF9 EQ PUSH2 0x539 JUMPI DUP1 PUSH4 0xF851A440 EQ PUSH2 0x558 JUMPI DUP1 PUSH4 0xFA540801 EQ PUSH2 0x577 JUMPI PUSH0 DUP1 REVERT JUMPDEST DUP1 PUSH4 0xC0C53B8B EQ PUSH2 0x49C JUMPI DUP1 PUSH4 0xC3C3DF4F EQ PUSH2 0x4BB JUMPI DUP1 PUSH4 0xCA829F10 EQ PUSH2 0x4F2 JUMPI DUP1 PUSH4 0xEC71687B EQ PUSH2 0x505 JUMPI PUSH0 DUP1 REVERT JUMPDEST DUP1 PUSH4 0x91DC969E GT PUSH2 0xCD JUMPI DUP1 PUSH4 0x91DC969E EQ PUSH2 0x42F JUMPI DUP1 PUSH4 0x97D75776 EQ PUSH2 0x44E JUMPI DUP1 PUSH4 0xAE169A50 EQ PUSH2 0x468 JUMPI DUP1 PUSH4 0xBF2D9E0B EQ PUSH2 0x487 JUMPI PUSH0 DUP1 REVERT JUMPDEST DUP1 PUSH4 0x818C5548 EQ PUSH2 0x3B5 JUMPI DUP1 PUSH4 0x82199E3F EQ PUSH2 0x3D4 JUMPI DUP1 PUSH4 0x8DA5CB5B EQ PUSH2 0x3F3 JUMPI PUSH0 DUP1 REVERT JUMPDEST DUP1 PUSH4 0x4DA1EC40 GT PUSH2 0x168 JUMPI DUP1 PUSH4 0x73B2E80E GT PUSH2 0x138 JUMPI DUP1 PUSH4 0x73B2E80E EQ PUSH2 0x344 JUMPI DUP1 PUSH4 0x77D5D2DC EQ PUSH2 0x36F JUMPI DUP1 PUSH4 0x7C382D0B EQ PUSH2 0x383 JUMPI DUP1 PUSH4 0x7D77990C EQ PUSH2 0x396 JUMPI PUSH0 DUP1 REVERT JUMPDEST DUP1 PUSH4 0x4DA1EC40 EQ PUSH2 0x2AE JUMPI DUP1 PUSH4 0x4F573CB2 EQ PUSH2 0x2FD JUMPI DUP1 PUSH4 0x61E7D805 EQ PUSH2 0x311 JUMPI DUP1 PUSH4 0x715018A6 EQ PUSH2 0x330 JUMPI PUSH0 DUP1 REVERT JUMPDEST DUP1 PUSH4 0x2EB4A7AB GT PUSH2 0x1A3 JUMPI DUP1 PUSH4 0x2EB4A7AB EQ PUSH2 0x21A JUMPI DUP1 PUSH4 0x31A0EDEC EQ PUSH2 0x22F JUMPI DUP1 PUSH4 0x4A80409E EQ PUSH2 0x261 JUMPI DUP1 PUSH4 0x4D781B31 EQ PUSH2 0x280 JUMPI PUSH0 DUP1 REVERT JUMPDEST DUP1 PUSH4 0x7DD3F44 EQ PUSH2 0x1C9 JUMPI DUP1 PUSH4 0xFAE6443 EQ PUSH2 0x1F1 JUMPI DUP1 PUSH4 0x2D971E63 EQ PUSH2 0x206 JUMPI JUMPDEST PUSH0 DUP1 REVERT JUMPDEST CALLVALUE DUP1 ISZERO PUSH2 0x1D4 JUMPI PUSH0 DUP1 REVERT JUMPDEST POP PUSH2 0x1DE PUSH1 0x7 SLOAD DUP2 JUMP JUMPDEST PUSH1 0x40 MLOAD SWAP1 DUP2 MSTORE PUSH1 0x20 ADD JUMPDEST PUSH1 0x40 MLOAD DUP1 SWAP2 SUB SWAP1 RETURN JUMPDEST PUSH2 0x204 PUSH2 0x1FF CALLDATASIZE PUSH1 0x4 PUSH2 0x20FA JUMP JUMPDEST PUSH2 0x596 JUMP JUMPDEST STOP JUMPDEST CALLVALUE DUP1 ISZERO PUSH2 0x211 JUMPI PUSH0 DUP1 REVERT JUMPDEST POP PUSH2 0x1DE PUSH2 0xAAD JUMP JUMPDEST CALLVALUE DUP1 ISZERO PUSH2 0x225 JUMPI PUSH0 DUP1 REVERT JUMPDEST POP PUSH2 0x1DE PUSH1 0x3 SLOAD DUP2 JUMP JUMPDEST CALLVALUE DUP1 ISZERO PUSH2 0x23A JUMPI PUSH0 DUP1 REVERT JUMPDEST POP PUSH2 0x249 PUSH1 0x22 PUSH1 0x21 PUSH1 0x99 SHL ADD DUP2 JUMP JUMPDEST PUSH1 0x40 MLOAD PUSH1 0x1 PUSH1 0x1 PUSH1 0xA0 SHL SUB SWAP1 SWAP2 AND DUP2 MSTORE PUSH1 0x20 ADD PUSH2 0x1E8 JUMP JUMPDEST CALLVALUE DUP1 ISZERO PUSH2 0x26C JUMPI PUSH0 DUP1 REVERT JUMPDEST POP PUSH1 0x8 SLOAD PUSH2 0x249 SWAP1 PUSH1 0x1 PUSH1 0x1 PUSH1 0xA0 SHL SUB AND DUP2 JUMP JUMPDEST CALLVALUE DUP1 ISZERO PUSH2 0x28B JUMPI PUSH0 DUP1 REVERT JUMPDEST POP PUSH2 0x1DE PUSH2 0x29A CALLDATASIZE PUSH1 0x4 PUSH2 0x2174 JUMP JUMPDEST PUSH0 SWAP1 DUP2 MSTORE PUSH1 0xA PUSH1 0x20 MSTORE PUSH1 0x40 SWAP1 KECCAK256 PUSH1 0x2 ADD SLOAD SWAP1 JUMP JUMPDEST CALLVALUE DUP1 ISZERO PUSH2 0x2B9 JUMPI PUSH0 DUP1 REVERT JUMPDEST POP PUSH2 0x2ED PUSH2 0x2C8 CALLDATASIZE PUSH1 0x4 PUSH2 0x21A6 JUMP JUMPDEST PUSH1 0xC PUSH1 0x20 SWAP1 DUP2 MSTORE PUSH0 SWAP4 DUP5 MSTORE PUSH1 0x40 DUP1 DUP6 KECCAK256 DUP3 MSTORE SWAP3 DUP5 MSTORE DUP3 DUP5 KECCAK256 SWAP1 MSTORE DUP3 MSTORE SWAP1 KECCAK256 SLOAD PUSH1 0xFF AND DUP2 JUMP JUMPDEST PUSH1 0x40 MLOAD SWAP1 ISZERO ISZERO DUP2 MSTORE PUSH1 0x20 ADD PUSH2 0x1E8 JUMP JUMPDEST CALLVALUE DUP1 ISZERO PUSH2 0x308 JUMPI PUSH0 DUP1 REVERT JUMPDEST POP PUSH2 0x204 PUSH2 0xB29 JUMP JUMPDEST CALLVALUE DUP1 ISZERO PUSH2 0x31C JUMPI PUSH0 DUP1 REVERT JUMPDEST POP PUSH2 0x204 PUSH2 0x32B CALLDATASIZE PUSH1 0x4 PUSH2 0x21D8 JUMP JUMPDEST PUSH2 0xBAD JUMP JUMPDEST CALLVALUE DUP1 ISZERO PUSH2 0x33B JUMPI PUSH0 DUP1 REVERT JUMPDEST POP PUSH2 0x204 PUSH2 0xE12 JUMP JUMPDEST CALLVALUE DUP1 ISZERO PUSH2 0x34F JUMPI PUSH0 DUP1 REVERT JUMPDEST POP PUSH2 0x1DE PUSH2 0x35E CALLDATASIZE PUSH1 0x4 PUSH2 0x224F JUMP JUMPDEST PUSH1 0x9 PUSH1 0x20 MSTORE PUSH0 SWAP1 DUP2 MSTORE PUSH1 0x40 SWAP1 KECCAK256 SLOAD DUP2 JUMP JUMPDEST CALLVALUE DUP1 ISZERO PUSH2 0x37A JUMPI PUSH0 DUP1 REVERT JUMPDEST POP PUSH2 0x204 PUSH2 0xE25 JUMP JUMPDEST PUSH2 0x204 PUSH2 0x391 CALLDATASIZE PUSH1 0x4 PUSH2 0x2268 JUMP JUMPDEST PUSH2 0xE9B JUMP JUMPDEST CALLVALUE DUP1 ISZERO PUSH2 0x3A1 JUMPI PUSH0 DUP1 REVERT JUMPDEST POP PUSH2 0x1DE PUSH2 0x3B0 CALLDATASIZE PUSH1 0x4 PUSH2 0x2268 JUMP JUMPDEST PUSH2 0xEED JUMP JUMPDEST CALLVALUE DUP1 ISZERO PUSH2 0x3C0 JUMPI PUSH0 DUP1 REVERT JUMPDEST POP PUSH2 0x204 PUSH2 0x3CF CALLDATASIZE PUSH1 0x4 PUSH2 0x22A6 JUMP JUMPDEST PUSH2 0xF22 JUMP JUMPDEST CALLVALUE DUP1 ISZERO PUSH2 0x3DF JUMPI PUSH0 DUP1 REVERT JUMPDEST POP PUSH2 0x204 PUSH2 0x3EE CALLDATASIZE PUSH1 0x4 PUSH2 0x2174 JUMP JUMPDEST PUSH2 0x108C JUMP JUMPDEST CALLVALUE DUP1 ISZERO PUSH2 0x3FE JUMPI PUSH0 DUP1 REVERT JUMPDEST POP PUSH32 0x9016D09D72D40FDAE2FD8CEAC6B6234C7706214FD39C1CD1E609A0528C199300 SLOAD PUSH1 0x1 PUSH1 0x1 PUSH1 0xA0 SHL SUB AND PUSH2 0x249 JUMP JUMPDEST CALLVALUE DUP1 ISZERO PUSH2 0x43A JUMPI PUSH0 DUP1 REVERT JUMPDEST POP PUSH2 0x204 PUSH2 0x449 CALLDATASIZE PUSH1 0x4 PUSH2 0x224F JUMP JUMPDEST PUSH2 0x1099 JUMP JUMPDEST CALLVALUE DUP1 ISZERO PUSH2 0x459 JUMPI PUSH0 DUP1 REVERT JUMPDEST POP PUSH2 0x249 PUSH1 0x2 PUSH1 0x43 PUSH1 0x98 SHL ADD DUP2 JUMP JUMPDEST CALLVALUE DUP1 ISZERO PUSH2 0x473 JUMPI PUSH0 DUP1 REVERT JUMPDEST POP PUSH2 0x204 PUSH2 0x482 CALLDATASIZE PUSH1 0x4 PUSH2 0x2174 JUMP JUMPDEST PUSH2 0x10C3 JUMP JUMPDEST CALLVALUE DUP1 ISZERO PUSH2 0x492 JUMPI PUSH0 DUP1 REVERT JUMPDEST POP PUSH2 0x1DE PUSH1 0x5 SLOAD DUP2 JUMP JUMPDEST CALLVALUE DUP1 ISZERO PUSH2 0x4A7 JUMPI PUSH0 DUP1 REVERT JUMPDEST POP PUSH2 0x204 PUSH2 0x4B6 CALLDATASIZE PUSH1 0x4 PUSH2 0x22F9 JUMP JUMPDEST PUSH2 0x11F0 JUMP JUMPDEST CALLVALUE DUP1 ISZERO PUSH2 0x4C6 JUMPI PUSH0 DUP1 REVERT JUMPDEST POP PUSH2 0x4DA PUSH2 0x4D5 CALLDATASIZE PUSH1 0x4 PUSH2 0x2174 JUMP JUMPDEST PUSH2 0x1490 JUMP JUMPDEST PUSH1 0x40 MLOAD PUSH2 0x1E8 SWAP13 SWAP12 SWAP11 SWAP10 SWAP9 SWAP8 SWAP7 SWAP6 SWAP5 SWAP4 SWAP3 SWAP2 SWAP1 PUSH2 0x235E JUMP JUMPDEST PUSH2 0x204 PUSH2 0x500 CALLDATASIZE PUSH1 0x4 PUSH2 0x23D8 JUMP JUMPDEST PUSH2 0x1587 JUMP JUMPDEST CALLVALUE DUP1 ISZERO PUSH2 0x510 JUMPI PUSH0 DUP1 REVERT JUMPDEST POP PUSH2 0x1DE PUSH1 0x6 SLOAD DUP2 JUMP JUMPDEST CALLVALUE DUP1 ISZERO PUSH2 0x525 JUMPI PUSH0 DUP1 REVERT JUMPDEST POP PUSH2 0x204 PUSH2 0x534 CALLDATASIZE PUSH1 0x4 PUSH2 0x224F JUMP JUMPDEST PUSH2 0x189D JUMP JUMPDEST CALLVALUE DUP1 ISZERO PUSH2 0x544 JUMPI PUSH0 DUP1 REVERT JUMPDEST POP PUSH2 0x204 PUSH2 0x553 CALLDATASIZE PUSH1 0x4 PUSH2 0x2407 JUMP JUMPDEST PUSH2 0x18D7 JUMP JUMPDEST CALLVALUE DUP1 ISZERO PUSH2 0x563 JUMPI PUSH0 DUP1 REVERT JUMPDEST POP PUSH1 0x2 SLOAD PUSH2 0x249 SWAP1 PUSH1 0x1 PUSH1 0x1 PUSH1 0xA0 SHL SUB AND DUP2 JUMP JUMPDEST CALLVALUE DUP1 ISZERO PUSH2 0x582 JUMPI PUSH0 DUP1 REVERT JUMPDEST POP PUSH2 0x1DE PUSH2 0x591 CALLDATASIZE PUSH1 0x4 PUSH2 0x2174 JUMP JUMPDEST PUSH2 0x1C18 JUMP JUMPDEST PUSH0 DUP1 SLOAD PUSH1 0x1 SLOAD PUSH1 0x40 MLOAD PUSH4 0x17119229 PUSH1 0xE3 SHL DUP2 MSTORE PUSH1 0x1 PUSH1 0x1 PUSH1 0xA0 SHL SUB SWAP2 DUP3 AND PUSH1 0x4 DUP3 ADD MSTORE SWAP2 AND SWAP1 PUSH4 0xB88C9148 SWAP1 PUSH1 0x24 ADD PUSH1 0x20 PUSH1 0x40 MLOAD DUP1 DUP4 SUB DUP2 DUP7 GAS STATICCALL ISZERO DUP1 ISZERO PUSH2 0x5E0 JUMPI RETURNDATASIZE PUSH0 DUP1 RETURNDATACOPY RETURNDATASIZE PUSH0 REVERT JUMPDEST POP POP POP POP PUSH1 0x40 MLOAD RETURNDATASIZE PUSH1 0x1F NOT PUSH1 0x1F DUP3 ADD AND DUP3 ADD DUP1 PUSH1 0x40 MSTORE POP DUP2 ADD SWAP1 PUSH2 0x604 SWAP2 SWAP1 PUSH2 0x2452 JUMP JUMPDEST PUSH1 0x1 PUSH1 0x1 PUSH1 0x80 SHL SUB AND SWAP1 POP PUSH1 0x6 SLOAD DUP2 PUSH2 0x61D SWAP2 SWAP1 PUSH2 0x248C JUMP JUMPDEST CALLVALUE EQ PUSH2 0x663 JUMPI PUSH1 0x40 MLOAD PUSH3 0x461BCD PUSH1 0xE5 SHL DUP2 MSTORE PUSH1 0x20 PUSH1 0x4 DUP3 ADD MSTORE PUSH1 0x10 PUSH1 0x24 DUP3 ADD MSTORE PUSH16 0x496E73756666696369656E7420666565 PUSH1 0x80 SHL PUSH1 0x44 DUP3 ADD MSTORE PUSH1 0x64 ADD JUMPDEST PUSH1 0x40 MLOAD DUP1 SWAP2 SUB SWAP1 REVERT JUMPDEST PUSH0 DUP7 GT PUSH2 0x6B2 JUMPI PUSH1 0x40 MLOAD PUSH3 0x461BCD PUSH1 0xE5 SHL DUP2 MSTORE PUSH1 0x20 PUSH1 0x4 DUP3 ADD MSTORE PUSH1 0x1F PUSH1 0x24 DUP3 ADD MSTORE PUSH32 0x526F746174696F6E206379636C65206D75737420626520706F73697469766500 PUSH1 0x44 DUP3 ADD MSTORE PUSH1 0x64 ADD PUSH2 0x65A JUMP JUMPDEST PUSH0 DUP6 GT PUSH2 0x70F JUMPI PUSH1 0x40 MLOAD PUSH3 0x461BCD PUSH1 0xE5 SHL DUP2 MSTORE PUSH1 0x20 PUSH1 0x4 DUP3 ADD MSTORE PUSH1 0x25 PUSH1 0x24 DUP3 ADD MSTORE PUSH32 0x496E7465726573742064656E6F6D696E61746F72206D75737420626520706F73 PUSH1 0x44 DUP3 ADD MSTORE PUSH5 0x6974697665 PUSH1 0xD8 SHL PUSH1 0x64 DUP3 ADD MSTORE PUSH1 0x84 ADD PUSH2 0x65A JUMP JUMPDEST DUP5 DUP5 GT ISZERO PUSH2 0x77B JUMPI PUSH1 0x40 MLOAD PUSH3 0x461BCD PUSH1 0xE5 SHL DUP2 MSTORE PUSH1 0x20 PUSH1 0x4 DUP3 ADD MSTORE PUSH1 0x33 PUSH1 0x24 DUP3 ADD MSTORE PUSH32 0x4E756D657261746F72206D757374206265206C657373207468616E206F722065 PUSH1 0x44 DUP3 ADD MSTORE PUSH19 0x38BAB0B6103A37903232B737B6B4B730BA37B9 PUSH1 0x69 SHL PUSH1 0x64 DUP3 ADD MSTORE PUSH1 0x84 ADD PUSH2 0x65A JUMP JUMPDEST PUSH1 0x4 DUP1 SLOAD PUSH0 SWAP2 DUP3 PUSH2 0x78B DUP4 PUSH2 0x249F JUMP JUMPDEST SWAP1 SWAP2 SSTORE POP PUSH1 0x8 SLOAD PUSH1 0x40 MLOAD PUSH4 0x23B872DD PUSH1 0xE0 SHL DUP2 MSTORE CALLER PUSH1 0x4 DUP3 ADD MSTORE ADDRESS PUSH1 0x24 DUP3 ADD MSTORE PUSH1 0x44 DUP2 ADD DUP7 SWAP1 MSTORE SWAP2 SWAP3 POP PUSH1 0x1 PUSH1 0x1 PUSH1 0xA0 SHL SUB AND SWAP1 PUSH4 0x23B872DD SWAP1 PUSH1 0x64 ADD PUSH1 0x20 PUSH1 0x40 MLOAD DUP1 DUP4 SUB DUP2 PUSH0 DUP8 GAS CALL ISZERO DUP1 ISZERO PUSH2 0x7E4 JUMPI RETURNDATASIZE PUSH0 DUP1 RETURNDATACOPY RETURNDATASIZE PUSH0 REVERT JUMPDEST POP POP POP POP PUSH1 0x40 MLOAD RETURNDATASIZE PUSH1 0x1F NOT PUSH1 0x1F DUP3 ADD AND DUP3 ADD DUP1 PUSH1 0x40 MSTORE POP DUP2 ADD SWAP1 PUSH2 0x808 SWAP2 SWAP1 PUSH2 0x24B7 JUMP JUMPDEST PUSH2 0x866 JUMPI PUSH1 0x40 MLOAD PUSH3 0x461BCD PUSH1 0xE5 SHL DUP2 MSTORE PUSH1 0x20 PUSH1 0x4 DUP3 ADD MSTORE PUSH1 0x29 PUSH1 0x24 DUP3 ADD MSTORE PUSH32 0x43726561746F722073686F756C64206465706F7369742074686520696E697469 PUSH1 0x44 DUP3 ADD MSTORE PUSH9 0x185B08185B5BDD5B9D PUSH1 0xBA SHL PUSH1 0x64 DUP3 ADD MSTORE PUSH1 0x84 ADD PUSH2 0x65A JUMP JUMPDEST PUSH0 DUP1 SLOAD PUSH1 0x1 DUP1 SLOAD PUSH1 0x40 MLOAD PUSH4 0x93CBF217 PUSH1 0xE0 SHL DUP2 MSTORE PUSH1 0x1 PUSH1 0x1 PUSH1 0xA0 SHL SUB SWAP2 DUP3 AND PUSH1 0x4 DUP3 ADD MSTORE PUSH1 0x24 DUP2 ADD DUP14 SWAP1 MSTORE PUSH1 0x44 DUP2 ADD SWAP3 SWAP1 SWAP3 MSTORE SWAP1 SWAP2 AND SWAP1 PUSH4 0x93CBF217 SWAP1 DUP6 SWAP1 PUSH1 0x64 ADD PUSH1 0x20 PUSH1 0x40 MLOAD DUP1 DUP4 SUB DUP2 DUP6 DUP9 GAS CALL ISZERO DUP1 ISZERO PUSH2 0x8C4 JUMPI RETURNDATASIZE PUSH0 DUP1 RETURNDATACOPY RETURNDATASIZE PUSH0 REVERT JUMPDEST POP POP POP POP POP PUSH1 0x40 MLOAD RETURNDATASIZE PUSH1 0x1F NOT PUSH1 0x1F DUP3 ADD AND DUP3 ADD DUP1 PUSH1 0x40 MSTORE POP DUP2 ADD SWAP1 PUSH2 0x8E9 SWAP2 SWAP1 PUSH2 0x24D6 JUMP JUMPDEST SWAP1 POP PUSH1 0x6 SLOAD PUSH1 0x5 PUSH0 DUP3 DUP3 SLOAD PUSH2 0x8FE SWAP2 SWAP1 PUSH2 0x248C JUMP JUMPDEST SWAP1 SWAP2 SSTORE POP POP PUSH0 DUP3 DUP2 MSTORE PUSH1 0xA PUSH1 0x20 MSTORE PUSH1 0x40 SWAP1 KECCAK256 DUP1 PUSH2 0x91B DUP13 DUP3 PUSH2 0x257F JUMP JUMPDEST POP DUP5 DUP2 PUSH1 0x1 ADD DUP2 SWAP1 SSTORE POP PUSH0 DUP2 PUSH1 0x2 ADD DUP2 SWAP1 SSTORE POP DUP2 DUP2 PUSH1 0xA ADD PUSH0 PUSH2 0x100 EXP DUP2 SLOAD DUP2 PUSH1 0x1 PUSH1 0x1 PUSH1 0x40 SHL SUB MUL NOT AND SWAP1 DUP4 PUSH1 0x1 PUSH1 0x1 PUSH1 0x40 SHL SUB AND MUL OR SWAP1 SSTORE POP CALLER DUP2 PUSH1 0xA ADD PUSH1 0x8 PUSH2 0x100 EXP DUP2 SLOAD DUP2 PUSH1 0x1 PUSH1 0x1 PUSH1 0xA0 SHL SUB MUL NOT AND SWAP1 DUP4 PUSH1 0x1 PUSH1 0x1 PUSH1 0xA0 SHL SUB AND MUL OR SWAP1 SSTORE POP DUP9 DUP2 PUSH1 0x4 ADD DUP2 SWAP1 SSTORE POP DUP7 DUP2 PUSH1 0x6 ADD DUP2 SWAP1 SSTORE POP DUP8 DUP2 PUSH1 0x7 ADD DUP2 SWAP1 SSTORE POP TIMESTAMP DUP2 PUSH1 0x5 ADD DUP2 SWAP1 SSTORE POP DUP6 DUP2 PUSH1 0x8 ADD DUP2 SWAP1 SSTORE POP PUSH1 0x1 DUP2 PUSH1 0x9 ADD DUP2 SWAP1 SSTORE POP DUP1 PUSH1 0xB ADD CALLER SWAP1 DUP1 PUSH1 0x1 DUP2 SLOAD ADD DUP1 DUP3 SSTORE DUP1 SWAP2 POP POP PUSH1 0x1 SWAP1 SUB SWAP1 PUSH0 MSTORE PUSH1 0x20 PUSH0 KECCAK256 ADD PUSH0 SWAP1 SWAP2 SWAP1 SWAP2 SWAP1 SWAP2 PUSH2 0x100 EXP DUP2 SLOAD DUP2 PUSH1 0x1 PUSH1 0x1 PUSH1 0xA0 SHL SUB MUL NOT AND SWAP1 DUP4 PUSH1 0x1 PUSH1 0x1 PUSH1 0xA0 SHL SUB AND MUL OR SWAP1 SSTORE POP PUSH1 0x1 PUSH1 0xC PUSH0 DUP6 DUP2 MSTORE PUSH1 0x20 ADD SWAP1 DUP2 MSTORE PUSH1 0x20 ADD PUSH0 KECCAK256 PUSH0 DUP4 PUSH1 0x9 ADD SLOAD DUP2 MSTORE PUSH1 0x20 ADD SWAP1 DUP2 MSTORE PUSH1 0x20 ADD PUSH0 KECCAK256 PUSH0 CALLER PUSH1 0x1 PUSH1 0x1 PUSH1 0xA0 SHL SUB AND PUSH1 0x1 PUSH1 0x1 PUSH1 0xA0 SHL SUB AND DUP2 MSTORE PUSH1 0x20 ADD SWAP1 DUP2 MSTORE PUSH1 0x20 ADD PUSH0 KECCAK256 PUSH0 PUSH2 0x100 EXP DUP2 SLOAD DUP2 PUSH1 0xFF MUL NOT AND SWAP1 DUP4 ISZERO ISZERO MUL OR SWAP1 SSTORE POP PUSH32 0x43D2F309913F6AFC5D717F60864D2D192B69963D25204B6A12765E2795BF027F DUP4 DUP13 CALLER DUP9 DUP14 DUP13 DUP15 DUP14 PUSH1 0x40 MLOAD PUSH2 0xA98 SWAP9 SWAP8 SWAP7 SWAP6 SWAP5 SWAP4 SWAP3 SWAP2 SWAP1 PUSH2 0x263A JUMP JUMPDEST PUSH1 0x40 MLOAD DUP1 SWAP2 SUB SWAP1 LOG1 POP POP POP POP POP POP POP POP POP POP POP JUMP JUMPDEST PUSH0 DUP1 SLOAD PUSH1 0x1 SLOAD PUSH1 0x40 MLOAD PUSH4 0x17119229 PUSH1 0xE3 SHL DUP2 MSTORE PUSH1 0x1 PUSH1 0x1 PUSH1 0xA0 SHL SUB SWAP2 DUP3 AND PUSH1 0x4 DUP3 ADD MSTORE SWAP2 AND SWAP1 PUSH4 0xB88C9148 SWAP1 PUSH1 0x24 ADD PUSH1 0x20 PUSH1 0x40 MLOAD DUP1 DUP4 SUB DUP2 DUP7 GAS STATICCALL ISZERO DUP1 ISZERO PUSH2 0xAF7 JUMPI RETURNDATASIZE PUSH0 DUP1 RETURNDATACOPY RETURNDATASIZE PUSH0 REVERT JUMPDEST POP POP POP POP PUSH1 0x40 MLOAD RETURNDATASIZE PUSH1 0x1F NOT PUSH1 0x1F DUP3 ADD AND DUP3 ADD DUP1 PUSH1 0x40 MSTORE POP DUP2 ADD SWAP1 PUSH2 0xB1B SWAP2 SWAP1 PUSH2 0x2452 JUMP JUMPDEST PUSH1 0x1 PUSH1 0x1 PUSH1 0x80 SHL SUB AND SWAP1 POP SWAP1 JUMP JUMPDEST PUSH2 0xB31 PUSH2 0x1C6A JUMP JUMPDEST PUSH1 0x5 SLOAD DUP1 PUSH2 0xB7A JUMPI PUSH1 0x40 MLOAD PUSH3 0x461BCD PUSH1 0xE5 SHL DUP2 MSTORE PUSH1 0x20 PUSH1 0x4 DUP3 ADD MSTORE PUSH1 0x16 PUSH1 0x24 DUP3 ADD MSTORE PUSH22 0x4E6F20726576656E756520746F207769746864726177 PUSH1 0x50 SHL PUSH1 0x44 DUP3 ADD MSTORE PUSH1 0x64 ADD PUSH2 0x65A JUMP JUMPDEST PUSH0 PUSH1 0x5 DUP2 SWAP1 SSTORE PUSH1 0x40 MLOAD CALLER SWAP2 DUP4 ISZERO PUSH2 0x8FC MUL SWAP2 DUP5 SWAP2 DUP2 DUP2 DUP2 DUP6 DUP9 DUP9 CALL SWAP4 POP POP POP POP ISZERO DUP1 ISZERO PUSH2 0xBA9 JUMPI RETURNDATASIZE PUSH0 DUP1 RETURNDATACOPY RETURNDATASIZE PUSH0 REVERT JUMPDEST POP POP JUMP JUMPDEST PUSH1 0x40 MLOAD PUSH1 0x1 PUSH1 0x1 PUSH1 0x60 SHL SUB NOT CALLER PUSH1 0x60 SHL AND PUSH1 0x20 DUP3 ADD MSTORE PUSH1 0x34 DUP2 ADD DUP5 SWAP1 MSTORE PUSH0 SWAP1 PUSH1 0x54 ADD PUSH1 0x40 MLOAD PUSH1 0x20 DUP2 DUP4 SUB SUB DUP2 MSTORE SWAP1 PUSH1 0x40 MSTORE DUP1 MLOAD SWAP1 PUSH1 0x20 ADD KECCAK256 SWAP1 POP PUSH2 0xC27 DUP4 DUP4 DUP1 DUP1 PUSH1 0x20 MUL PUSH1 0x20 ADD PUSH1 0x40 MLOAD SWAP1 DUP2 ADD PUSH1 0x40 MSTORE DUP1 SWAP4 SWAP3 SWAP2 SWAP1 DUP2 DUP2 MSTORE PUSH1 0x20 ADD DUP4 DUP4 PUSH1 0x20 MUL DUP1 DUP3 DUP5 CALLDATACOPY PUSH0 SWAP3 ADD SWAP2 SWAP1 SWAP2 MSTORE POP POP PUSH1 0x3 SLOAD SWAP2 POP DUP5 SWAP1 POP PUSH2 0x1CC5 JUMP JUMPDEST PUSH2 0xC64 JUMPI PUSH1 0x40 MLOAD PUSH3 0x461BCD PUSH1 0xE5 SHL DUP2 MSTORE PUSH1 0x20 PUSH1 0x4 DUP3 ADD MSTORE PUSH1 0xE PUSH1 0x24 DUP3 ADD MSTORE PUSH14 0x24B73B30B634B210383937B7B317 PUSH1 0x91 SHL PUSH1 0x44 DUP3 ADD MSTORE PUSH1 0x64 ADD PUSH2 0x65A JUMP JUMPDEST CALLER PUSH0 SWAP1 DUP2 MSTORE PUSH1 0x9 PUSH1 0x20 MSTORE PUSH1 0x40 SWAP1 KECCAK256 SLOAD DUP5 DUP2 LT PUSH2 0xCD5 JUMPI PUSH1 0x40 MLOAD PUSH3 0x461BCD PUSH1 0xE5 SHL DUP2 MSTORE PUSH1 0x20 PUSH1 0x4 DUP3 ADD MSTORE PUSH1 0x2A PUSH1 0x24 DUP3 ADD MSTORE PUSH32 0x4E6F2066756E6473206C65667420746F20636C61696D206F7220616C72656164 PUSH1 0x44 DUP3 ADD MSTORE PUSH10 0x3C9031B630B4B6B2B217 PUSH1 0xB1 SHL PUSH1 0x64 DUP3 ADD MSTORE PUSH1 0x84 ADD PUSH2 0x65A JUMP JUMPDEST PUSH0 PUSH2 0xCE0 DUP3 DUP8 PUSH2 0x268F JUMP JUMPDEST SWAP1 POP DUP1 PUSH1 0x7 SLOAD LT ISZERO PUSH2 0xD2C JUMPI PUSH1 0x40 MLOAD PUSH3 0x461BCD PUSH1 0xE5 SHL DUP2 MSTORE PUSH1 0x20 PUSH1 0x4 DUP3 ADD MSTORE PUSH1 0x15 PUSH1 0x24 DUP3 ADD MSTORE PUSH21 0x139BC8199D5B991CC81A5B881D1A19481D985D5B1D PUSH1 0x5A SHL PUSH1 0x44 DUP3 ADD MSTORE PUSH1 0x64 ADD PUSH2 0x65A JUMP JUMPDEST CALLER PUSH0 SWAP1 DUP2 MSTORE PUSH1 0x9 PUSH1 0x20 MSTORE PUSH1 0x40 DUP2 KECCAK256 DUP8 SWAP1 SSTORE PUSH1 0x7 DUP1 SLOAD DUP4 SWAP3 SWAP1 PUSH2 0xD4F SWAP1 DUP5 SWAP1 PUSH2 0x268F JUMP JUMPDEST SWAP1 SWAP2 SSTORE POP POP PUSH1 0x8 SLOAD PUSH1 0x40 MLOAD PUSH4 0xA9059CBB PUSH1 0xE0 SHL DUP2 MSTORE CALLER PUSH1 0x4 DUP3 ADD MSTORE PUSH1 0x24 DUP2 ADD DUP4 SWAP1 MSTORE PUSH1 0x1 PUSH1 0x1 PUSH1 0xA0 SHL SUB SWAP1 SWAP2 AND SWAP1 PUSH4 0xA9059CBB SWAP1 PUSH1 0x44 ADD PUSH1 0x20 PUSH1 0x40 MLOAD DUP1 DUP4 SUB DUP2 PUSH0 DUP8 GAS CALL ISZERO DUP1 ISZERO PUSH2 0xDA2 JUMPI RETURNDATASIZE PUSH0 DUP1 RETURNDATACOPY RETURNDATASIZE PUSH0 REVERT JUMPDEST POP POP POP POP PUSH1 0x40 MLOAD RETURNDATASIZE PUSH1 0x1F NOT PUSH1 0x1F DUP3 ADD AND DUP3 ADD DUP1 PUSH1 0x40 MSTORE POP DUP2 ADD SWAP1 PUSH2 0xDC6 SWAP2 SWAP1 PUSH2 0x24B7 JUMP JUMPDEST PUSH2 0xE0A JUMPI PUSH1 0x40 MLOAD PUSH3 0x461BCD PUSH1 0xE5 SHL DUP2 MSTORE PUSH1 0x20 PUSH1 0x4 DUP3 ADD MSTORE PUSH1 0x15 PUSH1 0x24 DUP3 ADD MSTORE PUSH21 0x165A595B19081D1C985B9CD9995C8819985A5B1959 PUSH1 0x5A SHL PUSH1 0x44 DUP3 ADD MSTORE PUSH1 0x64 ADD PUSH2 0x65A JUMP JUMPDEST POP POP POP POP POP POP JUMP JUMPDEST PUSH2 0xE1A PUSH2 0x1C6A JUMP JUMPDEST PUSH2 0xE23 PUSH0 PUSH2 0x1CDA JUMP JUMPDEST JUMP JUMPDEST PUSH2 0xE2D PUSH2 0x1C6A JUMP JUMPDEST PUSH1 0x40 MLOAD PUSH4 0x4AA7D2F7 PUSH1 0xE1 SHL DUP2 MSTORE ADDRESS PUSH1 0x4 DUP3 ADD MSTORE CALLER PUSH1 0x24 DUP3 ADD MSTORE PUSH1 0x2 PUSH1 0x43 PUSH1 0x98 SHL ADD SWAP1 PUSH4 0x954FA5EE SWAP1 PUSH1 0x44 ADD PUSH1 0x20 PUSH1 0x40 MLOAD DUP1 DUP4 SUB DUP2 PUSH0 DUP8 GAS CALL ISZERO DUP1 ISZERO PUSH2 0xE74 JUMPI RETURNDATASIZE PUSH0 DUP1 RETURNDATACOPY RETURNDATASIZE PUSH0 REVERT JUMPDEST POP POP POP POP PUSH1 0x40 MLOAD RETURNDATASIZE PUSH1 0x1F NOT PUSH1 0x1F DUP3 ADD AND DUP3 ADD DUP1 PUSH1 0x40 MSTORE POP DUP2 ADD SWAP1 PUSH2 0xE98 SWAP2 SWAP1 PUSH2 0x26A2 JUMP JUMPDEST POP JUMP JUMPDEST PUSH2 0xEA3 PUSH2 0x1C6A JUMP JUMPDEST PUSH1 0x3 DUP3 SWAP1 SSTORE PUSH1 0x40 MLOAD CALLER SWAP1 DUP3 ISZERO PUSH2 0x8FC MUL SWAP1 DUP4 SWAP1 PUSH0 DUP2 DUP2 DUP2 DUP6 DUP9 DUP9 CALL SWAP4 POP POP POP POP ISZERO DUP1 ISZERO PUSH2 0xED2 JUMPI RETURNDATASIZE PUSH0 DUP1 RETURNDATACOPY RETURNDATASIZE PUSH0 REVERT JUMPDEST POP DUP1 PUSH1 0x7 PUSH0 DUP3 DUP3 SLOAD PUSH2 0xEE4 SWAP2 SWAP1 PUSH2 0x248C JUMP JUMPDEST SWAP1 SWAP2 SSTORE POP POP POP POP JUMP JUMPDEST PUSH0 DUP3 DUP2 MSTORE PUSH1 0xA PUSH1 0x20 MSTORE PUSH1 0x40 DUP2 KECCAK256 PUSH1 0x7 DUP2 ADD SLOAD PUSH1 0x6 DUP3 ADD SLOAD PUSH2 0xF0E SWAP1 DUP6 PUSH2 0x26B9 JUMP JUMPDEST PUSH2 0xF18 SWAP2 SWAP1 PUSH2 0x26E4 JUMP JUMPDEST SWAP2 POP POP JUMPDEST SWAP3 SWAP2 POP POP JUMP JUMPDEST PUSH0 DUP5 DUP2 MSTORE PUSH1 0xA PUSH1 0x20 SWAP1 DUP2 MSTORE PUSH1 0x40 DUP1 DUP4 KECCAK256 DUP2 MLOAD DUP1 DUP5 ADD DUP10 SWAP1 MSTORE CALLER PUSH1 0x60 SHL PUSH1 0x1 PUSH1 0x1 PUSH1 0x60 SHL SUB NOT AND DUP2 DUP5 ADD MSTORE PUSH1 0x54 DUP2 ADD DUP9 SWAP1 MSTORE PUSH1 0x74 DUP1 DUP3 ADD DUP8 SWAP1 MSTORE DUP4 MLOAD DUP1 DUP4 SUB SWAP1 SWAP2 ADD DUP2 MSTORE PUSH1 0x94 SWAP1 SWAP2 ADD SWAP1 SWAP3 MSTORE DUP2 MLOAD SWAP2 SWAP1 SWAP3 ADD KECCAK256 SWAP1 SWAP2 PUSH2 0xF7F DUP3 PUSH2 0x1C18 JUMP JUMPDEST SWAP1 POP PUSH2 0xF8B DUP2 DUP7 PUSH2 0x1D4A JUMP JUMPDEST PUSH1 0x2 SLOAD PUSH1 0x1 PUSH1 0x1 PUSH1 0xA0 SHL SUB SWAP1 DUP2 AND SWAP2 AND EQ PUSH2 0xFE8 JUMPI PUSH1 0x40 MLOAD PUSH3 0x461BCD PUSH1 0xE5 SHL DUP2 MSTORE PUSH1 0x20 PUSH1 0x4 DUP3 ADD MSTORE PUSH1 0x1D PUSH1 0x24 DUP3 ADD MSTORE PUSH32 0x5369676E617475726520766572696669636174696F6E206661696C6564000000 PUSH1 0x44 DUP3 ADD MSTORE PUSH1 0x64 ADD PUSH2 0x65A JUMP JUMPDEST DUP6 DUP4 PUSH1 0x2 ADD SLOAD LT ISZERO PUSH2 0x1062 JUMPI PUSH1 0x40 MLOAD PUSH3 0x461BCD PUSH1 0xE5 SHL DUP2 MSTORE PUSH1 0x20 PUSH1 0x4 DUP3 ADD MSTORE PUSH1 0x38 PUSH1 0x24 DUP3 ADD MSTORE PUSH32 0x616D6F756E742073686F756C64206265206C657373207468616E206F72206571 PUSH1 0x44 DUP3 ADD MSTORE PUSH32 0x75616C20746F207269736B20706F6F6C2062616C616E63650000000000000000 PUSH1 0x64 DUP3 ADD MSTORE PUSH1 0x84 ADD PUSH2 0x65A JUMP JUMPDEST DUP6 DUP4 PUSH1 0x3 ADD DUP2 SWAP1 SSTORE POP DUP6 DUP4 PUSH1 0x2 ADD PUSH0 DUP3 DUP3 SLOAD PUSH2 0x107E SWAP2 SWAP1 PUSH2 0x268F JUMP JUMPDEST SWAP1 SWAP2 SSTORE POP POP POP POP POP POP POP POP POP JUMP JUMPDEST PUSH2 0x1094 PUSH2 0x1C6A JUMP JUMPDEST PUSH1 0x6 SSTORE JUMP JUMPDEST PUSH2 0x10A1 PUSH2 0x1C6A JUMP JUMPDEST PUSH1 0x2 DUP1 SLOAD PUSH1 0x1 PUSH1 0x1 PUSH1 0xA0 SHL SUB NOT AND PUSH1 0x1 PUSH1 0x1 PUSH1 0xA0 SHL SUB SWAP3 SWAP1 SWAP3 AND SWAP2 SWAP1 SWAP2 OR SWAP1 SSTORE JUMP JUMPDEST PUSH0 DUP2 DUP2 MSTORE PUSH1 0xA PUSH1 0x20 SWAP1 DUP2 MSTORE PUSH1 0x40 DUP1 DUP4 KECCAK256 CALLER DUP5 MSTORE PUSH1 0xD DUP2 ADD SWAP1 SWAP3 MSTORE SWAP1 SWAP2 KECCAK256 SLOAD PUSH2 0x1122 JUMPI PUSH1 0x40 MLOAD PUSH3 0x461BCD PUSH1 0xE5 SHL DUP2 MSTORE PUSH1 0x20 PUSH1 0x4 DUP3 ADD MSTORE PUSH1 0x12 PUSH1 0x24 DUP3 ADD MSTORE PUSH18 0x4E6F2072657761726420746F20636C61696D PUSH1 0x70 SHL PUSH1 0x44 DUP3 ADD MSTORE PUSH1 0x64 ADD PUSH2 0x65A JUMP JUMPDEST CALLER PUSH0 DUP2 DUP2 MSTORE PUSH1 0xD DUP4 ADD PUSH1 0x20 MSTORE PUSH1 0x40 DUP1 DUP3 KECCAK256 DUP1 SLOAD SWAP3 SWAP1 SSTORE PUSH1 0x8 SLOAD SWAP1 MLOAD PUSH4 0xA9059CBB PUSH1 0xE0 SHL DUP2 MSTORE PUSH1 0x4 DUP2 ADD SWAP4 SWAP1 SWAP4 MSTORE PUSH1 0x24 DUP4 ADD DUP3 SWAP1 MSTORE SWAP1 SWAP2 PUSH1 0x1 PUSH1 0x1 PUSH1 0xA0 SHL SUB SWAP1 SWAP2 AND SWAP1 PUSH4 0xA9059CBB SWAP1 PUSH1 0x44 ADD PUSH1 0x20 PUSH1 0x40 MLOAD DUP1 DUP4 SUB DUP2 PUSH0 DUP8 GAS CALL ISZERO DUP1 ISZERO PUSH2 0x1189 JUMPI RETURNDATASIZE PUSH0 DUP1 RETURNDATACOPY RETURNDATASIZE PUSH0 REVERT JUMPDEST POP POP POP POP PUSH1 0x40 MLOAD RETURNDATASIZE PUSH1 0x1F NOT PUSH1 0x1F DUP3 ADD AND DUP3 ADD DUP1 PUSH1 0x40 MSTORE POP DUP2 ADD SWAP1 PUSH2 0x11AD SWAP2 SWAP1 PUSH2 0x24B7 JUMP JUMPDEST PUSH2 0x11EB JUMPI PUSH1 0x40 MLOAD PUSH3 0x461BCD PUSH1 0xE5 SHL DUP2 MSTORE PUSH1 0x20 PUSH1 0x4 DUP3 ADD MSTORE PUSH1 0xF PUSH1 0x24 DUP3 ADD MSTORE PUSH15 0x151C985B9CD9995C8819985A5B1959 PUSH1 0x8A SHL PUSH1 0x44 DUP3 ADD MSTORE PUSH1 0x64 ADD PUSH2 0x65A JUMP JUMPDEST POP POP POP JUMP JUMPDEST PUSH32 0xF0C57E16840DF040F15088DC2F81FE391C3923BEC73E23A9662EFC9C229C6A00 DUP1 SLOAD PUSH1 0x1 PUSH1 0x40 SHL DUP2 DIV PUSH1 0xFF AND ISZERO SWAP1 PUSH1 0x1 PUSH1 0x1 PUSH1 0x40 SHL SUB AND PUSH0 DUP2 ISZERO DUP1 ISZERO PUSH2 0x1234 JUMPI POP DUP3 JUMPDEST SWAP1 POP PUSH0 DUP3 PUSH1 0x1 PUSH1 0x1 PUSH1 0x40 SHL SUB AND PUSH1 0x1 EQ DUP1 ISZERO PUSH2 0x124F JUMPI POP ADDRESS EXTCODESIZE ISZERO JUMPDEST SWAP1 POP DUP2 ISZERO DUP1 ISZERO PUSH2 0x125D JUMPI POP DUP1 ISZERO JUMPDEST ISZERO PUSH2 0x127B JUMPI PUSH1 0x40 MLOAD PUSH4 0xF92EE8A9 PUSH1 0xE0 SHL DUP2 MSTORE PUSH1 0x4 ADD PUSH1 0x40 MLOAD DUP1 SWAP2 SUB SWAP1 REVERT JUMPDEST DUP5 SLOAD PUSH8 0xFFFFFFFFFFFFFFFF NOT AND PUSH1 0x1 OR DUP6 SSTORE DUP4 ISZERO PUSH2 0x12A5 JUMPI DUP5 SLOAD PUSH1 0xFF PUSH1 0x40 SHL NOT AND PUSH1 0x1 PUSH1 0x40 SHL OR DUP6 SSTORE JUMPDEST PUSH2 0x12AE CALLER PUSH2 0x1D72 JUMP JUMPDEST PUSH1 0x40 MLOAD PUSH4 0x1A33757D PUSH1 0xE0 SHL DUP2 MSTORE PUSH1 0x22 PUSH1 0x21 PUSH1 0x99 SHL ADD SWAP1 PUSH4 0x1A33757D SWAP1 PUSH2 0x12D9 SWAP1 PUSH1 0x2 SWAP1 PUSH1 0x4 ADD PUSH2 0x270B JUMP JUMPDEST PUSH1 0x20 PUSH1 0x40 MLOAD DUP1 DUP4 SUB DUP2 PUSH0 DUP8 GAS CALL ISZERO DUP1 ISZERO PUSH2 0x12F5 JUMPI RETURNDATASIZE PUSH0 DUP1 RETURNDATACOPY RETURNDATASIZE PUSH0 REVERT JUMPDEST POP POP POP POP PUSH1 0x40 MLOAD RETURNDATASIZE PUSH1 0x1F NOT PUSH1 0x1F DUP3 ADD AND DUP3 ADD DUP1 PUSH1 0x40 MSTORE POP DUP2 ADD SWAP1 PUSH2 0x1319 SWAP2 SWAP1 PUSH2 0x26A2 JUMP JUMPDEST POP PUSH1 0x8 DUP1 SLOAD PUSH1 0x1 PUSH1 0x1 PUSH1 0xA0 SHL SUB NOT AND PUSH1 0x22 PUSH1 0x21 PUSH1 0x99 SHL ADD OR SWAP1 SSTORE PUSH1 0x40 DUP1 MLOAD PUSH4 0x4E606C47 PUSH1 0xE0 SHL DUP2 MSTORE SWAP1 MLOAD PUSH1 0x2 PUSH1 0x43 PUSH1 0x98 SHL ADD SWAP2 PUSH4 0x4E606C47 SWAP2 PUSH1 0x4 DUP1 DUP4 ADD SWAP3 PUSH0 SWAP3 SWAP2 SWAP1 DUP3 SWAP1 SUB ADD DUP2 DUP4 DUP8 DUP1 EXTCODESIZE ISZERO DUP1 ISZERO PUSH2 0x1370 JUMPI PUSH0 DUP1 REVERT JUMPDEST POP GAS CALL ISZERO DUP1 ISZERO PUSH2 0x1382 JUMPI RETURNDATASIZE PUSH0 DUP1 RETURNDATACOPY RETURNDATASIZE PUSH0 REVERT JUMPDEST POP POP PUSH1 0x40 MLOAD PUSH4 0x36B91F2B PUSH1 0xE0 SHL DUP2 MSTORE PUSH20 0xE4860D3973802C7C42450D7B9741921C7711D039 PUSH1 0x4 DUP3 ADD MSTORE PUSH20 0x2FC95838C71E76EC69FF817983BFF17C710F34E0 SWAP3 POP PUSH4 0x36B91F2B SWAP2 POP PUSH1 0x24 ADD PUSH0 PUSH1 0x40 MLOAD DUP1 DUP4 SUB DUP2 PUSH0 DUP8 DUP1 EXTCODESIZE ISZERO DUP1 ISZERO PUSH2 0x13E3 JUMPI PUSH0 DUP1 REVERT JUMPDEST POP GAS CALL ISZERO DUP1 ISZERO PUSH2 0x13F5 JUMPI RETURNDATASIZE PUSH0 DUP1 RETURNDATACOPY RETURNDATASIZE PUSH0 REVERT JUMPDEST POP POP PUSH0 DUP1 SLOAD PUSH1 0x1 PUSH1 0x1 PUSH1 0xA0 SHL SUB DUP1 DUP14 AND PUSH1 0x1 PUSH1 0x1 PUSH1 0xA0 SHL SUB NOT SWAP3 DUP4 AND OR SWAP1 SWAP3 SSTORE PUSH1 0x1 DUP1 SLOAD DUP13 DUP5 AND SWAP1 DUP4 AND OR SWAP1 SSTORE PUSH1 0x2 DUP1 SLOAD SWAP3 DUP12 AND SWAP3 SWAP1 SWAP2 AND SWAP2 SWAP1 SWAP2 OR SWAP1 SSTORE POP POP PUSH7 0x38D7EA4C68000 PUSH1 0x6 SSTORE DUP4 ISZERO PUSH2 0x1486 JUMPI DUP5 SLOAD PUSH1 0xFF PUSH1 0x40 SHL NOT AND DUP6 SSTORE PUSH1 0x40 MLOAD PUSH1 0x1 DUP2 MSTORE PUSH32 0xC7F505B2F371AE2175EE4913F4499E1F2633A7B5936321EED1CDAEB6115181D2 SWAP1 PUSH1 0x20 ADD PUSH1 0x40 MLOAD DUP1 SWAP2 SUB SWAP1 LOG1 JUMPDEST POP POP POP POP POP POP POP POP JUMP JUMPDEST PUSH1 0xA PUSH1 0x20 MSTORE PUSH0 SWAP1 DUP2 MSTORE PUSH1 0x40 SWAP1 KECCAK256 DUP1 SLOAD DUP2 SWAP1 PUSH2 0x14AA SWAP1 PUSH2 0x24FC JUMP JUMPDEST DUP1 PUSH1 0x1F ADD PUSH1 0x20 DUP1 SWAP2 DIV MUL PUSH1 0x20 ADD PUSH1 0x40 MLOAD SWAP1 DUP2 ADD PUSH1 0x40 MSTORE DUP1 SWAP3 SWAP2 SWAP1 DUP2 DUP2 MSTORE PUSH1 0x20 ADD DUP3 DUP1 SLOAD PUSH2 0x14D6 SWAP1 PUSH2 0x24FC JUMP JUMPDEST DUP1 ISZERO PUSH2 0x1521 JUMPI DUP1 PUSH1 0x1F LT PUSH2 0x14F8 JUMPI PUSH2 0x100 DUP1 DUP4 SLOAD DIV MUL DUP4 MSTORE SWAP2 PUSH1 0x20 ADD SWAP2 PUSH2 0x1521 JUMP JUMPDEST DUP3 ADD SWAP2 SWAP1 PUSH0 MSTORE PUSH1 0x20 PUSH0 KECCAK256 SWAP1 JUMPDEST DUP2 SLOAD DUP2 MSTORE SWAP1 PUSH1 0x1 ADD SWAP1 PUSH1 0x20 ADD DUP1 DUP4 GT PUSH2 0x1504 JUMPI DUP3 SWAP1 SUB PUSH1 0x1F AND DUP3 ADD SWAP2 JUMPDEST POP POP POP POP PUSH1 0x1 DUP4 ADD SLOAD PUSH1 0x2 DUP5 ADD SLOAD PUSH1 0x3 DUP6 ADD SLOAD PUSH1 0x4 DUP7 ADD SLOAD PUSH1 0x5 DUP8 ADD SLOAD PUSH1 0x6 DUP9 ADD SLOAD PUSH1 0x7 DUP10 ADD SLOAD PUSH1 0x8 DUP11 ADD SLOAD PUSH1 0x9 DUP12 ADD SLOAD PUSH1 0xA SWAP1 SWAP12 ADD SLOAD SWAP10 SWAP11 SWAP8 SWAP10 SWAP7 SWAP9 POP SWAP5 SWAP7 SWAP4 SWAP6 SWAP3 SWAP5 SWAP2 SWAP4 SWAP1 SWAP3 PUSH1 0x1 PUSH1 0x1 PUSH1 0x40 SHL SUB DUP2 AND SWAP1 PUSH1 0x1 PUSH1 0x40 SHL SWAP1 DIV PUSH1 0x1 PUSH1 0x1 PUSH1 0xA0 SHL SUB AND DUP13 JUMP JUMPDEST PUSH0 DUP5 DUP2 MSTORE PUSH1 0xA PUSH1 0x20 MSTORE PUSH1 0x40 SWAP1 KECCAK256 PUSH1 0x4 DUP2 ADD SLOAD PUSH1 0x5 DUP3 ADD SLOAD PUSH2 0x15A8 SWAP2 SWAP1 PUSH2 0x248C JUMP JUMPDEST TIMESTAMP LT ISZERO PUSH2 0x15F7 JUMPI PUSH1 0x40 MLOAD PUSH3 0x461BCD PUSH1 0xE5 SHL DUP2 MSTORE PUSH1 0x20 PUSH1 0x4 DUP3 ADD MSTORE PUSH1 0x19 PUSH1 0x24 DUP3 ADD MSTORE PUSH32 0x4E65787420726F746174696F6E206E6F74207965742064756500000000000000 PUSH1 0x44 DUP3 ADD MSTORE PUSH1 0x64 ADD PUSH2 0x65A JUMP JUMPDEST PUSH0 DUP1 SLOAD PUSH1 0x1 SLOAD PUSH1 0xA DUP5 ADD SLOAD PUSH1 0x40 MLOAD PUSH4 0x9371DF51 PUSH1 0xE0 SHL DUP2 MSTORE PUSH1 0x1 PUSH1 0x1 PUSH1 0xA0 SHL SUB SWAP3 DUP4 AND PUSH1 0x4 DUP3 ADD MSTORE PUSH1 0x1 PUSH1 0x1 PUSH1 0x40 SHL SUB SWAP1 SWAP2 AND PUSH1 0x24 DUP3 ADD MSTORE PUSH1 0x44 DUP2 ADD DUP8 SWAP1 MSTORE PUSH1 0x64 DUP2 ADD DUP7 SWAP1 MSTORE SWAP2 AND SWAP1 PUSH4 0x9371DF51 SWAP1 PUSH1 0x84 ADD PUSH1 0x20 PUSH1 0x40 MLOAD DUP1 DUP4 SUB DUP2 PUSH0 DUP8 GAS CALL ISZERO DUP1 ISZERO PUSH2 0x1665 JUMPI RETURNDATASIZE PUSH0 DUP1 RETURNDATACOPY RETURNDATASIZE PUSH0 REVERT JUMPDEST POP POP POP POP PUSH1 0x40 MLOAD RETURNDATASIZE PUSH1 0x1F NOT PUSH1 0x1F DUP3 ADD AND DUP3 ADD DUP1 PUSH1 0x40 MSTORE POP DUP2 ADD SWAP1 PUSH2 0x1689 SWAP2 SWAP1 PUSH2 0x26A2 JUMP JUMPDEST PUSH1 0xB DUP4 ADD SLOAD SWAP1 SWAP2 POP PUSH0 SWAP1 PUSH2 0x169D SWAP1 DUP4 PUSH2 0x2731 JUMP JUMPDEST SWAP1 POP PUSH0 DUP4 PUSH1 0xB ADD DUP3 DUP2 SLOAD DUP2 LT PUSH2 0x16B5 JUMPI PUSH2 0x16B5 PUSH2 0x2744 JUMP JUMPDEST PUSH0 SWAP2 DUP3 MSTORE PUSH1 0x20 DUP1 DUP4 KECCAK256 SWAP1 SWAP2 ADD SLOAD PUSH1 0xC DUP8 ADD DUP1 SLOAD PUSH1 0x1 DUP2 DUP2 ADD DUP4 SSTORE SWAP2 DUP6 MSTORE SWAP3 DUP5 KECCAK256 SWAP1 SWAP3 ADD DUP1 SLOAD PUSH1 0x1 PUSH1 0x1 PUSH1 0xA0 SHL SUB NOT AND PUSH1 0x1 PUSH1 0x1 PUSH1 0xA0 SHL SUB SWAP1 SWAP3 AND SWAP2 DUP3 OR SWAP1 SSTORE SWAP1 DUP7 ADD SLOAD PUSH1 0xB DUP8 ADD SLOAD SWAP2 SWAP4 POP PUSH2 0x1709 SWAP2 PUSH2 0x26B9 JUMP JUMPDEST SWAP1 POP PUSH0 PUSH2 0x1715 DUP3 PUSH2 0x1D83 JUMP JUMPDEST SWAP1 POP PUSH0 PUSH2 0x1722 DUP12 DUP4 PUSH2 0xEED JUMP JUMPDEST PUSH1 0x3 DUP9 ADD SLOAD SWAP1 SWAP2 POP DUP1 PUSH2 0x1735 DUP4 DUP6 PUSH2 0x268F JUMP JUMPDEST PUSH2 0x173F SWAP2 SWAP1 PUSH2 0x248C JUMP JUMPDEST PUSH1 0x1 PUSH1 0x1 PUSH1 0xA0 SHL SUB DUP7 AND PUSH0 SWAP1 DUP2 MSTORE PUSH1 0xD DUP11 ADD PUSH1 0x20 MSTORE PUSH1 0x40 DUP2 KECCAK256 SWAP2 SWAP1 SWAP2 SSTORE PUSH1 0x2 DUP10 ADD DUP1 SLOAD DUP5 SWAP3 SWAP1 PUSH2 0x1770 SWAP1 DUP5 SWAP1 PUSH2 0x248C JUMP JUMPDEST SWAP1 SWAP2 SSTORE POP POP PUSH0 PUSH1 0x3 DUP10 ADD DUP2 SWAP1 SSTORE PUSH1 0x1 PUSH1 0x1 PUSH1 0xA0 SHL SUB DUP7 AND DUP2 MSTORE PUSH1 0xE DUP10 ADD PUSH1 0x20 MSTORE PUSH1 0x40 SWAP1 KECCAK256 DUP1 SLOAD PUSH1 0xFF NOT AND PUSH1 0x1 OR SWAP1 SSTORE TIMESTAMP PUSH1 0x5 DUP10 ADD SSTORE PUSH1 0xB DUP9 ADD SLOAD ISZERO PUSH2 0x17C6 JUMPI PUSH1 0x9 DUP9 ADD DUP1 SLOAD SWAP1 PUSH0 PUSH2 0x17C0 DUP4 PUSH2 0x249F JUMP JUMPDEST SWAP2 SWAP1 POP SSTORE POP JUMPDEST PUSH2 0x17D3 PUSH1 0xB DUP10 ADD PUSH0 PUSH2 0x2046 JUMP JUMPDEST PUSH0 DUP1 SLOAD PUSH1 0x1 SLOAD PUSH1 0x40 MLOAD PUSH4 0x17119229 PUSH1 0xE3 SHL DUP2 MSTORE PUSH1 0x1 PUSH1 0x1 PUSH1 0xA0 SHL SUB SWAP2 DUP3 AND PUSH1 0x4 DUP3 ADD MSTORE SWAP2 AND SWAP1 PUSH4 0xB88C9148 SWAP1 PUSH1 0x24 ADD PUSH1 0x20 PUSH1 0x40 MLOAD DUP1 DUP4 SUB DUP2 DUP7 GAS STATICCALL ISZERO DUP1 ISZERO PUSH2 0x181D JUMPI RETURNDATASIZE PUSH0 DUP1 RETURNDATACOPY RETURNDATASIZE PUSH0 REVERT JUMPDEST POP POP POP POP PUSH1 0x40 MLOAD RETURNDATASIZE PUSH1 0x1F NOT PUSH1 0x1F DUP3 ADD AND DUP3 ADD DUP1 PUSH1 0x40 MSTORE POP DUP2 ADD SWAP1 PUSH2 0x1841 SWAP2 SWAP1 PUSH2 0x2452 JUMP JUMPDEST PUSH1 0x1 PUSH1 0x1 PUSH1 0x80 SHL SUB AND SWAP1 POP DUP1 CALLVALUE EQ PUSH2 0x188E JUMPI PUSH1 0x40 MLOAD PUSH3 0x461BCD PUSH1 0xE5 SHL DUP2 MSTORE PUSH1 0x20 PUSH1 0x4 DUP3 ADD MSTORE PUSH1 0x10 PUSH1 0x24 DUP3 ADD MSTORE PUSH16 0x496E73756666696369656E7420666565 PUSH1 0x80 SHL PUSH1 0x44 DUP3 ADD MSTORE PUSH1 0x64 ADD PUSH2 0x65A JUMP JUMPDEST POP POP POP POP POP POP POP POP POP POP POP POP POP JUMP JUMPDEST PUSH2 0x18A5 PUSH2 0x1C6A JUMP JUMPDEST PUSH1 0x1 PUSH1 0x1 PUSH1 0xA0 SHL SUB DUP2 AND PUSH2 0x18CE JUMPI PUSH1 0x40 MLOAD PUSH4 0x1E4FBDF7 PUSH1 0xE0 SHL DUP2 MSTORE PUSH0 PUSH1 0x4 DUP3 ADD MSTORE PUSH1 0x24 ADD PUSH2 0x65A JUMP JUMPDEST PUSH2 0xE98 DUP2 PUSH2 0x1CDA JUMP JUMPDEST PUSH0 DUP4 DUP2 MSTORE PUSH1 0xA PUSH1 0x20 MSTORE PUSH1 0x40 SWAP1 KECCAK256 PUSH1 0x8 DUP2 ADD SLOAD PUSH1 0xB DUP3 ADD SLOAD LT PUSH2 0x1929 JUMPI PUSH1 0x40 MLOAD PUSH3 0x461BCD PUSH1 0xE5 SHL DUP2 MSTORE PUSH1 0x20 PUSH1 0x4 DUP3 ADD MSTORE PUSH1 0xB PUSH1 0x24 DUP3 ADD MSTORE PUSH11 0x141BDD081A5CC8199D5B1B PUSH1 0xAA SHL PUSH1 0x44 DUP3 ADD MSTORE PUSH1 0x64 ADD PUSH2 0x65A JUMP JUMPDEST PUSH0 DUP5 DUP2 MSTORE PUSH1 0xC PUSH1 0x20 SWAP1 DUP2 MSTORE PUSH1 0x40 DUP1 DUP4 KECCAK256 PUSH1 0x9 DUP6 ADD SLOAD DUP5 MSTORE DUP3 MSTORE DUP1 DUP4 KECCAK256 CALLER DUP5 MSTORE SWAP1 SWAP2 MSTORE SWAP1 KECCAK256 SLOAD PUSH1 0xFF AND ISZERO PUSH2 0x19BC JUMPI PUSH1 0x40 MLOAD PUSH3 0x461BCD PUSH1 0xE5 SHL DUP2 MSTORE PUSH1 0x20 PUSH1 0x4 DUP3 ADD MSTORE PUSH1 0x35 PUSH1 0x24 DUP3 ADD MSTORE PUSH32 0x596F75206861766520616C7265616479206A6F696E6564207468697320706F74 PUSH1 0x44 DUP3 ADD MSTORE PUSH21 0x81A5B881D1A194818DD5C9C995B9D081C9BDD5B99 PUSH1 0x5A SHL PUSH1 0x64 DUP3 ADD MSTORE PUSH1 0x84 ADD PUSH2 0x65A JUMP JUMPDEST PUSH0 DUP5 CALLER DUP4 PUSH1 0x9 ADD SLOAD DUP6 PUSH1 0x40 MLOAD PUSH1 0x20 ADD PUSH2 0x19FB SWAP5 SWAP4 SWAP3 SWAP2 SWAP1 SWAP4 DUP5 MSTORE PUSH1 0x60 SWAP3 SWAP1 SWAP3 SHL PUSH1 0x1 PUSH1 0x1 PUSH1 0x60 SHL SUB NOT AND PUSH1 0x20 DUP5 ADD MSTORE PUSH1 0x34 DUP4 ADD MSTORE PUSH1 0x54 DUP3 ADD MSTORE PUSH1 0x74 ADD SWAP1 JUMP JUMPDEST PUSH1 0x40 MLOAD PUSH1 0x20 DUP2 DUP4 SUB SUB DUP2 MSTORE SWAP1 PUSH1 0x40 MSTORE DUP1 MLOAD SWAP1 PUSH1 0x20 ADD KECCAK256 SWAP1 POP PUSH0 PUSH2 0x1A1D DUP3 PUSH2 0x1C18 JUMP JUMPDEST SWAP1 POP PUSH2 0x1A29 DUP2 DUP7 PUSH2 0x1D4A JUMP JUMPDEST PUSH1 0x2 SLOAD PUSH1 0x1 PUSH1 0x1 PUSH1 0xA0 SHL SUB SWAP1 DUP2 AND SWAP2 AND EQ PUSH2 0x1A86 JUMPI PUSH1 0x40 MLOAD PUSH3 0x461BCD PUSH1 0xE5 SHL DUP2 MSTORE PUSH1 0x20 PUSH1 0x4 DUP3 ADD MSTORE PUSH1 0x1D PUSH1 0x24 DUP3 ADD MSTORE PUSH32 0x5369676E617475726520766572696669636174696F6E206661696C6564000000 PUSH1 0x44 DUP3 ADD MSTORE PUSH1 0x64 ADD PUSH2 0x65A JUMP JUMPDEST PUSH0 DUP7 DUP2 MSTORE PUSH1 0xC PUSH1 0x20 SWAP1 DUP2 MSTORE PUSH1 0x40 DUP1 DUP4 KECCAK256 PUSH1 0x9 DUP8 ADD SLOAD DUP5 MSTORE DUP3 MSTORE DUP1 DUP4 KECCAK256 CALLER DUP1 DUP6 MSTORE SWAP3 MSTORE SWAP2 DUP3 SWAP1 KECCAK256 DUP1 SLOAD PUSH1 0xFF NOT AND PUSH1 0x1 SWAP1 DUP2 OR SWAP1 SWAP2 SSTORE PUSH1 0x8 SLOAD SWAP1 DUP7 ADD SLOAD SWAP3 MLOAD PUSH4 0x23B872DD PUSH1 0xE0 SHL DUP2 MSTORE PUSH1 0x4 DUP2 ADD SWAP3 SWAP1 SWAP3 MSTORE ADDRESS PUSH1 0x24 DUP4 ADD MSTORE PUSH1 0x44 DUP3 ADD SWAP3 SWAP1 SWAP3 MSTORE PUSH1 0x1 PUSH1 0x1 PUSH1 0xA0 SHL SUB SWAP1 SWAP2 AND SWAP1 PUSH4 0x23B872DD SWAP1 PUSH1 0x64 ADD PUSH1 0x20 PUSH1 0x40 MLOAD DUP1 DUP4 SUB DUP2 PUSH0 DUP8 GAS CALL ISZERO DUP1 ISZERO PUSH2 0x1B14 JUMPI RETURNDATASIZE PUSH0 DUP1 RETURNDATACOPY RETURNDATASIZE PUSH0 REVERT JUMPDEST POP POP POP POP PUSH1 0x40 MLOAD RETURNDATASIZE PUSH1 0x1F NOT PUSH1 0x1F DUP3 ADD AND DUP3 ADD DUP1 PUSH1 0x40 MSTORE POP DUP2 ADD SWAP1 PUSH2 0x1B38 SWAP2 SWAP1 PUSH2 0x24B7 JUMP JUMPDEST PUSH2 0x1B76 JUMPI PUSH1 0x40 MLOAD PUSH3 0x461BCD PUSH1 0xE5 SHL DUP2 MSTORE PUSH1 0x20 PUSH1 0x4 DUP3 ADD MSTORE PUSH1 0xF PUSH1 0x24 DUP3 ADD MSTORE PUSH15 0x151C985B9CD9995C8819985A5B1959 PUSH1 0x8A SHL PUSH1 0x44 DUP3 ADD MSTORE PUSH1 0x64 ADD PUSH2 0x65A JUMP JUMPDEST CALLER PUSH0 SWAP1 DUP2 MSTORE PUSH1 0xE DUP5 ADD PUSH1 0x20 MSTORE PUSH1 0x40 SWAP1 KECCAK256 SLOAD PUSH1 0xFF AND PUSH2 0x1BB5 JUMPI PUSH1 0xB DUP4 ADD DUP1 SLOAD PUSH1 0x1 DUP2 ADD DUP3 SSTORE PUSH0 SWAP2 DUP3 MSTORE PUSH1 0x20 SWAP1 SWAP2 KECCAK256 ADD DUP1 SLOAD PUSH1 0x1 PUSH1 0x1 PUSH1 0xA0 SHL SUB NOT AND CALLER OR SWAP1 SSTORE JUMPDEST PUSH32 0x43D2F309913F6AFC5D717F60864D2D192B69963D25204B6A12765E2795BF027F DUP7 DUP5 PUSH0 ADD CALLER DUP7 PUSH1 0x1 ADD SLOAD DUP8 PUSH1 0x4 ADD SLOAD DUP9 PUSH1 0x6 ADD SLOAD DUP10 PUSH1 0x7 ADD SLOAD DUP11 PUSH1 0x8 ADD SLOAD PUSH1 0x40 MLOAD PUSH2 0x1C08 SWAP9 SWAP8 SWAP7 SWAP6 SWAP5 SWAP4 SWAP3 SWAP2 SWAP1 PUSH2 0x2758 JUMP JUMPDEST PUSH1 0x40 MLOAD DUP1 SWAP2 SUB SWAP1 LOG1 POP POP POP POP POP POP JUMP JUMPDEST PUSH1 0x40 MLOAD PUSH32 0x19457468657265756D205369676E6564204D6573736167653A0A333200000000 PUSH1 0x20 DUP3 ADD MSTORE PUSH1 0x3C DUP2 ADD DUP3 SWAP1 MSTORE PUSH0 SWAP1 PUSH1 0x5C ADD PUSH1 0x40 MLOAD PUSH1 0x20 DUP2 DUP4 SUB SUB DUP2 MSTORE SWAP1 PUSH1 0x40 MSTORE DUP1 MLOAD SWAP1 PUSH1 0x20 ADD KECCAK256 SWAP1 POP SWAP2 SWAP1 POP JUMP JUMPDEST CALLER PUSH2 0x1C9C PUSH32 0x9016D09D72D40FDAE2FD8CEAC6B6234C7706214FD39C1CD1E609A0528C199300 SLOAD PUSH1 0x1 PUSH1 0x1 PUSH1 0xA0 SHL SUB AND SWAP1 JUMP JUMPDEST PUSH1 0x1 PUSH1 0x1 PUSH1 0xA0 SHL SUB AND EQ PUSH2 0xE23 JUMPI PUSH1 0x40 MLOAD PUSH4 0x118CDAA7 PUSH1 0xE0 SHL DUP2 MSTORE CALLER PUSH1 0x4 DUP3 ADD MSTORE PUSH1 0x24 ADD PUSH2 0x65A JUMP JUMPDEST PUSH0 DUP3 PUSH2 0x1CD1 DUP6 DUP5 PUSH2 0x1DBB JUMP JUMPDEST EQ SWAP5 SWAP4 POP POP POP POP JUMP JUMPDEST PUSH32 0x9016D09D72D40FDAE2FD8CEAC6B6234C7706214FD39C1CD1E609A0528C199300 DUP1 SLOAD PUSH1 0x1 PUSH1 0x1 PUSH1 0xA0 SHL SUB NOT DUP2 AND PUSH1 0x1 PUSH1 0x1 PUSH1 0xA0 SHL SUB DUP5 DUP2 AND SWAP2 DUP3 OR DUP5 SSTORE PUSH1 0x40 MLOAD SWAP3 AND SWAP2 DUP3 SWAP1 PUSH32 0x8BE0079C531659141344CD1FD0A4F28419497F9722A3DAAFE3B4186F6B6457E0 SWAP1 PUSH0 SWAP1 LOG3 POP POP POP JUMP JUMPDEST PUSH0 DUP1 PUSH0 DUP1 PUSH2 0x1D58 DUP7 DUP7 PUSH2 0x1DFD JUMP JUMPDEST SWAP3 POP SWAP3 POP SWAP3 POP PUSH2 0x1D68 DUP3 DUP3 PUSH2 0x1E46 JUMP JUMPDEST POP SWAP1 SWAP5 SWAP4 POP POP POP POP JUMP JUMPDEST PUSH2 0x1D7A PUSH2 0x1EFE JUMP JUMPDEST PUSH2 0xE98 DUP2 PUSH2 0x1F47 JUMP JUMPDEST PUSH0 DUP1 PUSH2 0x1D90 PUSH1 0x64 DUP5 PUSH2 0x26E4 JUMP JUMPDEST SWAP1 POP PUSH2 0x1D9C DUP2 DUP5 PUSH2 0x268F JUMP JUMPDEST SWAP2 POP DUP1 PUSH1 0x5 PUSH0 DUP3 DUP3 SLOAD PUSH2 0x1DAF SWAP2 SWAP1 PUSH2 0x248C JUMP JUMPDEST SWAP1 SWAP2 SSTORE POP SWAP2 SWAP4 SWAP3 POP POP POP JUMP JUMPDEST PUSH0 DUP2 DUP2 JUMPDEST DUP5 MLOAD DUP2 LT ISZERO PUSH2 0x1DF5 JUMPI PUSH2 0x1DEB DUP3 DUP7 DUP4 DUP2 MLOAD DUP2 LT PUSH2 0x1DDE JUMPI PUSH2 0x1DDE PUSH2 0x2744 JUMP JUMPDEST PUSH1 0x20 MUL PUSH1 0x20 ADD ADD MLOAD PUSH2 0x1F4F JUMP JUMPDEST SWAP2 POP PUSH1 0x1 ADD PUSH2 0x1DBF JUMP JUMPDEST POP SWAP4 SWAP3 POP POP POP JUMP JUMPDEST PUSH0 DUP1 PUSH0 DUP4 MLOAD PUSH1 0x41 SUB PUSH2 0x1E34 JUMPI PUSH1 0x20 DUP5 ADD MLOAD PUSH1 0x40 DUP6 ADD MLOAD PUSH1 0x60 DUP7 ADD MLOAD PUSH0 BYTE PUSH2 0x1E26 DUP9 DUP3 DUP6 DUP6 PUSH2 0x1F7E JUMP JUMPDEST SWAP6 POP SWAP6 POP SWAP6 POP POP POP POP PUSH2 0x1E3F JUMP JUMPDEST POP POP DUP2 MLOAD PUSH0 SWAP2 POP PUSH1 0x2 SWAP1 JUMPDEST SWAP3 POP SWAP3 POP SWAP3 JUMP JUMPDEST PUSH0 DUP3 PUSH1 0x3 DUP2 GT ISZERO PUSH2 0x1E59 JUMPI PUSH2 0x1E59 PUSH2 0x26F7 JUMP JUMPDEST SUB PUSH2 0x1E62 JUMPI POP POP JUMP JUMPDEST PUSH1 0x1 DUP3 PUSH1 0x3 DUP2 GT ISZERO PUSH2 0x1E76 JUMPI PUSH2 0x1E76 PUSH2 0x26F7 JUMP JUMPDEST SUB PUSH2 0x1E94 JUMPI PUSH1 0x40 MLOAD PUSH4 0xF645EEDF PUSH1 0xE0 SHL DUP2 MSTORE PUSH1 0x4 ADD PUSH1 0x40 MLOAD DUP1 SWAP2 SUB SWAP1 REVERT JUMPDEST PUSH1 0x2 DUP3 PUSH1 0x3 DUP2 GT ISZERO PUSH2 0x1EA8 JUMPI PUSH2 0x1EA8 PUSH2 0x26F7 JUMP JUMPDEST SUB PUSH2 0x1EC9 JUMPI PUSH1 0x40 MLOAD PUSH4 0xFCE698F7 PUSH1 0xE0 SHL DUP2 MSTORE PUSH1 0x4 DUP2 ADD DUP3 SWAP1 MSTORE PUSH1 0x24 ADD PUSH2 0x65A JUMP JUMPDEST PUSH1 0x3 DUP3 PUSH1 0x3 DUP2 GT ISZERO PUSH2 0x1EDD JUMPI PUSH2 0x1EDD PUSH2 0x26F7 JUMP JUMPDEST SUB PUSH2 0xBA9 JUMPI PUSH1 0x40 MLOAD PUSH4 0x35E2F383 PUSH1 0xE2 SHL DUP2 MSTORE PUSH1 0x4 DUP2 ADD DUP3 SWAP1 MSTORE PUSH1 0x24 ADD PUSH2 0x65A JUMP JUMPDEST PUSH32 0xF0C57E16840DF040F15088DC2F81FE391C3923BEC73E23A9662EFC9C229C6A00 SLOAD PUSH1 0x1 PUSH1 0x40 SHL SWAP1 DIV PUSH1 0xFF AND PUSH2 0xE23 JUMPI PUSH1 0x40 MLOAD PUSH4 0x1AFCD79F PUSH1 0xE3 SHL DUP2 MSTORE PUSH1 0x4 ADD PUSH1 0x40 MLOAD DUP1 SWAP2 SUB SWAP1 REVERT JUMPDEST PUSH2 0x18A5 PUSH2 0x1EFE JUMP JUMPDEST PUSH0 DUP2 DUP4 LT PUSH2 0x1F69 JUMPI PUSH0 DUP3 DUP2 MSTORE PUSH1 0x20 DUP5 SWAP1 MSTORE PUSH1 0x40 SWAP1 KECCAK256 PUSH2 0x1F77 JUMP JUMPDEST PUSH0 DUP4 DUP2 MSTORE PUSH1 0x20 DUP4 SWAP1 MSTORE PUSH1 0x40 SWAP1 KECCAK256 JUMPDEST SWAP4 SWAP3 POP POP POP JUMP JUMPDEST PUSH0 DUP1 DUP1 PUSH32 0x7FFFFFFFFFFFFFFFFFFFFFFFFFFFFFFF5D576E7357A4501DDFE92F46681B20A0 DUP5 GT ISZERO PUSH2 0x1FB7 JUMPI POP PUSH0 SWAP2 POP PUSH1 0x3 SWAP1 POP DUP3 PUSH2 0x203C JUMP JUMPDEST PUSH1 0x40 DUP1 MLOAD PUSH0 DUP1 DUP3 MSTORE PUSH1 0x20 DUP3 ADD DUP1 DUP5 MSTORE DUP11 SWAP1 MSTORE PUSH1 0xFF DUP10 AND SWAP3 DUP3 ADD SWAP3 SWAP1 SWAP3 MSTORE PUSH1 0x60 DUP2 ADD DUP8 SWAP1 MSTORE PUSH1 0x80 DUP2 ADD DUP7 SWAP1 MSTORE PUSH1 0x1 SWAP1 PUSH1 0xA0 ADD PUSH1 0x20 PUSH1 0x40 MLOAD PUSH1 0x20 DUP2 SUB SWAP1 DUP1 DUP5 SUB SWAP1 DUP6 GAS STATICCALL ISZERO DUP1 ISZERO PUSH2 0x2008 JUMPI RETURNDATASIZE PUSH0 DUP1 RETURNDATACOPY RETURNDATASIZE PUSH0 REVERT JUMPDEST POP POP PUSH1 0x40 MLOAD PUSH1 0x1F NOT ADD MLOAD SWAP2 POP POP PUSH1 0x1 PUSH1 0x1 PUSH1 0xA0 SHL SUB DUP2 AND PUSH2 0x2033 JUMPI POP PUSH0 SWAP3 POP PUSH1 0x1 SWAP2 POP DUP3 SWAP1 POP PUSH2 0x203C JUMP JUMPDEST SWAP3 POP PUSH0 SWAP2 POP DUP2 SWAP1 POP JUMPDEST SWAP5 POP SWAP5 POP SWAP5 SWAP2 POP POP JUMP JUMPDEST POP DUP1 SLOAD PUSH0 DUP3 SSTORE SWAP1 PUSH0 MSTORE PUSH1 0x20 PUSH0 KECCAK256 SWAP1 DUP2 ADD SWAP1 PUSH2 0xE98 SWAP2 SWAP1 JUMPDEST DUP1 DUP3 GT ISZERO PUSH2 0x2070 JUMPI PUSH0 DUP2 SSTORE PUSH1 0x1 ADD PUSH2 0x205D JUMP JUMPDEST POP SWAP1 JUMP JUMPDEST PUSH4 0x4E487B71 PUSH1 0xE0 SHL PUSH0 MSTORE PUSH1 0x41 PUSH1 0x4 MSTORE PUSH1 0x24 PUSH0 REVERT JUMPDEST PUSH0 PUSH1 0x1 PUSH1 0x1 PUSH1 0x40 SHL SUB DUP1 DUP5 GT ISZERO PUSH2 0x20A1 JUMPI PUSH2 0x20A1 PUSH2 0x2074 JUMP JUMPDEST PUSH1 0x40 MLOAD PUSH1 0x1F DUP6 ADD PUSH1 0x1F NOT SWAP1 DUP2 AND PUSH1 0x3F ADD AND DUP2 ADD SWAP1 DUP3 DUP3 GT DUP2 DUP4 LT OR ISZERO PUSH2 0x20C9 JUMPI PUSH2 0x20C9 PUSH2 0x2074 JUMP JUMPDEST DUP2 PUSH1 0x40 MSTORE DUP1 SWAP4 POP DUP6 DUP2 MSTORE DUP7 DUP7 DUP7 ADD GT ISZERO PUSH2 0x20E1 JUMPI PUSH0 DUP1 REVERT JUMPDEST DUP6 DUP6 PUSH1 0x20 DUP4 ADD CALLDATACOPY PUSH0 PUSH1 0x20 DUP8 DUP4 ADD ADD MSTORE POP POP POP SWAP4 SWAP3 POP POP POP JUMP JUMPDEST PUSH0 DUP1 PUSH0 DUP1 PUSH0 DUP1 PUSH0 PUSH1 0xE0 DUP9 DUP11 SUB SLT ISZERO PUSH2 0x2110 JUMPI PUSH0 DUP1 REVERT JUMPDEST DUP8 CALLDATALOAD PUSH1 0x1 PUSH1 0x1 PUSH1 0x40 SHL SUB DUP2 GT ISZERO PUSH2 0x2125 JUMPI PUSH0 DUP1 REVERT JUMPDEST DUP9 ADD PUSH1 0x1F DUP2 ADD DUP11 SGT PUSH2 0x2135 JUMPI PUSH0 DUP1 REVERT JUMPDEST PUSH2 0x2144 DUP11 DUP3 CALLDATALOAD PUSH1 0x20 DUP5 ADD PUSH2 0x2088 JUMP JUMPDEST SWAP11 PUSH1 0x20 DUP11 ADD CALLDATALOAD SWAP11 POP PUSH1 0x40 DUP11 ADD CALLDATALOAD SWAP10 PUSH1 0x60 DUP2 ADD CALLDATALOAD SWAP10 POP PUSH1 0x80 DUP2 ADD CALLDATALOAD SWAP9 POP PUSH1 0xA0 DUP2 ADD CALLDATALOAD SWAP8 POP PUSH1 0xC0 ADD CALLDATALOAD SWAP6 POP SWAP4 POP POP POP POP JUMP JUMPDEST PUSH0 PUSH1 0x20 DUP3 DUP5 SUB SLT ISZERO PUSH2 0x2184 JUMPI PUSH0 DUP1 REVERT JUMPDEST POP CALLDATALOAD SWAP2 SWAP1 POP JUMP JUMPDEST DUP1 CALLDATALOAD PUSH1 0x1 PUSH1 0x1 PUSH1 0xA0 SHL SUB DUP2 AND DUP2 EQ PUSH2 0x21A1 JUMPI PUSH0 DUP1 REVERT JUMPDEST SWAP2 SWAP1 POP JUMP JUMPDEST PUSH0 DUP1 PUSH0 PUSH1 0x60 DUP5 DUP7 SUB SLT ISZERO PUSH2 0x21B8 JUMPI PUSH0 DUP1 REVERT JUMPDEST DUP4 CALLDATALOAD SWAP3 POP PUSH1 0x20 DUP5 ADD CALLDATALOAD SWAP2 POP PUSH2 0x21CF PUSH1 0x40 DUP6 ADD PUSH2 0x218B JUMP JUMPDEST SWAP1 POP SWAP3 POP SWAP3 POP SWAP3 JUMP JUMPDEST PUSH0 DUP1 PUSH0 PUSH1 0x40 DUP5 DUP7 SUB SLT ISZERO PUSH2 0x21EA JUMPI PUSH0 DUP1 REVERT JUMPDEST DUP4 CALLDATALOAD SWAP3 POP PUSH1 0x20 DUP5 ADD CALLDATALOAD PUSH1 0x1 PUSH1 0x1 PUSH1 0x40 SHL SUB DUP1 DUP3 GT ISZERO PUSH2 0x2207 JUMPI PUSH0 DUP1 REVERT JUMPDEST DUP2 DUP7 ADD SWAP2 POP DUP7 PUSH1 0x1F DUP4 ADD SLT PUSH2 0x221A JUMPI PUSH0 DUP1 REVERT JUMPDEST DUP2 CALLDATALOAD DUP2 DUP2 GT ISZERO PUSH2 0x2228 JUMPI PUSH0 DUP1 REVERT JUMPDEST DUP8 PUSH1 0x20 DUP3 PUSH1 0x5 SHL DUP6 ADD ADD GT ISZERO PUSH2 0x223C JUMPI PUSH0 DUP1 REVERT JUMPDEST PUSH1 0x20 DUP4 ADD SWAP5 POP DUP1 SWAP4 POP POP POP POP SWAP3 POP SWAP3 POP SWAP3 JUMP JUMPDEST PUSH0 PUSH1 0x20 DUP3 DUP5 SUB SLT ISZERO PUSH2 0x225F JUMPI PUSH0 DUP1 REVERT JUMPDEST PUSH2 0x1F77 DUP3 PUSH2 0x218B JUMP JUMPDEST PUSH0 DUP1 PUSH1 0x40 DUP4 DUP6 SUB SLT ISZERO PUSH2 0x2279 JUMPI PUSH0 DUP1 REVERT JUMPDEST POP POP DUP1 CALLDATALOAD SWAP3 PUSH1 0x20 SWAP1 SWAP2 ADD CALLDATALOAD SWAP2 POP JUMP JUMPDEST PUSH0 DUP3 PUSH1 0x1F DUP4 ADD SLT PUSH2 0x2297 JUMPI PUSH0 DUP1 REVERT JUMPDEST PUSH2 0x1F77 DUP4 DUP4 CALLDATALOAD PUSH1 0x20 DUP6 ADD PUSH2 0x2088 JUMP JUMPDEST PUSH0 DUP1 PUSH0 DUP1 PUSH1 0x80 DUP6 DUP8 SUB SLT ISZERO PUSH2 0x22B9 JUMPI PUSH0 DUP1 REVERT JUMPDEST DUP5 CALLDATALOAD SWAP4 POP PUSH1 0x20 DUP6 ADD CALLDATALOAD SWAP3 POP PUSH1 0x40 DUP6 ADD CALLDATALOAD PUSH1 0x1 PUSH1 0x1 PUSH1 0x40 SHL SUB DUP2 GT ISZERO PUSH2 0x22DC JUMPI PUSH0 DUP1 REVERT JUMPDEST PUSH2 0x22E8 DUP8 DUP3 DUP9 ADD PUSH2 0x2288 JUMP JUMPDEST SWAP5 SWAP8 SWAP4 SWAP7 POP SWAP4 SWAP5 PUSH1 0x60 ADD CALLDATALOAD SWAP4 POP POP POP JUMP JUMPDEST PUSH0 DUP1 PUSH0 PUSH1 0x60 DUP5 DUP7 SUB SLT ISZERO PUSH2 0x230B JUMPI PUSH0 DUP1 REVERT JUMPDEST PUSH2 0x2314 DUP5 PUSH2 0x218B JUMP JUMPDEST SWAP3 POP PUSH2 0x2322 PUSH1 0x20 DUP6 ADD PUSH2 0x218B JUMP JUMPDEST SWAP2 POP PUSH2 0x21CF PUSH1 0x40 DUP6 ADD PUSH2 0x218B JUMP JUMPDEST PUSH0 DUP2 MLOAD DUP1 DUP5 MSTORE DUP1 PUSH1 0x20 DUP5 ADD PUSH1 0x20 DUP7 ADD MCOPY PUSH0 PUSH1 0x20 DUP3 DUP7 ADD ADD MSTORE PUSH1 0x20 PUSH1 0x1F NOT PUSH1 0x1F DUP4 ADD AND DUP6 ADD ADD SWAP2 POP POP SWAP3 SWAP2 POP POP JUMP JUMPDEST PUSH2 0x180 DUP2 MSTORE PUSH0 PUSH2 0x2372 PUSH2 0x180 DUP4 ADD DUP16 PUSH2 0x2330 JUMP JUMPDEST PUSH1 0x20 DUP4 ADD SWAP14 SWAP1 SWAP14 MSTORE POP PUSH1 0x40 DUP2 ADD SWAP11 SWAP1 SWAP11 MSTORE PUSH1 0x60 DUP11 ADD SWAP9 SWAP1 SWAP9 MSTORE PUSH1 0x80 DUP10 ADD SWAP7 SWAP1 SWAP7 MSTORE PUSH1 0xA0 DUP9 ADD SWAP5 SWAP1 SWAP5 MSTORE PUSH1 0xC0 DUP8 ADD SWAP3 SWAP1 SWAP3 MSTORE PUSH1 0xE0 DUP7 ADD MSTORE PUSH2 0x100 DUP6 ADD MSTORE PUSH2 0x120 DUP5 ADD MSTORE PUSH1 0x1 PUSH1 0x1 PUSH1 0x40 SHL SUB AND PUSH2 0x140 DUP4 ADD MSTORE PUSH1 0x1 PUSH1 0x1 PUSH1 0xA0 SHL SUB AND PUSH2 0x160 SWAP1 SWAP2 ADD MSTORE SWAP2 SWAP1 POP JUMP JUMPDEST PUSH0 DUP1 PUSH0 DUP1 PUSH1 0x80 DUP6 DUP8 SUB SLT ISZERO PUSH2 0x23EB JUMPI PUSH0 DUP1 REVERT JUMPDEST POP POP DUP3 CALLDATALOAD SWAP5 PUSH1 0x20 DUP5 ADD CALLDATALOAD SWAP5 POP PUSH1 0x40 DUP5 ADD CALLDATALOAD SWAP4 PUSH1 0x60 ADD CALLDATALOAD SWAP3 POP SWAP1 POP JUMP JUMPDEST PUSH0 DUP1 PUSH0 PUSH1 0x60 DUP5 DUP7 SUB SLT ISZERO PUSH2 0x2419 JUMPI PUSH0 DUP1 REVERT JUMPDEST DUP4 CALLDATALOAD SWAP3 POP PUSH1 0x20 DUP5 ADD CALLDATALOAD PUSH1 0x1 PUSH1 0x1 PUSH1 0x40 SHL SUB DUP2 GT ISZERO PUSH2 0x2435 JUMPI PUSH0 DUP1 REVERT JUMPDEST PUSH2 0x2441 DUP7 DUP3 DUP8 ADD PUSH2 0x2288 JUMP JUMPDEST SWAP3 POP POP PUSH1 0x40 DUP5 ADD CALLDATALOAD SWAP1 POP SWAP3 POP SWAP3 POP SWAP3 JUMP JUMPDEST PUSH0 PUSH1 0x20 DUP3 DUP5 SUB SLT ISZERO PUSH2 0x2462 JUMPI PUSH0 DUP1 REVERT JUMPDEST DUP2 MLOAD PUSH1 0x1 PUSH1 0x1 PUSH1 0x80 SHL SUB DUP2 AND DUP2 EQ PUSH2 0x1F77 JUMPI PUSH0 DUP1 REVERT JUMPDEST PUSH4 0x4E487B71 PUSH1 0xE0 SHL PUSH0 MSTORE PUSH1 0x11 PUSH1 0x4 MSTORE PUSH1 0x24 PUSH0 REVERT JUMPDEST DUP1 DUP3 ADD DUP1 DUP3 GT ISZERO PUSH2 0xF1C JUMPI PUSH2 0xF1C PUSH2 0x2478 JUMP JUMPDEST PUSH0 PUSH1 0x1 DUP3 ADD PUSH2 0x24B0 JUMPI PUSH2 0x24B0 PUSH2 0x2478 JUMP JUMPDEST POP PUSH1 0x1 ADD SWAP1 JUMP JUMPDEST PUSH0 PUSH1 0x20 DUP3 DUP5 SUB SLT ISZERO PUSH2 0x24C7 JUMPI PUSH0 DUP1 REVERT JUMPDEST DUP2 MLOAD DUP1 ISZERO ISZERO DUP2 EQ PUSH2 0x1F77 JUMPI PUSH0 DUP1 REVERT JUMPDEST PUSH0 PUSH1 0x20 DUP3 DUP5 SUB SLT ISZERO PUSH2 0x24E6 JUMPI PUSH0 DUP1 REVERT JUMPDEST DUP2 MLOAD PUSH1 0x1 PUSH1 0x1 PUSH1 0x40 SHL SUB DUP2 AND DUP2 EQ PUSH2 0x1F77 JUMPI PUSH0 DUP1 REVERT JUMPDEST PUSH1 0x1 DUP2 DUP2 SHR SWAP1 DUP3 AND DUP1 PUSH2 0x2510 JUMPI PUSH1 0x7F DUP3 AND SWAP2 POP JUMPDEST PUSH1 0x20 DUP3 LT DUP2 SUB PUSH2 0x252E JUMPI PUSH4 0x4E487B71 PUSH1 0xE0 SHL PUSH0 MSTORE PUSH1 0x22 PUSH1 0x4 MSTORE PUSH1 0x24 PUSH0 REVERT JUMPDEST POP SWAP2 SWAP1 POP JUMP JUMPDEST PUSH1 0x1F DUP3 GT ISZERO PUSH2 0x11EB JUMPI DUP1 PUSH0 MSTORE PUSH1 0x20 PUSH0 KECCAK256 PUSH1 0x1F DUP5 ADD PUSH1 0x5 SHR DUP2 ADD PUSH1 0x20 DUP6 LT ISZERO PUSH2 0x2559 JUMPI POP DUP1 JUMPDEST PUSH1 0x1F DUP5 ADD PUSH1 0x5 SHR DUP3 ADD SWAP2 POP JUMPDEST DUP2 DUP2 LT ISZERO PUSH2 0x2578 JUMPI PUSH0 DUP2 SSTORE PUSH1 0x1 ADD PUSH2 0x2565 JUMP JUMPDEST POP POP POP POP POP JUMP JUMPDEST DUP2 MLOAD PUSH1 0x1 PUSH1 0x1 PUSH1 0x40 SHL SUB DUP2 GT ISZERO PUSH2 0x2598 JUMPI PUSH2 0x2598 PUSH2 0x2074 JUMP JUMPDEST PUSH2 0x25AC DUP2 PUSH2 0x25A6 DUP5 SLOAD PUSH2 0x24FC JUMP JUMPDEST DUP5 PUSH2 0x2534 JUMP JUMPDEST PUSH1 0x20 DUP1 PUSH1 0x1F DUP4 GT PUSH1 0x1 DUP2 EQ PUSH2 0x25DF JUMPI PUSH0 DUP5 ISZERO PUSH2 0x25C8 JUMPI POP DUP6 DUP4 ADD MLOAD JUMPDEST PUSH0 NOT PUSH1 0x3 DUP7 SWAP1 SHL SHR NOT AND PUSH1 0x1 DUP6 SWAP1 SHL OR DUP6 SSTORE PUSH2 0xE0A JUMP JUMPDEST PUSH0 DUP6 DUP2 MSTORE PUSH1 0x20 DUP2 KECCAK256 PUSH1 0x1F NOT DUP7 AND SWAP2 JUMPDEST DUP3 DUP2 LT ISZERO PUSH2 0x260D JUMPI DUP9 DUP7 ADD MLOAD DUP3 SSTORE SWAP5 DUP5 ADD SWAP5 PUSH1 0x1 SWAP1 SWAP2 ADD SWAP1 DUP5 ADD PUSH2 0x25EE JUMP JUMPDEST POP DUP6 DUP3 LT ISZERO PUSH2 0x262A JUMPI DUP8 DUP6 ADD MLOAD PUSH0 NOT PUSH1 0x3 DUP9 SWAP1 SHL PUSH1 0xF8 AND SHR NOT AND DUP2 SSTORE JUMPDEST POP POP POP POP POP PUSH1 0x1 SWAP1 DUP2 SHL ADD SWAP1 SSTORE POP JUMP JUMPDEST PUSH0 PUSH2 0x100 DUP11 DUP4 MSTORE DUP1 PUSH1 0x20 DUP5 ADD MSTORE PUSH2 0x2653 DUP2 DUP5 ADD DUP12 PUSH2 0x2330 JUMP JUMPDEST PUSH1 0x1 PUSH1 0x1 PUSH1 0xA0 SHL SUB SWAP10 SWAP1 SWAP10 AND PUSH1 0x40 DUP5 ADD MSTORE POP POP PUSH1 0x60 DUP2 ADD SWAP6 SWAP1 SWAP6 MSTORE PUSH1 0x80 DUP6 ADD SWAP4 SWAP1 SWAP4 MSTORE PUSH1 0xA0 DUP5 ADD SWAP2 SWAP1 SWAP2 MSTORE PUSH1 0xC0 DUP4 ADD MSTORE PUSH1 0xE0 SWAP1 SWAP2 ADD MSTORE SWAP3 SWAP2 POP POP JUMP JUMPDEST DUP2 DUP2 SUB DUP2 DUP2 GT ISZERO PUSH2 0xF1C JUMPI PUSH2 0xF1C PUSH2 0x2478 JUMP JUMPDEST PUSH0 PUSH1 0x20 DUP3 DUP5 SUB SLT ISZERO PUSH2 0x26B2 JUMPI PUSH0 DUP1 REVERT JUMPDEST POP MLOAD SWAP2 SWAP1 POP JUMP JUMPDEST DUP1 DUP3 MUL DUP2 ISZERO DUP3 DUP3 DIV DUP5 EQ OR PUSH2 0xF1C JUMPI PUSH2 0xF1C PUSH2 0x2478 JUMP JUMPDEST PUSH4 0x4E487B71 PUSH1 0xE0 SHL PUSH0 MSTORE PUSH1 0x12 PUSH1 0x4 MSTORE PUSH1 0x24 PUSH0 REVERT JUMPDEST PUSH0 DUP3 PUSH2 0x26F2 JUMPI PUSH2 0x26F2 PUSH2 0x26D0 JUMP JUMPDEST POP DIV SWAP1 JUMP JUMPDEST PUSH4 0x4E487B71 PUSH1 0xE0 SHL PUSH0 MSTORE PUSH1 0x21 PUSH1 0x4 MSTORE PUSH1 0x24 PUSH0 REVERT JUMPDEST PUSH1 0x20 DUP2 ADD PUSH1 0x3 DUP4 LT PUSH2 0x272B JUMPI PUSH4 0x4E487B71 PUSH1 0xE0 SHL PUSH0 MSTORE PUSH1 0x21 PUSH1 0x4 MSTORE PUSH1 0x24 PUSH0 REVERT JUMPDEST SWAP2 SWAP1 MSTORE SWAP1 JUMP JUMPDEST PUSH0 DUP3 PUSH2 0x273F JUMPI PUSH2 0x273F PUSH2 0x26D0 JUMP JUMPDEST POP MOD SWAP1 JUMP JUMPDEST PUSH4 0x4E487B71 PUSH1 0xE0 SHL PUSH0 MSTORE PUSH1 0x32 PUSH1 0x4 MSTORE PUSH1 0x24 PUSH0 REVERT JUMPDEST PUSH0 PUSH2 0x100 DUP11 DUP4 MSTORE PUSH1 0x20 DUP2 PUSH1 0x20 DUP6 ADD MSTORE PUSH0 DUP12 SLOAD PUSH2 0x2773 DUP2 PUSH2 0x24FC JUMP JUMPDEST SWAP4 DUP7 ADD DUP5 SWAP1 MSTORE PUSH2 0x120 SWAP4 PUSH1 0x1 DUP3 DUP2 AND DUP1 ISZERO PUSH2 0x2795 JUMPI PUSH1 0x1 DUP2 EQ PUSH2 0x27AF JUMPI PUSH2 0x27DB JUMP JUMPDEST PUSH1 0xFF NOT DUP5 AND DUP10 DUP9 ADD MSTORE DUP3 ISZERO ISZERO PUSH1 0x5 SHL DUP10 ADD DUP8 ADD SWAP5 POP PUSH2 0x27DB JUMP JUMPDEST DUP16 PUSH0 MSTORE PUSH1 0x20 PUSH0 KECCAK256 PUSH0 JUMPDEST DUP5 DUP2 LT ISZERO PUSH2 0x27D3 JUMPI DUP2 SLOAD DUP12 DUP3 ADD DUP11 ADD MSTORE SWAP1 DUP4 ADD SWAP1 DUP8 ADD PUSH2 0x27B8 JUMP JUMPDEST DUP11 ADD DUP9 ADD SWAP6 POP POP JUMPDEST POP POP POP PUSH1 0x1 PUSH1 0x1 PUSH1 0xA0 SHL SUB DUP13 AND PUSH1 0x40 DUP8 ADD MSTORE POP SWAP3 POP PUSH2 0x27F8 SWAP2 POP POP JUMP JUMPDEST PUSH1 0x60 DUP3 ADD SWAP7 SWAP1 SWAP7 MSTORE PUSH1 0x80 DUP2 ADD SWAP5 SWAP1 SWAP5 MSTORE PUSH1 0xA0 DUP5 ADD SWAP3 SWAP1 SWAP3 MSTORE PUSH1 0xC0 DUP4 ADD MSTORE PUSH1 0xE0 SWAP1 SWAP2 ADD MSTORE SWAP4 SWAP3 POP POP POP JUMP INVALID LOG2 PUSH5 0x6970667358 0x22 SLT KECCAK256 SWAP7 0xA6 PUSH22 0x23FA89ACDFE6F3396C27E51CA66844FBAFDE6F713E49 0xAA 0xBB 0xD8 0xC7 EXTCODESIZE 0xBE 0xC7 PUSH5 0x736F6C6343 STOP ADDMOD NOT STOP CALLER "
				},
				"gasEstimates": {
					"creation": {
						"codeDepositCost": "2065600",
						"executionCost": "24296",
						"totalCost": "2089896"
					},
					"external": {
						"BLAST()": "294",
						"USDB()": "295",
						"admin()": "2424",
						"calculateRiskPoolBalance(uint256,uint256)": "infinite",
						"changeAdminSigner(address)": "26811",
						"claimFunds(uint256,bytes32[])": "infinite",
						"claimMyContractsGas()": "infinite",
						"claimReward(uint256)": "infinite",
						"createPot(string,bytes32,uint256,uint256,uint256,uint256,uint256)": "infinite",
						"getEntropyFee()": "infinite",
						"getEthSignedMessageHash(bytes32)": "540",
						"getRiskPoolBalance(uint256)": "2542",
						"hasClaimed(address)": "2550",
						"hasJoinedPot(uint256,uint256,address)": "2748",
						"initialize(address,address,address)": "infinite",
						"joinPot(uint256,bytes,uint256)": "infinite",
						"merkleRoot()": "2329",
						"owner()": "2420",
						"potCreationFee()": "2394",
						"pots(uint256)": "infinite",
						"renounceOwnership()": "infinite",
						"rotateLiquidity(uint256,bytes32,bytes32,bytes32)": "infinite",
						"setMerkleRoot(bytes32,uint256)": "infinite",
						"totalRevenue()": "2394",
						"totalYielDeposited()": "2330",
						"transferOwnership(address)": "28409",
						"updatePotCreationFee(uint256)": "24587",
						"usdbToken()": "2426",
						"useRiskPool(uint256,uint256,bytes,uint256)": "infinite",
						"withdrawRevenue()": "infinite"
					},
					"internal": {
						"deductRevenue(uint256)": "infinite"
					}
				},
				"methodIdentifiers": {
					"BLAST()": "97d75776",
					"USDB()": "31a0edec",
					"admin()": "f851a440",
					"calculateRiskPoolBalance(uint256,uint256)": "7d77990c",
					"changeAdminSigner(address)": "91dc969e",
					"claimFunds(uint256,bytes32[])": "61e7d805",
					"claimMyContractsGas()": "77d5d2dc",
					"claimReward(uint256)": "ae169a50",
					"createPot(string,bytes32,uint256,uint256,uint256,uint256,uint256)": "0fae6443",
					"getEntropyFee()": "2d971e63",
					"getEthSignedMessageHash(bytes32)": "fa540801",
					"getRiskPoolBalance(uint256)": "4d781b31",
					"hasClaimed(address)": "73b2e80e",
					"hasJoinedPot(uint256,uint256,address)": "4da1ec40",
					"initialize(address,address,address)": "c0c53b8b",
					"joinPot(uint256,bytes,uint256)": "f78aedf9",
					"merkleRoot()": "2eb4a7ab",
					"owner()": "8da5cb5b",
					"potCreationFee()": "ec71687b",
					"pots(uint256)": "c3c3df4f",
					"renounceOwnership()": "715018a6",
					"rotateLiquidity(uint256,bytes32,bytes32,bytes32)": "ca829f10",
					"setMerkleRoot(bytes32,uint256)": "7c382d0b",
					"totalRevenue()": "bf2d9e0b",
					"totalYielDeposited()": "07dd3f44",
					"transferOwnership(address)": "f2fde38b",
					"updatePotCreationFee(uint256)": "82199e3f",
					"usdbToken()": "4a80409e",
					"useRiskPool(uint256,uint256,bytes,uint256)": "818c5548",
					"withdrawRevenue()": "4f573cb2"
				}
			},
			"storageLayout": {
				"storage": [
					{
						"astId": 1768,
						"contract": "QuailFinance.sol:QuailFinance",
						"label": "entropy",
						"offset": 0,
						"slot": "0",
						"type": "t_contract(IEntropy)1696"
					},
					{
						"astId": 1770,
						"contract": "QuailFinance.sol:QuailFinance",
						"label": "entropyProvider",
						"offset": 0,
						"slot": "1",
						"type": "t_address"
					},
					{
						"astId": 1772,
						"contract": "QuailFinance.sol:QuailFinance",
						"label": "admin",
						"offset": 0,
						"slot": "2",
						"type": "t_address"
					},
					{
						"astId": 1777,
						"contract": "QuailFinance.sol:QuailFinance",
						"label": "merkleRoot",
						"offset": 0,
						"slot": "3",
						"type": "t_bytes32"
					},
					{
						"astId": 1780,
						"contract": "QuailFinance.sol:QuailFinance",
						"label": "nextPotId",
						"offset": 0,
						"slot": "4",
						"type": "t_uint256"
					},
					{
						"astId": 1788,
						"contract": "QuailFinance.sol:QuailFinance",
						"label": "totalRevenue",
						"offset": 0,
						"slot": "5",
						"type": "t_uint256"
					},
					{
						"astId": 1790,
						"contract": "QuailFinance.sol:QuailFinance",
						"label": "potCreationFee",
						"offset": 0,
						"slot": "6",
						"type": "t_uint256"
					},
					{
						"astId": 1792,
						"contract": "QuailFinance.sol:QuailFinance",
						"label": "totalYielDeposited",
						"offset": 0,
						"slot": "7",
						"type": "t_uint256"
					},
					{
						"astId": 1795,
						"contract": "QuailFinance.sol:QuailFinance",
						"label": "usdbToken",
						"offset": 0,
						"slot": "8",
						"type": "t_contract(IERC20)572"
					},
					{
						"astId": 1799,
						"contract": "QuailFinance.sol:QuailFinance",
						"label": "hasClaimed",
						"offset": 0,
						"slot": "9",
						"type": "t_mapping(t_address,t_uint256)"
					},
					{
						"astId": 1804,
						"contract": "QuailFinance.sol:QuailFinance",
						"label": "pots",
						"offset": 0,
						"slot": "10",
						"type": "t_mapping(t_uint256,t_struct(Pot)1855_storage)"
					},
					{
						"astId": 1808,
						"contract": "QuailFinance.sol:QuailFinance",
						"label": "userYield",
						"offset": 0,
						"slot": "11",
						"type": "t_mapping(t_address,t_uint256)"
					},
					{
						"astId": 1816,
						"contract": "QuailFinance.sol:QuailFinance",
						"label": "hasJoinedPot",
						"offset": 0,
						"slot": "12",
						"type": "t_mapping(t_uint256,t_mapping(t_uint256,t_mapping(t_address,t_bool)))"
					}
				],
				"types": {
					"t_address": {
						"encoding": "inplace",
						"label": "address",
						"numberOfBytes": "20"
					},
					"t_array(t_address)dyn_storage": {
						"base": "t_address",
						"encoding": "dynamic_array",
						"label": "address[]",
						"numberOfBytes": "32"
					},
					"t_bool": {
						"encoding": "inplace",
						"label": "bool",
						"numberOfBytes": "1"
					},
					"t_bytes32": {
						"encoding": "inplace",
						"label": "bytes32",
						"numberOfBytes": "32"
					},
					"t_contract(IERC20)572": {
						"encoding": "inplace",
						"label": "contract IERC20",
						"numberOfBytes": "20"
					},
					"t_contract(IEntropy)1696": {
						"encoding": "inplace",
						"label": "contract IEntropy",
						"numberOfBytes": "20"
					},
					"t_mapping(t_address,t_bool)": {
						"encoding": "mapping",
						"key": "t_address",
						"label": "mapping(address => bool)",
						"numberOfBytes": "32",
						"value": "t_bool"
					},
					"t_mapping(t_address,t_uint256)": {
						"encoding": "mapping",
						"key": "t_address",
						"label": "mapping(address => uint256)",
						"numberOfBytes": "32",
						"value": "t_uint256"
					},
					"t_mapping(t_uint256,t_mapping(t_address,t_bool))": {
						"encoding": "mapping",
						"key": "t_uint256",
						"label": "mapping(uint256 => mapping(address => bool))",
						"numberOfBytes": "32",
						"value": "t_mapping(t_address,t_bool)"
					},
					"t_mapping(t_uint256,t_mapping(t_uint256,t_mapping(t_address,t_bool)))": {
						"encoding": "mapping",
						"key": "t_uint256",
						"label": "mapping(uint256 => mapping(uint256 => mapping(address => bool)))",
						"numberOfBytes": "32",
						"value": "t_mapping(t_uint256,t_mapping(t_address,t_bool))"
					},
					"t_mapping(t_uint256,t_struct(Pot)1855_storage)": {
						"encoding": "mapping",
						"key": "t_uint256",
						"label": "mapping(uint256 => struct QuailFinance.Pot)",
						"numberOfBytes": "32",
						"value": "t_struct(Pot)1855_storage"
					},
					"t_string_storage": {
						"encoding": "bytes",
						"label": "string",
						"numberOfBytes": "32"
					},
					"t_struct(Pot)1855_storage": {
						"encoding": "inplace",
						"label": "struct QuailFinance.Pot",
						"members": [
							{
								"astId": 1818,
								"contract": "QuailFinance.sol:QuailFinance",
								"label": "name",
								"offset": 0,
								"slot": "0",
								"type": "t_string_storage"
							},
							{
								"astId": 1820,
								"contract": "QuailFinance.sol:QuailFinance",
								"label": "amount",
								"offset": 0,
								"slot": "1",
								"type": "t_uint256"
							},
							{
								"astId": 1822,
								"contract": "QuailFinance.sol:QuailFinance",
								"label": "riskPoolBalance",
								"offset": 0,
								"slot": "2",
								"type": "t_uint256"
							},
							{
								"astId": 1824,
								"contract": "QuailFinance.sol:QuailFinance",
								"label": "useRiskPoolBalance",
								"offset": 0,
								"slot": "3",
								"type": "t_uint256"
							},
							{
								"astId": 1826,
								"contract": "QuailFinance.sol:QuailFinance",
								"label": "rotationCycleInSeconds",
								"offset": 0,
								"slot": "4",
								"type": "t_uint256"
							},
							{
								"astId": 1828,
								"contract": "QuailFinance.sol:QuailFinance",
								"label": "lastRotationTime",
								"offset": 0,
								"slot": "5",
								"type": "t_uint256"
							},
							{
								"astId": 1830,
								"contract": "QuailFinance.sol:QuailFinance",
								"label": "interestNumerator",
								"offset": 0,
								"slot": "6",
								"type": "t_uint256"
							},
							{
								"astId": 1832,
								"contract": "QuailFinance.sol:QuailFinance",
								"label": "interestDenominator",
								"offset": 0,
								"slot": "7",
								"type": "t_uint256"
							},
							{
								"astId": 1834,
								"contract": "QuailFinance.sol:QuailFinance",
								"label": "numParticipants",
								"offset": 0,
								"slot": "8",
								"type": "t_uint256"
							},
							{
								"astId": 1836,
								"contract": "QuailFinance.sol:QuailFinance",
								"label": "currentRound",
								"offset": 0,
								"slot": "9",
								"type": "t_uint256"
							},
							{
								"astId": 1838,
								"contract": "QuailFinance.sol:QuailFinance",
								"label": "sequenceNumber",
								"offset": 0,
								"slot": "10",
								"type": "t_uint64"
							},
							{
								"astId": 1840,
								"contract": "QuailFinance.sol:QuailFinance",
								"label": "potCreator",
								"offset": 8,
								"slot": "10",
								"type": "t_address"
							},
							{
								"astId": 1843,
								"contract": "QuailFinance.sol:QuailFinance",
								"label": "participants",
								"offset": 0,
								"slot": "11",
								"type": "t_array(t_address)dyn_storage"
							},
							{
								"astId": 1846,
								"contract": "QuailFinance.sol:QuailFinance",
								"label": "winners",
								"offset": 0,
								"slot": "12",
								"type": "t_array(t_address)dyn_storage"
							},
							{
								"astId": 1850,
								"contract": "QuailFinance.sol:QuailFinance",
								"label": "amountWon",
								"offset": 0,
								"slot": "13",
								"type": "t_mapping(t_address,t_uint256)"
							},
							{
								"astId": 1854,
								"contract": "QuailFinance.sol:QuailFinance",
								"label": "hasWon",
								"offset": 0,
								"slot": "14",
								"type": "t_mapping(t_address,t_bool)"
							}
						],
						"numberOfBytes": "480"
					},
					"t_uint256": {
						"encoding": "inplace",
						"label": "uint256",
						"numberOfBytes": "32"
					},
					"t_uint64": {
						"encoding": "inplace",
						"label": "uint64",
						"numberOfBytes": "8"
					}
				}
			},
			"userdoc": {
				"kind": "user",
				"methods": {},
				"version": 1
			}
		}
	}
}