{
	"data": {
		"bytecode": {
			"linkReferences": {},
			"object": "60803461007357601f6102f938819003918201601f19168301916001600160401b038311848410176100775780849260209460405283398101031261007357516001600160a01b03811690819003610073575f80546001600160a01b03191691909117905560405161026d908161008c8239f35b5f80fd5b634e487b7160e01b5f52604160045260245ffdfe60406080815260049081361015610014575f80fd5b5f3560e01c9081630900f010146100b85781638da5cb5b1461009257506397107d6d1461003f575f80fd5b3461008e57602036600319011261008e57356001600160a01b038181169182900361008e57610072905f541633146101e1565b6bffffffffffffffffffffffff60a01b60015416176001555f80f35b5f80fd5b3461008e575f36600319011261008e575f5490516001600160a01b039091168152602090f35b823461008e57602036600319011261008e5780356001600160a01b03818116939184900361008e576100ee815f541633146101e1565b6001541681519060208201631b2ce7f360e11b815260249586840152858352606083019267ffffffffffffffff93818110858211176101cf578552515f9283929083905af1903d156101c9573d8181116101b757835191601f8201601f19908116603f01168301908111838210176101a557845281525f60203d92013e5b1561017357005b6064926020600e92519362461bcd60e51b85528401528201526d155c19dc9859194819985a5b195960921b6044820152fd5b86604187634e487b7160e01b5f52525ffd5b85604186634e487b7160e01b5f52525ffd5b5061016c565b87604188634e487b7160e01b5f52525ffd5b156101e857565b60405162461bcd60e51b815260206004820152602160248201527f4f6e6c79206f776e65722063616e2063616c6c20746869732066756e6374696f6044820152603760f91b6064820152608490fdfea26469706673582212201b3a5cea026571058cd9e3de887bc7f0af527f6f625832715145bdb7f9ce5b3d64736f6c63430008170033",
			"opcodes": "PUSH1 0x80 CALLVALUE PUSH2 0x73 JUMPI PUSH1 0x1F PUSH2 0x2F9 CODESIZE DUP2 SWAP1 SUB SWAP2 DUP3 ADD PUSH1 0x1F NOT AND DUP4 ADD SWAP2 PUSH1 0x1 PUSH1 0x1 PUSH1 0x40 SHL SUB DUP4 GT DUP5 DUP5 LT OR PUSH2 0x77 JUMPI DUP1 DUP5 SWAP3 PUSH1 0x20 SWAP5 PUSH1 0x40 MSTORE DUP4 CODECOPY DUP2 ADD SUB SLT PUSH2 0x73 JUMPI MLOAD PUSH1 0x1 PUSH1 0x1 PUSH1 0xA0 SHL SUB DUP2 AND SWAP1 DUP2 SWAP1 SUB PUSH2 0x73 JUMPI PUSH0 DUP1 SLOAD PUSH1 0x1 PUSH1 0x1 PUSH1 0xA0 SHL SUB NOT AND SWAP2 SWAP1 SWAP2 OR SWAP1 SSTORE PUSH1 0x40 MLOAD PUSH2 0x26D SWAP1 DUP2 PUSH2 0x8C DUP3 CODECOPY RETURN JUMPDEST PUSH0 DUP1 REVERT JUMPDEST PUSH4 0x4E487B71 PUSH1 0xE0 SHL PUSH0 MSTORE PUSH1 0x41 PUSH1 0x4 MSTORE PUSH1 0x24 PUSH0 REVERT INVALID PUSH1 0x40 PUSH1 0x80 DUP2 MSTORE PUSH1 0x4 SWAP1 DUP2 CALLDATASIZE LT ISZERO PUSH2 0x14 JUMPI PUSH0 DUP1 REVERT JUMPDEST PUSH0 CALLDATALOAD PUSH1 0xE0 SHR SWAP1 DUP2 PUSH4 0x900F010 EQ PUSH2 0xB8 JUMPI DUP2 PUSH4 0x8DA5CB5B EQ PUSH2 0x92 JUMPI POP PUSH4 0x97107D6D EQ PUSH2 0x3F JUMPI PUSH0 DUP1 REVERT JUMPDEST CALLVALUE PUSH2 0x8E JUMPI PUSH1 0x20 CALLDATASIZE PUSH1 0x3 NOT ADD SLT PUSH2 0x8E JUMPI CALLDATALOAD PUSH1 0x1 PUSH1 0x1 PUSH1 0xA0 SHL SUB DUP2 DUP2 AND SWAP2 DUP3 SWAP1 SUB PUSH2 0x8E JUMPI PUSH2 0x72 SWAP1 PUSH0 SLOAD AND CALLER EQ PUSH2 0x1E1 JUMP JUMPDEST PUSH12 0xFFFFFFFFFFFFFFFFFFFFFFFF PUSH1 0xA0 SHL PUSH1 0x1 SLOAD AND OR PUSH1 0x1 SSTORE PUSH0 DUP1 RETURN JUMPDEST PUSH0 DUP1 REVERT JUMPDEST CALLVALUE PUSH2 0x8E JUMPI PUSH0 CALLDATASIZE PUSH1 0x3 NOT ADD SLT PUSH2 0x8E JUMPI PUSH0 SLOAD SWAP1 MLOAD PUSH1 0x1 PUSH1 0x1 PUSH1 0xA0 SHL SUB SWAP1 SWAP2 AND DUP2 MSTORE PUSH1 0x20 SWAP1 RETURN JUMPDEST DUP3 CALLVALUE PUSH2 0x8E JUMPI PUSH1 0x20 CALLDATASIZE PUSH1 0x3 NOT ADD SLT PUSH2 0x8E JUMPI DUP1 CALLDATALOAD PUSH1 0x1 PUSH1 0x1 PUSH1 0xA0 SHL SUB DUP2 DUP2 AND SWAP4 SWAP2 DUP5 SWAP1 SUB PUSH2 0x8E JUMPI PUSH2 0xEE DUP2 PUSH0 SLOAD AND CALLER EQ PUSH2 0x1E1 JUMP JUMPDEST PUSH1 0x1 SLOAD AND DUP2 MLOAD SWAP1 PUSH1 0x20 DUP3 ADD PUSH4 0x1B2CE7F3 PUSH1 0xE1 SHL DUP2 MSTORE PUSH1 0x24 SWAP6 DUP7 DUP5 ADD MSTORE DUP6 DUP4 MSTORE PUSH1 0x60 DUP4 ADD SWAP3 PUSH8 0xFFFFFFFFFFFFFFFF SWAP4 DUP2 DUP2 LT DUP6 DUP3 GT OR PUSH2 0x1CF JUMPI DUP6 MSTORE MLOAD PUSH0 SWAP3 DUP4 SWAP3 SWAP1 DUP4 SWAP1 GAS CALL SWAP1 RETURNDATASIZE ISZERO PUSH2 0x1C9 JUMPI RETURNDATASIZE DUP2 DUP2 GT PUSH2 0x1B7 JUMPI DUP4 MLOAD SWAP2 PUSH1 0x1F DUP3 ADD PUSH1 0x1F NOT SWAP1 DUP2 AND PUSH1 0x3F ADD AND DUP4 ADD SWAP1 DUP2 GT DUP4 DUP3 LT OR PUSH2 0x1A5 JUMPI DUP5 MSTORE DUP2 MSTORE PUSH0 PUSH1 0x20 RETURNDATASIZE SWAP3 ADD RETURNDATACOPY JUMPDEST ISZERO PUSH2 0x173 JUMPI STOP JUMPDEST PUSH1 0x64 SWAP3 PUSH1 0x20 PUSH1 0xE SWAP3 MLOAD SWAP4 PUSH3 0x461BCD PUSH1 0xE5 SHL DUP6 MSTORE DUP5 ADD MSTORE DUP3 ADD MSTORE PUSH14 0x155C19DC9859194819985A5B1959 PUSH1 0x92 SHL PUSH1 0x44 DUP3 ADD MSTORE REVERT JUMPDEST DUP7 PUSH1 0x41 DUP8 PUSH4 0x4E487B71 PUSH1 0xE0 SHL PUSH0 MSTORE MSTORE PUSH0 REVERT JUMPDEST DUP6 PUSH1 0x41 DUP7 PUSH4 0x4E487B71 PUSH1 0xE0 SHL PUSH0 MSTORE MSTORE PUSH0 REVERT JUMPDEST POP PUSH2 0x16C JUMP JUMPDEST DUP8 PUSH1 0x41 DUP9 PUSH4 0x4E487B71 PUSH1 0xE0 SHL PUSH0 MSTORE MSTORE PUSH0 REVERT JUMPDEST ISZERO PUSH2 0x1E8 JUMPI JUMP JUMPDEST PUSH1 0x40 MLOAD PUSH3 0x461BCD PUSH1 0xE5 SHL DUP2 MSTORE PUSH1 0x20 PUSH1 0x4 DUP3 ADD MSTORE PUSH1 0x21 PUSH1 0x24 DUP3 ADD MSTORE PUSH32 0x4F6E6C79206F776E65722063616E2063616C6C20746869732066756E6374696F PUSH1 0x44 DUP3 ADD MSTORE PUSH1 0x37 PUSH1 0xF9 SHL PUSH1 0x64 DUP3 ADD MSTORE PUSH1 0x84 SWAP1 REVERT INVALID LOG2 PUSH5 0x6970667358 0x22 SLT KECCAK256 SHL GASPRICE 0x5C 0xEA MUL PUSH6 0x71058CD9E3DE DUP9 PUSH28 0xC7F0AF527F6F625832715145BDB7F9CE5B3D64736F6C634300081700 CALLER "
		},
		"gasEstimates": {
			"creation": {
				"codeDepositCost": "124200",
				"executionCost": "infinite",
				"totalCost": "infinite"
			},
			"external": {
				"owner()": "2305",
				"setProxy(address)": "26608",
				"upgrade(address)": "infinite"
			}
		},
		"methodIdentifiers": {
			"owner()": "8da5cb5b",
			"setProxy(address)": "97107d6d",
			"upgrade(address)": "0900f010"
		}
	},
	"abi": [
		{
			"inputs": [
				{
					"internalType": "address",
					"name": "initialOwner",
					"type": "address"
				}
			],
			"stateMutability": "nonpayable",
			"type": "constructor"
		},
		{
			"inputs": [],
			"name": "owner",
			"outputs": [
				{
					"internalType": "address",
					"name": "",
					"type": "address"
				}
			],
			"stateMutability": "view",
			"type": "function"
		},
		{
			"inputs": [
				{
					"internalType": "address",
					"name": "proxyAddress",
					"type": "address"
				}
			],
			"name": "setProxy",
			"outputs": [],
			"stateMutability": "nonpayable",
			"type": "function"
		},
		{
			"inputs": [
				{
					"internalType": "address",
					"name": "newImplementation",
					"type": "address"
				}
			],
			"name": "upgrade",
			"outputs": [],
			"stateMutability": "nonpayable",
			"type": "function"
		}
	]
}