{
	"data": {
		"bytecode": {
			"linkReferences": {},
			"object": "60808060405234601a5760016004556124fd908161001f8239f35b5f80fdfe6080806040526004361015610012575f80fd5b5f905f3560e01c90816307dd3f4414611e83575080630fae6443146118b6578063210eaeae1461168e5780632d971e631461160f5780632eb4a7ab146115f257806331a0edec14610f175780634a80409e146115ca5780634d781b311461159d5780634da1ec401461154357806361e7d8051461128c578063715018a61461122557806373b2e80e146111ed57806377d5d2dc146111785780637c382d0b1461112a5780637d77990c14611109578063818c554814610fd157806382199e3f14610fb05780638da5cb5b14610f7c57806391dc969e14610f3957806397d7577614610f17578063ae169a5014610df5578063b7db43c814610cf4578063bf2d9e0b14610cd7578063c3c3df4f14610b86578063c4d66de8146108d2578063ca829f10146105a1578063ec71687b14610583578063f2fde38b14610556578063f78aedf9146101c5578063f851a4401461019c5763fa54080114610173575f80fd5b3461019957602036600319011261019957602061019160043561228c565b604051908152f35b80fd5b50346101995780600319360112610199576002546040516001600160a01b039091168152602090f35b5034610199576060366003190112610199576004356024356001600160401b038111610552576101f9903690600401611f47565b918181526020600a81526040822092600b84019081549160088601928354111561051f57818552600c845260408520600987015490818752855260408620335f52855260ff60405f2054166104bc576040518581018481523360601b6bffffffffffffffffffffffff19166020820152603481018390526044356054820152979896976102c6976102d69290916102a9916102a181607484015b03601f198101835282611ecb565b51902061228c565b6002546001600160a01b0399908a16928a926102cf929190612307565b90929192612341565b1614612191565b828752600c85526040808820918852908552808720335f818152918752908290208054600160ff1991821681179092556008548b8301805495516323b872dd60e01b8152600481019590955230602486015260448501959095529198909492918891839160649183918e91165af19081156104b1579061035d918a91610484575b506121dd565b335f52600e8901865260ff60405f20541615610473575b505460048801549160068901549360078a015495549660405198610100928a5282828b01528a9b80546103a681611f65565b80958d0152610120956001821691825f14610449575050600114610402575b508a5f805160206124a88339815191528b808f8d8d8d8d8d3360408801526060870152608086015260a085015260c084015260e08301520390a180f35b9093949b508a52808a20928a935b838510610436575050505086010196815f805160206124a8833981519152875f806103c5565b8054858c01870152938201938101610410565b16868d015250505050151560051b8701019750815f805160206124a8833981519152875f806103c5565b61047e9033906120b0565b5f610374565b6104a49150883d8a116104aa575b61049c8183611ecb565b81019061203a565b5f610357565b503d610492565b6040513d8b823e3d90fd5b60405162461bcd60e51b815260048101869052603560248201527f596f75206861766520616c7265616479206a6f696e6564207468697320706f74604482015274081a5b881d1a194818dd5c9c995b9d081c9bdd5b99605a1b6064820152608490fd5b60405162461bcd60e51b815260048101859052600b60248201526a141bdd081a5cc8199d5b1b60aa1b6044820152606490fd5b8280fd5b503461019957602036600319011261019957610580610573611f31565b61057b6122cf565b61221b565b80f35b50346101995780600319360112610199576020600654604051908152f35b506080366003190112610199576004356024358183526020600a8152604084209160018060a01b03938486541694806001541691600a860195856001600160401b03946084868a5416918c6040519c8d948593639371df5160e01b855260048501526024840152604435604484015260643560648401525af19788156104b157899861089f575b50600b810197885490811561088b576106468b93928692068b612087565b90549060031b1c169561065c87600c84016120b0565b8261066d8b54600185015490612140565b9261068861067f6064860480966120f3565b94600554611fe0565b6005556106958487612153565b9485946106b260038401916106ad83549889926120f3565b611fe0565b968b5f52600d84018d528760405f20556106d160028501918254611fe0565b905555885f52600e81018a5260405f20600160ff198254161790554260058201558682541696600154169660405190631711922960e31b82528860048301528b82602481845afa8015610880576001600160801b036064918e948791610853575b5016996107408b3414611fed565b6040519a8b9384926393cbf21760e01b845260048401528860248401528760448401525af1978815610848577f9ef3fbd1495a53d36401c5153be21a35a6214297031b5e106b12307835851d2f9860e0986009949161081b575b50169a8b6001600160401b03198254161790550198895497604051958652898601528760408601526060850152608084015260a083015260c0820152a18354928315159182610809575b50508484556107f1578380f35b610802928452832090810190612071565b5f80808380f35b6108129061202c565b90555f806107e4565b61083b91508c8d3d10610841575b6108338183611ecb565b810190612052565b5f61079a565b503d610829565b6040513d84823e3d90fd5b6108739150853d8711610879575b61086b8183611ecb565b810190611fc1565b5f610732565b503d610861565b6040513d86823e3d90fd5b634e487b7160e01b8b52601260045260248bfd5b9097508581813d83116108cb575b6108b78183611ecb565b810103126108c75751965f610628565b8880fd5b503d6108ad565b5034610b0d57602080600319360112610b0d576108ed611f31565b907ff0c57e16840df040f15088dc2f81fe391c3923bec73e23a9662efc9c229c6a009182549060ff8260401c1615916001600160401b03811680159081610b7e575b6001149081610b74575b159081610b6b575b50610b595767ffffffffffffffff198116600117855582610b3a575b506109666123c4565b61096e6123c4565b6109773361221b565b604051631a33757d60e01b8152600260048201526022602160991b019084816024815f865af1908115610b02578591610b11575b50506bffffffffffffffffffffffff60a01b9080826008541617600855803b15610b0d575f8091600460405180948193634e606c4760e01b83525af18015610b0257610aef575b50732fc95838c71e76ec69ff817983bff17c710f34e091823b15610aeb57866040516336b91f2b60e01b815281816024818373e4860d3973802c7c42450d7b9741921c7711d039998a60048401525af1801561084857610ad7575b505060018060a01b031681875416178655736cc14824ea2918f5de5c2f75a9da968ad4bd6344816001541617600155600254161760025566038d7ea4c68000600655610a97578280f35b7fc7f505b2f371ae2175ee4913f4499e1f2633a7b5936321eed1cdaeb6115181d29168ff000000000000000019815416905560405160018152a15f808280f35b610ae090611e9d565b610aeb57865f610a4d565b8680fd5b610afa919650611e9d565b5f945f6109f2565b6040513d5f823e3d90fd5b5f80fd5b813d8311610b33575b610b248183611ecb565b81010312610b0d57835f6109ab565b503d610b1a565b68ffffffffffffffffff1916680100000000000000011784555f61095d565b60405163f92ee8a960e01b8152600490fd5b9050155f610941565b303b159150610939565b84915061092f565b34610b0d57602080600319360112610b0d576004355f52600a815260405f2090604051905f928054610bb781611f65565b80855290600190818116908115610cb95750600114610c82575b5050610be283610c2e950384611ecb565b6001810154906002810154600382015460048301546005840154600685015491600786015493600887015495600a6009890154980154986040519c8d9c8d610180908181520190611f9d565b9a8c015260408b015260608a0152608089015260a088015260c087015260e08601526101008501526101208401526001600160401b03811661014084015260018060a01b039060401c166101608301520390f35b5f8381528481209096505b828710610ca657505050928201810192610be283610bd1565b8054868801860152958401958101610c8d565b60ff1916858701525050151560051b830182019350610be283610bd1565b34610b0d575f366003190112610b0d576020600554604051908152f35b34610b0d576020366003190112610b0d576004358015158103610b0d57610d196122cf565b15610dd5576005548015610d97575f600581905560085460405163a9059cbb60e01b81523360048201526024810193909352602091839160449183916001600160a01b03165af18015610b0257610d76915f91610d7857506121dd565b005b610d91915060203d6020116104aa5761049c8183611ecb565b82610357565b60405162461bcd60e51b81526020600482015260166024820152754e6f20726576656e756520746f20776974686472617760501b6044820152606490fd5b5f80808047818115610dec575b3390f115610b0257005b506108fc610de2565b34610b0d57602080600319360112610b0d5760043590815f52600a8152600d60405f2001335f5280825260405f205415610edd57335f8181529183526040808320805490849055600854915163a9059cbb60e01b8152600481019390935260248301819052919492849186916044918391906001600160a01b03165af1928315610b0257610ead6060947f24b5efa61dd1cfc659205a97fb8ed868f3cb8c81922bab2b96423e5de1de2cb7965f91610ec057506121dd565b60405192835233908301526040820152a1005b610ed79150833d85116104aa5761049c8183611ecb565b87610357565b60405162461bcd60e51b81526004810183905260126024820152714e6f2072657761726420746f20636c61696d60701b6044820152606490fd5b34610b0d575f366003190112610b0d576040516022602160991b018152602090f35b34610b0d576020366003190112610b0d57610f52611f31565b610f5a6122cf565b600280546001600160a01b0319166001600160a01b0392909216919091179055005b34610b0d575f366003190112610b0d575f80516020612488833981519152546040516001600160a01b039091168152602090f35b34610b0d576020366003190112610b0d57610fc96122cf565b600435600655005b34610b0d576080366003190112610b0d576024356004356044356001600160401b038111610b0d5761100a61107e913690600401611f47565b825f52600a60205261106060405f20936040516102a18161029360208201948a606435913390889290916074949284526bffffffffffffffffffffffff199060601b166020840152603483015260548201520190565b6002546001600160a01b039081169290916102cf916102c691612307565b6002810191825481811061109e5781600361109a9401556120f3565b9055005b60405162461bcd60e51b815260206004820152603860248201527f616d6f756e742073686f756c64206265206c657373207468616e206f7220657160448201527f75616c20746f207269736b20706f6f6c2062616c616e636500000000000000006064820152608490fd5b34610b0d576040366003190112610b0d576020610191602435600435612153565b6040366003190112610b0d576024356111416122cf565b600435600355805f811561116f575b5f80809381933390f115610b025761116a90600754611fe0565b600755005b506108fc611150565b34610b0d575f366003190112610b0d576111906122cf565b604051634aa7d2f760e11b81523060048201523360248201526020816044815f6022602160991b015af18015610b02576111c657005b602090813d83116111e6575b6111dc8183611ecb565b81010312610b0d57005b503d6111d2565b34610b0d576020366003190112610b0d576001600160a01b0361120e611f31565b165f526009602052602060405f2054604051908152f35b34610b0d575f366003190112610b0d5761123d6122cf565b5f8051602061248883398151915280546001600160a01b031981169091555f906001600160a01b03167f8be0079c531659141344cd1fd0a4f28419497f9722a3daafe3b4186f6b6457e08280a3005b34610b0d576040366003190112610b0d5760246001600160401b036004358235828111610b0d5736602382011215610b0d578060040135928311610b0d5760058360051b94808684010192368411610b0d5760405193602094858101903360601b82528760348201526034815261130281611eb0565b5190209160035497611319876040519b018b611ecb565b8952830185808a015b8383106115335750505050935f945b875186101561136e5785841b8801850151908181101561135e575f528452600160405f205b950194611331565b905f528452600160405f20611356565b90868592036114ff57335f526009825260405f2054818110156114a85761139590826120f3565b90816007541061146c576113fb5f9284923385526009845260408520556113be816007546120f3565b60075560085460405163a9059cbb60e01b81523360048201526024810192909252909384926001600160a01b039092169183919082906044820190565b03925af1908115610b02575f9161144f575b501561141557005b60156064926040519262461bcd60e51b8452600484015282015274165a595b19081d1c985b9cd9995c8819985a5b1959605a1b6044820152fd5b6114669150823d84116104aa5761049c8183611ecb565b8361140d565b60405162461bcd60e51b81526004810184905260158186015274139bc8199d5b991cc81a5b881d1a19481d985d5b1d605a1b6044820152606490fd5b60405162461bcd60e51b815260048101849052602a818601527f4e6f2066756e6473206c65667420746f20636c61696d206f7220616c726561646044820152693c9031b630b4b6b2b21760b11b6064820152608490fd5b50600e6064926040519262461bcd60e51b845260048401528201526d24b73b30b634b210383937b7b31760911b6044820152fd5b8235815291810191879101611322565b34610b0d576060366003190112610b0d576044356001600160a01b03811690819003610b0d576004355f52600c60205260405f206024355f5260205260405f20905f52602052602060ff60405f2054166040519015158152f35b34610b0d576020366003190112610b0d576004355f52600a6020526020600260405f200154604051908152f35b34610b0d575f366003190112610b0d576008546040516001600160a01b039091168152602090f35b34610b0d575f366003190112610b0d576020600354604051908152f35b34610b0d575f366003190112610b0d575f54600154604051631711922960e31b81526001600160a01b0391821660048201529160209183916024918391165afa8015610b02576020915f91611671575b506001600160801b0360405191168152f35b6116889150823d84116108795761086b8183611ecb565b8261165f565b34610b0d576060366003190112610b0d57604435602435600435821580158403610b0d57815f52602093600a855260405f2091600c865260405f2060098401545f52865260405f20335f52865260ff60405f2054161561187157819081611863575b8115611848575b501561180357156117b557600c01928354925f1984019384116117a1577fcef8fac05afb87995942422eac900de6af11a555d80d075340af81db492119fe94848260409661174c9403611759575b5050612100565b82519182523390820152a1005b61177361176961179a9385612087565b9190549285612087565b81546001600160a01b03600392831b81811b199092169490921b9490941c1690921b179055565b8680611745565b634e487b7160e01b5f52601160045260245ffd5b600b01928354925f1984019384116117a1577fcef8fac05afb87995942422eac900de6af11a555d80d075340af81db492119fe9484826040966117fe9403611759575050612100565b61174c565b60405162461bcd60e51b815260048101869052601e60248201527f496e76616c696420696e64657820666f72207061727469636970616e747300006044820152606490fd5b905080611856575b866116f7565b50600b8201548410611850565b600c840154861091506116f0565b60405162461bcd60e51b815260048101879052601c60248201527f596f752068617665206e6f74206a6f696e6564207468697320706f74000000006044820152606490fd5b60e0366003190112610b0d576004356001600160401b038111610b0d5736602382011215610b0d576118f2903690602481600401359101611eec565b5f54600154604051631711922960e31b81526001600160a01b0391821660048201529160209183916024918391165afa908115610b02575f91611e64575b506119506119496006546001600160801b038416611fe0565b3414611fed565b60443515611e1f5760643515611dcc5760643560843511611d6b576004546119778161202c565b60049081556008546040516323b872dd60e01b8152339281019290925230602483015260c4356044830152602090829060649082905f906001600160a01b03165af1908115610b02575f91611d4c575b5015611cf5575f80546001546040516393cbf21760e01b81526001600160a01b039182166004820152602480359082015260448101939093529193602092859260649284926001600160801b0390911691165af1918215610b02575f92611cd4575b50805f52600a60205260405f2083516001600160401b038111611cc057611a508254611f65565b601f8111611c85575b506020601f8211600114611c0f5791815f805160206124a88339815191529692611bd1945f91611c04575b508160011b915f199060031b1c19161781555b60c43560018201555f60028201556001600160401b03600a8201951694805486600160401b600160e01b033360401b169163ffffffff60e01b161717905560443560048201556084356006820155606435600782015542600582015560a4356008820155611b11600982019160018355600b3391016120b0565b835f52600c60205260405f2090545f5260205260405f20335f5260205260405f20600160ff198254161790557f37bb26f2981ad94b38afe928452cad1bca628b82f1781d95ec69d53acf5d0d9b60405180611b79610140878352806020840152820185611f9d565b33604083015260c4356060830152604435608083015260843560a083015260643560c083015260a43560e083015261010097888301526024356101208301520390a16040519384938452806020850152830190611f9d565b33604083015260c4356060830152604435608083015260843560a083015260643560c083015260a43560e08301520390a1005b905083015188611a84565b825f5260205f20905f5b601f1984168110611c6d575082611bd194926001925f805160206124a88339815191529995601f19811610611c55575b5050811b018155611a97565b8501515f1960f88460031b161c191690558880611c49565b9091602060018192858b015181550193019101611c19565b611cb090835f5260205f20601f840160051c81019160208510611cb6575b601f0160051c0190612071565b85611a59565b9091508190611ca3565b634e487b7160e01b5f52604160045260245ffd5b611cee91925060203d602011610841576108338183611ecb565b9083611a29565b60405162461bcd60e51b815260206004820152602960248201527f43726561746f722073686f756c64206465706f7369742074686520696e697469604482015268185b08185b5bdd5b9d60ba1b6064820152608490fd5b611d65915060203d6020116104aa5761049c8183611ecb565b846119c7565b60405162461bcd60e51b815260206004820152603360248201527f4e756d657261746f72206d757374206265206c657373207468616e206f72206560448201527238bab0b6103a37903232b737b6b4b730ba37b960691b6064820152608490fd5b60405162461bcd60e51b815260206004820152602560248201527f496e7465726573742064656e6f6d696e61746f72206d75737420626520706f73604482015264697469766560d81b6064820152608490fd5b60405162461bcd60e51b815260206004820152601f60248201527f526f746174696f6e206379636c65206d75737420626520706f736974697665006044820152606490fd5b611e7d915060203d6020116108795761086b8183611ecb565b82611930565b34610b0d575f366003190112610b0d576020906007548152f35b6001600160401b038111611cc057604052565b606081019081106001600160401b03821117611cc057604052565b90601f801991011681019081106001600160401b03821117611cc057604052565b9291926001600160401b038211611cc05760405191611f15601f8201601f191660200184611ecb565b829481845281830111610b0d578281602093845f960137010152565b600435906001600160a01b0382168203610b0d57565b9080601f83011215610b0d57816020611f6293359101611eec565b90565b90600182811c92168015611f93575b6020831014611f7f57565b634e487b7160e01b5f52602260045260245ffd5b91607f1691611f74565b805180835260209291819084018484015e5f828201840152601f01601f1916010190565b90816020910312610b0d57516001600160801b0381168103610b0d5790565b919082018092116117a157565b15611ff457565b60405162461bcd60e51b815260206004820152601060248201526f496e73756666696369656e742066656560801b6044820152606490fd5b5f1981146117a15760010190565b90816020910312610b0d57518015158103610b0d5790565b90816020910312610b0d57516001600160401b0381168103610b0d5790565b81811061207c575050565b5f8155600101612071565b805482101561209c575f5260205f2001905f90565b634e487b7160e01b5f52603260045260245ffd5b90815491600160401b831015611cc057826120d39160016120f195018155612087565b90919060018060a01b038084549260031b9316831b921b1916179055565b565b919082039182116117a157565b8054801561212c575f1901906121168282612087565b81549060018060a01b039060031b1b1916905555565b634e487b7160e01b5f52603160045260245ffd5b818102929181159184041417156117a157565b5f52600a602052600761216f60405f2092600684015490612140565b91015490811561217d570490565b634e487b7160e01b5f52601260045260245ffd5b1561219857565b60405162461bcd60e51b815260206004820152601d60248201527f5369676e617475726520766572696669636174696f6e206661696c65640000006044820152606490fd5b156121e457565b60405162461bcd60e51b815260206004820152600f60248201526e151c985b9cd9995c8819985a5b1959608a1b6044820152606490fd5b6001600160a01b03908116908115612274575f8051602061248883398151915280546001600160a01b031981168417909155167f8be0079c531659141344cd1fd0a4f28419497f9722a3daafe3b4186f6b6457e05f80a3565b604051631e4fbdf760e01b81525f6004820152602490fd5b60405160208101917f19457468657265756d205369676e6564204d6573736167653a0a3332000000008352603c820152603c81526122c981611eb0565b51902090565b5f80516020612488833981519152546001600160a01b031633036122ef57565b60405163118cdaa760e01b8152336004820152602490fd5b8151919060418303612337576123309250602082015190606060408401519301515f1a90612405565b9192909190565b50505f9160029190565b60048110156123b05780612353575050565b6001810361236d5760405163f645eedf60e01b8152600490fd5b6002810361238e5760405163fce698f760e01b815260048101839052602490fd5b6003146123985750565b602490604051906335e2f38360e21b82526004820152fd5b634e487b7160e01b5f52602160045260245ffd5b60ff7ff0c57e16840df040f15088dc2f81fe391c3923bec73e23a9662efc9c229c6a005460401c16156123f357565b604051631afcd79f60e31b8152600490fd5b91907f7fffffffffffffffffffffffffffffff5d576e7357a4501ddfe92f46681b20a0841161247c579160209360809260ff5f9560405194855216868401526040830152606082015282805260015afa15610b02575f516001600160a01b0381161561247257905f905f90565b505f906001905f90565b5050505f916003919056fe9016d09d72d40fdae2fd8ceac6b6234c7706214fd39c1cd1e609a0528c19930043d2f309913f6afc5d717f60864d2d192b69963d25204b6a12765e2795bf027fa2646970667358221220f813019b501b78066a087003e28df5ced9f77b35226b8590ca41c9fcfcbd2eb464736f6c63430008190033",
			"opcodes": "PUSH1 0x80 DUP1 PUSH1 0x40 MSTORE CALLVALUE PUSH1 0x1A JUMPI PUSH1 0x1 PUSH1 0x4 SSTORE PUSH2 0x24FD SWAP1 DUP2 PUSH2 0x1F DUP3 CODECOPY RETURN JUMPDEST PUSH0 DUP1 REVERT INVALID PUSH1 0x80 DUP1 PUSH1 0x40 MSTORE PUSH1 0x4 CALLDATASIZE LT ISZERO PUSH2 0x12 JUMPI PUSH0 DUP1 REVERT JUMPDEST PUSH0 SWAP1 PUSH0 CALLDATALOAD PUSH1 0xE0 SHR SWAP1 DUP2 PUSH4 0x7DD3F44 EQ PUSH2 0x1E83 JUMPI POP DUP1 PUSH4 0xFAE6443 EQ PUSH2 0x18B6 JUMPI DUP1 PUSH4 0x210EAEAE EQ PUSH2 0x168E JUMPI DUP1 PUSH4 0x2D971E63 EQ PUSH2 0x160F JUMPI DUP1 PUSH4 0x2EB4A7AB EQ PUSH2 0x15F2 JUMPI DUP1 PUSH4 0x31A0EDEC EQ PUSH2 0xF17 JUMPI DUP1 PUSH4 0x4A80409E EQ PUSH2 0x15CA JUMPI DUP1 PUSH4 0x4D781B31 EQ PUSH2 0x159D JUMPI DUP1 PUSH4 0x4DA1EC40 EQ PUSH2 0x1543 JUMPI DUP1 PUSH4 0x61E7D805 EQ PUSH2 0x128C JUMPI DUP1 PUSH4 0x715018A6 EQ PUSH2 0x1225 JUMPI DUP1 PUSH4 0x73B2E80E EQ PUSH2 0x11ED JUMPI DUP1 PUSH4 0x77D5D2DC EQ PUSH2 0x1178 JUMPI DUP1 PUSH4 0x7C382D0B EQ PUSH2 0x112A JUMPI DUP1 PUSH4 0x7D77990C EQ PUSH2 0x1109 JUMPI DUP1 PUSH4 0x818C5548 EQ PUSH2 0xFD1 JUMPI DUP1 PUSH4 0x82199E3F EQ PUSH2 0xFB0 JUMPI DUP1 PUSH4 0x8DA5CB5B EQ PUSH2 0xF7C JUMPI DUP1 PUSH4 0x91DC969E EQ PUSH2 0xF39 JUMPI DUP1 PUSH4 0x97D75776 EQ PUSH2 0xF17 JUMPI DUP1 PUSH4 0xAE169A50 EQ PUSH2 0xDF5 JUMPI DUP1 PUSH4 0xB7DB43C8 EQ PUSH2 0xCF4 JUMPI DUP1 PUSH4 0xBF2D9E0B EQ PUSH2 0xCD7 JUMPI DUP1 PUSH4 0xC3C3DF4F EQ PUSH2 0xB86 JUMPI DUP1 PUSH4 0xC4D66DE8 EQ PUSH2 0x8D2 JUMPI DUP1 PUSH4 0xCA829F10 EQ PUSH2 0x5A1 JUMPI DUP1 PUSH4 0xEC71687B EQ PUSH2 0x583 JUMPI DUP1 PUSH4 0xF2FDE38B EQ PUSH2 0x556 JUMPI DUP1 PUSH4 0xF78AEDF9 EQ PUSH2 0x1C5 JUMPI DUP1 PUSH4 0xF851A440 EQ PUSH2 0x19C JUMPI PUSH4 0xFA540801 EQ PUSH2 0x173 JUMPI PUSH0 DUP1 REVERT JUMPDEST CALLVALUE PUSH2 0x199 JUMPI PUSH1 0x20 CALLDATASIZE PUSH1 0x3 NOT ADD SLT PUSH2 0x199 JUMPI PUSH1 0x20 PUSH2 0x191 PUSH1 0x4 CALLDATALOAD PUSH2 0x228C JUMP JUMPDEST PUSH1 0x40 MLOAD SWAP1 DUP2 MSTORE RETURN JUMPDEST DUP1 REVERT JUMPDEST POP CALLVALUE PUSH2 0x199 JUMPI DUP1 PUSH1 0x3 NOT CALLDATASIZE ADD SLT PUSH2 0x199 JUMPI PUSH1 0x2 SLOAD PUSH1 0x40 MLOAD PUSH1 0x1 PUSH1 0x1 PUSH1 0xA0 SHL SUB SWAP1 SWAP2 AND DUP2 MSTORE PUSH1 0x20 SWAP1 RETURN JUMPDEST POP CALLVALUE PUSH2 0x199 JUMPI PUSH1 0x60 CALLDATASIZE PUSH1 0x3 NOT ADD SLT PUSH2 0x199 JUMPI PUSH1 0x4 CALLDATALOAD PUSH1 0x24 CALLDATALOAD PUSH1 0x1 PUSH1 0x1 PUSH1 0x40 SHL SUB DUP2 GT PUSH2 0x552 JUMPI PUSH2 0x1F9 SWAP1 CALLDATASIZE SWAP1 PUSH1 0x4 ADD PUSH2 0x1F47 JUMP JUMPDEST SWAP2 DUP2 DUP2 MSTORE PUSH1 0x20 PUSH1 0xA DUP2 MSTORE PUSH1 0x40 DUP3 KECCAK256 SWAP3 PUSH1 0xB DUP5 ADD SWAP1 DUP2 SLOAD SWAP2 PUSH1 0x8 DUP7 ADD SWAP3 DUP4 SLOAD GT ISZERO PUSH2 0x51F JUMPI DUP2 DUP6 MSTORE PUSH1 0xC DUP5 MSTORE PUSH1 0x40 DUP6 KECCAK256 PUSH1 0x9 DUP8 ADD SLOAD SWAP1 DUP2 DUP8 MSTORE DUP6 MSTORE PUSH1 0x40 DUP7 KECCAK256 CALLER PUSH0 MSTORE DUP6 MSTORE PUSH1 0xFF PUSH1 0x40 PUSH0 KECCAK256 SLOAD AND PUSH2 0x4BC JUMPI PUSH1 0x40 MLOAD DUP6 DUP2 ADD DUP5 DUP2 MSTORE CALLER PUSH1 0x60 SHL PUSH12 0xFFFFFFFFFFFFFFFFFFFFFFFF NOT AND PUSH1 0x20 DUP3 ADD MSTORE PUSH1 0x34 DUP2 ADD DUP4 SWAP1 MSTORE PUSH1 0x44 CALLDATALOAD PUSH1 0x54 DUP3 ADD MSTORE SWAP8 SWAP9 SWAP7 SWAP8 PUSH2 0x2C6 SWAP8 PUSH2 0x2D6 SWAP3 SWAP1 SWAP2 PUSH2 0x2A9 SWAP2 PUSH2 0x2A1 DUP2 PUSH1 0x74 DUP5 ADD JUMPDEST SUB PUSH1 0x1F NOT DUP2 ADD DUP4 MSTORE DUP3 PUSH2 0x1ECB JUMP JUMPDEST MLOAD SWAP1 KECCAK256 PUSH2 0x228C JUMP JUMPDEST PUSH1 0x2 SLOAD PUSH1 0x1 PUSH1 0x1 PUSH1 0xA0 SHL SUB SWAP10 SWAP1 DUP11 AND SWAP3 DUP11 SWAP3 PUSH2 0x2CF SWAP3 SWAP2 SWAP1 PUSH2 0x2307 JUMP JUMPDEST SWAP1 SWAP3 SWAP2 SWAP3 PUSH2 0x2341 JUMP JUMPDEST AND EQ PUSH2 0x2191 JUMP JUMPDEST DUP3 DUP8 MSTORE PUSH1 0xC DUP6 MSTORE PUSH1 0x40 DUP1 DUP9 KECCAK256 SWAP2 DUP9 MSTORE SWAP1 DUP6 MSTORE DUP1 DUP8 KECCAK256 CALLER PUSH0 DUP2 DUP2 MSTORE SWAP2 DUP8 MSTORE SWAP1 DUP3 SWAP1 KECCAK256 DUP1 SLOAD PUSH1 0x1 PUSH1 0xFF NOT SWAP2 DUP3 AND DUP2 OR SWAP1 SWAP3 SSTORE PUSH1 0x8 SLOAD DUP12 DUP4 ADD DUP1 SLOAD SWAP6 MLOAD PUSH4 0x23B872DD PUSH1 0xE0 SHL DUP2 MSTORE PUSH1 0x4 DUP2 ADD SWAP6 SWAP1 SWAP6 MSTORE ADDRESS PUSH1 0x24 DUP7 ADD MSTORE PUSH1 0x44 DUP6 ADD SWAP6 SWAP1 SWAP6 MSTORE SWAP2 SWAP9 SWAP1 SWAP5 SWAP3 SWAP2 DUP9 SWAP2 DUP4 SWAP2 PUSH1 0x64 SWAP2 DUP4 SWAP2 DUP15 SWAP2 AND GAS CALL SWAP1 DUP2 ISZERO PUSH2 0x4B1 JUMPI SWAP1 PUSH2 0x35D SWAP2 DUP11 SWAP2 PUSH2 0x484 JUMPI JUMPDEST POP PUSH2 0x21DD JUMP JUMPDEST CALLER PUSH0 MSTORE PUSH1 0xE DUP10 ADD DUP7 MSTORE PUSH1 0xFF PUSH1 0x40 PUSH0 KECCAK256 SLOAD AND ISZERO PUSH2 0x473 JUMPI JUMPDEST POP SLOAD PUSH1 0x4 DUP9 ADD SLOAD SWAP2 PUSH1 0x6 DUP10 ADD SLOAD SWAP4 PUSH1 0x7 DUP11 ADD SLOAD SWAP6 SLOAD SWAP7 PUSH1 0x40 MLOAD SWAP9 PUSH2 0x100 SWAP3 DUP11 MSTORE DUP3 DUP3 DUP12 ADD MSTORE DUP11 SWAP12 DUP1 SLOAD PUSH2 0x3A6 DUP2 PUSH2 0x1F65 JUMP JUMPDEST DUP1 SWAP6 DUP14 ADD MSTORE PUSH2 0x120 SWAP6 PUSH1 0x1 DUP3 AND SWAP2 DUP3 PUSH0 EQ PUSH2 0x449 JUMPI POP POP PUSH1 0x1 EQ PUSH2 0x402 JUMPI JUMPDEST POP DUP11 PUSH0 DUP1 MLOAD PUSH1 0x20 PUSH2 0x24A8 DUP4 CODECOPY DUP2 MLOAD SWAP2 MSTORE DUP12 DUP1 DUP16 DUP14 DUP14 DUP14 DUP14 DUP14 CALLER PUSH1 0x40 DUP9 ADD MSTORE PUSH1 0x60 DUP8 ADD MSTORE PUSH1 0x80 DUP7 ADD MSTORE PUSH1 0xA0 DUP6 ADD MSTORE PUSH1 0xC0 DUP5 ADD MSTORE PUSH1 0xE0 DUP4 ADD MSTORE SUB SWAP1 LOG1 DUP1 RETURN JUMPDEST SWAP1 SWAP4 SWAP5 SWAP12 POP DUP11 MSTORE DUP1 DUP11 KECCAK256 SWAP3 DUP11 SWAP4 JUMPDEST DUP4 DUP6 LT PUSH2 0x436 JUMPI POP POP POP POP DUP7 ADD ADD SWAP7 DUP2 PUSH0 DUP1 MLOAD PUSH1 0x20 PUSH2 0x24A8 DUP4 CODECOPY DUP2 MLOAD SWAP2 MSTORE DUP8 PUSH0 DUP1 PUSH2 0x3C5 JUMP JUMPDEST DUP1 SLOAD DUP6 DUP13 ADD DUP8 ADD MSTORE SWAP4 DUP3 ADD SWAP4 DUP2 ADD PUSH2 0x410 JUMP JUMPDEST AND DUP7 DUP14 ADD MSTORE POP POP POP POP ISZERO ISZERO PUSH1 0x5 SHL DUP8 ADD ADD SWAP8 POP DUP2 PUSH0 DUP1 MLOAD PUSH1 0x20 PUSH2 0x24A8 DUP4 CODECOPY DUP2 MLOAD SWAP2 MSTORE DUP8 PUSH0 DUP1 PUSH2 0x3C5 JUMP JUMPDEST PUSH2 0x47E SWAP1 CALLER SWAP1 PUSH2 0x20B0 JUMP JUMPDEST PUSH0 PUSH2 0x374 JUMP JUMPDEST PUSH2 0x4A4 SWAP2 POP DUP9 RETURNDATASIZE DUP11 GT PUSH2 0x4AA JUMPI JUMPDEST PUSH2 0x49C DUP2 DUP4 PUSH2 0x1ECB JUMP JUMPDEST DUP2 ADD SWAP1 PUSH2 0x203A JUMP JUMPDEST PUSH0 PUSH2 0x357 JUMP JUMPDEST POP RETURNDATASIZE PUSH2 0x492 JUMP JUMPDEST PUSH1 0x40 MLOAD RETURNDATASIZE DUP12 DUP3 RETURNDATACOPY RETURNDATASIZE SWAP1 REVERT JUMPDEST PUSH1 0x40 MLOAD PUSH3 0x461BCD PUSH1 0xE5 SHL DUP2 MSTORE PUSH1 0x4 DUP2 ADD DUP7 SWAP1 MSTORE PUSH1 0x35 PUSH1 0x24 DUP3 ADD MSTORE PUSH32 0x596F75206861766520616C7265616479206A6F696E6564207468697320706F74 PUSH1 0x44 DUP3 ADD MSTORE PUSH21 0x81A5B881D1A194818DD5C9C995B9D081C9BDD5B99 PUSH1 0x5A SHL PUSH1 0x64 DUP3 ADD MSTORE PUSH1 0x84 SWAP1 REVERT JUMPDEST PUSH1 0x40 MLOAD PUSH3 0x461BCD PUSH1 0xE5 SHL DUP2 MSTORE PUSH1 0x4 DUP2 ADD DUP6 SWAP1 MSTORE PUSH1 0xB PUSH1 0x24 DUP3 ADD MSTORE PUSH11 0x141BDD081A5CC8199D5B1B PUSH1 0xAA SHL PUSH1 0x44 DUP3 ADD MSTORE PUSH1 0x64 SWAP1 REVERT JUMPDEST DUP3 DUP1 REVERT JUMPDEST POP CALLVALUE PUSH2 0x199 JUMPI PUSH1 0x20 CALLDATASIZE PUSH1 0x3 NOT ADD SLT PUSH2 0x199 JUMPI PUSH2 0x580 PUSH2 0x573 PUSH2 0x1F31 JUMP JUMPDEST PUSH2 0x57B PUSH2 0x22CF JUMP JUMPDEST PUSH2 0x221B JUMP JUMPDEST DUP1 RETURN JUMPDEST POP CALLVALUE PUSH2 0x199 JUMPI DUP1 PUSH1 0x3 NOT CALLDATASIZE ADD SLT PUSH2 0x199 JUMPI PUSH1 0x20 PUSH1 0x6 SLOAD PUSH1 0x40 MLOAD SWAP1 DUP2 MSTORE RETURN JUMPDEST POP PUSH1 0x80 CALLDATASIZE PUSH1 0x3 NOT ADD SLT PUSH2 0x199 JUMPI PUSH1 0x4 CALLDATALOAD PUSH1 0x24 CALLDATALOAD DUP2 DUP4 MSTORE PUSH1 0x20 PUSH1 0xA DUP2 MSTORE PUSH1 0x40 DUP5 KECCAK256 SWAP2 PUSH1 0x1 DUP1 PUSH1 0xA0 SHL SUB SWAP4 DUP5 DUP7 SLOAD AND SWAP5 DUP1 PUSH1 0x1 SLOAD AND SWAP2 PUSH1 0xA DUP7 ADD SWAP6 DUP6 PUSH1 0x1 PUSH1 0x1 PUSH1 0x40 SHL SUB SWAP5 PUSH1 0x84 DUP7 DUP11 SLOAD AND SWAP2 DUP13 PUSH1 0x40 MLOAD SWAP13 DUP14 SWAP5 DUP6 SWAP4 PUSH4 0x9371DF51 PUSH1 0xE0 SHL DUP6 MSTORE PUSH1 0x4 DUP6 ADD MSTORE PUSH1 0x24 DUP5 ADD MSTORE PUSH1 0x44 CALLDATALOAD PUSH1 0x44 DUP5 ADD MSTORE PUSH1 0x64 CALLDATALOAD PUSH1 0x64 DUP5 ADD MSTORE GAS CALL SWAP8 DUP9 ISZERO PUSH2 0x4B1 JUMPI DUP10 SWAP9 PUSH2 0x89F JUMPI JUMPDEST POP PUSH1 0xB DUP2 ADD SWAP8 DUP9 SLOAD SWAP1 DUP2 ISZERO PUSH2 0x88B JUMPI PUSH2 0x646 DUP12 SWAP4 SWAP3 DUP7 SWAP3 MOD DUP12 PUSH2 0x2087 JUMP JUMPDEST SWAP1 SLOAD SWAP1 PUSH1 0x3 SHL SHR AND SWAP6 PUSH2 0x65C DUP8 PUSH1 0xC DUP5 ADD PUSH2 0x20B0 JUMP JUMPDEST DUP3 PUSH2 0x66D DUP12 SLOAD PUSH1 0x1 DUP6 ADD SLOAD SWAP1 PUSH2 0x2140 JUMP JUMPDEST SWAP3 PUSH2 0x688 PUSH2 0x67F PUSH1 0x64 DUP7 DIV DUP1 SWAP7 PUSH2 0x20F3 JUMP JUMPDEST SWAP5 PUSH1 0x5 SLOAD PUSH2 0x1FE0 JUMP JUMPDEST PUSH1 0x5 SSTORE PUSH2 0x695 DUP5 DUP8 PUSH2 0x2153 JUMP JUMPDEST SWAP5 DUP6 SWAP5 PUSH2 0x6B2 PUSH1 0x3 DUP5 ADD SWAP2 PUSH2 0x6AD DUP4 SLOAD SWAP9 DUP10 SWAP3 PUSH2 0x20F3 JUMP JUMPDEST PUSH2 0x1FE0 JUMP JUMPDEST SWAP7 DUP12 PUSH0 MSTORE PUSH1 0xD DUP5 ADD DUP14 MSTORE DUP8 PUSH1 0x40 PUSH0 KECCAK256 SSTORE PUSH2 0x6D1 PUSH1 0x2 DUP6 ADD SWAP2 DUP3 SLOAD PUSH2 0x1FE0 JUMP JUMPDEST SWAP1 SSTORE SSTORE DUP9 PUSH0 MSTORE PUSH1 0xE DUP2 ADD DUP11 MSTORE PUSH1 0x40 PUSH0 KECCAK256 PUSH1 0x1 PUSH1 0xFF NOT DUP3 SLOAD AND OR SWAP1 SSTORE TIMESTAMP PUSH1 0x5 DUP3 ADD SSTORE DUP7 DUP3 SLOAD AND SWAP7 PUSH1 0x1 SLOAD AND SWAP7 PUSH1 0x40 MLOAD SWAP1 PUSH4 0x17119229 PUSH1 0xE3 SHL DUP3 MSTORE DUP9 PUSH1 0x4 DUP4 ADD MSTORE DUP12 DUP3 PUSH1 0x24 DUP2 DUP5 GAS STATICCALL DUP1 ISZERO PUSH2 0x880 JUMPI PUSH1 0x1 PUSH1 0x1 PUSH1 0x80 SHL SUB PUSH1 0x64 SWAP2 DUP15 SWAP5 DUP8 SWAP2 PUSH2 0x853 JUMPI JUMPDEST POP AND SWAP10 PUSH2 0x740 DUP12 CALLVALUE EQ PUSH2 0x1FED JUMP JUMPDEST PUSH1 0x40 MLOAD SWAP11 DUP12 SWAP4 DUP5 SWAP3 PUSH4 0x93CBF217 PUSH1 0xE0 SHL DUP5 MSTORE PUSH1 0x4 DUP5 ADD MSTORE DUP9 PUSH1 0x24 DUP5 ADD MSTORE DUP8 PUSH1 0x44 DUP5 ADD MSTORE GAS CALL SWAP8 DUP9 ISZERO PUSH2 0x848 JUMPI PUSH32 0x9EF3FBD1495A53D36401C5153BE21A35A6214297031B5E106B12307835851D2F SWAP9 PUSH1 0xE0 SWAP9 PUSH1 0x9 SWAP5 SWAP2 PUSH2 0x81B JUMPI JUMPDEST POP AND SWAP11 DUP12 PUSH1 0x1 PUSH1 0x1 PUSH1 0x40 SHL SUB NOT DUP3 SLOAD AND OR SWAP1 SSTORE ADD SWAP9 DUP10 SLOAD SWAP8 PUSH1 0x40 MLOAD SWAP6 DUP7 MSTORE DUP10 DUP7 ADD MSTORE DUP8 PUSH1 0x40 DUP7 ADD MSTORE PUSH1 0x60 DUP6 ADD MSTORE PUSH1 0x80 DUP5 ADD MSTORE PUSH1 0xA0 DUP4 ADD MSTORE PUSH1 0xC0 DUP3 ADD MSTORE LOG1 DUP4 SLOAD SWAP3 DUP4 ISZERO ISZERO SWAP2 DUP3 PUSH2 0x809 JUMPI JUMPDEST POP POP DUP5 DUP5 SSTORE PUSH2 0x7F1 JUMPI DUP4 DUP1 RETURN JUMPDEST PUSH2 0x802 SWAP3 DUP5 MSTORE DUP4 KECCAK256 SWAP1 DUP2 ADD SWAP1 PUSH2 0x2071 JUMP JUMPDEST PUSH0 DUP1 DUP1 DUP4 DUP1 RETURN JUMPDEST PUSH2 0x812 SWAP1 PUSH2 0x202C JUMP JUMPDEST SWAP1 SSTORE PUSH0 DUP1 PUSH2 0x7E4 JUMP JUMPDEST PUSH2 0x83B SWAP2 POP DUP13 DUP14 RETURNDATASIZE LT PUSH2 0x841 JUMPI JUMPDEST PUSH2 0x833 DUP2 DUP4 PUSH2 0x1ECB JUMP JUMPDEST DUP2 ADD SWAP1 PUSH2 0x2052 JUMP JUMPDEST PUSH0 PUSH2 0x79A JUMP JUMPDEST POP RETURNDATASIZE PUSH2 0x829 JUMP JUMPDEST PUSH1 0x40 MLOAD RETURNDATASIZE DUP5 DUP3 RETURNDATACOPY RETURNDATASIZE SWAP1 REVERT JUMPDEST PUSH2 0x873 SWAP2 POP DUP6 RETURNDATASIZE DUP8 GT PUSH2 0x879 JUMPI JUMPDEST PUSH2 0x86B DUP2 DUP4 PUSH2 0x1ECB JUMP JUMPDEST DUP2 ADD SWAP1 PUSH2 0x1FC1 JUMP JUMPDEST PUSH0 PUSH2 0x732 JUMP JUMPDEST POP RETURNDATASIZE PUSH2 0x861 JUMP JUMPDEST PUSH1 0x40 MLOAD RETURNDATASIZE DUP7 DUP3 RETURNDATACOPY RETURNDATASIZE SWAP1 REVERT JUMPDEST PUSH4 0x4E487B71 PUSH1 0xE0 SHL DUP12 MSTORE PUSH1 0x12 PUSH1 0x4 MSTORE PUSH1 0x24 DUP12 REVERT JUMPDEST SWAP1 SWAP8 POP DUP6 DUP2 DUP2 RETURNDATASIZE DUP4 GT PUSH2 0x8CB JUMPI JUMPDEST PUSH2 0x8B7 DUP2 DUP4 PUSH2 0x1ECB JUMP JUMPDEST DUP2 ADD SUB SLT PUSH2 0x8C7 JUMPI MLOAD SWAP7 PUSH0 PUSH2 0x628 JUMP JUMPDEST DUP9 DUP1 REVERT JUMPDEST POP RETURNDATASIZE PUSH2 0x8AD JUMP JUMPDEST POP CALLVALUE PUSH2 0xB0D JUMPI PUSH1 0x20 DUP1 PUSH1 0x3 NOT CALLDATASIZE ADD SLT PUSH2 0xB0D JUMPI PUSH2 0x8ED PUSH2 0x1F31 JUMP JUMPDEST SWAP1 PUSH32 0xF0C57E16840DF040F15088DC2F81FE391C3923BEC73E23A9662EFC9C229C6A00 SWAP2 DUP3 SLOAD SWAP1 PUSH1 0xFF DUP3 PUSH1 0x40 SHR AND ISZERO SWAP2 PUSH1 0x1 PUSH1 0x1 PUSH1 0x40 SHL SUB DUP2 AND DUP1 ISZERO SWAP1 DUP2 PUSH2 0xB7E JUMPI JUMPDEST PUSH1 0x1 EQ SWAP1 DUP2 PUSH2 0xB74 JUMPI JUMPDEST ISZERO SWAP1 DUP2 PUSH2 0xB6B JUMPI JUMPDEST POP PUSH2 0xB59 JUMPI PUSH8 0xFFFFFFFFFFFFFFFF NOT DUP2 AND PUSH1 0x1 OR DUP6 SSTORE DUP3 PUSH2 0xB3A JUMPI JUMPDEST POP PUSH2 0x966 PUSH2 0x23C4 JUMP JUMPDEST PUSH2 0x96E PUSH2 0x23C4 JUMP JUMPDEST PUSH2 0x977 CALLER PUSH2 0x221B JUMP JUMPDEST PUSH1 0x40 MLOAD PUSH4 0x1A33757D PUSH1 0xE0 SHL DUP2 MSTORE PUSH1 0x2 PUSH1 0x4 DUP3 ADD MSTORE PUSH1 0x22 PUSH1 0x21 PUSH1 0x99 SHL ADD SWAP1 DUP5 DUP2 PUSH1 0x24 DUP2 PUSH0 DUP7 GAS CALL SWAP1 DUP2 ISZERO PUSH2 0xB02 JUMPI DUP6 SWAP2 PUSH2 0xB11 JUMPI JUMPDEST POP POP PUSH12 0xFFFFFFFFFFFFFFFFFFFFFFFF PUSH1 0xA0 SHL SWAP1 DUP1 DUP3 PUSH1 0x8 SLOAD AND OR PUSH1 0x8 SSTORE DUP1 EXTCODESIZE ISZERO PUSH2 0xB0D JUMPI PUSH0 DUP1 SWAP2 PUSH1 0x4 PUSH1 0x40 MLOAD DUP1 SWAP5 DUP2 SWAP4 PUSH4 0x4E606C47 PUSH1 0xE0 SHL DUP4 MSTORE GAS CALL DUP1 ISZERO PUSH2 0xB02 JUMPI PUSH2 0xAEF JUMPI JUMPDEST POP PUSH20 0x2FC95838C71E76EC69FF817983BFF17C710F34E0 SWAP2 DUP3 EXTCODESIZE ISZERO PUSH2 0xAEB JUMPI DUP7 PUSH1 0x40 MLOAD PUSH4 0x36B91F2B PUSH1 0xE0 SHL DUP2 MSTORE DUP2 DUP2 PUSH1 0x24 DUP2 DUP4 PUSH20 0xE4860D3973802C7C42450D7B9741921C7711D039 SWAP10 DUP11 PUSH1 0x4 DUP5 ADD MSTORE GAS CALL DUP1 ISZERO PUSH2 0x848 JUMPI PUSH2 0xAD7 JUMPI JUMPDEST POP POP PUSH1 0x1 DUP1 PUSH1 0xA0 SHL SUB AND DUP2 DUP8 SLOAD AND OR DUP7 SSTORE PUSH20 0x6CC14824EA2918F5DE5C2F75A9DA968AD4BD6344 DUP2 PUSH1 0x1 SLOAD AND OR PUSH1 0x1 SSTORE PUSH1 0x2 SLOAD AND OR PUSH1 0x2 SSTORE PUSH7 0x38D7EA4C68000 PUSH1 0x6 SSTORE PUSH2 0xA97 JUMPI DUP3 DUP1 RETURN JUMPDEST PUSH32 0xC7F505B2F371AE2175EE4913F4499E1F2633A7B5936321EED1CDAEB6115181D2 SWAP2 PUSH9 0xFF0000000000000000 NOT DUP2 SLOAD AND SWAP1 SSTORE PUSH1 0x40 MLOAD PUSH1 0x1 DUP2 MSTORE LOG1 PUSH0 DUP1 DUP3 DUP1 RETURN JUMPDEST PUSH2 0xAE0 SWAP1 PUSH2 0x1E9D JUMP JUMPDEST PUSH2 0xAEB JUMPI DUP7 PUSH0 PUSH2 0xA4D JUMP JUMPDEST DUP7 DUP1 REVERT JUMPDEST PUSH2 0xAFA SWAP2 SWAP7 POP PUSH2 0x1E9D JUMP JUMPDEST PUSH0 SWAP5 PUSH0 PUSH2 0x9F2 JUMP JUMPDEST PUSH1 0x40 MLOAD RETURNDATASIZE PUSH0 DUP3 RETURNDATACOPY RETURNDATASIZE SWAP1 REVERT JUMPDEST PUSH0 DUP1 REVERT JUMPDEST DUP2 RETURNDATASIZE DUP4 GT PUSH2 0xB33 JUMPI JUMPDEST PUSH2 0xB24 DUP2 DUP4 PUSH2 0x1ECB JUMP JUMPDEST DUP2 ADD SUB SLT PUSH2 0xB0D JUMPI DUP4 PUSH0 PUSH2 0x9AB JUMP JUMPDEST POP RETURNDATASIZE PUSH2 0xB1A JUMP JUMPDEST PUSH9 0xFFFFFFFFFFFFFFFFFF NOT AND PUSH9 0x10000000000000001 OR DUP5 SSTORE PUSH0 PUSH2 0x95D JUMP JUMPDEST PUSH1 0x40 MLOAD PUSH4 0xF92EE8A9 PUSH1 0xE0 SHL DUP2 MSTORE PUSH1 0x4 SWAP1 REVERT JUMPDEST SWAP1 POP ISZERO PUSH0 PUSH2 0x941 JUMP JUMPDEST ADDRESS EXTCODESIZE ISZERO SWAP2 POP PUSH2 0x939 JUMP JUMPDEST DUP5 SWAP2 POP PUSH2 0x92F JUMP JUMPDEST CALLVALUE PUSH2 0xB0D JUMPI PUSH1 0x20 DUP1 PUSH1 0x3 NOT CALLDATASIZE ADD SLT PUSH2 0xB0D JUMPI PUSH1 0x4 CALLDATALOAD PUSH0 MSTORE PUSH1 0xA DUP2 MSTORE PUSH1 0x40 PUSH0 KECCAK256 SWAP1 PUSH1 0x40 MLOAD SWAP1 PUSH0 SWAP3 DUP1 SLOAD PUSH2 0xBB7 DUP2 PUSH2 0x1F65 JUMP JUMPDEST DUP1 DUP6 MSTORE SWAP1 PUSH1 0x1 SWAP1 DUP2 DUP2 AND SWAP1 DUP2 ISZERO PUSH2 0xCB9 JUMPI POP PUSH1 0x1 EQ PUSH2 0xC82 JUMPI JUMPDEST POP POP PUSH2 0xBE2 DUP4 PUSH2 0xC2E SWAP6 SUB DUP5 PUSH2 0x1ECB JUMP JUMPDEST PUSH1 0x1 DUP2 ADD SLOAD SWAP1 PUSH1 0x2 DUP2 ADD SLOAD PUSH1 0x3 DUP3 ADD SLOAD PUSH1 0x4 DUP4 ADD SLOAD PUSH1 0x5 DUP5 ADD SLOAD PUSH1 0x6 DUP6 ADD SLOAD SWAP2 PUSH1 0x7 DUP7 ADD SLOAD SWAP4 PUSH1 0x8 DUP8 ADD SLOAD SWAP6 PUSH1 0xA PUSH1 0x9 DUP10 ADD SLOAD SWAP9 ADD SLOAD SWAP9 PUSH1 0x40 MLOAD SWAP13 DUP14 SWAP13 DUP14 PUSH2 0x180 SWAP1 DUP2 DUP2 MSTORE ADD SWAP1 PUSH2 0x1F9D JUMP JUMPDEST SWAP11 DUP13 ADD MSTORE PUSH1 0x40 DUP12 ADD MSTORE PUSH1 0x60 DUP11 ADD MSTORE PUSH1 0x80 DUP10 ADD MSTORE PUSH1 0xA0 DUP9 ADD MSTORE PUSH1 0xC0 DUP8 ADD MSTORE PUSH1 0xE0 DUP7 ADD MSTORE PUSH2 0x100 DUP6 ADD MSTORE PUSH2 0x120 DUP5 ADD MSTORE PUSH1 0x1 PUSH1 0x1 PUSH1 0x40 SHL SUB DUP2 AND PUSH2 0x140 DUP5 ADD MSTORE PUSH1 0x1 DUP1 PUSH1 0xA0 SHL SUB SWAP1 PUSH1 0x40 SHR AND PUSH2 0x160 DUP4 ADD MSTORE SUB SWAP1 RETURN JUMPDEST PUSH0 DUP4 DUP2 MSTORE DUP5 DUP2 KECCAK256 SWAP1 SWAP7 POP JUMPDEST DUP3 DUP8 LT PUSH2 0xCA6 JUMPI POP POP POP SWAP3 DUP3 ADD DUP2 ADD SWAP3 PUSH2 0xBE2 DUP4 PUSH2 0xBD1 JUMP JUMPDEST DUP1 SLOAD DUP7 DUP9 ADD DUP7 ADD MSTORE SWAP6 DUP5 ADD SWAP6 DUP2 ADD PUSH2 0xC8D JUMP JUMPDEST PUSH1 0xFF NOT AND DUP6 DUP8 ADD MSTORE POP POP ISZERO ISZERO PUSH1 0x5 SHL DUP4 ADD DUP3 ADD SWAP4 POP PUSH2 0xBE2 DUP4 PUSH2 0xBD1 JUMP JUMPDEST CALLVALUE PUSH2 0xB0D JUMPI PUSH0 CALLDATASIZE PUSH1 0x3 NOT ADD SLT PUSH2 0xB0D JUMPI PUSH1 0x20 PUSH1 0x5 SLOAD PUSH1 0x40 MLOAD SWAP1 DUP2 MSTORE RETURN JUMPDEST CALLVALUE PUSH2 0xB0D JUMPI PUSH1 0x20 CALLDATASIZE PUSH1 0x3 NOT ADD SLT PUSH2 0xB0D JUMPI PUSH1 0x4 CALLDATALOAD DUP1 ISZERO ISZERO DUP2 SUB PUSH2 0xB0D JUMPI PUSH2 0xD19 PUSH2 0x22CF JUMP JUMPDEST ISZERO PUSH2 0xDD5 JUMPI PUSH1 0x5 SLOAD DUP1 ISZERO PUSH2 0xD97 JUMPI PUSH0 PUSH1 0x5 DUP2 SWAP1 SSTORE PUSH1 0x8 SLOAD PUSH1 0x40 MLOAD PUSH4 0xA9059CBB PUSH1 0xE0 SHL DUP2 MSTORE CALLER PUSH1 0x4 DUP3 ADD MSTORE PUSH1 0x24 DUP2 ADD SWAP4 SWAP1 SWAP4 MSTORE PUSH1 0x20 SWAP2 DUP4 SWAP2 PUSH1 0x44 SWAP2 DUP4 SWAP2 PUSH1 0x1 PUSH1 0x1 PUSH1 0xA0 SHL SUB AND GAS CALL DUP1 ISZERO PUSH2 0xB02 JUMPI PUSH2 0xD76 SWAP2 PUSH0 SWAP2 PUSH2 0xD78 JUMPI POP PUSH2 0x21DD JUMP JUMPDEST STOP JUMPDEST PUSH2 0xD91 SWAP2 POP PUSH1 0x20 RETURNDATASIZE PUSH1 0x20 GT PUSH2 0x4AA JUMPI PUSH2 0x49C DUP2 DUP4 PUSH2 0x1ECB JUMP JUMPDEST DUP3 PUSH2 0x357 JUMP JUMPDEST PUSH1 0x40 MLOAD PUSH3 0x461BCD PUSH1 0xE5 SHL DUP2 MSTORE PUSH1 0x20 PUSH1 0x4 DUP3 ADD MSTORE PUSH1 0x16 PUSH1 0x24 DUP3 ADD MSTORE PUSH22 0x4E6F20726576656E756520746F207769746864726177 PUSH1 0x50 SHL PUSH1 0x44 DUP3 ADD MSTORE PUSH1 0x64 SWAP1 REVERT JUMPDEST PUSH0 DUP1 DUP1 DUP1 SELFBALANCE DUP2 DUP2 ISZERO PUSH2 0xDEC JUMPI JUMPDEST CALLER SWAP1 CALL ISZERO PUSH2 0xB02 JUMPI STOP JUMPDEST POP PUSH2 0x8FC PUSH2 0xDE2 JUMP JUMPDEST CALLVALUE PUSH2 0xB0D JUMPI PUSH1 0x20 DUP1 PUSH1 0x3 NOT CALLDATASIZE ADD SLT PUSH2 0xB0D JUMPI PUSH1 0x4 CALLDATALOAD SWAP1 DUP2 PUSH0 MSTORE PUSH1 0xA DUP2 MSTORE PUSH1 0xD PUSH1 0x40 PUSH0 KECCAK256 ADD CALLER PUSH0 MSTORE DUP1 DUP3 MSTORE PUSH1 0x40 PUSH0 KECCAK256 SLOAD ISZERO PUSH2 0xEDD JUMPI CALLER PUSH0 DUP2 DUP2 MSTORE SWAP2 DUP4 MSTORE PUSH1 0x40 DUP1 DUP4 KECCAK256 DUP1 SLOAD SWAP1 DUP5 SWAP1 SSTORE PUSH1 0x8 SLOAD SWAP2 MLOAD PUSH4 0xA9059CBB PUSH1 0xE0 SHL DUP2 MSTORE PUSH1 0x4 DUP2 ADD SWAP4 SWAP1 SWAP4 MSTORE PUSH1 0x24 DUP4 ADD DUP2 SWAP1 MSTORE SWAP2 SWAP5 SWAP3 DUP5 SWAP2 DUP7 SWAP2 PUSH1 0x44 SWAP2 DUP4 SWAP2 SWAP1 PUSH1 0x1 PUSH1 0x1 PUSH1 0xA0 SHL SUB AND GAS CALL SWAP3 DUP4 ISZERO PUSH2 0xB02 JUMPI PUSH2 0xEAD PUSH1 0x60 SWAP5 PUSH32 0x24B5EFA61DD1CFC659205A97FB8ED868F3CB8C81922BAB2B96423E5DE1DE2CB7 SWAP7 PUSH0 SWAP2 PUSH2 0xEC0 JUMPI POP PUSH2 0x21DD JUMP JUMPDEST PUSH1 0x40 MLOAD SWAP3 DUP4 MSTORE CALLER SWAP1 DUP4 ADD MSTORE PUSH1 0x40 DUP3 ADD MSTORE LOG1 STOP JUMPDEST PUSH2 0xED7 SWAP2 POP DUP4 RETURNDATASIZE DUP6 GT PUSH2 0x4AA JUMPI PUSH2 0x49C DUP2 DUP4 PUSH2 0x1ECB JUMP JUMPDEST DUP8 PUSH2 0x357 JUMP JUMPDEST PUSH1 0x40 MLOAD PUSH3 0x461BCD PUSH1 0xE5 SHL DUP2 MSTORE PUSH1 0x4 DUP2 ADD DUP4 SWAP1 MSTORE PUSH1 0x12 PUSH1 0x24 DUP3 ADD MSTORE PUSH18 0x4E6F2072657761726420746F20636C61696D PUSH1 0x70 SHL PUSH1 0x44 DUP3 ADD MSTORE PUSH1 0x64 SWAP1 REVERT JUMPDEST CALLVALUE PUSH2 0xB0D JUMPI PUSH0 CALLDATASIZE PUSH1 0x3 NOT ADD SLT PUSH2 0xB0D JUMPI PUSH1 0x40 MLOAD PUSH1 0x22 PUSH1 0x21 PUSH1 0x99 SHL ADD DUP2 MSTORE PUSH1 0x20 SWAP1 RETURN JUMPDEST CALLVALUE PUSH2 0xB0D JUMPI PUSH1 0x20 CALLDATASIZE PUSH1 0x3 NOT ADD SLT PUSH2 0xB0D JUMPI PUSH2 0xF52 PUSH2 0x1F31 JUMP JUMPDEST PUSH2 0xF5A PUSH2 0x22CF JUMP JUMPDEST PUSH1 0x2 DUP1 SLOAD PUSH1 0x1 PUSH1 0x1 PUSH1 0xA0 SHL SUB NOT AND PUSH1 0x1 PUSH1 0x1 PUSH1 0xA0 SHL SUB SWAP3 SWAP1 SWAP3 AND SWAP2 SWAP1 SWAP2 OR SWAP1 SSTORE STOP JUMPDEST CALLVALUE PUSH2 0xB0D JUMPI PUSH0 CALLDATASIZE PUSH1 0x3 NOT ADD SLT PUSH2 0xB0D JUMPI PUSH0 DUP1 MLOAD PUSH1 0x20 PUSH2 0x2488 DUP4 CODECOPY DUP2 MLOAD SWAP2 MSTORE SLOAD PUSH1 0x40 MLOAD PUSH1 0x1 PUSH1 0x1 PUSH1 0xA0 SHL SUB SWAP1 SWAP2 AND DUP2 MSTORE PUSH1 0x20 SWAP1 RETURN JUMPDEST CALLVALUE PUSH2 0xB0D JUMPI PUSH1 0x20 CALLDATASIZE PUSH1 0x3 NOT ADD SLT PUSH2 0xB0D JUMPI PUSH2 0xFC9 PUSH2 0x22CF JUMP JUMPDEST PUSH1 0x4 CALLDATALOAD PUSH1 0x6 SSTORE STOP JUMPDEST CALLVALUE PUSH2 0xB0D JUMPI PUSH1 0x80 CALLDATASIZE PUSH1 0x3 NOT ADD SLT PUSH2 0xB0D JUMPI PUSH1 0x24 CALLDATALOAD PUSH1 0x4 CALLDATALOAD PUSH1 0x44 CALLDATALOAD PUSH1 0x1 PUSH1 0x1 PUSH1 0x40 SHL SUB DUP2 GT PUSH2 0xB0D JUMPI PUSH2 0x100A PUSH2 0x107E SWAP2 CALLDATASIZE SWAP1 PUSH1 0x4 ADD PUSH2 0x1F47 JUMP JUMPDEST DUP3 PUSH0 MSTORE PUSH1 0xA PUSH1 0x20 MSTORE PUSH2 0x1060 PUSH1 0x40 PUSH0 KECCAK256 SWAP4 PUSH1 0x40 MLOAD PUSH2 0x2A1 DUP2 PUSH2 0x293 PUSH1 0x20 DUP3 ADD SWAP5 DUP11 PUSH1 0x64 CALLDATALOAD SWAP2 CALLER SWAP1 DUP9 SWAP3 SWAP1 SWAP2 PUSH1 0x74 SWAP5 SWAP3 DUP5 MSTORE PUSH12 0xFFFFFFFFFFFFFFFFFFFFFFFF NOT SWAP1 PUSH1 0x60 SHL AND PUSH1 0x20 DUP5 ADD MSTORE PUSH1 0x34 DUP4 ADD MSTORE PUSH1 0x54 DUP3 ADD MSTORE ADD SWAP1 JUMP JUMPDEST PUSH1 0x2 SLOAD PUSH1 0x1 PUSH1 0x1 PUSH1 0xA0 SHL SUB SWAP1 DUP2 AND SWAP3 SWAP1 SWAP2 PUSH2 0x2CF SWAP2 PUSH2 0x2C6 SWAP2 PUSH2 0x2307 JUMP JUMPDEST PUSH1 0x2 DUP2 ADD SWAP2 DUP3 SLOAD DUP2 DUP2 LT PUSH2 0x109E JUMPI DUP2 PUSH1 0x3 PUSH2 0x109A SWAP5 ADD SSTORE PUSH2 0x20F3 JUMP JUMPDEST SWAP1 SSTORE STOP JUMPDEST PUSH1 0x40 MLOAD PUSH3 0x461BCD PUSH1 0xE5 SHL DUP2 MSTORE PUSH1 0x20 PUSH1 0x4 DUP3 ADD MSTORE PUSH1 0x38 PUSH1 0x24 DUP3 ADD MSTORE PUSH32 0x616D6F756E742073686F756C64206265206C657373207468616E206F72206571 PUSH1 0x44 DUP3 ADD MSTORE PUSH32 0x75616C20746F207269736B20706F6F6C2062616C616E63650000000000000000 PUSH1 0x64 DUP3 ADD MSTORE PUSH1 0x84 SWAP1 REVERT JUMPDEST CALLVALUE PUSH2 0xB0D JUMPI PUSH1 0x40 CALLDATASIZE PUSH1 0x3 NOT ADD SLT PUSH2 0xB0D JUMPI PUSH1 0x20 PUSH2 0x191 PUSH1 0x24 CALLDATALOAD PUSH1 0x4 CALLDATALOAD PUSH2 0x2153 JUMP JUMPDEST PUSH1 0x40 CALLDATASIZE PUSH1 0x3 NOT ADD SLT PUSH2 0xB0D JUMPI PUSH1 0x24 CALLDATALOAD PUSH2 0x1141 PUSH2 0x22CF JUMP JUMPDEST PUSH1 0x4 CALLDATALOAD PUSH1 0x3 SSTORE DUP1 PUSH0 DUP2 ISZERO PUSH2 0x116F JUMPI JUMPDEST PUSH0 DUP1 DUP1 SWAP4 DUP2 SWAP4 CALLER SWAP1 CALL ISZERO PUSH2 0xB02 JUMPI PUSH2 0x116A SWAP1 PUSH1 0x7 SLOAD PUSH2 0x1FE0 JUMP JUMPDEST PUSH1 0x7 SSTORE STOP JUMPDEST POP PUSH2 0x8FC PUSH2 0x1150 JUMP JUMPDEST CALLVALUE PUSH2 0xB0D JUMPI PUSH0 CALLDATASIZE PUSH1 0x3 NOT ADD SLT PUSH2 0xB0D JUMPI PUSH2 0x1190 PUSH2 0x22CF JUMP JUMPDEST PUSH1 0x40 MLOAD PUSH4 0x4AA7D2F7 PUSH1 0xE1 SHL DUP2 MSTORE ADDRESS PUSH1 0x4 DUP3 ADD MSTORE CALLER PUSH1 0x24 DUP3 ADD MSTORE PUSH1 0x20 DUP2 PUSH1 0x44 DUP2 PUSH0 PUSH1 0x22 PUSH1 0x21 PUSH1 0x99 SHL ADD GAS CALL DUP1 ISZERO PUSH2 0xB02 JUMPI PUSH2 0x11C6 JUMPI STOP JUMPDEST PUSH1 0x20 SWAP1 DUP2 RETURNDATASIZE DUP4 GT PUSH2 0x11E6 JUMPI JUMPDEST PUSH2 0x11DC DUP2 DUP4 PUSH2 0x1ECB JUMP JUMPDEST DUP2 ADD SUB SLT PUSH2 0xB0D JUMPI STOP JUMPDEST POP RETURNDATASIZE PUSH2 0x11D2 JUMP JUMPDEST CALLVALUE PUSH2 0xB0D JUMPI PUSH1 0x20 CALLDATASIZE PUSH1 0x3 NOT ADD SLT PUSH2 0xB0D JUMPI PUSH1 0x1 PUSH1 0x1 PUSH1 0xA0 SHL SUB PUSH2 0x120E PUSH2 0x1F31 JUMP JUMPDEST AND PUSH0 MSTORE PUSH1 0x9 PUSH1 0x20 MSTORE PUSH1 0x20 PUSH1 0x40 PUSH0 KECCAK256 SLOAD PUSH1 0x40 MLOAD SWAP1 DUP2 MSTORE RETURN JUMPDEST CALLVALUE PUSH2 0xB0D JUMPI PUSH0 CALLDATASIZE PUSH1 0x3 NOT ADD SLT PUSH2 0xB0D JUMPI PUSH2 0x123D PUSH2 0x22CF JUMP JUMPDEST PUSH0 DUP1 MLOAD PUSH1 0x20 PUSH2 0x2488 DUP4 CODECOPY DUP2 MLOAD SWAP2 MSTORE DUP1 SLOAD PUSH1 0x1 PUSH1 0x1 PUSH1 0xA0 SHL SUB NOT DUP2 AND SWAP1 SWAP2 SSTORE PUSH0 SWAP1 PUSH1 0x1 PUSH1 0x1 PUSH1 0xA0 SHL SUB AND PUSH32 0x8BE0079C531659141344CD1FD0A4F28419497F9722A3DAAFE3B4186F6B6457E0 DUP3 DUP1 LOG3 STOP JUMPDEST CALLVALUE PUSH2 0xB0D JUMPI PUSH1 0x40 CALLDATASIZE PUSH1 0x3 NOT ADD SLT PUSH2 0xB0D JUMPI PUSH1 0x24 PUSH1 0x1 PUSH1 0x1 PUSH1 0x40 SHL SUB PUSH1 0x4 CALLDATALOAD DUP3 CALLDATALOAD DUP3 DUP2 GT PUSH2 0xB0D JUMPI CALLDATASIZE PUSH1 0x23 DUP3 ADD SLT ISZERO PUSH2 0xB0D JUMPI DUP1 PUSH1 0x4 ADD CALLDATALOAD SWAP3 DUP4 GT PUSH2 0xB0D JUMPI PUSH1 0x5 DUP4 PUSH1 0x5 SHL SWAP5 DUP1 DUP7 DUP5 ADD ADD SWAP3 CALLDATASIZE DUP5 GT PUSH2 0xB0D JUMPI PUSH1 0x40 MLOAD SWAP4 PUSH1 0x20 SWAP5 DUP6 DUP2 ADD SWAP1 CALLER PUSH1 0x60 SHL DUP3 MSTORE DUP8 PUSH1 0x34 DUP3 ADD MSTORE PUSH1 0x34 DUP2 MSTORE PUSH2 0x1302 DUP2 PUSH2 0x1EB0 JUMP JUMPDEST MLOAD SWAP1 KECCAK256 SWAP2 PUSH1 0x3 SLOAD SWAP8 PUSH2 0x1319 DUP8 PUSH1 0x40 MLOAD SWAP12 ADD DUP12 PUSH2 0x1ECB JUMP JUMPDEST DUP10 MSTORE DUP4 ADD DUP6 DUP1 DUP11 ADD JUMPDEST DUP4 DUP4 LT PUSH2 0x1533 JUMPI POP POP POP POP SWAP4 PUSH0 SWAP5 JUMPDEST DUP8 MLOAD DUP7 LT ISZERO PUSH2 0x136E JUMPI DUP6 DUP5 SHL DUP9 ADD DUP6 ADD MLOAD SWAP1 DUP2 DUP2 LT ISZERO PUSH2 0x135E JUMPI PUSH0 MSTORE DUP5 MSTORE PUSH1 0x1 PUSH1 0x40 PUSH0 KECCAK256 JUMPDEST SWAP6 ADD SWAP5 PUSH2 0x1331 JUMP JUMPDEST SWAP1 PUSH0 MSTORE DUP5 MSTORE PUSH1 0x1 PUSH1 0x40 PUSH0 KECCAK256 PUSH2 0x1356 JUMP JUMPDEST SWAP1 DUP7 DUP6 SWAP3 SUB PUSH2 0x14FF JUMPI CALLER PUSH0 MSTORE PUSH1 0x9 DUP3 MSTORE PUSH1 0x40 PUSH0 KECCAK256 SLOAD DUP2 DUP2 LT ISZERO PUSH2 0x14A8 JUMPI PUSH2 0x1395 SWAP1 DUP3 PUSH2 0x20F3 JUMP JUMPDEST SWAP1 DUP2 PUSH1 0x7 SLOAD LT PUSH2 0x146C JUMPI PUSH2 0x13FB PUSH0 SWAP3 DUP5 SWAP3 CALLER DUP6 MSTORE PUSH1 0x9 DUP5 MSTORE PUSH1 0x40 DUP6 KECCAK256 SSTORE PUSH2 0x13BE DUP2 PUSH1 0x7 SLOAD PUSH2 0x20F3 JUMP JUMPDEST PUSH1 0x7 SSTORE PUSH1 0x8 SLOAD PUSH1 0x40 MLOAD PUSH4 0xA9059CBB PUSH1 0xE0 SHL DUP2 MSTORE CALLER PUSH1 0x4 DUP3 ADD MSTORE PUSH1 0x24 DUP2 ADD SWAP3 SWAP1 SWAP3 MSTORE SWAP1 SWAP4 DUP5 SWAP3 PUSH1 0x1 PUSH1 0x1 PUSH1 0xA0 SHL SUB SWAP1 SWAP3 AND SWAP2 DUP4 SWAP2 SWAP1 DUP3 SWAP1 PUSH1 0x44 DUP3 ADD SWAP1 JUMP JUMPDEST SUB SWAP3 GAS CALL SWAP1 DUP2 ISZERO PUSH2 0xB02 JUMPI PUSH0 SWAP2 PUSH2 0x144F JUMPI JUMPDEST POP ISZERO PUSH2 0x1415 JUMPI STOP JUMPDEST PUSH1 0x15 PUSH1 0x64 SWAP3 PUSH1 0x40 MLOAD SWAP3 PUSH3 0x461BCD PUSH1 0xE5 SHL DUP5 MSTORE PUSH1 0x4 DUP5 ADD MSTORE DUP3 ADD MSTORE PUSH21 0x165A595B19081D1C985B9CD9995C8819985A5B1959 PUSH1 0x5A SHL PUSH1 0x44 DUP3 ADD MSTORE REVERT JUMPDEST PUSH2 0x1466 SWAP2 POP DUP3 RETURNDATASIZE DUP5 GT PUSH2 0x4AA JUMPI PUSH2 0x49C DUP2 DUP4 PUSH2 0x1ECB JUMP JUMPDEST DUP4 PUSH2 0x140D JUMP JUMPDEST PUSH1 0x40 MLOAD PUSH3 0x461BCD PUSH1 0xE5 SHL DUP2 MSTORE PUSH1 0x4 DUP2 ADD DUP5 SWAP1 MSTORE PUSH1 0x15 DUP2 DUP7 ADD MSTORE PUSH21 0x139BC8199D5B991CC81A5B881D1A19481D985D5B1D PUSH1 0x5A SHL PUSH1 0x44 DUP3 ADD MSTORE PUSH1 0x64 SWAP1 REVERT JUMPDEST PUSH1 0x40 MLOAD PUSH3 0x461BCD PUSH1 0xE5 SHL DUP2 MSTORE PUSH1 0x4 DUP2 ADD DUP5 SWAP1 MSTORE PUSH1 0x2A DUP2 DUP7 ADD MSTORE PUSH32 0x4E6F2066756E6473206C65667420746F20636C61696D206F7220616C72656164 PUSH1 0x44 DUP3 ADD MSTORE PUSH10 0x3C9031B630B4B6B2B217 PUSH1 0xB1 SHL PUSH1 0x64 DUP3 ADD MSTORE PUSH1 0x84 SWAP1 REVERT JUMPDEST POP PUSH1 0xE PUSH1 0x64 SWAP3 PUSH1 0x40 MLOAD SWAP3 PUSH3 0x461BCD PUSH1 0xE5 SHL DUP5 MSTORE PUSH1 0x4 DUP5 ADD MSTORE DUP3 ADD MSTORE PUSH14 0x24B73B30B634B210383937B7B317 PUSH1 0x91 SHL PUSH1 0x44 DUP3 ADD MSTORE REVERT JUMPDEST DUP3 CALLDATALOAD DUP2 MSTORE SWAP2 DUP2 ADD SWAP2 DUP8 SWAP2 ADD PUSH2 0x1322 JUMP JUMPDEST CALLVALUE PUSH2 0xB0D JUMPI PUSH1 0x60 CALLDATASIZE PUSH1 0x3 NOT ADD SLT PUSH2 0xB0D JUMPI PUSH1 0x44 CALLDATALOAD PUSH1 0x1 PUSH1 0x1 PUSH1 0xA0 SHL SUB DUP2 AND SWAP1 DUP2 SWAP1 SUB PUSH2 0xB0D JUMPI PUSH1 0x4 CALLDATALOAD PUSH0 MSTORE PUSH1 0xC PUSH1 0x20 MSTORE PUSH1 0x40 PUSH0 KECCAK256 PUSH1 0x24 CALLDATALOAD PUSH0 MSTORE PUSH1 0x20 MSTORE PUSH1 0x40 PUSH0 KECCAK256 SWAP1 PUSH0 MSTORE PUSH1 0x20 MSTORE PUSH1 0x20 PUSH1 0xFF PUSH1 0x40 PUSH0 KECCAK256 SLOAD AND PUSH1 0x40 MLOAD SWAP1 ISZERO ISZERO DUP2 MSTORE RETURN JUMPDEST CALLVALUE PUSH2 0xB0D JUMPI PUSH1 0x20 CALLDATASIZE PUSH1 0x3 NOT ADD SLT PUSH2 0xB0D JUMPI PUSH1 0x4 CALLDATALOAD PUSH0 MSTORE PUSH1 0xA PUSH1 0x20 MSTORE PUSH1 0x20 PUSH1 0x2 PUSH1 0x40 PUSH0 KECCAK256 ADD SLOAD PUSH1 0x40 MLOAD SWAP1 DUP2 MSTORE RETURN JUMPDEST CALLVALUE PUSH2 0xB0D JUMPI PUSH0 CALLDATASIZE PUSH1 0x3 NOT ADD SLT PUSH2 0xB0D JUMPI PUSH1 0x8 SLOAD PUSH1 0x40 MLOAD PUSH1 0x1 PUSH1 0x1 PUSH1 0xA0 SHL SUB SWAP1 SWAP2 AND DUP2 MSTORE PUSH1 0x20 SWAP1 RETURN JUMPDEST CALLVALUE PUSH2 0xB0D JUMPI PUSH0 CALLDATASIZE PUSH1 0x3 NOT ADD SLT PUSH2 0xB0D JUMPI PUSH1 0x20 PUSH1 0x3 SLOAD PUSH1 0x40 MLOAD SWAP1 DUP2 MSTORE RETURN JUMPDEST CALLVALUE PUSH2 0xB0D JUMPI PUSH0 CALLDATASIZE PUSH1 0x3 NOT ADD SLT PUSH2 0xB0D JUMPI PUSH0 SLOAD PUSH1 0x1 SLOAD PUSH1 0x40 MLOAD PUSH4 0x17119229 PUSH1 0xE3 SHL DUP2 MSTORE PUSH1 0x1 PUSH1 0x1 PUSH1 0xA0 SHL SUB SWAP2 DUP3 AND PUSH1 0x4 DUP3 ADD MSTORE SWAP2 PUSH1 0x20 SWAP2 DUP4 SWAP2 PUSH1 0x24 SWAP2 DUP4 SWAP2 AND GAS STATICCALL DUP1 ISZERO PUSH2 0xB02 JUMPI PUSH1 0x20 SWAP2 PUSH0 SWAP2 PUSH2 0x1671 JUMPI JUMPDEST POP PUSH1 0x1 PUSH1 0x1 PUSH1 0x80 SHL SUB PUSH1 0x40 MLOAD SWAP2 AND DUP2 MSTORE RETURN JUMPDEST PUSH2 0x1688 SWAP2 POP DUP3 RETURNDATASIZE DUP5 GT PUSH2 0x879 JUMPI PUSH2 0x86B DUP2 DUP4 PUSH2 0x1ECB JUMP JUMPDEST DUP3 PUSH2 0x165F JUMP JUMPDEST CALLVALUE PUSH2 0xB0D JUMPI PUSH1 0x60 CALLDATASIZE PUSH1 0x3 NOT ADD SLT PUSH2 0xB0D JUMPI PUSH1 0x44 CALLDATALOAD PUSH1 0x24 CALLDATALOAD PUSH1 0x4 CALLDATALOAD DUP3 ISZERO DUP1 ISZERO DUP5 SUB PUSH2 0xB0D JUMPI DUP2 PUSH0 MSTORE PUSH1 0x20 SWAP4 PUSH1 0xA DUP6 MSTORE PUSH1 0x40 PUSH0 KECCAK256 SWAP2 PUSH1 0xC DUP7 MSTORE PUSH1 0x40 PUSH0 KECCAK256 PUSH1 0x9 DUP5 ADD SLOAD PUSH0 MSTORE DUP7 MSTORE PUSH1 0x40 PUSH0 KECCAK256 CALLER PUSH0 MSTORE DUP7 MSTORE PUSH1 0xFF PUSH1 0x40 PUSH0 KECCAK256 SLOAD AND ISZERO PUSH2 0x1871 JUMPI DUP2 SWAP1 DUP2 PUSH2 0x1863 JUMPI JUMPDEST DUP2 ISZERO PUSH2 0x1848 JUMPI JUMPDEST POP ISZERO PUSH2 0x1803 JUMPI ISZERO PUSH2 0x17B5 JUMPI PUSH1 0xC ADD SWAP3 DUP4 SLOAD SWAP3 PUSH0 NOT DUP5 ADD SWAP4 DUP5 GT PUSH2 0x17A1 JUMPI PUSH32 0xCEF8FAC05AFB87995942422EAC900DE6AF11A555D80D075340AF81DB492119FE SWAP5 DUP5 DUP3 PUSH1 0x40 SWAP7 PUSH2 0x174C SWAP5 SUB PUSH2 0x1759 JUMPI JUMPDEST POP POP PUSH2 0x2100 JUMP JUMPDEST DUP3 MLOAD SWAP2 DUP3 MSTORE CALLER SWAP1 DUP3 ADD MSTORE LOG1 STOP JUMPDEST PUSH2 0x1773 PUSH2 0x1769 PUSH2 0x179A SWAP4 DUP6 PUSH2 0x2087 JUMP JUMPDEST SWAP2 SWAP1 SLOAD SWAP3 DUP6 PUSH2 0x2087 JUMP JUMPDEST DUP2 SLOAD PUSH1 0x1 PUSH1 0x1 PUSH1 0xA0 SHL SUB PUSH1 0x3 SWAP3 DUP4 SHL DUP2 DUP2 SHL NOT SWAP1 SWAP3 AND SWAP5 SWAP1 SWAP3 SHL SWAP5 SWAP1 SWAP5 SHR AND SWAP1 SWAP3 SHL OR SWAP1 SSTORE JUMP JUMPDEST DUP7 DUP1 PUSH2 0x1745 JUMP JUMPDEST PUSH4 0x4E487B71 PUSH1 0xE0 SHL PUSH0 MSTORE PUSH1 0x11 PUSH1 0x4 MSTORE PUSH1 0x24 PUSH0 REVERT JUMPDEST PUSH1 0xB ADD SWAP3 DUP4 SLOAD SWAP3 PUSH0 NOT DUP5 ADD SWAP4 DUP5 GT PUSH2 0x17A1 JUMPI PUSH32 0xCEF8FAC05AFB87995942422EAC900DE6AF11A555D80D075340AF81DB492119FE SWAP5 DUP5 DUP3 PUSH1 0x40 SWAP7 PUSH2 0x17FE SWAP5 SUB PUSH2 0x1759 JUMPI POP POP PUSH2 0x2100 JUMP JUMPDEST PUSH2 0x174C JUMP JUMPDEST PUSH1 0x40 MLOAD PUSH3 0x461BCD PUSH1 0xE5 SHL DUP2 MSTORE PUSH1 0x4 DUP2 ADD DUP7 SWAP1 MSTORE PUSH1 0x1E PUSH1 0x24 DUP3 ADD MSTORE PUSH32 0x496E76616C696420696E64657820666F72207061727469636970616E74730000 PUSH1 0x44 DUP3 ADD MSTORE PUSH1 0x64 SWAP1 REVERT JUMPDEST SWAP1 POP DUP1 PUSH2 0x1856 JUMPI JUMPDEST DUP7 PUSH2 0x16F7 JUMP JUMPDEST POP PUSH1 0xB DUP3 ADD SLOAD DUP5 LT PUSH2 0x1850 JUMP JUMPDEST PUSH1 0xC DUP5 ADD SLOAD DUP7 LT SWAP2 POP PUSH2 0x16F0 JUMP JUMPDEST PUSH1 0x40 MLOAD PUSH3 0x461BCD PUSH1 0xE5 SHL DUP2 MSTORE PUSH1 0x4 DUP2 ADD DUP8 SWAP1 MSTORE PUSH1 0x1C PUSH1 0x24 DUP3 ADD MSTORE PUSH32 0x596F752068617665206E6F74206A6F696E6564207468697320706F7400000000 PUSH1 0x44 DUP3 ADD MSTORE PUSH1 0x64 SWAP1 REVERT JUMPDEST PUSH1 0xE0 CALLDATASIZE PUSH1 0x3 NOT ADD SLT PUSH2 0xB0D JUMPI PUSH1 0x4 CALLDATALOAD PUSH1 0x1 PUSH1 0x1 PUSH1 0x40 SHL SUB DUP2 GT PUSH2 0xB0D JUMPI CALLDATASIZE PUSH1 0x23 DUP3 ADD SLT ISZERO PUSH2 0xB0D JUMPI PUSH2 0x18F2 SWAP1 CALLDATASIZE SWAP1 PUSH1 0x24 DUP2 PUSH1 0x4 ADD CALLDATALOAD SWAP2 ADD PUSH2 0x1EEC JUMP JUMPDEST PUSH0 SLOAD PUSH1 0x1 SLOAD PUSH1 0x40 MLOAD PUSH4 0x17119229 PUSH1 0xE3 SHL DUP2 MSTORE PUSH1 0x1 PUSH1 0x1 PUSH1 0xA0 SHL SUB SWAP2 DUP3 AND PUSH1 0x4 DUP3 ADD MSTORE SWAP2 PUSH1 0x20 SWAP2 DUP4 SWAP2 PUSH1 0x24 SWAP2 DUP4 SWAP2 AND GAS STATICCALL SWAP1 DUP2 ISZERO PUSH2 0xB02 JUMPI PUSH0 SWAP2 PUSH2 0x1E64 JUMPI JUMPDEST POP PUSH2 0x1950 PUSH2 0x1949 PUSH1 0x6 SLOAD PUSH1 0x1 PUSH1 0x1 PUSH1 0x80 SHL SUB DUP5 AND PUSH2 0x1FE0 JUMP JUMPDEST CALLVALUE EQ PUSH2 0x1FED JUMP JUMPDEST PUSH1 0x44 CALLDATALOAD ISZERO PUSH2 0x1E1F JUMPI PUSH1 0x64 CALLDATALOAD ISZERO PUSH2 0x1DCC JUMPI PUSH1 0x64 CALLDATALOAD PUSH1 0x84 CALLDATALOAD GT PUSH2 0x1D6B JUMPI PUSH1 0x4 SLOAD PUSH2 0x1977 DUP2 PUSH2 0x202C JUMP JUMPDEST PUSH1 0x4 SWAP1 DUP2 SSTORE PUSH1 0x8 SLOAD PUSH1 0x40 MLOAD PUSH4 0x23B872DD PUSH1 0xE0 SHL DUP2 MSTORE CALLER SWAP3 DUP2 ADD SWAP3 SWAP1 SWAP3 MSTORE ADDRESS PUSH1 0x24 DUP4 ADD MSTORE PUSH1 0xC4 CALLDATALOAD PUSH1 0x44 DUP4 ADD MSTORE PUSH1 0x20 SWAP1 DUP3 SWAP1 PUSH1 0x64 SWAP1 DUP3 SWAP1 PUSH0 SWAP1 PUSH1 0x1 PUSH1 0x1 PUSH1 0xA0 SHL SUB AND GAS CALL SWAP1 DUP2 ISZERO PUSH2 0xB02 JUMPI PUSH0 SWAP2 PUSH2 0x1D4C JUMPI JUMPDEST POP ISZERO PUSH2 0x1CF5 JUMPI PUSH0 DUP1 SLOAD PUSH1 0x1 SLOAD PUSH1 0x40 MLOAD PUSH4 0x93CBF217 PUSH1 0xE0 SHL DUP2 MSTORE PUSH1 0x1 PUSH1 0x1 PUSH1 0xA0 SHL SUB SWAP2 DUP3 AND PUSH1 0x4 DUP3 ADD MSTORE PUSH1 0x24 DUP1 CALLDATALOAD SWAP1 DUP3 ADD MSTORE PUSH1 0x44 DUP2 ADD SWAP4 SWAP1 SWAP4 MSTORE SWAP2 SWAP4 PUSH1 0x20 SWAP3 DUP6 SWAP3 PUSH1 0x64 SWAP3 DUP5 SWAP3 PUSH1 0x1 PUSH1 0x1 PUSH1 0x80 SHL SUB SWAP1 SWAP2 AND SWAP2 AND GAS CALL SWAP2 DUP3 ISZERO PUSH2 0xB02 JUMPI PUSH0 SWAP3 PUSH2 0x1CD4 JUMPI JUMPDEST POP DUP1 PUSH0 MSTORE PUSH1 0xA PUSH1 0x20 MSTORE PUSH1 0x40 PUSH0 KECCAK256 DUP4 MLOAD PUSH1 0x1 PUSH1 0x1 PUSH1 0x40 SHL SUB DUP2 GT PUSH2 0x1CC0 JUMPI PUSH2 0x1A50 DUP3 SLOAD PUSH2 0x1F65 JUMP JUMPDEST PUSH1 0x1F DUP2 GT PUSH2 0x1C85 JUMPI JUMPDEST POP PUSH1 0x20 PUSH1 0x1F DUP3 GT PUSH1 0x1 EQ PUSH2 0x1C0F JUMPI SWAP2 DUP2 PUSH0 DUP1 MLOAD PUSH1 0x20 PUSH2 0x24A8 DUP4 CODECOPY DUP2 MLOAD SWAP2 MSTORE SWAP7 SWAP3 PUSH2 0x1BD1 SWAP5 PUSH0 SWAP2 PUSH2 0x1C04 JUMPI JUMPDEST POP DUP2 PUSH1 0x1 SHL SWAP2 PUSH0 NOT SWAP1 PUSH1 0x3 SHL SHR NOT AND OR DUP2 SSTORE JUMPDEST PUSH1 0xC4 CALLDATALOAD PUSH1 0x1 DUP3 ADD SSTORE PUSH0 PUSH1 0x2 DUP3 ADD SSTORE PUSH1 0x1 PUSH1 0x1 PUSH1 0x40 SHL SUB PUSH1 0xA DUP3 ADD SWAP6 AND SWAP5 DUP1 SLOAD DUP7 PUSH1 0x1 PUSH1 0x40 SHL PUSH1 0x1 PUSH1 0xE0 SHL SUB CALLER PUSH1 0x40 SHL AND SWAP2 PUSH4 0xFFFFFFFF PUSH1 0xE0 SHL AND OR OR SWAP1 SSTORE PUSH1 0x44 CALLDATALOAD PUSH1 0x4 DUP3 ADD SSTORE PUSH1 0x84 CALLDATALOAD PUSH1 0x6 DUP3 ADD SSTORE PUSH1 0x64 CALLDATALOAD PUSH1 0x7 DUP3 ADD SSTORE TIMESTAMP PUSH1 0x5 DUP3 ADD SSTORE PUSH1 0xA4 CALLDATALOAD PUSH1 0x8 DUP3 ADD SSTORE PUSH2 0x1B11 PUSH1 0x9 DUP3 ADD SWAP2 PUSH1 0x1 DUP4 SSTORE PUSH1 0xB CALLER SWAP2 ADD PUSH2 0x20B0 JUMP JUMPDEST DUP4 PUSH0 MSTORE PUSH1 0xC PUSH1 0x20 MSTORE PUSH1 0x40 PUSH0 KECCAK256 SWAP1 SLOAD PUSH0 MSTORE PUSH1 0x20 MSTORE PUSH1 0x40 PUSH0 KECCAK256 CALLER PUSH0 MSTORE PUSH1 0x20 MSTORE PUSH1 0x40 PUSH0 KECCAK256 PUSH1 0x1 PUSH1 0xFF NOT DUP3 SLOAD AND OR SWAP1 SSTORE PUSH32 0x37BB26F2981AD94B38AFE928452CAD1BCA628B82F1781D95EC69D53ACF5D0D9B PUSH1 0x40 MLOAD DUP1 PUSH2 0x1B79 PUSH2 0x140 DUP8 DUP4 MSTORE DUP1 PUSH1 0x20 DUP5 ADD MSTORE DUP3 ADD DUP6 PUSH2 0x1F9D JUMP JUMPDEST CALLER PUSH1 0x40 DUP4 ADD MSTORE PUSH1 0xC4 CALLDATALOAD PUSH1 0x60 DUP4 ADD MSTORE PUSH1 0x44 CALLDATALOAD PUSH1 0x80 DUP4 ADD MSTORE PUSH1 0x84 CALLDATALOAD PUSH1 0xA0 DUP4 ADD MSTORE PUSH1 0x64 CALLDATALOAD PUSH1 0xC0 DUP4 ADD MSTORE PUSH1 0xA4 CALLDATALOAD PUSH1 0xE0 DUP4 ADD MSTORE PUSH2 0x100 SWAP8 DUP9 DUP4 ADD MSTORE PUSH1 0x24 CALLDATALOAD PUSH2 0x120 DUP4 ADD MSTORE SUB SWAP1 LOG1 PUSH1 0x40 MLOAD SWAP4 DUP5 SWAP4 DUP5 MSTORE DUP1 PUSH1 0x20 DUP6 ADD MSTORE DUP4 ADD SWAP1 PUSH2 0x1F9D JUMP JUMPDEST CALLER PUSH1 0x40 DUP4 ADD MSTORE PUSH1 0xC4 CALLDATALOAD PUSH1 0x60 DUP4 ADD MSTORE PUSH1 0x44 CALLDATALOAD PUSH1 0x80 DUP4 ADD MSTORE PUSH1 0x84 CALLDATALOAD PUSH1 0xA0 DUP4 ADD MSTORE PUSH1 0x64 CALLDATALOAD PUSH1 0xC0 DUP4 ADD MSTORE PUSH1 0xA4 CALLDATALOAD PUSH1 0xE0 DUP4 ADD MSTORE SUB SWAP1 LOG1 STOP JUMPDEST SWAP1 POP DUP4 ADD MLOAD DUP9 PUSH2 0x1A84 JUMP JUMPDEST DUP3 PUSH0 MSTORE PUSH1 0x20 PUSH0 KECCAK256 SWAP1 PUSH0 JUMPDEST PUSH1 0x1F NOT DUP5 AND DUP2 LT PUSH2 0x1C6D JUMPI POP DUP3 PUSH2 0x1BD1 SWAP5 SWAP3 PUSH1 0x1 SWAP3 PUSH0 DUP1 MLOAD PUSH1 0x20 PUSH2 0x24A8 DUP4 CODECOPY DUP2 MLOAD SWAP2 MSTORE SWAP10 SWAP6 PUSH1 0x1F NOT DUP2 AND LT PUSH2 0x1C55 JUMPI JUMPDEST POP POP DUP2 SHL ADD DUP2 SSTORE PUSH2 0x1A97 JUMP JUMPDEST DUP6 ADD MLOAD PUSH0 NOT PUSH1 0xF8 DUP5 PUSH1 0x3 SHL AND SHR NOT AND SWAP1 SSTORE DUP9 DUP1 PUSH2 0x1C49 JUMP JUMPDEST SWAP1 SWAP2 PUSH1 0x20 PUSH1 0x1 DUP2 SWAP3 DUP6 DUP12 ADD MLOAD DUP2 SSTORE ADD SWAP4 ADD SWAP2 ADD PUSH2 0x1C19 JUMP JUMPDEST PUSH2 0x1CB0 SWAP1 DUP4 PUSH0 MSTORE PUSH1 0x20 PUSH0 KECCAK256 PUSH1 0x1F DUP5 ADD PUSH1 0x5 SHR DUP2 ADD SWAP2 PUSH1 0x20 DUP6 LT PUSH2 0x1CB6 JUMPI JUMPDEST PUSH1 0x1F ADD PUSH1 0x5 SHR ADD SWAP1 PUSH2 0x2071 JUMP JUMPDEST DUP6 PUSH2 0x1A59 JUMP JUMPDEST SWAP1 SWAP2 POP DUP2 SWAP1 PUSH2 0x1CA3 JUMP JUMPDEST PUSH4 0x4E487B71 PUSH1 0xE0 SHL PUSH0 MSTORE PUSH1 0x41 PUSH1 0x4 MSTORE PUSH1 0x24 PUSH0 REVERT JUMPDEST PUSH2 0x1CEE SWAP2 SWAP3 POP PUSH1 0x20 RETURNDATASIZE PUSH1 0x20 GT PUSH2 0x841 JUMPI PUSH2 0x833 DUP2 DUP4 PUSH2 0x1ECB JUMP JUMPDEST SWAP1 DUP4 PUSH2 0x1A29 JUMP JUMPDEST PUSH1 0x40 MLOAD PUSH3 0x461BCD PUSH1 0xE5 SHL DUP2 MSTORE PUSH1 0x20 PUSH1 0x4 DUP3 ADD MSTORE PUSH1 0x29 PUSH1 0x24 DUP3 ADD MSTORE PUSH32 0x43726561746F722073686F756C64206465706F7369742074686520696E697469 PUSH1 0x44 DUP3 ADD MSTORE PUSH9 0x185B08185B5BDD5B9D PUSH1 0xBA SHL PUSH1 0x64 DUP3 ADD MSTORE PUSH1 0x84 SWAP1 REVERT JUMPDEST PUSH2 0x1D65 SWAP2 POP PUSH1 0x20 RETURNDATASIZE PUSH1 0x20 GT PUSH2 0x4AA JUMPI PUSH2 0x49C DUP2 DUP4 PUSH2 0x1ECB JUMP JUMPDEST DUP5 PUSH2 0x19C7 JUMP JUMPDEST PUSH1 0x40 MLOAD PUSH3 0x461BCD PUSH1 0xE5 SHL DUP2 MSTORE PUSH1 0x20 PUSH1 0x4 DUP3 ADD MSTORE PUSH1 0x33 PUSH1 0x24 DUP3 ADD MSTORE PUSH32 0x4E756D657261746F72206D757374206265206C657373207468616E206F722065 PUSH1 0x44 DUP3 ADD MSTORE PUSH19 0x38BAB0B6103A37903232B737B6B4B730BA37B9 PUSH1 0x69 SHL PUSH1 0x64 DUP3 ADD MSTORE PUSH1 0x84 SWAP1 REVERT JUMPDEST PUSH1 0x40 MLOAD PUSH3 0x461BCD PUSH1 0xE5 SHL DUP2 MSTORE PUSH1 0x20 PUSH1 0x4 DUP3 ADD MSTORE PUSH1 0x25 PUSH1 0x24 DUP3 ADD MSTORE PUSH32 0x496E7465726573742064656E6F6D696E61746F72206D75737420626520706F73 PUSH1 0x44 DUP3 ADD MSTORE PUSH5 0x6974697665 PUSH1 0xD8 SHL PUSH1 0x64 DUP3 ADD MSTORE PUSH1 0x84 SWAP1 REVERT JUMPDEST PUSH1 0x40 MLOAD PUSH3 0x461BCD PUSH1 0xE5 SHL DUP2 MSTORE PUSH1 0x20 PUSH1 0x4 DUP3 ADD MSTORE PUSH1 0x1F PUSH1 0x24 DUP3 ADD MSTORE PUSH32 0x526F746174696F6E206379636C65206D75737420626520706F73697469766500 PUSH1 0x44 DUP3 ADD MSTORE PUSH1 0x64 SWAP1 REVERT JUMPDEST PUSH2 0x1E7D SWAP2 POP PUSH1 0x20 RETURNDATASIZE PUSH1 0x20 GT PUSH2 0x879 JUMPI PUSH2 0x86B DUP2 DUP4 PUSH2 0x1ECB JUMP JUMPDEST DUP3 PUSH2 0x1930 JUMP JUMPDEST CALLVALUE PUSH2 0xB0D JUMPI PUSH0 CALLDATASIZE PUSH1 0x3 NOT ADD SLT PUSH2 0xB0D JUMPI PUSH1 0x20 SWAP1 PUSH1 0x7 SLOAD DUP2 MSTORE RETURN JUMPDEST PUSH1 0x1 PUSH1 0x1 PUSH1 0x40 SHL SUB DUP2 GT PUSH2 0x1CC0 JUMPI PUSH1 0x40 MSTORE JUMP JUMPDEST PUSH1 0x60 DUP2 ADD SWAP1 DUP2 LT PUSH1 0x1 PUSH1 0x1 PUSH1 0x40 SHL SUB DUP3 GT OR PUSH2 0x1CC0 JUMPI PUSH1 0x40 MSTORE JUMP JUMPDEST SWAP1 PUSH1 0x1F DUP1 NOT SWAP2 ADD AND DUP2 ADD SWAP1 DUP2 LT PUSH1 0x1 PUSH1 0x1 PUSH1 0x40 SHL SUB DUP3 GT OR PUSH2 0x1CC0 JUMPI PUSH1 0x40 MSTORE JUMP JUMPDEST SWAP3 SWAP2 SWAP3 PUSH1 0x1 PUSH1 0x1 PUSH1 0x40 SHL SUB DUP3 GT PUSH2 0x1CC0 JUMPI PUSH1 0x40 MLOAD SWAP2 PUSH2 0x1F15 PUSH1 0x1F DUP3 ADD PUSH1 0x1F NOT AND PUSH1 0x20 ADD DUP5 PUSH2 0x1ECB JUMP JUMPDEST DUP3 SWAP5 DUP2 DUP5 MSTORE DUP2 DUP4 ADD GT PUSH2 0xB0D JUMPI DUP3 DUP2 PUSH1 0x20 SWAP4 DUP5 PUSH0 SWAP7 ADD CALLDATACOPY ADD ADD MSTORE JUMP JUMPDEST PUSH1 0x4 CALLDATALOAD SWAP1 PUSH1 0x1 PUSH1 0x1 PUSH1 0xA0 SHL SUB DUP3 AND DUP3 SUB PUSH2 0xB0D JUMPI JUMP JUMPDEST SWAP1 DUP1 PUSH1 0x1F DUP4 ADD SLT ISZERO PUSH2 0xB0D JUMPI DUP2 PUSH1 0x20 PUSH2 0x1F62 SWAP4 CALLDATALOAD SWAP2 ADD PUSH2 0x1EEC JUMP JUMPDEST SWAP1 JUMP JUMPDEST SWAP1 PUSH1 0x1 DUP3 DUP2 SHR SWAP3 AND DUP1 ISZERO PUSH2 0x1F93 JUMPI JUMPDEST PUSH1 0x20 DUP4 LT EQ PUSH2 0x1F7F JUMPI JUMP JUMPDEST PUSH4 0x4E487B71 PUSH1 0xE0 SHL PUSH0 MSTORE PUSH1 0x22 PUSH1 0x4 MSTORE PUSH1 0x24 PUSH0 REVERT JUMPDEST SWAP2 PUSH1 0x7F AND SWAP2 PUSH2 0x1F74 JUMP JUMPDEST DUP1 MLOAD DUP1 DUP4 MSTORE PUSH1 0x20 SWAP3 SWAP2 DUP2 SWAP1 DUP5 ADD DUP5 DUP5 ADD MCOPY PUSH0 DUP3 DUP3 ADD DUP5 ADD MSTORE PUSH1 0x1F ADD PUSH1 0x1F NOT AND ADD ADD SWAP1 JUMP JUMPDEST SWAP1 DUP2 PUSH1 0x20 SWAP2 SUB SLT PUSH2 0xB0D JUMPI MLOAD PUSH1 0x1 PUSH1 0x1 PUSH1 0x80 SHL SUB DUP2 AND DUP2 SUB PUSH2 0xB0D JUMPI SWAP1 JUMP JUMPDEST SWAP2 SWAP1 DUP3 ADD DUP1 SWAP3 GT PUSH2 0x17A1 JUMPI JUMP JUMPDEST ISZERO PUSH2 0x1FF4 JUMPI JUMP JUMPDEST PUSH1 0x40 MLOAD PUSH3 0x461BCD PUSH1 0xE5 SHL DUP2 MSTORE PUSH1 0x20 PUSH1 0x4 DUP3 ADD MSTORE PUSH1 0x10 PUSH1 0x24 DUP3 ADD MSTORE PUSH16 0x496E73756666696369656E7420666565 PUSH1 0x80 SHL PUSH1 0x44 DUP3 ADD MSTORE PUSH1 0x64 SWAP1 REVERT JUMPDEST PUSH0 NOT DUP2 EQ PUSH2 0x17A1 JUMPI PUSH1 0x1 ADD SWAP1 JUMP JUMPDEST SWAP1 DUP2 PUSH1 0x20 SWAP2 SUB SLT PUSH2 0xB0D JUMPI MLOAD DUP1 ISZERO ISZERO DUP2 SUB PUSH2 0xB0D JUMPI SWAP1 JUMP JUMPDEST SWAP1 DUP2 PUSH1 0x20 SWAP2 SUB SLT PUSH2 0xB0D JUMPI MLOAD PUSH1 0x1 PUSH1 0x1 PUSH1 0x40 SHL SUB DUP2 AND DUP2 SUB PUSH2 0xB0D JUMPI SWAP1 JUMP JUMPDEST DUP2 DUP2 LT PUSH2 0x207C JUMPI POP POP JUMP JUMPDEST PUSH0 DUP2 SSTORE PUSH1 0x1 ADD PUSH2 0x2071 JUMP JUMPDEST DUP1 SLOAD DUP3 LT ISZERO PUSH2 0x209C JUMPI PUSH0 MSTORE PUSH1 0x20 PUSH0 KECCAK256 ADD SWAP1 PUSH0 SWAP1 JUMP JUMPDEST PUSH4 0x4E487B71 PUSH1 0xE0 SHL PUSH0 MSTORE PUSH1 0x32 PUSH1 0x4 MSTORE PUSH1 0x24 PUSH0 REVERT JUMPDEST SWAP1 DUP2 SLOAD SWAP2 PUSH1 0x1 PUSH1 0x40 SHL DUP4 LT ISZERO PUSH2 0x1CC0 JUMPI DUP3 PUSH2 0x20D3 SWAP2 PUSH1 0x1 PUSH2 0x20F1 SWAP6 ADD DUP2 SSTORE PUSH2 0x2087 JUMP JUMPDEST SWAP1 SWAP2 SWAP1 PUSH1 0x1 DUP1 PUSH1 0xA0 SHL SUB DUP1 DUP5 SLOAD SWAP3 PUSH1 0x3 SHL SWAP4 AND DUP4 SHL SWAP3 SHL NOT AND OR SWAP1 SSTORE JUMP JUMPDEST JUMP JUMPDEST SWAP2 SWAP1 DUP3 SUB SWAP2 DUP3 GT PUSH2 0x17A1 JUMPI JUMP JUMPDEST DUP1 SLOAD DUP1 ISZERO PUSH2 0x212C JUMPI PUSH0 NOT ADD SWAP1 PUSH2 0x2116 DUP3 DUP3 PUSH2 0x2087 JUMP JUMPDEST DUP2 SLOAD SWAP1 PUSH1 0x1 DUP1 PUSH1 0xA0 SHL SUB SWAP1 PUSH1 0x3 SHL SHL NOT AND SWAP1 SSTORE SSTORE JUMP JUMPDEST PUSH4 0x4E487B71 PUSH1 0xE0 SHL PUSH0 MSTORE PUSH1 0x31 PUSH1 0x4 MSTORE PUSH1 0x24 PUSH0 REVERT JUMPDEST DUP2 DUP2 MUL SWAP3 SWAP2 DUP2 ISZERO SWAP2 DUP5 DIV EQ OR ISZERO PUSH2 0x17A1 JUMPI JUMP JUMPDEST PUSH0 MSTORE PUSH1 0xA PUSH1 0x20 MSTORE PUSH1 0x7 PUSH2 0x216F PUSH1 0x40 PUSH0 KECCAK256 SWAP3 PUSH1 0x6 DUP5 ADD SLOAD SWAP1 PUSH2 0x2140 JUMP JUMPDEST SWAP2 ADD SLOAD SWAP1 DUP2 ISZERO PUSH2 0x217D JUMPI DIV SWAP1 JUMP JUMPDEST PUSH4 0x4E487B71 PUSH1 0xE0 SHL PUSH0 MSTORE PUSH1 0x12 PUSH1 0x4 MSTORE PUSH1 0x24 PUSH0 REVERT JUMPDEST ISZERO PUSH2 0x2198 JUMPI JUMP JUMPDEST PUSH1 0x40 MLOAD PUSH3 0x461BCD PUSH1 0xE5 SHL DUP2 MSTORE PUSH1 0x20 PUSH1 0x4 DUP3 ADD MSTORE PUSH1 0x1D PUSH1 0x24 DUP3 ADD MSTORE PUSH32 0x5369676E617475726520766572696669636174696F6E206661696C6564000000 PUSH1 0x44 DUP3 ADD MSTORE PUSH1 0x64 SWAP1 REVERT JUMPDEST ISZERO PUSH2 0x21E4 JUMPI JUMP JUMPDEST PUSH1 0x40 MLOAD PUSH3 0x461BCD PUSH1 0xE5 SHL DUP2 MSTORE PUSH1 0x20 PUSH1 0x4 DUP3 ADD MSTORE PUSH1 0xF PUSH1 0x24 DUP3 ADD MSTORE PUSH15 0x151C985B9CD9995C8819985A5B1959 PUSH1 0x8A SHL PUSH1 0x44 DUP3 ADD MSTORE PUSH1 0x64 SWAP1 REVERT JUMPDEST PUSH1 0x1 PUSH1 0x1 PUSH1 0xA0 SHL SUB SWAP1 DUP2 AND SWAP1 DUP2 ISZERO PUSH2 0x2274 JUMPI PUSH0 DUP1 MLOAD PUSH1 0x20 PUSH2 0x2488 DUP4 CODECOPY DUP2 MLOAD SWAP2 MSTORE DUP1 SLOAD PUSH1 0x1 PUSH1 0x1 PUSH1 0xA0 SHL SUB NOT DUP2 AND DUP5 OR SWAP1 SWAP2 SSTORE AND PUSH32 0x8BE0079C531659141344CD1FD0A4F28419497F9722A3DAAFE3B4186F6B6457E0 PUSH0 DUP1 LOG3 JUMP JUMPDEST PUSH1 0x40 MLOAD PUSH4 0x1E4FBDF7 PUSH1 0xE0 SHL DUP2 MSTORE PUSH0 PUSH1 0x4 DUP3 ADD MSTORE PUSH1 0x24 SWAP1 REVERT JUMPDEST PUSH1 0x40 MLOAD PUSH1 0x20 DUP2 ADD SWAP2 PUSH32 0x19457468657265756D205369676E6564204D6573736167653A0A333200000000 DUP4 MSTORE PUSH1 0x3C DUP3 ADD MSTORE PUSH1 0x3C DUP2 MSTORE PUSH2 0x22C9 DUP2 PUSH2 0x1EB0 JUMP JUMPDEST MLOAD SWAP1 KECCAK256 SWAP1 JUMP JUMPDEST PUSH0 DUP1 MLOAD PUSH1 0x20 PUSH2 0x2488 DUP4 CODECOPY DUP2 MLOAD SWAP2 MSTORE SLOAD PUSH1 0x1 PUSH1 0x1 PUSH1 0xA0 SHL SUB AND CALLER SUB PUSH2 0x22EF JUMPI JUMP JUMPDEST PUSH1 0x40 MLOAD PUSH4 0x118CDAA7 PUSH1 0xE0 SHL DUP2 MSTORE CALLER PUSH1 0x4 DUP3 ADD MSTORE PUSH1 0x24 SWAP1 REVERT JUMPDEST DUP2 MLOAD SWAP2 SWAP1 PUSH1 0x41 DUP4 SUB PUSH2 0x2337 JUMPI PUSH2 0x2330 SWAP3 POP PUSH1 0x20 DUP3 ADD MLOAD SWAP1 PUSH1 0x60 PUSH1 0x40 DUP5 ADD MLOAD SWAP4 ADD MLOAD PUSH0 BYTE SWAP1 PUSH2 0x2405 JUMP JUMPDEST SWAP2 SWAP3 SWAP1 SWAP2 SWAP1 JUMP JUMPDEST POP POP PUSH0 SWAP2 PUSH1 0x2 SWAP2 SWAP1 JUMP JUMPDEST PUSH1 0x4 DUP2 LT ISZERO PUSH2 0x23B0 JUMPI DUP1 PUSH2 0x2353 JUMPI POP POP JUMP JUMPDEST PUSH1 0x1 DUP2 SUB PUSH2 0x236D JUMPI PUSH1 0x40 MLOAD PUSH4 0xF645EEDF PUSH1 0xE0 SHL DUP2 MSTORE PUSH1 0x4 SWAP1 REVERT JUMPDEST PUSH1 0x2 DUP2 SUB PUSH2 0x238E JUMPI PUSH1 0x40 MLOAD PUSH4 0xFCE698F7 PUSH1 0xE0 SHL DUP2 MSTORE PUSH1 0x4 DUP2 ADD DUP4 SWAP1 MSTORE PUSH1 0x24 SWAP1 REVERT JUMPDEST PUSH1 0x3 EQ PUSH2 0x2398 JUMPI POP JUMP JUMPDEST PUSH1 0x24 SWAP1 PUSH1 0x40 MLOAD SWAP1 PUSH4 0x35E2F383 PUSH1 0xE2 SHL DUP3 MSTORE PUSH1 0x4 DUP3 ADD MSTORE REVERT JUMPDEST PUSH4 0x4E487B71 PUSH1 0xE0 SHL PUSH0 MSTORE PUSH1 0x21 PUSH1 0x4 MSTORE PUSH1 0x24 PUSH0 REVERT JUMPDEST PUSH1 0xFF PUSH32 0xF0C57E16840DF040F15088DC2F81FE391C3923BEC73E23A9662EFC9C229C6A00 SLOAD PUSH1 0x40 SHR AND ISZERO PUSH2 0x23F3 JUMPI JUMP JUMPDEST PUSH1 0x40 MLOAD PUSH4 0x1AFCD79F PUSH1 0xE3 SHL DUP2 MSTORE PUSH1 0x4 SWAP1 REVERT JUMPDEST SWAP2 SWAP1 PUSH32 0x7FFFFFFFFFFFFFFFFFFFFFFFFFFFFFFF5D576E7357A4501DDFE92F46681B20A0 DUP5 GT PUSH2 0x247C JUMPI SWAP2 PUSH1 0x20 SWAP4 PUSH1 0x80 SWAP3 PUSH1 0xFF PUSH0 SWAP6 PUSH1 0x40 MLOAD SWAP5 DUP6 MSTORE AND DUP7 DUP5 ADD MSTORE PUSH1 0x40 DUP4 ADD MSTORE PUSH1 0x60 DUP3 ADD MSTORE DUP3 DUP1 MSTORE PUSH1 0x1 GAS STATICCALL ISZERO PUSH2 0xB02 JUMPI PUSH0 MLOAD PUSH1 0x1 PUSH1 0x1 PUSH1 0xA0 SHL SUB DUP2 AND ISZERO PUSH2 0x2472 JUMPI SWAP1 PUSH0 SWAP1 PUSH0 SWAP1 JUMP JUMPDEST POP PUSH0 SWAP1 PUSH1 0x1 SWAP1 PUSH0 SWAP1 JUMP JUMPDEST POP POP POP PUSH0 SWAP2 PUSH1 0x3 SWAP2 SWAP1 JUMP INVALID SWAP1 AND 0xD0 SWAP14 PUSH19 0xD40FDAE2FD8CEAC6B6234C7706214FD39C1CD1 0xE6 MULMOD LOG0 MSTORE DUP13 NOT SWAP4 STOP NUMBER 0xD2 RETURN MULMOD SWAP2 EXTCODEHASH PUSH11 0xFC5D717F60864D2D192B69 SWAP7 RETURNDATASIZE 0x25 KECCAK256 0x4B PUSH11 0x12765E2795BF027FA26469 PUSH17 0x667358221220F813019B501B78066A0870 SUB 0xE2 DUP14 CREATE2 0xCE 0xD9 0xF7 PUSH28 0x35226B8590CA41C9FCFCBD2EB464736F6C6343000819003300000000 "
		},
		"gasEstimates": {
			"creation": {
				"codeDepositCost": "1893800",
				"executionCost": "24114",
				"totalCost": "1917914"
			},
			"external": {
				"BLAST()": "591",
				"USDB()": "283",
				"admin()": "2926",
				"calculateRiskPoolBalance(uint256,uint256)": "4898",
				"changeAdminSigner(address)": "infinite",
				"claimFunds(uint256,bytes32[])": "infinite",
				"claimMyContractsGas()": "infinite",
				"claimReward(uint256)": "infinite",
				"createPot(string,bytes32,uint256,uint256,uint256,uint256,uint256)": "infinite",
				"getEntropyFee()": "infinite",
				"getEthSignedMessageHash(bytes32)": "1042",
				"getRiskPoolBalance(uint256)": "2486",
				"hasClaimed(address)": "2653",
				"hasJoinedPot(uint256,uint256,address)": "2691",
				"initialize(address)": "infinite",
				"joinPot(uint256,bytes,uint256)": "infinite",
				"merkleRoot()": "2349",
				"owner()": "infinite",
				"potCreationFee()": "2836",
				"pots(uint256)": "infinite",
				"renounceOwnership()": "infinite",
				"rotateLiquidity(uint256,bytes32,bytes32,bytes32)": "infinite",
				"setMerkleRoot(bytes32,uint256)": "infinite",
				"totalRevenue()": "2745",
				"totalYielDeposited()": "2253",
				"transferOwnership(address)": "infinite",
				"updatePotCreationFee(uint256)": "infinite",
				"usdbToken()": "2417",
				"useRiskPool(uint256,uint256,bytes,uint256)": "infinite",
				"withdrawFromPot(uint256,uint256,bool)": "63294",
				"withdrawRevenue(bool)": "infinite"
			},
			"internal": {
				"deductRevenue(uint256)": "infinite"
			}
		},
		"methodIdentifiers": {
			"BLAST()": "97d75776",
			"USDB()": "31a0edec",
			"admin()": "f851a440",
			"calculateRiskPoolBalance(uint256,uint256)": "7d77990c",
			"changeAdminSigner(address)": "91dc969e",
			"claimFunds(uint256,bytes32[])": "61e7d805",
			"claimMyContractsGas()": "77d5d2dc",
			"claimReward(uint256)": "ae169a50",
			"createPot(string,bytes32,uint256,uint256,uint256,uint256,uint256)": "0fae6443",
			"getEntropyFee()": "2d971e63",
			"getEthSignedMessageHash(bytes32)": "fa540801",
			"getRiskPoolBalance(uint256)": "4d781b31",
			"hasClaimed(address)": "73b2e80e",
			"hasJoinedPot(uint256,uint256,address)": "4da1ec40",
			"initialize(address)": "c4d66de8",
			"joinPot(uint256,bytes,uint256)": "f78aedf9",
			"merkleRoot()": "2eb4a7ab",
			"owner()": "8da5cb5b",
			"potCreationFee()": "ec71687b",
			"pots(uint256)": "c3c3df4f",
			"renounceOwnership()": "715018a6",
			"rotateLiquidity(uint256,bytes32,bytes32,bytes32)": "ca829f10",
			"setMerkleRoot(bytes32,uint256)": "7c382d0b",
			"totalRevenue()": "bf2d9e0b",
			"totalYielDeposited()": "07dd3f44",
			"transferOwnership(address)": "f2fde38b",
			"updatePotCreationFee(uint256)": "82199e3f",
			"usdbToken()": "4a80409e",
			"useRiskPool(uint256,uint256,bytes,uint256)": "818c5548",
			"withdrawFromPot(uint256,uint256,bool)": "210eaeae",
			"withdrawRevenue(bool)": "b7db43c8"
		}
	},
	"abi": [
		{
			"inputs": [],
			"name": "ECDSAInvalidSignature",
			"type": "error"
		},
		{
			"inputs": [
				{
					"internalType": "uint256",
					"name": "length",
					"type": "uint256"
				}
			],
			"name": "ECDSAInvalidSignatureLength",
			"type": "error"
		},
		{
			"inputs": [
				{
					"internalType": "bytes32",
					"name": "s",
					"type": "bytes32"
				}
			],
			"name": "ECDSAInvalidSignatureS",
			"type": "error"
		},
		{
			"inputs": [],
			"name": "InvalidInitialization",
			"type": "error"
		},
		{
			"inputs": [],
			"name": "NotInitializing",
			"type": "error"
		},
		{
			"inputs": [
				{
					"internalType": "address",
					"name": "owner",
					"type": "address"
				}
			],
			"name": "OwnableInvalidOwner",
			"type": "error"
		},
		{
			"inputs": [
				{
					"internalType": "address",
					"name": "account",
					"type": "address"
				}
			],
			"name": "OwnableUnauthorizedAccount",
			"type": "error"
		},
		{
			"anonymous": false,
			"inputs": [
				{
					"indexed": false,
					"internalType": "uint64",
					"name": "version",
					"type": "uint64"
				}
			],
			"name": "Initialized",
			"type": "event"
		},
		{
			"anonymous": false,
			"inputs": [
				{
					"indexed": true,
					"internalType": "address",
					"name": "previousOwner",
					"type": "address"
				},
				{
					"indexed": true,
					"internalType": "address",
					"name": "newOwner",
					"type": "address"
				}
			],
			"name": "OwnershipTransferred",
			"type": "event"
		},
		{
			"anonymous": false,
			"inputs": [
				{
					"indexed": false,
					"internalType": "uint256",
					"name": "potId",
					"type": "uint256"
				},
				{
					"indexed": false,
					"internalType": "string",
					"name": "name",
					"type": "string"
				},
				{
					"indexed": false,
					"internalType": "address",
					"name": "participant",
					"type": "address"
				},
				{
					"indexed": false,
					"internalType": "uint256",
					"name": "amount",
					"type": "uint256"
				},
				{
					"indexed": false,
					"internalType": "uint256",
					"name": "rotationCycleInSeconds",
					"type": "uint256"
				},
				{
					"indexed": false,
					"internalType": "uint256",
					"name": "_interestDenominator",
					"type": "uint256"
				},
				{
					"indexed": false,
					"internalType": "uint256",
					"name": "_interestNumerator",
					"type": "uint256"
				},
				{
					"indexed": false,
					"internalType": "uint256",
					"name": "_numParticipants",
					"type": "uint256"
				}
			],
			"name": "ParticipantJoined",
			"type": "event"
		},
		{
			"anonymous": false,
			"inputs": [
				{
					"indexed": false,
					"internalType": "uint256",
					"name": "potId",
					"type": "uint256"
				},
				{
					"indexed": false,
					"internalType": "address",
					"name": "participant",
					"type": "address"
				}
			],
			"name": "ParticipantRemoved",
			"type": "event"
		},
		{
			"anonymous": false,
			"inputs": [
				{
					"indexed": false,
					"internalType": "uint256",
					"name": "potId",
					"type": "uint256"
				},
				{
					"indexed": false,
					"internalType": "string",
					"name": "name",
					"type": "string"
				},
				{
					"indexed": false,
					"internalType": "address",
					"name": "creator",
					"type": "address"
				},
				{
					"indexed": false,
					"internalType": "uint256",
					"name": "amount",
					"type": "uint256"
				},
				{
					"indexed": false,
					"internalType": "uint256",
					"name": "rotationCycleInSeconds",
					"type": "uint256"
				},
				{
					"indexed": false,
					"internalType": "uint256",
					"name": "_interestDenominator",
					"type": "uint256"
				},
				{
					"indexed": false,
					"internalType": "uint256",
					"name": "_interestNumerator",
					"type": "uint256"
				},
				{
					"indexed": false,
					"internalType": "uint256",
					"name": "_numParticipants",
					"type": "uint256"
				},
				{
					"indexed": false,
					"internalType": "uint64",
					"name": "sequenceNumber",
					"type": "uint64"
				},
				{
					"indexed": false,
					"internalType": "bytes32",
					"name": "userCommitment",
					"type": "bytes32"
				}
			],
			"name": "PotCreated",
			"type": "event"
		},
		{
			"anonymous": false,
			"inputs": [
				{
					"indexed": false,
					"internalType": "uint256",
					"name": "potId",
					"type": "uint256"
				},
				{
					"indexed": false,
					"internalType": "address",
					"name": "winner",
					"type": "address"
				},
				{
					"indexed": false,
					"internalType": "uint256",
					"name": "amount",
					"type": "uint256"
				}
			],
			"name": "RewardClaimed",
			"type": "event"
		},
		{
			"anonymous": false,
			"inputs": [
				{
					"indexed": false,
					"internalType": "uint256",
					"name": "potId",
					"type": "uint256"
				},
				{
					"indexed": false,
					"internalType": "address",
					"name": "winner",
					"type": "address"
				},
				{
					"indexed": false,
					"internalType": "uint256",
					"name": "round",
					"type": "uint256"
				},
				{
					"indexed": false,
					"internalType": "uint64",
					"name": "sequenceNumber",
					"type": "uint64"
				},
				{
					"indexed": false,
					"internalType": "bytes32",
					"name": "userCommitment",
					"type": "bytes32"
				},
				{
					"indexed": false,
					"internalType": "uint256",
					"name": "usedRiskPoolBalance",
					"type": "uint256"
				},
				{
					"indexed": false,
					"internalType": "uint256",
					"name": "amount",
					"type": "uint256"
				}
			],
			"name": "RotationCompleted",
			"type": "event"
		},
		{
			"inputs": [],
			"name": "BLAST",
			"outputs": [
				{
					"internalType": "contract IBlast",
					"name": "",
					"type": "address"
				}
			],
			"stateMutability": "view",
			"type": "function"
		},
		{
			"inputs": [],
			"name": "USDB",
			"outputs": [
				{
					"internalType": "contract IERC20Rebasing",
					"name": "",
					"type": "address"
				}
			],
			"stateMutability": "view",
			"type": "function"
		},
		{
			"inputs": [],
			"name": "admin",
			"outputs": [
				{
					"internalType": "address",
					"name": "",
					"type": "address"
				}
			],
			"stateMutability": "view",
			"type": "function"
		},
		{
			"inputs": [
				{
					"internalType": "uint256",
					"name": "_potId",
					"type": "uint256"
				},
				{
					"internalType": "uint256",
					"name": "_amount",
					"type": "uint256"
				}
			],
			"name": "calculateRiskPoolBalance",
			"outputs": [
				{
					"internalType": "uint256",
					"name": "",
					"type": "uint256"
				}
			],
			"stateMutability": "view",
			"type": "function"
		},
		{
			"inputs": [
				{
					"internalType": "address",
					"name": "newAdmin",
					"type": "address"
				}
			],
			"name": "changeAdminSigner",
			"outputs": [],
			"stateMutability": "nonpayable",
			"type": "function"
		},
		{
			"inputs": [
				{
					"internalType": "uint256",
					"name": "claimAmount",
					"type": "uint256"
				},
				{
					"internalType": "bytes32[]",
					"name": "merkleProof",
					"type": "bytes32[]"
				}
			],
			"name": "claimFunds",
			"outputs": [],
			"stateMutability": "nonpayable",
			"type": "function"
		},
		{
			"inputs": [],
			"name": "claimMyContractsGas",
			"outputs": [],
			"stateMutability": "nonpayable",
			"type": "function"
		},
		{
			"inputs": [
				{
					"internalType": "uint256",
					"name": "_potId",
					"type": "uint256"
				}
			],
			"name": "claimReward",
			"outputs": [],
			"stateMutability": "nonpayable",
			"type": "function"
		},
		{
			"inputs": [
				{
					"internalType": "string",
					"name": "_name",
					"type": "string"
				},
				{
					"internalType": "bytes32",
					"name": "userCommitment",
					"type": "bytes32"
				},
				{
					"internalType": "uint256",
					"name": "_rotationCycleInSeconds",
					"type": "uint256"
				},
				{
					"internalType": "uint256",
					"name": "_interestDenominator",
					"type": "uint256"
				},
				{
					"internalType": "uint256",
					"name": "_interestNumerator",
					"type": "uint256"
				},
				{
					"internalType": "uint256",
					"name": "_numParticipants",
					"type": "uint256"
				},
				{
					"internalType": "uint256",
					"name": "_amount",
					"type": "uint256"
				}
			],
			"name": "createPot",
			"outputs": [],
			"stateMutability": "payable",
			"type": "function"
		},
		{
			"inputs": [],
			"name": "getEntropyFee",
			"outputs": [
				{
					"internalType": "uint256",
					"name": "fee",
					"type": "uint256"
				}
			],
			"stateMutability": "view",
			"type": "function"
		},
		{
			"inputs": [
				{
					"internalType": "bytes32",
					"name": "_messageHash",
					"type": "bytes32"
				}
			],
			"name": "getEthSignedMessageHash",
			"outputs": [
				{
					"internalType": "bytes32",
					"name": "",
					"type": "bytes32"
				}
			],
			"stateMutability": "pure",
			"type": "function"
		},
		{
			"inputs": [
				{
					"internalType": "uint256",
					"name": "potId",
					"type": "uint256"
				}
			],
			"name": "getRiskPoolBalance",
			"outputs": [
				{
					"internalType": "uint256",
					"name": "riskPoolBalance",
					"type": "uint256"
				}
			],
			"stateMutability": "view",
			"type": "function"
		},
		{
			"inputs": [
				{
					"internalType": "address",
					"name": "",
					"type": "address"
				}
			],
			"name": "hasClaimed",
			"outputs": [
				{
					"internalType": "uint256",
					"name": "",
					"type": "uint256"
				}
			],
			"stateMutability": "view",
			"type": "function"
		},
		{
			"inputs": [
				{
					"internalType": "uint256",
					"name": "",
					"type": "uint256"
				},
				{
					"internalType": "uint256",
					"name": "",
					"type": "uint256"
				},
				{
					"internalType": "address",
					"name": "",
					"type": "address"
				}
			],
			"name": "hasJoinedPot",
			"outputs": [
				{
					"internalType": "bool",
					"name": "",
					"type": "bool"
				}
			],
			"stateMutability": "view",
			"type": "function"
		},
		{
			"inputs": [
				{
					"internalType": "address",
					"name": "_entropy",
					"type": "address"
				}
			],
			"name": "initialize",
			"outputs": [],
			"stateMutability": "nonpayable",
			"type": "function"
		},
		{
			"inputs": [
				{
					"internalType": "uint256",
					"name": "_potId",
					"type": "uint256"
				},
				{
					"internalType": "bytes",
					"name": "signature",
					"type": "bytes"
				},
				{
					"internalType": "uint256",
					"name": "nonce",
					"type": "uint256"
				}
			],
			"name": "joinPot",
			"outputs": [],
			"stateMutability": "nonpayable",
			"type": "function"
		},
		{
			"inputs": [],
			"name": "merkleRoot",
			"outputs": [
				{
					"internalType": "bytes32",
					"name": "",
					"type": "bytes32"
				}
			],
			"stateMutability": "view",
			"type": "function"
		},
		{
			"inputs": [],
			"name": "owner",
			"outputs": [
				{
					"internalType": "address",
					"name": "",
					"type": "address"
				}
			],
			"stateMutability": "view",
			"type": "function"
		},
		{
			"inputs": [],
			"name": "potCreationFee",
			"outputs": [
				{
					"internalType": "uint256",
					"name": "",
					"type": "uint256"
				}
			],
			"stateMutability": "view",
			"type": "function"
		},
		{
			"inputs": [
				{
					"internalType": "uint256",
					"name": "",
					"type": "uint256"
				}
			],
			"name": "pots",
			"outputs": [
				{
					"internalType": "string",
					"name": "name",
					"type": "string"
				},
				{
					"internalType": "uint256",
					"name": "amount",
					"type": "uint256"
				},
				{
					"internalType": "uint256",
					"name": "riskPoolBalance",
					"type": "uint256"
				},
				{
					"internalType": "uint256",
					"name": "useRiskPoolBalance",
					"type": "uint256"
				},
				{
					"internalType": "uint256",
					"name": "rotationCycleInSeconds",
					"type": "uint256"
				},
				{
					"internalType": "uint256",
					"name": "lastRotationTime",
					"type": "uint256"
				},
				{
					"internalType": "uint256",
					"name": "interestNumerator",
					"type": "uint256"
				},
				{
					"internalType": "uint256",
					"name": "interestDenominator",
					"type": "uint256"
				},
				{
					"internalType": "uint256",
					"name": "numParticipants",
					"type": "uint256"
				},
				{
					"internalType": "uint256",
					"name": "currentRound",
					"type": "uint256"
				},
				{
					"internalType": "uint64",
					"name": "sequenceNumber",
					"type": "uint64"
				},
				{
					"internalType": "address",
					"name": "potCreator",
					"type": "address"
				}
			],
			"stateMutability": "view",
			"type": "function"
		},
		{
			"inputs": [],
			"name": "renounceOwnership",
			"outputs": [],
			"stateMutability": "nonpayable",
			"type": "function"
		},
		{
			"inputs": [
				{
					"internalType": "uint256",
					"name": "_potId",
					"type": "uint256"
				},
				{
					"internalType": "bytes32",
					"name": "userCommitment",
					"type": "bytes32"
				},
				{
					"internalType": "bytes32",
					"name": "userRandom",
					"type": "bytes32"
				},
				{
					"internalType": "bytes32",
					"name": "providerRandom",
					"type": "bytes32"
				}
			],
			"name": "rotateLiquidity",
			"outputs": [],
			"stateMutability": "payable",
			"type": "function"
		},
		{
			"inputs": [
				{
					"internalType": "bytes32",
					"name": "_merkleRoot",
					"type": "bytes32"
				},
				{
					"internalType": "uint256",
					"name": "_amount",
					"type": "uint256"
				}
			],
			"name": "setMerkleRoot",
			"outputs": [],
			"stateMutability": "payable",
			"type": "function"
		},
		{
			"inputs": [],
			"name": "totalRevenue",
			"outputs": [
				{
					"internalType": "uint256",
					"name": "",
					"type": "uint256"
				}
			],
			"stateMutability": "view",
			"type": "function"
		},
		{
			"inputs": [],
			"name": "totalYielDeposited",
			"outputs": [
				{
					"internalType": "uint256",
					"name": "",
					"type": "uint256"
				}
			],
			"stateMutability": "view",
			"type": "function"
		},
		{
			"inputs": [
				{
					"internalType": "address",
					"name": "newOwner",
					"type": "address"
				}
			],
			"name": "transferOwnership",
			"outputs": [],
			"stateMutability": "nonpayable",
			"type": "function"
		},
		{
			"inputs": [
				{
					"internalType": "uint256",
					"name": "_amount",
					"type": "uint256"
				}
			],
			"name": "updatePotCreationFee",
			"outputs": [],
			"stateMutability": "nonpayable",
			"type": "function"
		},
		{
			"inputs": [],
			"name": "usdbToken",
			"outputs": [
				{
					"internalType": "contract IERC20",
					"name": "",
					"type": "address"
				}
			],
			"stateMutability": "view",
			"type": "function"
		},
		{
			"inputs": [
				{
					"internalType": "uint256",
					"name": "_potId",
					"type": "uint256"
				},
				{
					"internalType": "uint256",
					"name": "_amount",
					"type": "uint256"
				},
				{
					"internalType": "bytes",
					"name": "signature",
					"type": "bytes"
				},
				{
					"internalType": "uint256",
					"name": "nonce",
					"type": "uint256"
				}
			],
			"name": "useRiskPool",
			"outputs": [],
			"stateMutability": "nonpayable",
			"type": "function"
		},
		{
			"inputs": [
				{
					"internalType": "uint256",
					"name": "_potId",
					"type": "uint256"
				},
				{
					"internalType": "uint256",
					"name": "_index",
					"type": "uint256"
				},
				{
					"internalType": "bool",
					"name": "_isWinner",
					"type": "bool"
				}
			],
			"name": "withdrawFromPot",
			"outputs": [],
			"stateMutability": "nonpayable",
			"type": "function"
		},
		{
			"inputs": [
				{
					"internalType": "bool",
					"name": "_isUsdb",
					"type": "bool"
				}
			],
			"name": "withdrawRevenue",
			"outputs": [],
			"stateMutability": "nonpayable",
			"type": "function"
		}
	]
}