{
	"data": {
		"bytecode": {
			"linkReferences": {},
			"object": "6080806040523461001b5760016004556121a990816100208239f35b5f80fdfe6080806040526004361015610012575f80fd5b5f3560e01c90816307dd3f4414611bee575080630fae644314611621578063210eaeae146113f95780632d971e631461137a5780632eb4a7ab1461135d57806331a0edec14610c825780634a80409e146113355780634d781b31146113085780634da1ec40146112ae57806361e7d80514610ff7578063715018a614610f9057806373b2e80e14610f5857806377d5d2dc14610ee35780637c382d0b14610e955780637d77990c14610e74578063818c554814610d3c57806382199e3f14610d1b5780638da5cb5b14610ce757806391dc969e14610ca457806397d7577614610c82578063ae169a5014610b60578063b7db43c814610a61578063bf2d9e0b14610a44578063c3c3df4f146108f3578063ca829f10146105e8578063ec71687b146105cb578063f2fde38b14610539578063f78aedf9146101b8578063f851a440146101905763fa54080114610166575f80fd5b3461018c57602036600319011261018c576020610184600435611f79565b604051908152f35b5f80fd5b3461018c575f36600319011261018c576002546040516001600160a01b039091168152602090f35b3461018c57606036600319011261018c576004356024356001600160401b03811161018c576101eb903690600401611c9f565b90805f526020600a815260405f2091600b83019081549160088501928354111561050657815f52600c845260405f20600986015490815f52855260405f20335f52855260ff60405f2054166104a3576040518581018481523360601b6bffffffffffffffffffffffff1916602082015260348101839052604435605482015296976102b5976102c592610298919061029081607484015b03601f198101835282611c23565b519020611f79565b6002546001600160a01b0399908a16928a926102be929190611ff4565b9092919261202e565b1614611eef565b5f838152600c86526040808220928252918652818120338083529087528282208054600160ff1991821681179092556008548b8301805496516323b872dd60e01b81526004810195909552306024860152604485019690965291999095938992849260649284929091165af1801561049857610348915f9161046b575b50611f3b565b335f52600e8801865260ff60405f2054161561045a575b5054600487015491600688015493600789015495549660405198610100928a5282828b01525f9a805461039181611cbd565b80958d0152610120956001821691825f146104305750506001146103ea575b5f805160206121548339815191528b808e8d8d8d8d8d3360408801526060870152608086015260a085015260c084015260e08301520390a1005b5f908152828120959b5093945b83851061041d575050505086010195815f80516020612154833981519152878a806103b0565b8054858c018701529382019381016103f7565b16868d015250505050151560051b8701019650815f80516020612154833981519152878a806103b0565b610465903390611e22565b8761035f565b61048b9150883d8a11610491575b6104838183611c23565b810190611dac565b8a610342565b503d610479565b6040513d5f823e3d90fd5b60405162461bcd60e51b815260048101869052603560248201527f596f75206861766520616c7265616479206a6f696e6564207468697320706f74604482015274081a5b881d1a194818dd5c9c995b9d081c9bdd5b99605a1b6064820152608490fd5b60405162461bcd60e51b815260048101859052600b60248201526a141bdd081a5cc8199d5b1b60aa1b6044820152606490fd5b3461018c57602036600319011261018c57610552611c89565b61055a611fbc565b6001600160a01b039081169081156105b3575f8051602061213483398151915280546001600160a01b031981168417909155167f8be0079c531659141344cd1fd0a4f28419497f9722a3daafe3b4186f6b6457e05f80a3005b604051631e4fbdf760e01b81525f6004820152602490fd5b3461018c575f36600319011261018c576020600654604051908152f35b608036600319011261018c57600435602435815f526020600a815260405f209160018060a01b0393845f541693856001541691600a820195856001600160401b03946084868a5416915f6040519586948593639371df5160e01b855260048501526024840152604435604484015260643560648401525af1908115610498575f916108c6575b50600b830197885480156108b25761068a82915f94068b611df9565b90549060031b1c16956106a087600c8701611e22565b6106b08a54600187015490611eb2565b916106cb6106c2606485048095611e65565b93600554611d52565b6005556106d88386611ec5565b9384936106f560038901916106f08354978892611e65565b611d52565b958a8352600d89018c5286604084205561071460028a01918254611d52565b905555875f52600e8601895260405f20600160ff19825416179055426005870155805f541690600154169060405190631711922960e31b82528260048301528a82602481845afa8015610498576001600160801b036064918d945f91610885575b501693610783853414611d5f565b60405194859384926393cbf21760e01b845260048401528760248401525f60448401525af1958615610498577f9ef3fbd1495a53d36401c5153be21a35a6214297031b5e106b12307835851d2f9760e0976009935f91610858575b50169a8b6001600160401b03198254161790550198895497604051958652898601528760408601526060850152608084015260a083015260c0820152a18354928315159182610846575b50505f845561083357005b610844925f525f2090810190611de3565b005b61084f90611d9e565b90558480610828565b61087891508c8d3d1061087e575b6108708183611c23565b810190611dc4565b8e6107de565b503d610866565b6108a59150853d87116108ab575b61089d8183611c23565b810190611d33565b5f610775565b503d610893565b634e487b7160e01b5f52601260045260245ffd5b90508581813d83116108ec575b6108dd8183611c23565b8101031261018c57518861066e565b503d6108d3565b3461018c5760208060031936011261018c576004355f52600a815260405f2090604051905f92805461092481611cbd565b80855290600190818116908115610a2657506001146109ef575b505061094f8361099b950384611c23565b6001810154906002810154600382015460048301546005840154600685015491600786015493600887015495600a6009890154980154986040519c8d9c8d610180908181520190611cf5565b9a8c015260408b015260608a0152608089015260a088015260c087015260e08601526101008501526101208401526001600160401b03811661014084015260018060a01b039060401c166101608301520390f35b5f8381528481209096505b828710610a135750505092820181019261094f8361093e565b80548688018601529584019581016109fa565b60ff1916858701525050151560051b83018201935061094f8361093e565b3461018c575f36600319011261018c576020600554604051908152f35b3461018c57602036600319011261018c57600435801515810361018c57610a86611fbc565b15610b40576005548015610b02575f600581905560085460405163a9059cbb60e01b81523360048201526024810193909352602091839160449183916001600160a01b03165af1801561049857610844915f91610ae35750611f3b565b610afc915060203d602011610491576104838183611c23565b82610342565b60405162461bcd60e51b81526020600482015260166024820152754e6f20726576656e756520746f20776974686472617760501b6044820152606490fd5b5f80808047818115610b57575b3390f11561049857005b506108fc610b4d565b3461018c5760208060031936011261018c5760043590815f52600a8152600d60405f2001335f5280825260405f205415610c4857335f8181529183526040808320805490849055600854915163a9059cbb60e01b8152600481019390935260248301819052919492849186916044918391906001600160a01b03165af192831561049857610c186060947f24b5efa61dd1cfc659205a97fb8ed868f3cb8c81922bab2b96423e5de1de2cb7965f91610c2b5750611f3b565b60405192835233908301526040820152a1005b610c429150833d8511610491576104838183611c23565b87610342565b60405162461bcd60e51b81526004810183905260126024820152714e6f2072657761726420746f20636c61696d60701b6044820152606490fd5b3461018c575f36600319011261018c576040516022602160991b018152602090f35b3461018c57602036600319011261018c57610cbd611c89565b610cc5611fbc565b600280546001600160a01b0319166001600160a01b0392909216919091179055005b3461018c575f36600319011261018c575f80516020612134833981519152546040516001600160a01b039091168152602090f35b3461018c57602036600319011261018c57610d34611fbc565b600435600655005b3461018c57608036600319011261018c576024356004356044356001600160401b03811161018c57610d75610de9913690600401611c9f565b825f52600a602052610dcb60405f20936040516102908161028260208201948a606435913390889290916074949284526bffffffffffffffffffffffff199060601b166020840152603483015260548201520190565b6002546001600160a01b039081169290916102be916102b591611ff4565b60028101918254818110610e0957816003610e05940155611e65565b9055005b60405162461bcd60e51b815260206004820152603860248201527f616d6f756e742073686f756c64206265206c657373207468616e206f7220657160448201527f75616c20746f207269736b20706f6f6c2062616c616e636500000000000000006064820152608490fd5b3461018c57604036600319011261018c576020610184602435600435611ec5565b604036600319011261018c57602435610eac611fbc565b600435600355805f8115610eda575b5f80809381933390f11561049857610ed590600754611d52565b600755005b506108fc610ebb565b3461018c575f36600319011261018c57610efb611fbc565b604051634aa7d2f760e11b81523060048201523360248201526020816044815f6022602160991b015af1801561049857610f3157005b602090813d8311610f51575b610f478183611c23565b8101031261018c57005b503d610f3d565b3461018c57602036600319011261018c576001600160a01b03610f79611c89565b165f526009602052602060405f2054604051908152f35b3461018c575f36600319011261018c57610fa8611fbc565b5f8051602061213483398151915280546001600160a01b031981169091555f906001600160a01b03167f8be0079c531659141344cd1fd0a4f28419497f9722a3daafe3b4186f6b6457e08280a3005b3461018c57604036600319011261018c5760246001600160401b03600435823582811161018c573660238201121561018c57806004013592831161018c5760058360051b9480868401019236841161018c5760405193602094858101903360601b82528760348201526034815261106d81611c08565b5190209160035497611084876040519b018b611c23565b8952830185808a015b83831061129e5750505050935f945b87518610156110d95785841b880185015190818110156110c9575f528452600160405f205b95019461109c565b905f528452600160405f206110c1565b908685920361126a57335f526009825260405f205481811015611213576111009082611e65565b9081600754106111d7576111665f92849233855260098452604085205561112981600754611e65565b60075560085460405163a9059cbb60e01b81523360048201526024810192909252909384926001600160a01b039092169183919082906044820190565b03925af1908115610498575f916111ba575b501561118057005b60156064926040519262461bcd60e51b8452600484015282015274165a595b19081d1c985b9cd9995c8819985a5b1959605a1b6044820152fd5b6111d19150823d8411610491576104838183611c23565b83611178565b60405162461bcd60e51b81526004810184905260158186015274139bc8199d5b991cc81a5b881d1a19481d985d5b1d605a1b6044820152606490fd5b60405162461bcd60e51b815260048101849052602a818601527f4e6f2066756e6473206c65667420746f20636c61696d206f7220616c726561646044820152693c9031b630b4b6b2b21760b11b6064820152608490fd5b50600e6064926040519262461bcd60e51b845260048401528201526d24b73b30b634b210383937b7b31760911b6044820152fd5b823581529181019187910161108d565b3461018c57606036600319011261018c576044356001600160a01b0381169081900361018c576004355f52600c60205260405f206024355f5260205260405f20905f52602052602060ff60405f2054166040519015158152f35b3461018c57602036600319011261018c576004355f52600a6020526020600260405f200154604051908152f35b3461018c575f36600319011261018c576008546040516001600160a01b039091168152602090f35b3461018c575f36600319011261018c576020600354604051908152f35b3461018c575f36600319011261018c575f54600154604051631711922960e31b81526001600160a01b0391821660048201529160209183916024918391165afa8015610498576020915f916113dc575b506001600160801b0360405191168152f35b6113f39150823d84116108ab5761089d8183611c23565b826113ca565b3461018c57606036600319011261018c5760443560243560043582158015840361018c57815f52602093600a855260405f2091600c865260405f2060098401545f52865260405f20335f52865260ff60405f205416156115dc578190816115ce575b81156115b3575b501561156e571561152057600c01928354925f19840193841161150c577fcef8fac05afb87995942422eac900de6af11a555d80d075340af81db492119fe9484826040966114b794036114c4575b5050611e72565b82519182523390820152a1005b6114de6114d46115059385611df9565b9190549285611df9565b81546001600160a01b03600392831b81811b199092169490921b9490941c1690921b179055565b86806114b0565b634e487b7160e01b5f52601160045260245ffd5b600b01928354925f19840193841161150c577fcef8fac05afb87995942422eac900de6af11a555d80d075340af81db492119fe94848260409661156994036114c4575050611e72565b6114b7565b60405162461bcd60e51b815260048101869052601e60248201527f496e76616c696420696e64657820666f72207061727469636970616e747300006044820152606490fd5b9050806115c1575b86611462565b50600b82015484106115bb565b600c8401548610915061145b565b60405162461bcd60e51b815260048101879052601c60248201527f596f752068617665206e6f74206a6f696e6564207468697320706f74000000006044820152606490fd5b60e036600319011261018c576004356001600160401b03811161018c573660238201121561018c5761165d903690602481600401359101611c44565b5f54600154604051631711922960e31b81526001600160a01b0391821660048201529160209183916024918391165afa908115610498575f91611bcf575b506116bb6116b46006546001600160801b038416611d52565b3414611d5f565b60443515611b8a5760643515611b375760643560843511611ad6576004546116e281611d9e565b60049081556008546040516323b872dd60e01b8152339281019290925230602483015260c4356044830152602090829060649082905f906001600160a01b03165af1908115610498575f91611ab7575b5015611a60575f80546001546040516393cbf21760e01b81526001600160a01b039182166004820152602480359082015260448101939093529193602092859260649284926001600160801b0390911691165af1918215610498575f92611a3f575b50805f52600a60205260405f2083516001600160401b038111611a2b576117bb8254611cbd565b601f81116119f0575b506020601f821160011461197a5791815f80516020612154833981519152969261193c945f9161196f575b508160011b915f199060031b1c19161781555b60c43560018201555f60028201556001600160401b03600a8201951694805486600160401b600160e01b033360401b169163ffffffff60e01b161717905560443560048201556084356006820155606435600782015542600582015560a435600882015561187c600982019160018355600b339101611e22565b835f52600c60205260405f2090545f5260205260405f20335f5260205260405f20600160ff198254161790557f37bb26f2981ad94b38afe928452cad1bca628b82f1781d95ec69d53acf5d0d9b604051806118e4610140878352806020840152820185611cf5565b33604083015260c4356060830152604435608083015260843560a083015260643560c083015260a43560e083015261010097888301526024356101208301520390a16040519384938452806020850152830190611cf5565b33604083015260c4356060830152604435608083015260843560a083015260643560c083015260a43560e08301520390a1005b9050830151886117ef565b825f5260205f20905f5b601f19841681106119d857508261193c94926001925f805160206121548339815191529995601f198116106119c0575b5050811b018155611802565b8501515f1960f88460031b161c1916905588806119b4565b9091602060018192858b015181550193019101611984565b611a1b90835f5260205f20601f840160051c81019160208510611a21575b601f0160051c0190611de3565b856117c4565b9091508190611a0e565b634e487b7160e01b5f52604160045260245ffd5b611a5991925060203d60201161087e576108708183611c23565b9083611794565b60405162461bcd60e51b815260206004820152602960248201527f43726561746f722073686f756c64206465706f7369742074686520696e697469604482015268185b08185b5bdd5b9d60ba1b6064820152608490fd5b611ad0915060203d602011610491576104838183611c23565b84611732565b60405162461bcd60e51b815260206004820152603360248201527f4e756d657261746f72206d757374206265206c657373207468616e206f72206560448201527238bab0b6103a37903232b737b6b4b730ba37b960691b6064820152608490fd5b60405162461bcd60e51b815260206004820152602560248201527f496e7465726573742064656e6f6d696e61746f72206d75737420626520706f73604482015264697469766560d81b6064820152608490fd5b60405162461bcd60e51b815260206004820152601f60248201527f526f746174696f6e206379636c65206d75737420626520706f736974697665006044820152606490fd5b611be8915060203d6020116108ab5761089d8183611c23565b8261169b565b3461018c575f36600319011261018c576020906007548152f35b606081019081106001600160401b03821117611a2b57604052565b90601f801991011681019081106001600160401b03821117611a2b57604052565b9291926001600160401b038211611a2b5760405191611c6d601f8201601f191660200184611c23565b82948184528183011161018c578281602093845f960137010152565b600435906001600160a01b038216820361018c57565b9080601f8301121561018c57816020611cba93359101611c44565b90565b90600182811c92168015611ceb575b6020831014611cd757565b634e487b7160e01b5f52602260045260245ffd5b91607f1691611ccc565b91908251928382525f5b848110611d1f575050825f602080949584010152601f8019910116010190565b602081830181015184830182015201611cff565b9081602091031261018c57516001600160801b038116810361018c5790565b9190820180921161150c57565b15611d6657565b60405162461bcd60e51b815260206004820152601060248201526f496e73756666696369656e742066656560801b6044820152606490fd5b5f19811461150c5760010190565b9081602091031261018c5751801515810361018c5790565b9081602091031261018c57516001600160401b038116810361018c5790565b818110611dee575050565b5f8155600101611de3565b8054821015611e0e575f5260205f2001905f90565b634e487b7160e01b5f52603260045260245ffd5b90815491600160401b831015611a2b5782611e45916001611e6395018155611df9565b90919060018060a01b038084549260031b9316831b921b1916179055565b565b9190820391821161150c57565b80548015611e9e575f190190611e888282611df9565b81549060018060a01b039060031b1b1916905555565b634e487b7160e01b5f52603160045260245ffd5b8181029291811591840414171561150c57565b5f52600a6020526007611ee160405f2092600684015490611eb2565b9101549081156108b2570490565b15611ef657565b60405162461bcd60e51b815260206004820152601d60248201527f5369676e617475726520766572696669636174696f6e206661696c65640000006044820152606490fd5b15611f4257565b60405162461bcd60e51b815260206004820152600f60248201526e151c985b9cd9995c8819985a5b1959608a1b6044820152606490fd5b60405160208101917f19457468657265756d205369676e6564204d6573736167653a0a3332000000008352603c820152603c8152611fb681611c08565b51902090565b5f80516020612134833981519152546001600160a01b03163303611fdc57565b60405163118cdaa760e01b8152336004820152602490fd5b81519190604183036120245761201d9250602082015190606060408401519301515f1a906120b1565b9192909190565b50505f9160029190565b600481101561209d5780612040575050565b6001810361205a5760405163f645eedf60e01b8152600490fd5b6002810361207b5760405163fce698f760e01b815260048101839052602490fd5b6003146120855750565b602490604051906335e2f38360e21b82526004820152fd5b634e487b7160e01b5f52602160045260245ffd5b91907f7fffffffffffffffffffffffffffffff5d576e7357a4501ddfe92f46681b20a08411612128579160209360809260ff5f9560405194855216868401526040830152606082015282805260015afa15610498575f516001600160a01b0381161561211e57905f905f90565b505f906001905f90565b5050505f916003919056fe9016d09d72d40fdae2fd8ceac6b6234c7706214fd39c1cd1e609a0528c19930043d2f309913f6afc5d717f60864d2d192b69963d25204b6a12765e2795bf027fa2646970667358221220838963d29023fe42c230c4bd254a5282d9a44cdc1501f20939413cce7c83b39564736f6c63430008170033",
			"opcodes": "PUSH1 0x80 DUP1 PUSH1 0x40 MSTORE CALLVALUE PUSH2 0x1B JUMPI PUSH1 0x1 PUSH1 0x4 SSTORE PUSH2 0x21A9 SWAP1 DUP2 PUSH2 0x20 DUP3 CODECOPY RETURN JUMPDEST PUSH0 DUP1 REVERT INVALID PUSH1 0x80 DUP1 PUSH1 0x40 MSTORE PUSH1 0x4 CALLDATASIZE LT ISZERO PUSH2 0x12 JUMPI PUSH0 DUP1 REVERT JUMPDEST PUSH0 CALLDATALOAD PUSH1 0xE0 SHR SWAP1 DUP2 PUSH4 0x7DD3F44 EQ PUSH2 0x1BEE JUMPI POP DUP1 PUSH4 0xFAE6443 EQ PUSH2 0x1621 JUMPI DUP1 PUSH4 0x210EAEAE EQ PUSH2 0x13F9 JUMPI DUP1 PUSH4 0x2D971E63 EQ PUSH2 0x137A JUMPI DUP1 PUSH4 0x2EB4A7AB EQ PUSH2 0x135D JUMPI DUP1 PUSH4 0x31A0EDEC EQ PUSH2 0xC82 JUMPI DUP1 PUSH4 0x4A80409E EQ PUSH2 0x1335 JUMPI DUP1 PUSH4 0x4D781B31 EQ PUSH2 0x1308 JUMPI DUP1 PUSH4 0x4DA1EC40 EQ PUSH2 0x12AE JUMPI DUP1 PUSH4 0x61E7D805 EQ PUSH2 0xFF7 JUMPI DUP1 PUSH4 0x715018A6 EQ PUSH2 0xF90 JUMPI DUP1 PUSH4 0x73B2E80E EQ PUSH2 0xF58 JUMPI DUP1 PUSH4 0x77D5D2DC EQ PUSH2 0xEE3 JUMPI DUP1 PUSH4 0x7C382D0B EQ PUSH2 0xE95 JUMPI DUP1 PUSH4 0x7D77990C EQ PUSH2 0xE74 JUMPI DUP1 PUSH4 0x818C5548 EQ PUSH2 0xD3C JUMPI DUP1 PUSH4 0x82199E3F EQ PUSH2 0xD1B JUMPI DUP1 PUSH4 0x8DA5CB5B EQ PUSH2 0xCE7 JUMPI DUP1 PUSH4 0x91DC969E EQ PUSH2 0xCA4 JUMPI DUP1 PUSH4 0x97D75776 EQ PUSH2 0xC82 JUMPI DUP1 PUSH4 0xAE169A50 EQ PUSH2 0xB60 JUMPI DUP1 PUSH4 0xB7DB43C8 EQ PUSH2 0xA61 JUMPI DUP1 PUSH4 0xBF2D9E0B EQ PUSH2 0xA44 JUMPI DUP1 PUSH4 0xC3C3DF4F EQ PUSH2 0x8F3 JUMPI DUP1 PUSH4 0xCA829F10 EQ PUSH2 0x5E8 JUMPI DUP1 PUSH4 0xEC71687B EQ PUSH2 0x5CB JUMPI DUP1 PUSH4 0xF2FDE38B EQ PUSH2 0x539 JUMPI DUP1 PUSH4 0xF78AEDF9 EQ PUSH2 0x1B8 JUMPI DUP1 PUSH4 0xF851A440 EQ PUSH2 0x190 JUMPI PUSH4 0xFA540801 EQ PUSH2 0x166 JUMPI PUSH0 DUP1 REVERT JUMPDEST CALLVALUE PUSH2 0x18C JUMPI PUSH1 0x20 CALLDATASIZE PUSH1 0x3 NOT ADD SLT PUSH2 0x18C JUMPI PUSH1 0x20 PUSH2 0x184 PUSH1 0x4 CALLDATALOAD PUSH2 0x1F79 JUMP JUMPDEST PUSH1 0x40 MLOAD SWAP1 DUP2 MSTORE RETURN JUMPDEST PUSH0 DUP1 REVERT JUMPDEST CALLVALUE PUSH2 0x18C JUMPI PUSH0 CALLDATASIZE PUSH1 0x3 NOT ADD SLT PUSH2 0x18C JUMPI PUSH1 0x2 SLOAD PUSH1 0x40 MLOAD PUSH1 0x1 PUSH1 0x1 PUSH1 0xA0 SHL SUB SWAP1 SWAP2 AND DUP2 MSTORE PUSH1 0x20 SWAP1 RETURN JUMPDEST CALLVALUE PUSH2 0x18C JUMPI PUSH1 0x60 CALLDATASIZE PUSH1 0x3 NOT ADD SLT PUSH2 0x18C JUMPI PUSH1 0x4 CALLDATALOAD PUSH1 0x24 CALLDATALOAD PUSH1 0x1 PUSH1 0x1 PUSH1 0x40 SHL SUB DUP2 GT PUSH2 0x18C JUMPI PUSH2 0x1EB SWAP1 CALLDATASIZE SWAP1 PUSH1 0x4 ADD PUSH2 0x1C9F JUMP JUMPDEST SWAP1 DUP1 PUSH0 MSTORE PUSH1 0x20 PUSH1 0xA DUP2 MSTORE PUSH1 0x40 PUSH0 KECCAK256 SWAP2 PUSH1 0xB DUP4 ADD SWAP1 DUP2 SLOAD SWAP2 PUSH1 0x8 DUP6 ADD SWAP3 DUP4 SLOAD GT ISZERO PUSH2 0x506 JUMPI DUP2 PUSH0 MSTORE PUSH1 0xC DUP5 MSTORE PUSH1 0x40 PUSH0 KECCAK256 PUSH1 0x9 DUP7 ADD SLOAD SWAP1 DUP2 PUSH0 MSTORE DUP6 MSTORE PUSH1 0x40 PUSH0 KECCAK256 CALLER PUSH0 MSTORE DUP6 MSTORE PUSH1 0xFF PUSH1 0x40 PUSH0 KECCAK256 SLOAD AND PUSH2 0x4A3 JUMPI PUSH1 0x40 MLOAD DUP6 DUP2 ADD DUP5 DUP2 MSTORE CALLER PUSH1 0x60 SHL PUSH12 0xFFFFFFFFFFFFFFFFFFFFFFFF NOT AND PUSH1 0x20 DUP3 ADD MSTORE PUSH1 0x34 DUP2 ADD DUP4 SWAP1 MSTORE PUSH1 0x44 CALLDATALOAD PUSH1 0x54 DUP3 ADD MSTORE SWAP7 SWAP8 PUSH2 0x2B5 SWAP8 PUSH2 0x2C5 SWAP3 PUSH2 0x298 SWAP2 SWAP1 PUSH2 0x290 DUP2 PUSH1 0x74 DUP5 ADD JUMPDEST SUB PUSH1 0x1F NOT DUP2 ADD DUP4 MSTORE DUP3 PUSH2 0x1C23 JUMP JUMPDEST MLOAD SWAP1 KECCAK256 PUSH2 0x1F79 JUMP JUMPDEST PUSH1 0x2 SLOAD PUSH1 0x1 PUSH1 0x1 PUSH1 0xA0 SHL SUB SWAP10 SWAP1 DUP11 AND SWAP3 DUP11 SWAP3 PUSH2 0x2BE SWAP3 SWAP2 SWAP1 PUSH2 0x1FF4 JUMP JUMPDEST SWAP1 SWAP3 SWAP2 SWAP3 PUSH2 0x202E JUMP JUMPDEST AND EQ PUSH2 0x1EEF JUMP JUMPDEST PUSH0 DUP4 DUP2 MSTORE PUSH1 0xC DUP7 MSTORE PUSH1 0x40 DUP1 DUP3 KECCAK256 SWAP3 DUP3 MSTORE SWAP2 DUP7 MSTORE DUP2 DUP2 KECCAK256 CALLER DUP1 DUP4 MSTORE SWAP1 DUP8 MSTORE DUP3 DUP3 KECCAK256 DUP1 SLOAD PUSH1 0x1 PUSH1 0xFF NOT SWAP2 DUP3 AND DUP2 OR SWAP1 SWAP3 SSTORE PUSH1 0x8 SLOAD DUP12 DUP4 ADD DUP1 SLOAD SWAP7 MLOAD PUSH4 0x23B872DD PUSH1 0xE0 SHL DUP2 MSTORE PUSH1 0x4 DUP2 ADD SWAP6 SWAP1 SWAP6 MSTORE ADDRESS PUSH1 0x24 DUP7 ADD MSTORE PUSH1 0x44 DUP6 ADD SWAP7 SWAP1 SWAP7 MSTORE SWAP2 SWAP10 SWAP1 SWAP6 SWAP4 DUP10 SWAP3 DUP5 SWAP3 PUSH1 0x64 SWAP3 DUP5 SWAP3 SWAP1 SWAP2 AND GAS CALL DUP1 ISZERO PUSH2 0x498 JUMPI PUSH2 0x348 SWAP2 PUSH0 SWAP2 PUSH2 0x46B JUMPI JUMPDEST POP PUSH2 0x1F3B JUMP JUMPDEST CALLER PUSH0 MSTORE PUSH1 0xE DUP9 ADD DUP7 MSTORE PUSH1 0xFF PUSH1 0x40 PUSH0 KECCAK256 SLOAD AND ISZERO PUSH2 0x45A JUMPI JUMPDEST POP SLOAD PUSH1 0x4 DUP8 ADD SLOAD SWAP2 PUSH1 0x6 DUP9 ADD SLOAD SWAP4 PUSH1 0x7 DUP10 ADD SLOAD SWAP6 SLOAD SWAP7 PUSH1 0x40 MLOAD SWAP9 PUSH2 0x100 SWAP3 DUP11 MSTORE DUP3 DUP3 DUP12 ADD MSTORE PUSH0 SWAP11 DUP1 SLOAD PUSH2 0x391 DUP2 PUSH2 0x1CBD JUMP JUMPDEST DUP1 SWAP6 DUP14 ADD MSTORE PUSH2 0x120 SWAP6 PUSH1 0x1 DUP3 AND SWAP2 DUP3 PUSH0 EQ PUSH2 0x430 JUMPI POP POP PUSH1 0x1 EQ PUSH2 0x3EA JUMPI JUMPDEST PUSH0 DUP1 MLOAD PUSH1 0x20 PUSH2 0x2154 DUP4 CODECOPY DUP2 MLOAD SWAP2 MSTORE DUP12 DUP1 DUP15 DUP14 DUP14 DUP14 DUP14 DUP14 CALLER PUSH1 0x40 DUP9 ADD MSTORE PUSH1 0x60 DUP8 ADD MSTORE PUSH1 0x80 DUP7 ADD MSTORE PUSH1 0xA0 DUP6 ADD MSTORE PUSH1 0xC0 DUP5 ADD MSTORE PUSH1 0xE0 DUP4 ADD MSTORE SUB SWAP1 LOG1 STOP JUMPDEST PUSH0 SWAP1 DUP2 MSTORE DUP3 DUP2 KECCAK256 SWAP6 SWAP12 POP SWAP4 SWAP5 JUMPDEST DUP4 DUP6 LT PUSH2 0x41D JUMPI POP POP POP POP DUP7 ADD ADD SWAP6 DUP2 PUSH0 DUP1 MLOAD PUSH1 0x20 PUSH2 0x2154 DUP4 CODECOPY DUP2 MLOAD SWAP2 MSTORE DUP8 DUP11 DUP1 PUSH2 0x3B0 JUMP JUMPDEST DUP1 SLOAD DUP6 DUP13 ADD DUP8 ADD MSTORE SWAP4 DUP3 ADD SWAP4 DUP2 ADD PUSH2 0x3F7 JUMP JUMPDEST AND DUP7 DUP14 ADD MSTORE POP POP POP POP ISZERO ISZERO PUSH1 0x5 SHL DUP8 ADD ADD SWAP7 POP DUP2 PUSH0 DUP1 MLOAD PUSH1 0x20 PUSH2 0x2154 DUP4 CODECOPY DUP2 MLOAD SWAP2 MSTORE DUP8 DUP11 DUP1 PUSH2 0x3B0 JUMP JUMPDEST PUSH2 0x465 SWAP1 CALLER SWAP1 PUSH2 0x1E22 JUMP JUMPDEST DUP8 PUSH2 0x35F JUMP JUMPDEST PUSH2 0x48B SWAP2 POP DUP9 RETURNDATASIZE DUP11 GT PUSH2 0x491 JUMPI JUMPDEST PUSH2 0x483 DUP2 DUP4 PUSH2 0x1C23 JUMP JUMPDEST DUP2 ADD SWAP1 PUSH2 0x1DAC JUMP JUMPDEST DUP11 PUSH2 0x342 JUMP JUMPDEST POP RETURNDATASIZE PUSH2 0x479 JUMP JUMPDEST PUSH1 0x40 MLOAD RETURNDATASIZE PUSH0 DUP3 RETURNDATACOPY RETURNDATASIZE SWAP1 REVERT JUMPDEST PUSH1 0x40 MLOAD PUSH3 0x461BCD PUSH1 0xE5 SHL DUP2 MSTORE PUSH1 0x4 DUP2 ADD DUP7 SWAP1 MSTORE PUSH1 0x35 PUSH1 0x24 DUP3 ADD MSTORE PUSH32 0x596F75206861766520616C7265616479206A6F696E6564207468697320706F74 PUSH1 0x44 DUP3 ADD MSTORE PUSH21 0x81A5B881D1A194818DD5C9C995B9D081C9BDD5B99 PUSH1 0x5A SHL PUSH1 0x64 DUP3 ADD MSTORE PUSH1 0x84 SWAP1 REVERT JUMPDEST PUSH1 0x40 MLOAD PUSH3 0x461BCD PUSH1 0xE5 SHL DUP2 MSTORE PUSH1 0x4 DUP2 ADD DUP6 SWAP1 MSTORE PUSH1 0xB PUSH1 0x24 DUP3 ADD MSTORE PUSH11 0x141BDD081A5CC8199D5B1B PUSH1 0xAA SHL PUSH1 0x44 DUP3 ADD MSTORE PUSH1 0x64 SWAP1 REVERT JUMPDEST CALLVALUE PUSH2 0x18C JUMPI PUSH1 0x20 CALLDATASIZE PUSH1 0x3 NOT ADD SLT PUSH2 0x18C JUMPI PUSH2 0x552 PUSH2 0x1C89 JUMP JUMPDEST PUSH2 0x55A PUSH2 0x1FBC JUMP JUMPDEST PUSH1 0x1 PUSH1 0x1 PUSH1 0xA0 SHL SUB SWAP1 DUP2 AND SWAP1 DUP2 ISZERO PUSH2 0x5B3 JUMPI PUSH0 DUP1 MLOAD PUSH1 0x20 PUSH2 0x2134 DUP4 CODECOPY DUP2 MLOAD SWAP2 MSTORE DUP1 SLOAD PUSH1 0x1 PUSH1 0x1 PUSH1 0xA0 SHL SUB NOT DUP2 AND DUP5 OR SWAP1 SWAP2 SSTORE AND PUSH32 0x8BE0079C531659141344CD1FD0A4F28419497F9722A3DAAFE3B4186F6B6457E0 PUSH0 DUP1 LOG3 STOP JUMPDEST PUSH1 0x40 MLOAD PUSH4 0x1E4FBDF7 PUSH1 0xE0 SHL DUP2 MSTORE PUSH0 PUSH1 0x4 DUP3 ADD MSTORE PUSH1 0x24 SWAP1 REVERT JUMPDEST CALLVALUE PUSH2 0x18C JUMPI PUSH0 CALLDATASIZE PUSH1 0x3 NOT ADD SLT PUSH2 0x18C JUMPI PUSH1 0x20 PUSH1 0x6 SLOAD PUSH1 0x40 MLOAD SWAP1 DUP2 MSTORE RETURN JUMPDEST PUSH1 0x80 CALLDATASIZE PUSH1 0x3 NOT ADD SLT PUSH2 0x18C JUMPI PUSH1 0x4 CALLDATALOAD PUSH1 0x24 CALLDATALOAD DUP2 PUSH0 MSTORE PUSH1 0x20 PUSH1 0xA DUP2 MSTORE PUSH1 0x40 PUSH0 KECCAK256 SWAP2 PUSH1 0x1 DUP1 PUSH1 0xA0 SHL SUB SWAP4 DUP5 PUSH0 SLOAD AND SWAP4 DUP6 PUSH1 0x1 SLOAD AND SWAP2 PUSH1 0xA DUP3 ADD SWAP6 DUP6 PUSH1 0x1 PUSH1 0x1 PUSH1 0x40 SHL SUB SWAP5 PUSH1 0x84 DUP7 DUP11 SLOAD AND SWAP2 PUSH0 PUSH1 0x40 MLOAD SWAP6 DUP7 SWAP5 DUP6 SWAP4 PUSH4 0x9371DF51 PUSH1 0xE0 SHL DUP6 MSTORE PUSH1 0x4 DUP6 ADD MSTORE PUSH1 0x24 DUP5 ADD MSTORE PUSH1 0x44 CALLDATALOAD PUSH1 0x44 DUP5 ADD MSTORE PUSH1 0x64 CALLDATALOAD PUSH1 0x64 DUP5 ADD MSTORE GAS CALL SWAP1 DUP2 ISZERO PUSH2 0x498 JUMPI PUSH0 SWAP2 PUSH2 0x8C6 JUMPI JUMPDEST POP PUSH1 0xB DUP4 ADD SWAP8 DUP9 SLOAD DUP1 ISZERO PUSH2 0x8B2 JUMPI PUSH2 0x68A DUP3 SWAP2 PUSH0 SWAP5 MOD DUP12 PUSH2 0x1DF9 JUMP JUMPDEST SWAP1 SLOAD SWAP1 PUSH1 0x3 SHL SHR AND SWAP6 PUSH2 0x6A0 DUP8 PUSH1 0xC DUP8 ADD PUSH2 0x1E22 JUMP JUMPDEST PUSH2 0x6B0 DUP11 SLOAD PUSH1 0x1 DUP8 ADD SLOAD SWAP1 PUSH2 0x1EB2 JUMP JUMPDEST SWAP2 PUSH2 0x6CB PUSH2 0x6C2 PUSH1 0x64 DUP6 DIV DUP1 SWAP6 PUSH2 0x1E65 JUMP JUMPDEST SWAP4 PUSH1 0x5 SLOAD PUSH2 0x1D52 JUMP JUMPDEST PUSH1 0x5 SSTORE PUSH2 0x6D8 DUP4 DUP7 PUSH2 0x1EC5 JUMP JUMPDEST SWAP4 DUP5 SWAP4 PUSH2 0x6F5 PUSH1 0x3 DUP10 ADD SWAP2 PUSH2 0x6F0 DUP4 SLOAD SWAP8 DUP9 SWAP3 PUSH2 0x1E65 JUMP JUMPDEST PUSH2 0x1D52 JUMP JUMPDEST SWAP6 DUP11 DUP4 MSTORE PUSH1 0xD DUP10 ADD DUP13 MSTORE DUP7 PUSH1 0x40 DUP5 KECCAK256 SSTORE PUSH2 0x714 PUSH1 0x2 DUP11 ADD SWAP2 DUP3 SLOAD PUSH2 0x1D52 JUMP JUMPDEST SWAP1 SSTORE SSTORE DUP8 PUSH0 MSTORE PUSH1 0xE DUP7 ADD DUP10 MSTORE PUSH1 0x40 PUSH0 KECCAK256 PUSH1 0x1 PUSH1 0xFF NOT DUP3 SLOAD AND OR SWAP1 SSTORE TIMESTAMP PUSH1 0x5 DUP8 ADD SSTORE DUP1 PUSH0 SLOAD AND SWAP1 PUSH1 0x1 SLOAD AND SWAP1 PUSH1 0x40 MLOAD SWAP1 PUSH4 0x17119229 PUSH1 0xE3 SHL DUP3 MSTORE DUP3 PUSH1 0x4 DUP4 ADD MSTORE DUP11 DUP3 PUSH1 0x24 DUP2 DUP5 GAS STATICCALL DUP1 ISZERO PUSH2 0x498 JUMPI PUSH1 0x1 PUSH1 0x1 PUSH1 0x80 SHL SUB PUSH1 0x64 SWAP2 DUP14 SWAP5 PUSH0 SWAP2 PUSH2 0x885 JUMPI JUMPDEST POP AND SWAP4 PUSH2 0x783 DUP6 CALLVALUE EQ PUSH2 0x1D5F JUMP JUMPDEST PUSH1 0x40 MLOAD SWAP5 DUP6 SWAP4 DUP5 SWAP3 PUSH4 0x93CBF217 PUSH1 0xE0 SHL DUP5 MSTORE PUSH1 0x4 DUP5 ADD MSTORE DUP8 PUSH1 0x24 DUP5 ADD MSTORE PUSH0 PUSH1 0x44 DUP5 ADD MSTORE GAS CALL SWAP6 DUP7 ISZERO PUSH2 0x498 JUMPI PUSH32 0x9EF3FBD1495A53D36401C5153BE21A35A6214297031B5E106B12307835851D2F SWAP8 PUSH1 0xE0 SWAP8 PUSH1 0x9 SWAP4 PUSH0 SWAP2 PUSH2 0x858 JUMPI JUMPDEST POP AND SWAP11 DUP12 PUSH1 0x1 PUSH1 0x1 PUSH1 0x40 SHL SUB NOT DUP3 SLOAD AND OR SWAP1 SSTORE ADD SWAP9 DUP10 SLOAD SWAP8 PUSH1 0x40 MLOAD SWAP6 DUP7 MSTORE DUP10 DUP7 ADD MSTORE DUP8 PUSH1 0x40 DUP7 ADD MSTORE PUSH1 0x60 DUP6 ADD MSTORE PUSH1 0x80 DUP5 ADD MSTORE PUSH1 0xA0 DUP4 ADD MSTORE PUSH1 0xC0 DUP3 ADD MSTORE LOG1 DUP4 SLOAD SWAP3 DUP4 ISZERO ISZERO SWAP2 DUP3 PUSH2 0x846 JUMPI JUMPDEST POP POP PUSH0 DUP5 SSTORE PUSH2 0x833 JUMPI STOP JUMPDEST PUSH2 0x844 SWAP3 PUSH0 MSTORE PUSH0 KECCAK256 SWAP1 DUP2 ADD SWAP1 PUSH2 0x1DE3 JUMP JUMPDEST STOP JUMPDEST PUSH2 0x84F SWAP1 PUSH2 0x1D9E JUMP JUMPDEST SWAP1 SSTORE DUP5 DUP1 PUSH2 0x828 JUMP JUMPDEST PUSH2 0x878 SWAP2 POP DUP13 DUP14 RETURNDATASIZE LT PUSH2 0x87E JUMPI JUMPDEST PUSH2 0x870 DUP2 DUP4 PUSH2 0x1C23 JUMP JUMPDEST DUP2 ADD SWAP1 PUSH2 0x1DC4 JUMP JUMPDEST DUP15 PUSH2 0x7DE JUMP JUMPDEST POP RETURNDATASIZE PUSH2 0x866 JUMP JUMPDEST PUSH2 0x8A5 SWAP2 POP DUP6 RETURNDATASIZE DUP8 GT PUSH2 0x8AB JUMPI JUMPDEST PUSH2 0x89D DUP2 DUP4 PUSH2 0x1C23 JUMP JUMPDEST DUP2 ADD SWAP1 PUSH2 0x1D33 JUMP JUMPDEST PUSH0 PUSH2 0x775 JUMP JUMPDEST POP RETURNDATASIZE PUSH2 0x893 JUMP JUMPDEST PUSH4 0x4E487B71 PUSH1 0xE0 SHL PUSH0 MSTORE PUSH1 0x12 PUSH1 0x4 MSTORE PUSH1 0x24 PUSH0 REVERT JUMPDEST SWAP1 POP DUP6 DUP2 DUP2 RETURNDATASIZE DUP4 GT PUSH2 0x8EC JUMPI JUMPDEST PUSH2 0x8DD DUP2 DUP4 PUSH2 0x1C23 JUMP JUMPDEST DUP2 ADD SUB SLT PUSH2 0x18C JUMPI MLOAD DUP9 PUSH2 0x66E JUMP JUMPDEST POP RETURNDATASIZE PUSH2 0x8D3 JUMP JUMPDEST CALLVALUE PUSH2 0x18C JUMPI PUSH1 0x20 DUP1 PUSH1 0x3 NOT CALLDATASIZE ADD SLT PUSH2 0x18C JUMPI PUSH1 0x4 CALLDATALOAD PUSH0 MSTORE PUSH1 0xA DUP2 MSTORE PUSH1 0x40 PUSH0 KECCAK256 SWAP1 PUSH1 0x40 MLOAD SWAP1 PUSH0 SWAP3 DUP1 SLOAD PUSH2 0x924 DUP2 PUSH2 0x1CBD JUMP JUMPDEST DUP1 DUP6 MSTORE SWAP1 PUSH1 0x1 SWAP1 DUP2 DUP2 AND SWAP1 DUP2 ISZERO PUSH2 0xA26 JUMPI POP PUSH1 0x1 EQ PUSH2 0x9EF JUMPI JUMPDEST POP POP PUSH2 0x94F DUP4 PUSH2 0x99B SWAP6 SUB DUP5 PUSH2 0x1C23 JUMP JUMPDEST PUSH1 0x1 DUP2 ADD SLOAD SWAP1 PUSH1 0x2 DUP2 ADD SLOAD PUSH1 0x3 DUP3 ADD SLOAD PUSH1 0x4 DUP4 ADD SLOAD PUSH1 0x5 DUP5 ADD SLOAD PUSH1 0x6 DUP6 ADD SLOAD SWAP2 PUSH1 0x7 DUP7 ADD SLOAD SWAP4 PUSH1 0x8 DUP8 ADD SLOAD SWAP6 PUSH1 0xA PUSH1 0x9 DUP10 ADD SLOAD SWAP9 ADD SLOAD SWAP9 PUSH1 0x40 MLOAD SWAP13 DUP14 SWAP13 DUP14 PUSH2 0x180 SWAP1 DUP2 DUP2 MSTORE ADD SWAP1 PUSH2 0x1CF5 JUMP JUMPDEST SWAP11 DUP13 ADD MSTORE PUSH1 0x40 DUP12 ADD MSTORE PUSH1 0x60 DUP11 ADD MSTORE PUSH1 0x80 DUP10 ADD MSTORE PUSH1 0xA0 DUP9 ADD MSTORE PUSH1 0xC0 DUP8 ADD MSTORE PUSH1 0xE0 DUP7 ADD MSTORE PUSH2 0x100 DUP6 ADD MSTORE PUSH2 0x120 DUP5 ADD MSTORE PUSH1 0x1 PUSH1 0x1 PUSH1 0x40 SHL SUB DUP2 AND PUSH2 0x140 DUP5 ADD MSTORE PUSH1 0x1 DUP1 PUSH1 0xA0 SHL SUB SWAP1 PUSH1 0x40 SHR AND PUSH2 0x160 DUP4 ADD MSTORE SUB SWAP1 RETURN JUMPDEST PUSH0 DUP4 DUP2 MSTORE DUP5 DUP2 KECCAK256 SWAP1 SWAP7 POP JUMPDEST DUP3 DUP8 LT PUSH2 0xA13 JUMPI POP POP POP SWAP3 DUP3 ADD DUP2 ADD SWAP3 PUSH2 0x94F DUP4 PUSH2 0x93E JUMP JUMPDEST DUP1 SLOAD DUP7 DUP9 ADD DUP7 ADD MSTORE SWAP6 DUP5 ADD SWAP6 DUP2 ADD PUSH2 0x9FA JUMP JUMPDEST PUSH1 0xFF NOT AND DUP6 DUP8 ADD MSTORE POP POP ISZERO ISZERO PUSH1 0x5 SHL DUP4 ADD DUP3 ADD SWAP4 POP PUSH2 0x94F DUP4 PUSH2 0x93E JUMP JUMPDEST CALLVALUE PUSH2 0x18C JUMPI PUSH0 CALLDATASIZE PUSH1 0x3 NOT ADD SLT PUSH2 0x18C JUMPI PUSH1 0x20 PUSH1 0x5 SLOAD PUSH1 0x40 MLOAD SWAP1 DUP2 MSTORE RETURN JUMPDEST CALLVALUE PUSH2 0x18C JUMPI PUSH1 0x20 CALLDATASIZE PUSH1 0x3 NOT ADD SLT PUSH2 0x18C JUMPI PUSH1 0x4 CALLDATALOAD DUP1 ISZERO ISZERO DUP2 SUB PUSH2 0x18C JUMPI PUSH2 0xA86 PUSH2 0x1FBC JUMP JUMPDEST ISZERO PUSH2 0xB40 JUMPI PUSH1 0x5 SLOAD DUP1 ISZERO PUSH2 0xB02 JUMPI PUSH0 PUSH1 0x5 DUP2 SWAP1 SSTORE PUSH1 0x8 SLOAD PUSH1 0x40 MLOAD PUSH4 0xA9059CBB PUSH1 0xE0 SHL DUP2 MSTORE CALLER PUSH1 0x4 DUP3 ADD MSTORE PUSH1 0x24 DUP2 ADD SWAP4 SWAP1 SWAP4 MSTORE PUSH1 0x20 SWAP2 DUP4 SWAP2 PUSH1 0x44 SWAP2 DUP4 SWAP2 PUSH1 0x1 PUSH1 0x1 PUSH1 0xA0 SHL SUB AND GAS CALL DUP1 ISZERO PUSH2 0x498 JUMPI PUSH2 0x844 SWAP2 PUSH0 SWAP2 PUSH2 0xAE3 JUMPI POP PUSH2 0x1F3B JUMP JUMPDEST PUSH2 0xAFC SWAP2 POP PUSH1 0x20 RETURNDATASIZE PUSH1 0x20 GT PUSH2 0x491 JUMPI PUSH2 0x483 DUP2 DUP4 PUSH2 0x1C23 JUMP JUMPDEST DUP3 PUSH2 0x342 JUMP JUMPDEST PUSH1 0x40 MLOAD PUSH3 0x461BCD PUSH1 0xE5 SHL DUP2 MSTORE PUSH1 0x20 PUSH1 0x4 DUP3 ADD MSTORE PUSH1 0x16 PUSH1 0x24 DUP3 ADD MSTORE PUSH22 0x4E6F20726576656E756520746F207769746864726177 PUSH1 0x50 SHL PUSH1 0x44 DUP3 ADD MSTORE PUSH1 0x64 SWAP1 REVERT JUMPDEST PUSH0 DUP1 DUP1 DUP1 SELFBALANCE DUP2 DUP2 ISZERO PUSH2 0xB57 JUMPI JUMPDEST CALLER SWAP1 CALL ISZERO PUSH2 0x498 JUMPI STOP JUMPDEST POP PUSH2 0x8FC PUSH2 0xB4D JUMP JUMPDEST CALLVALUE PUSH2 0x18C JUMPI PUSH1 0x20 DUP1 PUSH1 0x3 NOT CALLDATASIZE ADD SLT PUSH2 0x18C JUMPI PUSH1 0x4 CALLDATALOAD SWAP1 DUP2 PUSH0 MSTORE PUSH1 0xA DUP2 MSTORE PUSH1 0xD PUSH1 0x40 PUSH0 KECCAK256 ADD CALLER PUSH0 MSTORE DUP1 DUP3 MSTORE PUSH1 0x40 PUSH0 KECCAK256 SLOAD ISZERO PUSH2 0xC48 JUMPI CALLER PUSH0 DUP2 DUP2 MSTORE SWAP2 DUP4 MSTORE PUSH1 0x40 DUP1 DUP4 KECCAK256 DUP1 SLOAD SWAP1 DUP5 SWAP1 SSTORE PUSH1 0x8 SLOAD SWAP2 MLOAD PUSH4 0xA9059CBB PUSH1 0xE0 SHL DUP2 MSTORE PUSH1 0x4 DUP2 ADD SWAP4 SWAP1 SWAP4 MSTORE PUSH1 0x24 DUP4 ADD DUP2 SWAP1 MSTORE SWAP2 SWAP5 SWAP3 DUP5 SWAP2 DUP7 SWAP2 PUSH1 0x44 SWAP2 DUP4 SWAP2 SWAP1 PUSH1 0x1 PUSH1 0x1 PUSH1 0xA0 SHL SUB AND GAS CALL SWAP3 DUP4 ISZERO PUSH2 0x498 JUMPI PUSH2 0xC18 PUSH1 0x60 SWAP5 PUSH32 0x24B5EFA61DD1CFC659205A97FB8ED868F3CB8C81922BAB2B96423E5DE1DE2CB7 SWAP7 PUSH0 SWAP2 PUSH2 0xC2B JUMPI POP PUSH2 0x1F3B JUMP JUMPDEST PUSH1 0x40 MLOAD SWAP3 DUP4 MSTORE CALLER SWAP1 DUP4 ADD MSTORE PUSH1 0x40 DUP3 ADD MSTORE LOG1 STOP JUMPDEST PUSH2 0xC42 SWAP2 POP DUP4 RETURNDATASIZE DUP6 GT PUSH2 0x491 JUMPI PUSH2 0x483 DUP2 DUP4 PUSH2 0x1C23 JUMP JUMPDEST DUP8 PUSH2 0x342 JUMP JUMPDEST PUSH1 0x40 MLOAD PUSH3 0x461BCD PUSH1 0xE5 SHL DUP2 MSTORE PUSH1 0x4 DUP2 ADD DUP4 SWAP1 MSTORE PUSH1 0x12 PUSH1 0x24 DUP3 ADD MSTORE PUSH18 0x4E6F2072657761726420746F20636C61696D PUSH1 0x70 SHL PUSH1 0x44 DUP3 ADD MSTORE PUSH1 0x64 SWAP1 REVERT JUMPDEST CALLVALUE PUSH2 0x18C JUMPI PUSH0 CALLDATASIZE PUSH1 0x3 NOT ADD SLT PUSH2 0x18C JUMPI PUSH1 0x40 MLOAD PUSH1 0x22 PUSH1 0x21 PUSH1 0x99 SHL ADD DUP2 MSTORE PUSH1 0x20 SWAP1 RETURN JUMPDEST CALLVALUE PUSH2 0x18C JUMPI PUSH1 0x20 CALLDATASIZE PUSH1 0x3 NOT ADD SLT PUSH2 0x18C JUMPI PUSH2 0xCBD PUSH2 0x1C89 JUMP JUMPDEST PUSH2 0xCC5 PUSH2 0x1FBC JUMP JUMPDEST PUSH1 0x2 DUP1 SLOAD PUSH1 0x1 PUSH1 0x1 PUSH1 0xA0 SHL SUB NOT AND PUSH1 0x1 PUSH1 0x1 PUSH1 0xA0 SHL SUB SWAP3 SWAP1 SWAP3 AND SWAP2 SWAP1 SWAP2 OR SWAP1 SSTORE STOP JUMPDEST CALLVALUE PUSH2 0x18C JUMPI PUSH0 CALLDATASIZE PUSH1 0x3 NOT ADD SLT PUSH2 0x18C JUMPI PUSH0 DUP1 MLOAD PUSH1 0x20 PUSH2 0x2134 DUP4 CODECOPY DUP2 MLOAD SWAP2 MSTORE SLOAD PUSH1 0x40 MLOAD PUSH1 0x1 PUSH1 0x1 PUSH1 0xA0 SHL SUB SWAP1 SWAP2 AND DUP2 MSTORE PUSH1 0x20 SWAP1 RETURN JUMPDEST CALLVALUE PUSH2 0x18C JUMPI PUSH1 0x20 CALLDATASIZE PUSH1 0x3 NOT ADD SLT PUSH2 0x18C JUMPI PUSH2 0xD34 PUSH2 0x1FBC JUMP JUMPDEST PUSH1 0x4 CALLDATALOAD PUSH1 0x6 SSTORE STOP JUMPDEST CALLVALUE PUSH2 0x18C JUMPI PUSH1 0x80 CALLDATASIZE PUSH1 0x3 NOT ADD SLT PUSH2 0x18C JUMPI PUSH1 0x24 CALLDATALOAD PUSH1 0x4 CALLDATALOAD PUSH1 0x44 CALLDATALOAD PUSH1 0x1 PUSH1 0x1 PUSH1 0x40 SHL SUB DUP2 GT PUSH2 0x18C JUMPI PUSH2 0xD75 PUSH2 0xDE9 SWAP2 CALLDATASIZE SWAP1 PUSH1 0x4 ADD PUSH2 0x1C9F JUMP JUMPDEST DUP3 PUSH0 MSTORE PUSH1 0xA PUSH1 0x20 MSTORE PUSH2 0xDCB PUSH1 0x40 PUSH0 KECCAK256 SWAP4 PUSH1 0x40 MLOAD PUSH2 0x290 DUP2 PUSH2 0x282 PUSH1 0x20 DUP3 ADD SWAP5 DUP11 PUSH1 0x64 CALLDATALOAD SWAP2 CALLER SWAP1 DUP9 SWAP3 SWAP1 SWAP2 PUSH1 0x74 SWAP5 SWAP3 DUP5 MSTORE PUSH12 0xFFFFFFFFFFFFFFFFFFFFFFFF NOT SWAP1 PUSH1 0x60 SHL AND PUSH1 0x20 DUP5 ADD MSTORE PUSH1 0x34 DUP4 ADD MSTORE PUSH1 0x54 DUP3 ADD MSTORE ADD SWAP1 JUMP JUMPDEST PUSH1 0x2 SLOAD PUSH1 0x1 PUSH1 0x1 PUSH1 0xA0 SHL SUB SWAP1 DUP2 AND SWAP3 SWAP1 SWAP2 PUSH2 0x2BE SWAP2 PUSH2 0x2B5 SWAP2 PUSH2 0x1FF4 JUMP JUMPDEST PUSH1 0x2 DUP2 ADD SWAP2 DUP3 SLOAD DUP2 DUP2 LT PUSH2 0xE09 JUMPI DUP2 PUSH1 0x3 PUSH2 0xE05 SWAP5 ADD SSTORE PUSH2 0x1E65 JUMP JUMPDEST SWAP1 SSTORE STOP JUMPDEST PUSH1 0x40 MLOAD PUSH3 0x461BCD PUSH1 0xE5 SHL DUP2 MSTORE PUSH1 0x20 PUSH1 0x4 DUP3 ADD MSTORE PUSH1 0x38 PUSH1 0x24 DUP3 ADD MSTORE PUSH32 0x616D6F756E742073686F756C64206265206C657373207468616E206F72206571 PUSH1 0x44 DUP3 ADD MSTORE PUSH32 0x75616C20746F207269736B20706F6F6C2062616C616E63650000000000000000 PUSH1 0x64 DUP3 ADD MSTORE PUSH1 0x84 SWAP1 REVERT JUMPDEST CALLVALUE PUSH2 0x18C JUMPI PUSH1 0x40 CALLDATASIZE PUSH1 0x3 NOT ADD SLT PUSH2 0x18C JUMPI PUSH1 0x20 PUSH2 0x184 PUSH1 0x24 CALLDATALOAD PUSH1 0x4 CALLDATALOAD PUSH2 0x1EC5 JUMP JUMPDEST PUSH1 0x40 CALLDATASIZE PUSH1 0x3 NOT ADD SLT PUSH2 0x18C JUMPI PUSH1 0x24 CALLDATALOAD PUSH2 0xEAC PUSH2 0x1FBC JUMP JUMPDEST PUSH1 0x4 CALLDATALOAD PUSH1 0x3 SSTORE DUP1 PUSH0 DUP2 ISZERO PUSH2 0xEDA JUMPI JUMPDEST PUSH0 DUP1 DUP1 SWAP4 DUP2 SWAP4 CALLER SWAP1 CALL ISZERO PUSH2 0x498 JUMPI PUSH2 0xED5 SWAP1 PUSH1 0x7 SLOAD PUSH2 0x1D52 JUMP JUMPDEST PUSH1 0x7 SSTORE STOP JUMPDEST POP PUSH2 0x8FC PUSH2 0xEBB JUMP JUMPDEST CALLVALUE PUSH2 0x18C JUMPI PUSH0 CALLDATASIZE PUSH1 0x3 NOT ADD SLT PUSH2 0x18C JUMPI PUSH2 0xEFB PUSH2 0x1FBC JUMP JUMPDEST PUSH1 0x40 MLOAD PUSH4 0x4AA7D2F7 PUSH1 0xE1 SHL DUP2 MSTORE ADDRESS PUSH1 0x4 DUP3 ADD MSTORE CALLER PUSH1 0x24 DUP3 ADD MSTORE PUSH1 0x20 DUP2 PUSH1 0x44 DUP2 PUSH0 PUSH1 0x22 PUSH1 0x21 PUSH1 0x99 SHL ADD GAS CALL DUP1 ISZERO PUSH2 0x498 JUMPI PUSH2 0xF31 JUMPI STOP JUMPDEST PUSH1 0x20 SWAP1 DUP2 RETURNDATASIZE DUP4 GT PUSH2 0xF51 JUMPI JUMPDEST PUSH2 0xF47 DUP2 DUP4 PUSH2 0x1C23 JUMP JUMPDEST DUP2 ADD SUB SLT PUSH2 0x18C JUMPI STOP JUMPDEST POP RETURNDATASIZE PUSH2 0xF3D JUMP JUMPDEST CALLVALUE PUSH2 0x18C JUMPI PUSH1 0x20 CALLDATASIZE PUSH1 0x3 NOT ADD SLT PUSH2 0x18C JUMPI PUSH1 0x1 PUSH1 0x1 PUSH1 0xA0 SHL SUB PUSH2 0xF79 PUSH2 0x1C89 JUMP JUMPDEST AND PUSH0 MSTORE PUSH1 0x9 PUSH1 0x20 MSTORE PUSH1 0x20 PUSH1 0x40 PUSH0 KECCAK256 SLOAD PUSH1 0x40 MLOAD SWAP1 DUP2 MSTORE RETURN JUMPDEST CALLVALUE PUSH2 0x18C JUMPI PUSH0 CALLDATASIZE PUSH1 0x3 NOT ADD SLT PUSH2 0x18C JUMPI PUSH2 0xFA8 PUSH2 0x1FBC JUMP JUMPDEST PUSH0 DUP1 MLOAD PUSH1 0x20 PUSH2 0x2134 DUP4 CODECOPY DUP2 MLOAD SWAP2 MSTORE DUP1 SLOAD PUSH1 0x1 PUSH1 0x1 PUSH1 0xA0 SHL SUB NOT DUP2 AND SWAP1 SWAP2 SSTORE PUSH0 SWAP1 PUSH1 0x1 PUSH1 0x1 PUSH1 0xA0 SHL SUB AND PUSH32 0x8BE0079C531659141344CD1FD0A4F28419497F9722A3DAAFE3B4186F6B6457E0 DUP3 DUP1 LOG3 STOP JUMPDEST CALLVALUE PUSH2 0x18C JUMPI PUSH1 0x40 CALLDATASIZE PUSH1 0x3 NOT ADD SLT PUSH2 0x18C JUMPI PUSH1 0x24 PUSH1 0x1 PUSH1 0x1 PUSH1 0x40 SHL SUB PUSH1 0x4 CALLDATALOAD DUP3 CALLDATALOAD DUP3 DUP2 GT PUSH2 0x18C JUMPI CALLDATASIZE PUSH1 0x23 DUP3 ADD SLT ISZERO PUSH2 0x18C JUMPI DUP1 PUSH1 0x4 ADD CALLDATALOAD SWAP3 DUP4 GT PUSH2 0x18C JUMPI PUSH1 0x5 DUP4 PUSH1 0x5 SHL SWAP5 DUP1 DUP7 DUP5 ADD ADD SWAP3 CALLDATASIZE DUP5 GT PUSH2 0x18C JUMPI PUSH1 0x40 MLOAD SWAP4 PUSH1 0x20 SWAP5 DUP6 DUP2 ADD SWAP1 CALLER PUSH1 0x60 SHL DUP3 MSTORE DUP8 PUSH1 0x34 DUP3 ADD MSTORE PUSH1 0x34 DUP2 MSTORE PUSH2 0x106D DUP2 PUSH2 0x1C08 JUMP JUMPDEST MLOAD SWAP1 KECCAK256 SWAP2 PUSH1 0x3 SLOAD SWAP8 PUSH2 0x1084 DUP8 PUSH1 0x40 MLOAD SWAP12 ADD DUP12 PUSH2 0x1C23 JUMP JUMPDEST DUP10 MSTORE DUP4 ADD DUP6 DUP1 DUP11 ADD JUMPDEST DUP4 DUP4 LT PUSH2 0x129E JUMPI POP POP POP POP SWAP4 PUSH0 SWAP5 JUMPDEST DUP8 MLOAD DUP7 LT ISZERO PUSH2 0x10D9 JUMPI DUP6 DUP5 SHL DUP9 ADD DUP6 ADD MLOAD SWAP1 DUP2 DUP2 LT ISZERO PUSH2 0x10C9 JUMPI PUSH0 MSTORE DUP5 MSTORE PUSH1 0x1 PUSH1 0x40 PUSH0 KECCAK256 JUMPDEST SWAP6 ADD SWAP5 PUSH2 0x109C JUMP JUMPDEST SWAP1 PUSH0 MSTORE DUP5 MSTORE PUSH1 0x1 PUSH1 0x40 PUSH0 KECCAK256 PUSH2 0x10C1 JUMP JUMPDEST SWAP1 DUP7 DUP6 SWAP3 SUB PUSH2 0x126A JUMPI CALLER PUSH0 MSTORE PUSH1 0x9 DUP3 MSTORE PUSH1 0x40 PUSH0 KECCAK256 SLOAD DUP2 DUP2 LT ISZERO PUSH2 0x1213 JUMPI PUSH2 0x1100 SWAP1 DUP3 PUSH2 0x1E65 JUMP JUMPDEST SWAP1 DUP2 PUSH1 0x7 SLOAD LT PUSH2 0x11D7 JUMPI PUSH2 0x1166 PUSH0 SWAP3 DUP5 SWAP3 CALLER DUP6 MSTORE PUSH1 0x9 DUP5 MSTORE PUSH1 0x40 DUP6 KECCAK256 SSTORE PUSH2 0x1129 DUP2 PUSH1 0x7 SLOAD PUSH2 0x1E65 JUMP JUMPDEST PUSH1 0x7 SSTORE PUSH1 0x8 SLOAD PUSH1 0x40 MLOAD PUSH4 0xA9059CBB PUSH1 0xE0 SHL DUP2 MSTORE CALLER PUSH1 0x4 DUP3 ADD MSTORE PUSH1 0x24 DUP2 ADD SWAP3 SWAP1 SWAP3 MSTORE SWAP1 SWAP4 DUP5 SWAP3 PUSH1 0x1 PUSH1 0x1 PUSH1 0xA0 SHL SUB SWAP1 SWAP3 AND SWAP2 DUP4 SWAP2 SWAP1 DUP3 SWAP1 PUSH1 0x44 DUP3 ADD SWAP1 JUMP JUMPDEST SUB SWAP3 GAS CALL SWAP1 DUP2 ISZERO PUSH2 0x498 JUMPI PUSH0 SWAP2 PUSH2 0x11BA JUMPI JUMPDEST POP ISZERO PUSH2 0x1180 JUMPI STOP JUMPDEST PUSH1 0x15 PUSH1 0x64 SWAP3 PUSH1 0x40 MLOAD SWAP3 PUSH3 0x461BCD PUSH1 0xE5 SHL DUP5 MSTORE PUSH1 0x4 DUP5 ADD MSTORE DUP3 ADD MSTORE PUSH21 0x165A595B19081D1C985B9CD9995C8819985A5B1959 PUSH1 0x5A SHL PUSH1 0x44 DUP3 ADD MSTORE REVERT JUMPDEST PUSH2 0x11D1 SWAP2 POP DUP3 RETURNDATASIZE DUP5 GT PUSH2 0x491 JUMPI PUSH2 0x483 DUP2 DUP4 PUSH2 0x1C23 JUMP JUMPDEST DUP4 PUSH2 0x1178 JUMP JUMPDEST PUSH1 0x40 MLOAD PUSH3 0x461BCD PUSH1 0xE5 SHL DUP2 MSTORE PUSH1 0x4 DUP2 ADD DUP5 SWAP1 MSTORE PUSH1 0x15 DUP2 DUP7 ADD MSTORE PUSH21 0x139BC8199D5B991CC81A5B881D1A19481D985D5B1D PUSH1 0x5A SHL PUSH1 0x44 DUP3 ADD MSTORE PUSH1 0x64 SWAP1 REVERT JUMPDEST PUSH1 0x40 MLOAD PUSH3 0x461BCD PUSH1 0xE5 SHL DUP2 MSTORE PUSH1 0x4 DUP2 ADD DUP5 SWAP1 MSTORE PUSH1 0x2A DUP2 DUP7 ADD MSTORE PUSH32 0x4E6F2066756E6473206C65667420746F20636C61696D206F7220616C72656164 PUSH1 0x44 DUP3 ADD MSTORE PUSH10 0x3C9031B630B4B6B2B217 PUSH1 0xB1 SHL PUSH1 0x64 DUP3 ADD MSTORE PUSH1 0x84 SWAP1 REVERT JUMPDEST POP PUSH1 0xE PUSH1 0x64 SWAP3 PUSH1 0x40 MLOAD SWAP3 PUSH3 0x461BCD PUSH1 0xE5 SHL DUP5 MSTORE PUSH1 0x4 DUP5 ADD MSTORE DUP3 ADD MSTORE PUSH14 0x24B73B30B634B210383937B7B317 PUSH1 0x91 SHL PUSH1 0x44 DUP3 ADD MSTORE REVERT JUMPDEST DUP3 CALLDATALOAD DUP2 MSTORE SWAP2 DUP2 ADD SWAP2 DUP8 SWAP2 ADD PUSH2 0x108D JUMP JUMPDEST CALLVALUE PUSH2 0x18C JUMPI PUSH1 0x60 CALLDATASIZE PUSH1 0x3 NOT ADD SLT PUSH2 0x18C JUMPI PUSH1 0x44 CALLDATALOAD PUSH1 0x1 PUSH1 0x1 PUSH1 0xA0 SHL SUB DUP2 AND SWAP1 DUP2 SWAP1 SUB PUSH2 0x18C JUMPI PUSH1 0x4 CALLDATALOAD PUSH0 MSTORE PUSH1 0xC PUSH1 0x20 MSTORE PUSH1 0x40 PUSH0 KECCAK256 PUSH1 0x24 CALLDATALOAD PUSH0 MSTORE PUSH1 0x20 MSTORE PUSH1 0x40 PUSH0 KECCAK256 SWAP1 PUSH0 MSTORE PUSH1 0x20 MSTORE PUSH1 0x20 PUSH1 0xFF PUSH1 0x40 PUSH0 KECCAK256 SLOAD AND PUSH1 0x40 MLOAD SWAP1 ISZERO ISZERO DUP2 MSTORE RETURN JUMPDEST CALLVALUE PUSH2 0x18C JUMPI PUSH1 0x20 CALLDATASIZE PUSH1 0x3 NOT ADD SLT PUSH2 0x18C JUMPI PUSH1 0x4 CALLDATALOAD PUSH0 MSTORE PUSH1 0xA PUSH1 0x20 MSTORE PUSH1 0x20 PUSH1 0x2 PUSH1 0x40 PUSH0 KECCAK256 ADD SLOAD PUSH1 0x40 MLOAD SWAP1 DUP2 MSTORE RETURN JUMPDEST CALLVALUE PUSH2 0x18C JUMPI PUSH0 CALLDATASIZE PUSH1 0x3 NOT ADD SLT PUSH2 0x18C JUMPI PUSH1 0x8 SLOAD PUSH1 0x40 MLOAD PUSH1 0x1 PUSH1 0x1 PUSH1 0xA0 SHL SUB SWAP1 SWAP2 AND DUP2 MSTORE PUSH1 0x20 SWAP1 RETURN JUMPDEST CALLVALUE PUSH2 0x18C JUMPI PUSH0 CALLDATASIZE PUSH1 0x3 NOT ADD SLT PUSH2 0x18C JUMPI PUSH1 0x20 PUSH1 0x3 SLOAD PUSH1 0x40 MLOAD SWAP1 DUP2 MSTORE RETURN JUMPDEST CALLVALUE PUSH2 0x18C JUMPI PUSH0 CALLDATASIZE PUSH1 0x3 NOT ADD SLT PUSH2 0x18C JUMPI PUSH0 SLOAD PUSH1 0x1 SLOAD PUSH1 0x40 MLOAD PUSH4 0x17119229 PUSH1 0xE3 SHL DUP2 MSTORE PUSH1 0x1 PUSH1 0x1 PUSH1 0xA0 SHL SUB SWAP2 DUP3 AND PUSH1 0x4 DUP3 ADD MSTORE SWAP2 PUSH1 0x20 SWAP2 DUP4 SWAP2 PUSH1 0x24 SWAP2 DUP4 SWAP2 AND GAS STATICCALL DUP1 ISZERO PUSH2 0x498 JUMPI PUSH1 0x20 SWAP2 PUSH0 SWAP2 PUSH2 0x13DC JUMPI JUMPDEST POP PUSH1 0x1 PUSH1 0x1 PUSH1 0x80 SHL SUB PUSH1 0x40 MLOAD SWAP2 AND DUP2 MSTORE RETURN JUMPDEST PUSH2 0x13F3 SWAP2 POP DUP3 RETURNDATASIZE DUP5 GT PUSH2 0x8AB JUMPI PUSH2 0x89D DUP2 DUP4 PUSH2 0x1C23 JUMP JUMPDEST DUP3 PUSH2 0x13CA JUMP JUMPDEST CALLVALUE PUSH2 0x18C JUMPI PUSH1 0x60 CALLDATASIZE PUSH1 0x3 NOT ADD SLT PUSH2 0x18C JUMPI PUSH1 0x44 CALLDATALOAD PUSH1 0x24 CALLDATALOAD PUSH1 0x4 CALLDATALOAD DUP3 ISZERO DUP1 ISZERO DUP5 SUB PUSH2 0x18C JUMPI DUP2 PUSH0 MSTORE PUSH1 0x20 SWAP4 PUSH1 0xA DUP6 MSTORE PUSH1 0x40 PUSH0 KECCAK256 SWAP2 PUSH1 0xC DUP7 MSTORE PUSH1 0x40 PUSH0 KECCAK256 PUSH1 0x9 DUP5 ADD SLOAD PUSH0 MSTORE DUP7 MSTORE PUSH1 0x40 PUSH0 KECCAK256 CALLER PUSH0 MSTORE DUP7 MSTORE PUSH1 0xFF PUSH1 0x40 PUSH0 KECCAK256 SLOAD AND ISZERO PUSH2 0x15DC JUMPI DUP2 SWAP1 DUP2 PUSH2 0x15CE JUMPI JUMPDEST DUP2 ISZERO PUSH2 0x15B3 JUMPI JUMPDEST POP ISZERO PUSH2 0x156E JUMPI ISZERO PUSH2 0x1520 JUMPI PUSH1 0xC ADD SWAP3 DUP4 SLOAD SWAP3 PUSH0 NOT DUP5 ADD SWAP4 DUP5 GT PUSH2 0x150C JUMPI PUSH32 0xCEF8FAC05AFB87995942422EAC900DE6AF11A555D80D075340AF81DB492119FE SWAP5 DUP5 DUP3 PUSH1 0x40 SWAP7 PUSH2 0x14B7 SWAP5 SUB PUSH2 0x14C4 JUMPI JUMPDEST POP POP PUSH2 0x1E72 JUMP JUMPDEST DUP3 MLOAD SWAP2 DUP3 MSTORE CALLER SWAP1 DUP3 ADD MSTORE LOG1 STOP JUMPDEST PUSH2 0x14DE PUSH2 0x14D4 PUSH2 0x1505 SWAP4 DUP6 PUSH2 0x1DF9 JUMP JUMPDEST SWAP2 SWAP1 SLOAD SWAP3 DUP6 PUSH2 0x1DF9 JUMP JUMPDEST DUP2 SLOAD PUSH1 0x1 PUSH1 0x1 PUSH1 0xA0 SHL SUB PUSH1 0x3 SWAP3 DUP4 SHL DUP2 DUP2 SHL NOT SWAP1 SWAP3 AND SWAP5 SWAP1 SWAP3 SHL SWAP5 SWAP1 SWAP5 SHR AND SWAP1 SWAP3 SHL OR SWAP1 SSTORE JUMP JUMPDEST DUP7 DUP1 PUSH2 0x14B0 JUMP JUMPDEST PUSH4 0x4E487B71 PUSH1 0xE0 SHL PUSH0 MSTORE PUSH1 0x11 PUSH1 0x4 MSTORE PUSH1 0x24 PUSH0 REVERT JUMPDEST PUSH1 0xB ADD SWAP3 DUP4 SLOAD SWAP3 PUSH0 NOT DUP5 ADD SWAP4 DUP5 GT PUSH2 0x150C JUMPI PUSH32 0xCEF8FAC05AFB87995942422EAC900DE6AF11A555D80D075340AF81DB492119FE SWAP5 DUP5 DUP3 PUSH1 0x40 SWAP7 PUSH2 0x1569 SWAP5 SUB PUSH2 0x14C4 JUMPI POP POP PUSH2 0x1E72 JUMP JUMPDEST PUSH2 0x14B7 JUMP JUMPDEST PUSH1 0x40 MLOAD PUSH3 0x461BCD PUSH1 0xE5 SHL DUP2 MSTORE PUSH1 0x4 DUP2 ADD DUP7 SWAP1 MSTORE PUSH1 0x1E PUSH1 0x24 DUP3 ADD MSTORE PUSH32 0x496E76616C696420696E64657820666F72207061727469636970616E74730000 PUSH1 0x44 DUP3 ADD MSTORE PUSH1 0x64 SWAP1 REVERT JUMPDEST SWAP1 POP DUP1 PUSH2 0x15C1 JUMPI JUMPDEST DUP7 PUSH2 0x1462 JUMP JUMPDEST POP PUSH1 0xB DUP3 ADD SLOAD DUP5 LT PUSH2 0x15BB JUMP JUMPDEST PUSH1 0xC DUP5 ADD SLOAD DUP7 LT SWAP2 POP PUSH2 0x145B JUMP JUMPDEST PUSH1 0x40 MLOAD PUSH3 0x461BCD PUSH1 0xE5 SHL DUP2 MSTORE PUSH1 0x4 DUP2 ADD DUP8 SWAP1 MSTORE PUSH1 0x1C PUSH1 0x24 DUP3 ADD MSTORE PUSH32 0x596F752068617665206E6F74206A6F696E6564207468697320706F7400000000 PUSH1 0x44 DUP3 ADD MSTORE PUSH1 0x64 SWAP1 REVERT JUMPDEST PUSH1 0xE0 CALLDATASIZE PUSH1 0x3 NOT ADD SLT PUSH2 0x18C JUMPI PUSH1 0x4 CALLDATALOAD PUSH1 0x1 PUSH1 0x1 PUSH1 0x40 SHL SUB DUP2 GT PUSH2 0x18C JUMPI CALLDATASIZE PUSH1 0x23 DUP3 ADD SLT ISZERO PUSH2 0x18C JUMPI PUSH2 0x165D SWAP1 CALLDATASIZE SWAP1 PUSH1 0x24 DUP2 PUSH1 0x4 ADD CALLDATALOAD SWAP2 ADD PUSH2 0x1C44 JUMP JUMPDEST PUSH0 SLOAD PUSH1 0x1 SLOAD PUSH1 0x40 MLOAD PUSH4 0x17119229 PUSH1 0xE3 SHL DUP2 MSTORE PUSH1 0x1 PUSH1 0x1 PUSH1 0xA0 SHL SUB SWAP2 DUP3 AND PUSH1 0x4 DUP3 ADD MSTORE SWAP2 PUSH1 0x20 SWAP2 DUP4 SWAP2 PUSH1 0x24 SWAP2 DUP4 SWAP2 AND GAS STATICCALL SWAP1 DUP2 ISZERO PUSH2 0x498 JUMPI PUSH0 SWAP2 PUSH2 0x1BCF JUMPI JUMPDEST POP PUSH2 0x16BB PUSH2 0x16B4 PUSH1 0x6 SLOAD PUSH1 0x1 PUSH1 0x1 PUSH1 0x80 SHL SUB DUP5 AND PUSH2 0x1D52 JUMP JUMPDEST CALLVALUE EQ PUSH2 0x1D5F JUMP JUMPDEST PUSH1 0x44 CALLDATALOAD ISZERO PUSH2 0x1B8A JUMPI PUSH1 0x64 CALLDATALOAD ISZERO PUSH2 0x1B37 JUMPI PUSH1 0x64 CALLDATALOAD PUSH1 0x84 CALLDATALOAD GT PUSH2 0x1AD6 JUMPI PUSH1 0x4 SLOAD PUSH2 0x16E2 DUP2 PUSH2 0x1D9E JUMP JUMPDEST PUSH1 0x4 SWAP1 DUP2 SSTORE PUSH1 0x8 SLOAD PUSH1 0x40 MLOAD PUSH4 0x23B872DD PUSH1 0xE0 SHL DUP2 MSTORE CALLER SWAP3 DUP2 ADD SWAP3 SWAP1 SWAP3 MSTORE ADDRESS PUSH1 0x24 DUP4 ADD MSTORE PUSH1 0xC4 CALLDATALOAD PUSH1 0x44 DUP4 ADD MSTORE PUSH1 0x20 SWAP1 DUP3 SWAP1 PUSH1 0x64 SWAP1 DUP3 SWAP1 PUSH0 SWAP1 PUSH1 0x1 PUSH1 0x1 PUSH1 0xA0 SHL SUB AND GAS CALL SWAP1 DUP2 ISZERO PUSH2 0x498 JUMPI PUSH0 SWAP2 PUSH2 0x1AB7 JUMPI JUMPDEST POP ISZERO PUSH2 0x1A60 JUMPI PUSH0 DUP1 SLOAD PUSH1 0x1 SLOAD PUSH1 0x40 MLOAD PUSH4 0x93CBF217 PUSH1 0xE0 SHL DUP2 MSTORE PUSH1 0x1 PUSH1 0x1 PUSH1 0xA0 SHL SUB SWAP2 DUP3 AND PUSH1 0x4 DUP3 ADD MSTORE PUSH1 0x24 DUP1 CALLDATALOAD SWAP1 DUP3 ADD MSTORE PUSH1 0x44 DUP2 ADD SWAP4 SWAP1 SWAP4 MSTORE SWAP2 SWAP4 PUSH1 0x20 SWAP3 DUP6 SWAP3 PUSH1 0x64 SWAP3 DUP5 SWAP3 PUSH1 0x1 PUSH1 0x1 PUSH1 0x80 SHL SUB SWAP1 SWAP2 AND SWAP2 AND GAS CALL SWAP2 DUP3 ISZERO PUSH2 0x498 JUMPI PUSH0 SWAP3 PUSH2 0x1A3F JUMPI JUMPDEST POP DUP1 PUSH0 MSTORE PUSH1 0xA PUSH1 0x20 MSTORE PUSH1 0x40 PUSH0 KECCAK256 DUP4 MLOAD PUSH1 0x1 PUSH1 0x1 PUSH1 0x40 SHL SUB DUP2 GT PUSH2 0x1A2B JUMPI PUSH2 0x17BB DUP3 SLOAD PUSH2 0x1CBD JUMP JUMPDEST PUSH1 0x1F DUP2 GT PUSH2 0x19F0 JUMPI JUMPDEST POP PUSH1 0x20 PUSH1 0x1F DUP3 GT PUSH1 0x1 EQ PUSH2 0x197A JUMPI SWAP2 DUP2 PUSH0 DUP1 MLOAD PUSH1 0x20 PUSH2 0x2154 DUP4 CODECOPY DUP2 MLOAD SWAP2 MSTORE SWAP7 SWAP3 PUSH2 0x193C SWAP5 PUSH0 SWAP2 PUSH2 0x196F JUMPI JUMPDEST POP DUP2 PUSH1 0x1 SHL SWAP2 PUSH0 NOT SWAP1 PUSH1 0x3 SHL SHR NOT AND OR DUP2 SSTORE JUMPDEST PUSH1 0xC4 CALLDATALOAD PUSH1 0x1 DUP3 ADD SSTORE PUSH0 PUSH1 0x2 DUP3 ADD SSTORE PUSH1 0x1 PUSH1 0x1 PUSH1 0x40 SHL SUB PUSH1 0xA DUP3 ADD SWAP6 AND SWAP5 DUP1 SLOAD DUP7 PUSH1 0x1 PUSH1 0x40 SHL PUSH1 0x1 PUSH1 0xE0 SHL SUB CALLER PUSH1 0x40 SHL AND SWAP2 PUSH4 0xFFFFFFFF PUSH1 0xE0 SHL AND OR OR SWAP1 SSTORE PUSH1 0x44 CALLDATALOAD PUSH1 0x4 DUP3 ADD SSTORE PUSH1 0x84 CALLDATALOAD PUSH1 0x6 DUP3 ADD SSTORE PUSH1 0x64 CALLDATALOAD PUSH1 0x7 DUP3 ADD SSTORE TIMESTAMP PUSH1 0x5 DUP3 ADD SSTORE PUSH1 0xA4 CALLDATALOAD PUSH1 0x8 DUP3 ADD SSTORE PUSH2 0x187C PUSH1 0x9 DUP3 ADD SWAP2 PUSH1 0x1 DUP4 SSTORE PUSH1 0xB CALLER SWAP2 ADD PUSH2 0x1E22 JUMP JUMPDEST DUP4 PUSH0 MSTORE PUSH1 0xC PUSH1 0x20 MSTORE PUSH1 0x40 PUSH0 KECCAK256 SWAP1 SLOAD PUSH0 MSTORE PUSH1 0x20 MSTORE PUSH1 0x40 PUSH0 KECCAK256 CALLER PUSH0 MSTORE PUSH1 0x20 MSTORE PUSH1 0x40 PUSH0 KECCAK256 PUSH1 0x1 PUSH1 0xFF NOT DUP3 SLOAD AND OR SWAP1 SSTORE PUSH32 0x37BB26F2981AD94B38AFE928452CAD1BCA628B82F1781D95EC69D53ACF5D0D9B PUSH1 0x40 MLOAD DUP1 PUSH2 0x18E4 PUSH2 0x140 DUP8 DUP4 MSTORE DUP1 PUSH1 0x20 DUP5 ADD MSTORE DUP3 ADD DUP6 PUSH2 0x1CF5 JUMP JUMPDEST CALLER PUSH1 0x40 DUP4 ADD MSTORE PUSH1 0xC4 CALLDATALOAD PUSH1 0x60 DUP4 ADD MSTORE PUSH1 0x44 CALLDATALOAD PUSH1 0x80 DUP4 ADD MSTORE PUSH1 0x84 CALLDATALOAD PUSH1 0xA0 DUP4 ADD MSTORE PUSH1 0x64 CALLDATALOAD PUSH1 0xC0 DUP4 ADD MSTORE PUSH1 0xA4 CALLDATALOAD PUSH1 0xE0 DUP4 ADD MSTORE PUSH2 0x100 SWAP8 DUP9 DUP4 ADD MSTORE PUSH1 0x24 CALLDATALOAD PUSH2 0x120 DUP4 ADD MSTORE SUB SWAP1 LOG1 PUSH1 0x40 MLOAD SWAP4 DUP5 SWAP4 DUP5 MSTORE DUP1 PUSH1 0x20 DUP6 ADD MSTORE DUP4 ADD SWAP1 PUSH2 0x1CF5 JUMP JUMPDEST CALLER PUSH1 0x40 DUP4 ADD MSTORE PUSH1 0xC4 CALLDATALOAD PUSH1 0x60 DUP4 ADD MSTORE PUSH1 0x44 CALLDATALOAD PUSH1 0x80 DUP4 ADD MSTORE PUSH1 0x84 CALLDATALOAD PUSH1 0xA0 DUP4 ADD MSTORE PUSH1 0x64 CALLDATALOAD PUSH1 0xC0 DUP4 ADD MSTORE PUSH1 0xA4 CALLDATALOAD PUSH1 0xE0 DUP4 ADD MSTORE SUB SWAP1 LOG1 STOP JUMPDEST SWAP1 POP DUP4 ADD MLOAD DUP9 PUSH2 0x17EF JUMP JUMPDEST DUP3 PUSH0 MSTORE PUSH1 0x20 PUSH0 KECCAK256 SWAP1 PUSH0 JUMPDEST PUSH1 0x1F NOT DUP5 AND DUP2 LT PUSH2 0x19D8 JUMPI POP DUP3 PUSH2 0x193C SWAP5 SWAP3 PUSH1 0x1 SWAP3 PUSH0 DUP1 MLOAD PUSH1 0x20 PUSH2 0x2154 DUP4 CODECOPY DUP2 MLOAD SWAP2 MSTORE SWAP10 SWAP6 PUSH1 0x1F NOT DUP2 AND LT PUSH2 0x19C0 JUMPI JUMPDEST POP POP DUP2 SHL ADD DUP2 SSTORE PUSH2 0x1802 JUMP JUMPDEST DUP6 ADD MLOAD PUSH0 NOT PUSH1 0xF8 DUP5 PUSH1 0x3 SHL AND SHR NOT AND SWAP1 SSTORE DUP9 DUP1 PUSH2 0x19B4 JUMP JUMPDEST SWAP1 SWAP2 PUSH1 0x20 PUSH1 0x1 DUP2 SWAP3 DUP6 DUP12 ADD MLOAD DUP2 SSTORE ADD SWAP4 ADD SWAP2 ADD PUSH2 0x1984 JUMP JUMPDEST PUSH2 0x1A1B SWAP1 DUP4 PUSH0 MSTORE PUSH1 0x20 PUSH0 KECCAK256 PUSH1 0x1F DUP5 ADD PUSH1 0x5 SHR DUP2 ADD SWAP2 PUSH1 0x20 DUP6 LT PUSH2 0x1A21 JUMPI JUMPDEST PUSH1 0x1F ADD PUSH1 0x5 SHR ADD SWAP1 PUSH2 0x1DE3 JUMP JUMPDEST DUP6 PUSH2 0x17C4 JUMP JUMPDEST SWAP1 SWAP2 POP DUP2 SWAP1 PUSH2 0x1A0E JUMP JUMPDEST PUSH4 0x4E487B71 PUSH1 0xE0 SHL PUSH0 MSTORE PUSH1 0x41 PUSH1 0x4 MSTORE PUSH1 0x24 PUSH0 REVERT JUMPDEST PUSH2 0x1A59 SWAP2 SWAP3 POP PUSH1 0x20 RETURNDATASIZE PUSH1 0x20 GT PUSH2 0x87E JUMPI PUSH2 0x870 DUP2 DUP4 PUSH2 0x1C23 JUMP JUMPDEST SWAP1 DUP4 PUSH2 0x1794 JUMP JUMPDEST PUSH1 0x40 MLOAD PUSH3 0x461BCD PUSH1 0xE5 SHL DUP2 MSTORE PUSH1 0x20 PUSH1 0x4 DUP3 ADD MSTORE PUSH1 0x29 PUSH1 0x24 DUP3 ADD MSTORE PUSH32 0x43726561746F722073686F756C64206465706F7369742074686520696E697469 PUSH1 0x44 DUP3 ADD MSTORE PUSH9 0x185B08185B5BDD5B9D PUSH1 0xBA SHL PUSH1 0x64 DUP3 ADD MSTORE PUSH1 0x84 SWAP1 REVERT JUMPDEST PUSH2 0x1AD0 SWAP2 POP PUSH1 0x20 RETURNDATASIZE PUSH1 0x20 GT PUSH2 0x491 JUMPI PUSH2 0x483 DUP2 DUP4 PUSH2 0x1C23 JUMP JUMPDEST DUP5 PUSH2 0x1732 JUMP JUMPDEST PUSH1 0x40 MLOAD PUSH3 0x461BCD PUSH1 0xE5 SHL DUP2 MSTORE PUSH1 0x20 PUSH1 0x4 DUP3 ADD MSTORE PUSH1 0x33 PUSH1 0x24 DUP3 ADD MSTORE PUSH32 0x4E756D657261746F72206D757374206265206C657373207468616E206F722065 PUSH1 0x44 DUP3 ADD MSTORE PUSH19 0x38BAB0B6103A37903232B737B6B4B730BA37B9 PUSH1 0x69 SHL PUSH1 0x64 DUP3 ADD MSTORE PUSH1 0x84 SWAP1 REVERT JUMPDEST PUSH1 0x40 MLOAD PUSH3 0x461BCD PUSH1 0xE5 SHL DUP2 MSTORE PUSH1 0x20 PUSH1 0x4 DUP3 ADD MSTORE PUSH1 0x25 PUSH1 0x24 DUP3 ADD MSTORE PUSH32 0x496E7465726573742064656E6F6D696E61746F72206D75737420626520706F73 PUSH1 0x44 DUP3 ADD MSTORE PUSH5 0x6974697665 PUSH1 0xD8 SHL PUSH1 0x64 DUP3 ADD MSTORE PUSH1 0x84 SWAP1 REVERT JUMPDEST PUSH1 0x40 MLOAD PUSH3 0x461BCD PUSH1 0xE5 SHL DUP2 MSTORE PUSH1 0x20 PUSH1 0x4 DUP3 ADD MSTORE PUSH1 0x1F PUSH1 0x24 DUP3 ADD MSTORE PUSH32 0x526F746174696F6E206379636C65206D75737420626520706F73697469766500 PUSH1 0x44 DUP3 ADD MSTORE PUSH1 0x64 SWAP1 REVERT JUMPDEST PUSH2 0x1BE8 SWAP2 POP PUSH1 0x20 RETURNDATASIZE PUSH1 0x20 GT PUSH2 0x8AB JUMPI PUSH2 0x89D DUP2 DUP4 PUSH2 0x1C23 JUMP JUMPDEST DUP3 PUSH2 0x169B JUMP JUMPDEST CALLVALUE PUSH2 0x18C JUMPI PUSH0 CALLDATASIZE PUSH1 0x3 NOT ADD SLT PUSH2 0x18C JUMPI PUSH1 0x20 SWAP1 PUSH1 0x7 SLOAD DUP2 MSTORE RETURN JUMPDEST PUSH1 0x60 DUP2 ADD SWAP1 DUP2 LT PUSH1 0x1 PUSH1 0x1 PUSH1 0x40 SHL SUB DUP3 GT OR PUSH2 0x1A2B JUMPI PUSH1 0x40 MSTORE JUMP JUMPDEST SWAP1 PUSH1 0x1F DUP1 NOT SWAP2 ADD AND DUP2 ADD SWAP1 DUP2 LT PUSH1 0x1 PUSH1 0x1 PUSH1 0x40 SHL SUB DUP3 GT OR PUSH2 0x1A2B JUMPI PUSH1 0x40 MSTORE JUMP JUMPDEST SWAP3 SWAP2 SWAP3 PUSH1 0x1 PUSH1 0x1 PUSH1 0x40 SHL SUB DUP3 GT PUSH2 0x1A2B JUMPI PUSH1 0x40 MLOAD SWAP2 PUSH2 0x1C6D PUSH1 0x1F DUP3 ADD PUSH1 0x1F NOT AND PUSH1 0x20 ADD DUP5 PUSH2 0x1C23 JUMP JUMPDEST DUP3 SWAP5 DUP2 DUP5 MSTORE DUP2 DUP4 ADD GT PUSH2 0x18C JUMPI DUP3 DUP2 PUSH1 0x20 SWAP4 DUP5 PUSH0 SWAP7 ADD CALLDATACOPY ADD ADD MSTORE JUMP JUMPDEST PUSH1 0x4 CALLDATALOAD SWAP1 PUSH1 0x1 PUSH1 0x1 PUSH1 0xA0 SHL SUB DUP3 AND DUP3 SUB PUSH2 0x18C JUMPI JUMP JUMPDEST SWAP1 DUP1 PUSH1 0x1F DUP4 ADD SLT ISZERO PUSH2 0x18C JUMPI DUP2 PUSH1 0x20 PUSH2 0x1CBA SWAP4 CALLDATALOAD SWAP2 ADD PUSH2 0x1C44 JUMP JUMPDEST SWAP1 JUMP JUMPDEST SWAP1 PUSH1 0x1 DUP3 DUP2 SHR SWAP3 AND DUP1 ISZERO PUSH2 0x1CEB JUMPI JUMPDEST PUSH1 0x20 DUP4 LT EQ PUSH2 0x1CD7 JUMPI JUMP JUMPDEST PUSH4 0x4E487B71 PUSH1 0xE0 SHL PUSH0 MSTORE PUSH1 0x22 PUSH1 0x4 MSTORE PUSH1 0x24 PUSH0 REVERT JUMPDEST SWAP2 PUSH1 0x7F AND SWAP2 PUSH2 0x1CCC JUMP JUMPDEST SWAP2 SWAP1 DUP3 MLOAD SWAP3 DUP4 DUP3 MSTORE PUSH0 JUMPDEST DUP5 DUP2 LT PUSH2 0x1D1F JUMPI POP POP DUP3 PUSH0 PUSH1 0x20 DUP1 SWAP5 SWAP6 DUP5 ADD ADD MSTORE PUSH1 0x1F DUP1 NOT SWAP2 ADD AND ADD ADD SWAP1 JUMP JUMPDEST PUSH1 0x20 DUP2 DUP4 ADD DUP2 ADD MLOAD DUP5 DUP4 ADD DUP3 ADD MSTORE ADD PUSH2 0x1CFF JUMP JUMPDEST SWAP1 DUP2 PUSH1 0x20 SWAP2 SUB SLT PUSH2 0x18C JUMPI MLOAD PUSH1 0x1 PUSH1 0x1 PUSH1 0x80 SHL SUB DUP2 AND DUP2 SUB PUSH2 0x18C JUMPI SWAP1 JUMP JUMPDEST SWAP2 SWAP1 DUP3 ADD DUP1 SWAP3 GT PUSH2 0x150C JUMPI JUMP JUMPDEST ISZERO PUSH2 0x1D66 JUMPI JUMP JUMPDEST PUSH1 0x40 MLOAD PUSH3 0x461BCD PUSH1 0xE5 SHL DUP2 MSTORE PUSH1 0x20 PUSH1 0x4 DUP3 ADD MSTORE PUSH1 0x10 PUSH1 0x24 DUP3 ADD MSTORE PUSH16 0x496E73756666696369656E7420666565 PUSH1 0x80 SHL PUSH1 0x44 DUP3 ADD MSTORE PUSH1 0x64 SWAP1 REVERT JUMPDEST PUSH0 NOT DUP2 EQ PUSH2 0x150C JUMPI PUSH1 0x1 ADD SWAP1 JUMP JUMPDEST SWAP1 DUP2 PUSH1 0x20 SWAP2 SUB SLT PUSH2 0x18C JUMPI MLOAD DUP1 ISZERO ISZERO DUP2 SUB PUSH2 0x18C JUMPI SWAP1 JUMP JUMPDEST SWAP1 DUP2 PUSH1 0x20 SWAP2 SUB SLT PUSH2 0x18C JUMPI MLOAD PUSH1 0x1 PUSH1 0x1 PUSH1 0x40 SHL SUB DUP2 AND DUP2 SUB PUSH2 0x18C JUMPI SWAP1 JUMP JUMPDEST DUP2 DUP2 LT PUSH2 0x1DEE JUMPI POP POP JUMP JUMPDEST PUSH0 DUP2 SSTORE PUSH1 0x1 ADD PUSH2 0x1DE3 JUMP JUMPDEST DUP1 SLOAD DUP3 LT ISZERO PUSH2 0x1E0E JUMPI PUSH0 MSTORE PUSH1 0x20 PUSH0 KECCAK256 ADD SWAP1 PUSH0 SWAP1 JUMP JUMPDEST PUSH4 0x4E487B71 PUSH1 0xE0 SHL PUSH0 MSTORE PUSH1 0x32 PUSH1 0x4 MSTORE PUSH1 0x24 PUSH0 REVERT JUMPDEST SWAP1 DUP2 SLOAD SWAP2 PUSH1 0x1 PUSH1 0x40 SHL DUP4 LT ISZERO PUSH2 0x1A2B JUMPI DUP3 PUSH2 0x1E45 SWAP2 PUSH1 0x1 PUSH2 0x1E63 SWAP6 ADD DUP2 SSTORE PUSH2 0x1DF9 JUMP JUMPDEST SWAP1 SWAP2 SWAP1 PUSH1 0x1 DUP1 PUSH1 0xA0 SHL SUB DUP1 DUP5 SLOAD SWAP3 PUSH1 0x3 SHL SWAP4 AND DUP4 SHL SWAP3 SHL NOT AND OR SWAP1 SSTORE JUMP JUMPDEST JUMP JUMPDEST SWAP2 SWAP1 DUP3 SUB SWAP2 DUP3 GT PUSH2 0x150C JUMPI JUMP JUMPDEST DUP1 SLOAD DUP1 ISZERO PUSH2 0x1E9E JUMPI PUSH0 NOT ADD SWAP1 PUSH2 0x1E88 DUP3 DUP3 PUSH2 0x1DF9 JUMP JUMPDEST DUP2 SLOAD SWAP1 PUSH1 0x1 DUP1 PUSH1 0xA0 SHL SUB SWAP1 PUSH1 0x3 SHL SHL NOT AND SWAP1 SSTORE SSTORE JUMP JUMPDEST PUSH4 0x4E487B71 PUSH1 0xE0 SHL PUSH0 MSTORE PUSH1 0x31 PUSH1 0x4 MSTORE PUSH1 0x24 PUSH0 REVERT JUMPDEST DUP2 DUP2 MUL SWAP3 SWAP2 DUP2 ISZERO SWAP2 DUP5 DIV EQ OR ISZERO PUSH2 0x150C JUMPI JUMP JUMPDEST PUSH0 MSTORE PUSH1 0xA PUSH1 0x20 MSTORE PUSH1 0x7 PUSH2 0x1EE1 PUSH1 0x40 PUSH0 KECCAK256 SWAP3 PUSH1 0x6 DUP5 ADD SLOAD SWAP1 PUSH2 0x1EB2 JUMP JUMPDEST SWAP2 ADD SLOAD SWAP1 DUP2 ISZERO PUSH2 0x8B2 JUMPI DIV SWAP1 JUMP JUMPDEST ISZERO PUSH2 0x1EF6 JUMPI JUMP JUMPDEST PUSH1 0x40 MLOAD PUSH3 0x461BCD PUSH1 0xE5 SHL DUP2 MSTORE PUSH1 0x20 PUSH1 0x4 DUP3 ADD MSTORE PUSH1 0x1D PUSH1 0x24 DUP3 ADD MSTORE PUSH32 0x5369676E617475726520766572696669636174696F6E206661696C6564000000 PUSH1 0x44 DUP3 ADD MSTORE PUSH1 0x64 SWAP1 REVERT JUMPDEST ISZERO PUSH2 0x1F42 JUMPI JUMP JUMPDEST PUSH1 0x40 MLOAD PUSH3 0x461BCD PUSH1 0xE5 SHL DUP2 MSTORE PUSH1 0x20 PUSH1 0x4 DUP3 ADD MSTORE PUSH1 0xF PUSH1 0x24 DUP3 ADD MSTORE PUSH15 0x151C985B9CD9995C8819985A5B1959 PUSH1 0x8A SHL PUSH1 0x44 DUP3 ADD MSTORE PUSH1 0x64 SWAP1 REVERT JUMPDEST PUSH1 0x40 MLOAD PUSH1 0x20 DUP2 ADD SWAP2 PUSH32 0x19457468657265756D205369676E6564204D6573736167653A0A333200000000 DUP4 MSTORE PUSH1 0x3C DUP3 ADD MSTORE PUSH1 0x3C DUP2 MSTORE PUSH2 0x1FB6 DUP2 PUSH2 0x1C08 JUMP JUMPDEST MLOAD SWAP1 KECCAK256 SWAP1 JUMP JUMPDEST PUSH0 DUP1 MLOAD PUSH1 0x20 PUSH2 0x2134 DUP4 CODECOPY DUP2 MLOAD SWAP2 MSTORE SLOAD PUSH1 0x1 PUSH1 0x1 PUSH1 0xA0 SHL SUB AND CALLER SUB PUSH2 0x1FDC JUMPI JUMP JUMPDEST PUSH1 0x40 MLOAD PUSH4 0x118CDAA7 PUSH1 0xE0 SHL DUP2 MSTORE CALLER PUSH1 0x4 DUP3 ADD MSTORE PUSH1 0x24 SWAP1 REVERT JUMPDEST DUP2 MLOAD SWAP2 SWAP1 PUSH1 0x41 DUP4 SUB PUSH2 0x2024 JUMPI PUSH2 0x201D SWAP3 POP PUSH1 0x20 DUP3 ADD MLOAD SWAP1 PUSH1 0x60 PUSH1 0x40 DUP5 ADD MLOAD SWAP4 ADD MLOAD PUSH0 BYTE SWAP1 PUSH2 0x20B1 JUMP JUMPDEST SWAP2 SWAP3 SWAP1 SWAP2 SWAP1 JUMP JUMPDEST POP POP PUSH0 SWAP2 PUSH1 0x2 SWAP2 SWAP1 JUMP JUMPDEST PUSH1 0x4 DUP2 LT ISZERO PUSH2 0x209D JUMPI DUP1 PUSH2 0x2040 JUMPI POP POP JUMP JUMPDEST PUSH1 0x1 DUP2 SUB PUSH2 0x205A JUMPI PUSH1 0x40 MLOAD PUSH4 0xF645EEDF PUSH1 0xE0 SHL DUP2 MSTORE PUSH1 0x4 SWAP1 REVERT JUMPDEST PUSH1 0x2 DUP2 SUB PUSH2 0x207B JUMPI PUSH1 0x40 MLOAD PUSH4 0xFCE698F7 PUSH1 0xE0 SHL DUP2 MSTORE PUSH1 0x4 DUP2 ADD DUP4 SWAP1 MSTORE PUSH1 0x24 SWAP1 REVERT JUMPDEST PUSH1 0x3 EQ PUSH2 0x2085 JUMPI POP JUMP JUMPDEST PUSH1 0x24 SWAP1 PUSH1 0x40 MLOAD SWAP1 PUSH4 0x35E2F383 PUSH1 0xE2 SHL DUP3 MSTORE PUSH1 0x4 DUP3 ADD MSTORE REVERT JUMPDEST PUSH4 0x4E487B71 PUSH1 0xE0 SHL PUSH0 MSTORE PUSH1 0x21 PUSH1 0x4 MSTORE PUSH1 0x24 PUSH0 REVERT JUMPDEST SWAP2 SWAP1 PUSH32 0x7FFFFFFFFFFFFFFFFFFFFFFFFFFFFFFF5D576E7357A4501DDFE92F46681B20A0 DUP5 GT PUSH2 0x2128 JUMPI SWAP2 PUSH1 0x20 SWAP4 PUSH1 0x80 SWAP3 PUSH1 0xFF PUSH0 SWAP6 PUSH1 0x40 MLOAD SWAP5 DUP6 MSTORE AND DUP7 DUP5 ADD MSTORE PUSH1 0x40 DUP4 ADD MSTORE PUSH1 0x60 DUP3 ADD MSTORE DUP3 DUP1 MSTORE PUSH1 0x1 GAS STATICCALL ISZERO PUSH2 0x498 JUMPI PUSH0 MLOAD PUSH1 0x1 PUSH1 0x1 PUSH1 0xA0 SHL SUB DUP2 AND ISZERO PUSH2 0x211E JUMPI SWAP1 PUSH0 SWAP1 PUSH0 SWAP1 JUMP JUMPDEST POP PUSH0 SWAP1 PUSH1 0x1 SWAP1 PUSH0 SWAP1 JUMP JUMPDEST POP POP POP PUSH0 SWAP2 PUSH1 0x3 SWAP2 SWAP1 JUMP INVALID SWAP1 AND 0xD0 SWAP14 PUSH19 0xD40FDAE2FD8CEAC6B6234C7706214FD39C1CD1 0xE6 MULMOD LOG0 MSTORE DUP13 NOT SWAP4 STOP NUMBER 0xD2 RETURN MULMOD SWAP2 EXTCODEHASH PUSH11 0xFC5D717F60864D2D192B69 SWAP7 RETURNDATASIZE 0x25 KECCAK256 0x4B PUSH11 0x12765E2795BF027FA26469 PUSH17 0x667358221220838963D29023FE42C230C4 0xBD 0x25 0x4A MSTORE DUP3 0xD9 LOG4 0x4C 0xDC ISZERO ADD CALLCODE MULMOD CODECOPY COINBASE EXTCODECOPY 0xCE PUSH29 0x83B39564736F6C63430008170033000000000000000000000000000000 "
		},
		"gasEstimates": {
			"creation": {
				"codeDepositCost": "1723400",
				"executionCost": "23929",
				"totalCost": "1747329"
			},
			"external": {
				"BLAST()": "586",
				"USDB()": "278",
				"admin()": "2896",
				"calculateRiskPoolBalance(uint256,uint256)": "4893",
				"changeAdminSigner(address)": "infinite",
				"claimFunds(uint256,bytes32[])": "infinite",
				"claimMyContractsGas()": "infinite",
				"claimReward(uint256)": "infinite",
				"createPot(string,bytes32,uint256,uint256,uint256,uint256,uint256)": "infinite",
				"getEntropyFee()": "infinite",
				"getEthSignedMessageHash(bytes32)": "1015",
				"getRiskPoolBalance(uint256)": "2481",
				"hasClaimed(address)": "2648",
				"hasJoinedPot(uint256,uint256,address)": "2686",
				"joinPot(uint256,bytes,uint256)": "infinite",
				"merkleRoot()": "2344",
				"owner()": "infinite",
				"potCreationFee()": "2806",
				"pots(uint256)": "infinite",
				"renounceOwnership()": "infinite",
				"rotateLiquidity(uint256,bytes32,bytes32,bytes32)": "infinite",
				"setMerkleRoot(bytes32,uint256)": "infinite",
				"totalRevenue()": "2740",
				"totalYielDeposited()": "2248",
				"transferOwnership(address)": "infinite",
				"updatePotCreationFee(uint256)": "infinite",
				"usdbToken()": "2412",
				"useRiskPool(uint256,uint256,bytes,uint256)": "infinite",
				"withdrawFromPot(uint256,uint256,bool)": "63289",
				"withdrawRevenue(bool)": "infinite"
			},
			"internal": {
				"deductRevenue(uint256)": "infinite"
			}
		},
		"methodIdentifiers": {
			"BLAST()": "97d75776",
			"USDB()": "31a0edec",
			"admin()": "f851a440",
			"calculateRiskPoolBalance(uint256,uint256)": "7d77990c",
			"changeAdminSigner(address)": "91dc969e",
			"claimFunds(uint256,bytes32[])": "61e7d805",
			"claimMyContractsGas()": "77d5d2dc",
			"claimReward(uint256)": "ae169a50",
			"createPot(string,bytes32,uint256,uint256,uint256,uint256,uint256)": "0fae6443",
			"getEntropyFee()": "2d971e63",
			"getEthSignedMessageHash(bytes32)": "fa540801",
			"getRiskPoolBalance(uint256)": "4d781b31",
			"hasClaimed(address)": "73b2e80e",
			"hasJoinedPot(uint256,uint256,address)": "4da1ec40",
			"joinPot(uint256,bytes,uint256)": "f78aedf9",
			"merkleRoot()": "2eb4a7ab",
			"owner()": "8da5cb5b",
			"potCreationFee()": "ec71687b",
			"pots(uint256)": "c3c3df4f",
			"renounceOwnership()": "715018a6",
			"rotateLiquidity(uint256,bytes32,bytes32,bytes32)": "ca829f10",
			"setMerkleRoot(bytes32,uint256)": "7c382d0b",
			"totalRevenue()": "bf2d9e0b",
			"totalYielDeposited()": "07dd3f44",
			"transferOwnership(address)": "f2fde38b",
			"updatePotCreationFee(uint256)": "82199e3f",
			"usdbToken()": "4a80409e",
			"useRiskPool(uint256,uint256,bytes,uint256)": "818c5548",
			"withdrawFromPot(uint256,uint256,bool)": "210eaeae",
			"withdrawRevenue(bool)": "b7db43c8"
		}
	},
	"abi": [
		{
			"inputs": [],
			"name": "ECDSAInvalidSignature",
			"type": "error"
		},
		{
			"inputs": [
				{
					"internalType": "uint256",
					"name": "length",
					"type": "uint256"
				}
			],
			"name": "ECDSAInvalidSignatureLength",
			"type": "error"
		},
		{
			"inputs": [
				{
					"internalType": "bytes32",
					"name": "s",
					"type": "bytes32"
				}
			],
			"name": "ECDSAInvalidSignatureS",
			"type": "error"
		},
		{
			"inputs": [],
			"name": "InvalidInitialization",
			"type": "error"
		},
		{
			"inputs": [],
			"name": "NotInitializing",
			"type": "error"
		},
		{
			"inputs": [
				{
					"internalType": "address",
					"name": "owner",
					"type": "address"
				}
			],
			"name": "OwnableInvalidOwner",
			"type": "error"
		},
		{
			"inputs": [
				{
					"internalType": "address",
					"name": "account",
					"type": "address"
				}
			],
			"name": "OwnableUnauthorizedAccount",
			"type": "error"
		},
		{
			"anonymous": false,
			"inputs": [
				{
					"indexed": false,
					"internalType": "uint64",
					"name": "version",
					"type": "uint64"
				}
			],
			"name": "Initialized",
			"type": "event"
		},
		{
			"anonymous": false,
			"inputs": [
				{
					"indexed": true,
					"internalType": "address",
					"name": "previousOwner",
					"type": "address"
				},
				{
					"indexed": true,
					"internalType": "address",
					"name": "newOwner",
					"type": "address"
				}
			],
			"name": "OwnershipTransferred",
			"type": "event"
		},
		{
			"anonymous": false,
			"inputs": [
				{
					"indexed": false,
					"internalType": "uint256",
					"name": "potId",
					"type": "uint256"
				},
				{
					"indexed": false,
					"internalType": "string",
					"name": "name",
					"type": "string"
				},
				{
					"indexed": false,
					"internalType": "address",
					"name": "participant",
					"type": "address"
				},
				{
					"indexed": false,
					"internalType": "uint256",
					"name": "amount",
					"type": "uint256"
				},
				{
					"indexed": false,
					"internalType": "uint256",
					"name": "rotationCycleInSeconds",
					"type": "uint256"
				},
				{
					"indexed": false,
					"internalType": "uint256",
					"name": "_interestDenominator",
					"type": "uint256"
				},
				{
					"indexed": false,
					"internalType": "uint256",
					"name": "_interestNumerator",
					"type": "uint256"
				},
				{
					"indexed": false,
					"internalType": "uint256",
					"name": "_numParticipants",
					"type": "uint256"
				}
			],
			"name": "ParticipantJoined",
			"type": "event"
		},
		{
			"anonymous": false,
			"inputs": [
				{
					"indexed": false,
					"internalType": "uint256",
					"name": "potId",
					"type": "uint256"
				},
				{
					"indexed": false,
					"internalType": "address",
					"name": "participant",
					"type": "address"
				}
			],
			"name": "ParticipantRemoved",
			"type": "event"
		},
		{
			"anonymous": false,
			"inputs": [
				{
					"indexed": false,
					"internalType": "uint256",
					"name": "potId",
					"type": "uint256"
				},
				{
					"indexed": false,
					"internalType": "string",
					"name": "name",
					"type": "string"
				},
				{
					"indexed": false,
					"internalType": "address",
					"name": "creator",
					"type": "address"
				},
				{
					"indexed": false,
					"internalType": "uint256",
					"name": "amount",
					"type": "uint256"
				},
				{
					"indexed": false,
					"internalType": "uint256",
					"name": "rotationCycleInSeconds",
					"type": "uint256"
				},
				{
					"indexed": false,
					"internalType": "uint256",
					"name": "_interestDenominator",
					"type": "uint256"
				},
				{
					"indexed": false,
					"internalType": "uint256",
					"name": "_interestNumerator",
					"type": "uint256"
				},
				{
					"indexed": false,
					"internalType": "uint256",
					"name": "_numParticipants",
					"type": "uint256"
				},
				{
					"indexed": false,
					"internalType": "uint64",
					"name": "sequenceNumber",
					"type": "uint64"
				},
				{
					"indexed": false,
					"internalType": "bytes32",
					"name": "userCommitment",
					"type": "bytes32"
				}
			],
			"name": "PotCreated",
			"type": "event"
		},
		{
			"anonymous": false,
			"inputs": [
				{
					"indexed": false,
					"internalType": "uint256",
					"name": "potId",
					"type": "uint256"
				},
				{
					"indexed": false,
					"internalType": "address",
					"name": "winner",
					"type": "address"
				},
				{
					"indexed": false,
					"internalType": "uint256",
					"name": "amount",
					"type": "uint256"
				}
			],
			"name": "RewardClaimed",
			"type": "event"
		},
		{
			"anonymous": false,
			"inputs": [
				{
					"indexed": false,
					"internalType": "uint256",
					"name": "potId",
					"type": "uint256"
				},
				{
					"indexed": false,
					"internalType": "address",
					"name": "winner",
					"type": "address"
				},
				{
					"indexed": false,
					"internalType": "uint256",
					"name": "round",
					"type": "uint256"
				},
				{
					"indexed": false,
					"internalType": "uint64",
					"name": "sequenceNumber",
					"type": "uint64"
				},
				{
					"indexed": false,
					"internalType": "bytes32",
					"name": "userCommitment",
					"type": "bytes32"
				},
				{
					"indexed": false,
					"internalType": "uint256",
					"name": "usedRiskPoolBalance",
					"type": "uint256"
				},
				{
					"indexed": false,
					"internalType": "uint256",
					"name": "amount",
					"type": "uint256"
				}
			],
			"name": "RotationCompleted",
			"type": "event"
		},
		{
			"inputs": [],
			"name": "BLAST",
			"outputs": [
				{
					"internalType": "contract IBlast",
					"name": "",
					"type": "address"
				}
			],
			"stateMutability": "view",
			"type": "function"
		},
		{
			"inputs": [],
			"name": "USDB",
			"outputs": [
				{
					"internalType": "contract IERC20Rebasing",
					"name": "",
					"type": "address"
				}
			],
			"stateMutability": "view",
			"type": "function"
		},
		{
			"inputs": [],
			"name": "admin",
			"outputs": [
				{
					"internalType": "address",
					"name": "",
					"type": "address"
				}
			],
			"stateMutability": "view",
			"type": "function"
		},
		{
			"inputs": [
				{
					"internalType": "uint256",
					"name": "_potId",
					"type": "uint256"
				},
				{
					"internalType": "uint256",
					"name": "_amount",
					"type": "uint256"
				}
			],
			"name": "calculateRiskPoolBalance",
			"outputs": [
				{
					"internalType": "uint256",
					"name": "",
					"type": "uint256"
				}
			],
			"stateMutability": "view",
			"type": "function"
		},
		{
			"inputs": [
				{
					"internalType": "address",
					"name": "newAdmin",
					"type": "address"
				}
			],
			"name": "changeAdminSigner",
			"outputs": [],
			"stateMutability": "nonpayable",
			"type": "function"
		},
		{
			"inputs": [
				{
					"internalType": "uint256",
					"name": "claimAmount",
					"type": "uint256"
				},
				{
					"internalType": "bytes32[]",
					"name": "merkleProof",
					"type": "bytes32[]"
				}
			],
			"name": "claimFunds",
			"outputs": [],
			"stateMutability": "nonpayable",
			"type": "function"
		},
		{
			"inputs": [],
			"name": "claimMyContractsGas",
			"outputs": [],
			"stateMutability": "nonpayable",
			"type": "function"
		},
		{
			"inputs": [
				{
					"internalType": "uint256",
					"name": "_potId",
					"type": "uint256"
				}
			],
			"name": "claimReward",
			"outputs": [],
			"stateMutability": "nonpayable",
			"type": "function"
		},
		{
			"inputs": [
				{
					"internalType": "string",
					"name": "_name",
					"type": "string"
				},
				{
					"internalType": "bytes32",
					"name": "userCommitment",
					"type": "bytes32"
				},
				{
					"internalType": "uint256",
					"name": "_rotationCycleInSeconds",
					"type": "uint256"
				},
				{
					"internalType": "uint256",
					"name": "_interestDenominator",
					"type": "uint256"
				},
				{
					"internalType": "uint256",
					"name": "_interestNumerator",
					"type": "uint256"
				},
				{
					"internalType": "uint256",
					"name": "_numParticipants",
					"type": "uint256"
				},
				{
					"internalType": "uint256",
					"name": "_amount",
					"type": "uint256"
				}
			],
			"name": "createPot",
			"outputs": [],
			"stateMutability": "payable",
			"type": "function"
		},
		{
			"inputs": [],
			"name": "getEntropyFee",
			"outputs": [
				{
					"internalType": "uint256",
					"name": "fee",
					"type": "uint256"
				}
			],
			"stateMutability": "view",
			"type": "function"
		},
		{
			"inputs": [
				{
					"internalType": "bytes32",
					"name": "_messageHash",
					"type": "bytes32"
				}
			],
			"name": "getEthSignedMessageHash",
			"outputs": [
				{
					"internalType": "bytes32",
					"name": "",
					"type": "bytes32"
				}
			],
			"stateMutability": "pure",
			"type": "function"
		},
		{
			"inputs": [
				{
					"internalType": "uint256",
					"name": "potId",
					"type": "uint256"
				}
			],
			"name": "getRiskPoolBalance",
			"outputs": [
				{
					"internalType": "uint256",
					"name": "riskPoolBalance",
					"type": "uint256"
				}
			],
			"stateMutability": "view",
			"type": "function"
		},
		{
			"inputs": [
				{
					"internalType": "address",
					"name": "",
					"type": "address"
				}
			],
			"name": "hasClaimed",
			"outputs": [
				{
					"internalType": "uint256",
					"name": "",
					"type": "uint256"
				}
			],
			"stateMutability": "view",
			"type": "function"
		},
		{
			"inputs": [
				{
					"internalType": "uint256",
					"name": "",
					"type": "uint256"
				},
				{
					"internalType": "uint256",
					"name": "",
					"type": "uint256"
				},
				{
					"internalType": "address",
					"name": "",
					"type": "address"
				}
			],
			"name": "hasJoinedPot",
			"outputs": [
				{
					"internalType": "bool",
					"name": "",
					"type": "bool"
				}
			],
			"stateMutability": "view",
			"type": "function"
		},
		{
			"inputs": [
				{
					"internalType": "uint256",
					"name": "_potId",
					"type": "uint256"
				},
				{
					"internalType": "bytes",
					"name": "signature",
					"type": "bytes"
				},
				{
					"internalType": "uint256",
					"name": "nonce",
					"type": "uint256"
				}
			],
			"name": "joinPot",
			"outputs": [],
			"stateMutability": "nonpayable",
			"type": "function"
		},
		{
			"inputs": [],
			"name": "merkleRoot",
			"outputs": [
				{
					"internalType": "bytes32",
					"name": "",
					"type": "bytes32"
				}
			],
			"stateMutability": "view",
			"type": "function"
		},
		{
			"inputs": [],
			"name": "owner",
			"outputs": [
				{
					"internalType": "address",
					"name": "",
					"type": "address"
				}
			],
			"stateMutability": "view",
			"type": "function"
		},
		{
			"inputs": [],
			"name": "potCreationFee",
			"outputs": [
				{
					"internalType": "uint256",
					"name": "",
					"type": "uint256"
				}
			],
			"stateMutability": "view",
			"type": "function"
		},
		{
			"inputs": [
				{
					"internalType": "uint256",
					"name": "",
					"type": "uint256"
				}
			],
			"name": "pots",
			"outputs": [
				{
					"internalType": "string",
					"name": "name",
					"type": "string"
				},
				{
					"internalType": "uint256",
					"name": "amount",
					"type": "uint256"
				},
				{
					"internalType": "uint256",
					"name": "riskPoolBalance",
					"type": "uint256"
				},
				{
					"internalType": "uint256",
					"name": "useRiskPoolBalance",
					"type": "uint256"
				},
				{
					"internalType": "uint256",
					"name": "rotationCycleInSeconds",
					"type": "uint256"
				},
				{
					"internalType": "uint256",
					"name": "lastRotationTime",
					"type": "uint256"
				},
				{
					"internalType": "uint256",
					"name": "interestNumerator",
					"type": "uint256"
				},
				{
					"internalType": "uint256",
					"name": "interestDenominator",
					"type": "uint256"
				},
				{
					"internalType": "uint256",
					"name": "numParticipants",
					"type": "uint256"
				},
				{
					"internalType": "uint256",
					"name": "currentRound",
					"type": "uint256"
				},
				{
					"internalType": "uint64",
					"name": "sequenceNumber",
					"type": "uint64"
				},
				{
					"internalType": "address",
					"name": "potCreator",
					"type": "address"
				}
			],
			"stateMutability": "view",
			"type": "function"
		},
		{
			"inputs": [],
			"name": "renounceOwnership",
			"outputs": [],
			"stateMutability": "nonpayable",
			"type": "function"
		},
		{
			"inputs": [
				{
					"internalType": "uint256",
					"name": "_potId",
					"type": "uint256"
				},
				{
					"internalType": "bytes32",
					"name": "userCommitment",
					"type": "bytes32"
				},
				{
					"internalType": "bytes32",
					"name": "userRandom",
					"type": "bytes32"
				},
				{
					"internalType": "bytes32",
					"name": "providerRandom",
					"type": "bytes32"
				}
			],
			"name": "rotateLiquidity",
			"outputs": [],
			"stateMutability": "payable",
			"type": "function"
		},
		{
			"inputs": [
				{
					"internalType": "bytes32",
					"name": "_merkleRoot",
					"type": "bytes32"
				},
				{
					"internalType": "uint256",
					"name": "_amount",
					"type": "uint256"
				}
			],
			"name": "setMerkleRoot",
			"outputs": [],
			"stateMutability": "payable",
			"type": "function"
		},
		{
			"inputs": [],
			"name": "totalRevenue",
			"outputs": [
				{
					"internalType": "uint256",
					"name": "",
					"type": "uint256"
				}
			],
			"stateMutability": "view",
			"type": "function"
		},
		{
			"inputs": [],
			"name": "totalYielDeposited",
			"outputs": [
				{
					"internalType": "uint256",
					"name": "",
					"type": "uint256"
				}
			],
			"stateMutability": "view",
			"type": "function"
		},
		{
			"inputs": [
				{
					"internalType": "address",
					"name": "newOwner",
					"type": "address"
				}
			],
			"name": "transferOwnership",
			"outputs": [],
			"stateMutability": "nonpayable",
			"type": "function"
		},
		{
			"inputs": [
				{
					"internalType": "uint256",
					"name": "_amount",
					"type": "uint256"
				}
			],
			"name": "updatePotCreationFee",
			"outputs": [],
			"stateMutability": "nonpayable",
			"type": "function"
		},
		{
			"inputs": [],
			"name": "usdbToken",
			"outputs": [
				{
					"internalType": "contract IERC20",
					"name": "",
					"type": "address"
				}
			],
			"stateMutability": "view",
			"type": "function"
		},
		{
			"inputs": [
				{
					"internalType": "uint256",
					"name": "_potId",
					"type": "uint256"
				},
				{
					"internalType": "uint256",
					"name": "_amount",
					"type": "uint256"
				},
				{
					"internalType": "bytes",
					"name": "signature",
					"type": "bytes"
				},
				{
					"internalType": "uint256",
					"name": "nonce",
					"type": "uint256"
				}
			],
			"name": "useRiskPool",
			"outputs": [],
			"stateMutability": "nonpayable",
			"type": "function"
		},
		{
			"inputs": [
				{
					"internalType": "uint256",
					"name": "_potId",
					"type": "uint256"
				},
				{
					"internalType": "uint256",
					"name": "_index",
					"type": "uint256"
				},
				{
					"internalType": "bool",
					"name": "_isWinner",
					"type": "bool"
				}
			],
			"name": "withdrawFromPot",
			"outputs": [],
			"stateMutability": "nonpayable",
			"type": "function"
		},
		{
			"inputs": [
				{
					"internalType": "bool",
					"name": "_isUsdb",
					"type": "bool"
				}
			],
			"name": "withdrawRevenue",
			"outputs": [],
			"stateMutability": "nonpayable",
			"type": "function"
		}
	]
}