{
	"data": {
		"bytecode": {
			"linkReferences": {},
			"object": "60803461008c57601f61027b38819003918201601f19168301916001600160401b0383118484101761009057808492604094855283398101031261008c57610052602061004b836100a4565b92016100a4565b5f80546001600160a01b039384166001600160a01b031991821617909155600180549290931691161790556040516101c290816100b98239f35b5f80fd5b634e487b7160e01b5f52604160045260245ffd5b51906001600160a01b038216820361008c5756fe60806040526004361015610015575b3661011957005b5f3560e01c80633659cfe6146100445780635c60da1b1461003f5763f851a4400361000e576100f1565b6100ca565b346100c65760203660031901126100c6576004356001600160a01b03818116918290036100c65760015416330361008f576bffffffffffffffffffffffff60a01b5f5416175f555f80f35b62461bcd60e51b6080526020608452601660a452754f6e6c792061646d696e2063616e207570677261646560501b60c45260646080fd5b5f80fd5b346100c6575f3660031901126100c6575f546040516001600160a01b039091168152602090f35b346100c6575f3660031901126100c6576001546040516001600160a01b039091168152602090f35b5f546001600160a01b03168015610147575f8091368280378136915af43d5f803e15610143573d5ff35b3d5ffd5b60405162461bcd60e51b815260206004820152601f60248201527f496d706c656d656e746174696f6e20636f6e7472616374206e6f7420736574006044820152606490fdfea2646970667358221220f3b06250226e31d8857bc5eb6cc4d5671c447acb63ac0c5dcf6540695d389fc964736f6c63430008170033",
			"opcodes": "PUSH1 0x80 CALLVALUE PUSH2 0x8C JUMPI PUSH1 0x1F PUSH2 0x27B CODESIZE DUP2 SWAP1 SUB SWAP2 DUP3 ADD PUSH1 0x1F NOT AND DUP4 ADD SWAP2 PUSH1 0x1 PUSH1 0x1 PUSH1 0x40 SHL SUB DUP4 GT DUP5 DUP5 LT OR PUSH2 0x90 JUMPI DUP1 DUP5 SWAP3 PUSH1 0x40 SWAP5 DUP6 MSTORE DUP4 CODECOPY DUP2 ADD SUB SLT PUSH2 0x8C JUMPI PUSH2 0x52 PUSH1 0x20 PUSH2 0x4B DUP4 PUSH2 0xA4 JUMP JUMPDEST SWAP3 ADD PUSH2 0xA4 JUMP JUMPDEST PUSH0 DUP1 SLOAD PUSH1 0x1 PUSH1 0x1 PUSH1 0xA0 SHL SUB SWAP4 DUP5 AND PUSH1 0x1 PUSH1 0x1 PUSH1 0xA0 SHL SUB NOT SWAP2 DUP3 AND OR SWAP1 SWAP2 SSTORE PUSH1 0x1 DUP1 SLOAD SWAP3 SWAP1 SWAP4 AND SWAP2 AND OR SWAP1 SSTORE PUSH1 0x40 MLOAD PUSH2 0x1C2 SWAP1 DUP2 PUSH2 0xB9 DUP3 CODECOPY RETURN JUMPDEST PUSH0 DUP1 REVERT JUMPDEST PUSH4 0x4E487B71 PUSH1 0xE0 SHL PUSH0 MSTORE PUSH1 0x41 PUSH1 0x4 MSTORE PUSH1 0x24 PUSH0 REVERT JUMPDEST MLOAD SWAP1 PUSH1 0x1 PUSH1 0x1 PUSH1 0xA0 SHL SUB DUP3 AND DUP3 SUB PUSH2 0x8C JUMPI JUMP INVALID PUSH1 0x80 PUSH1 0x40 MSTORE PUSH1 0x4 CALLDATASIZE LT ISZERO PUSH2 0x15 JUMPI JUMPDEST CALLDATASIZE PUSH2 0x119 JUMPI STOP JUMPDEST PUSH0 CALLDATALOAD PUSH1 0xE0 SHR DUP1 PUSH4 0x3659CFE6 EQ PUSH2 0x44 JUMPI DUP1 PUSH4 0x5C60DA1B EQ PUSH2 0x3F JUMPI PUSH4 0xF851A440 SUB PUSH2 0xE JUMPI PUSH2 0xF1 JUMP JUMPDEST PUSH2 0xCA JUMP JUMPDEST CALLVALUE PUSH2 0xC6 JUMPI PUSH1 0x20 CALLDATASIZE PUSH1 0x3 NOT ADD SLT PUSH2 0xC6 JUMPI PUSH1 0x4 CALLDATALOAD PUSH1 0x1 PUSH1 0x1 PUSH1 0xA0 SHL SUB DUP2 DUP2 AND SWAP2 DUP3 SWAP1 SUB PUSH2 0xC6 JUMPI PUSH1 0x1 SLOAD AND CALLER SUB PUSH2 0x8F JUMPI PUSH12 0xFFFFFFFFFFFFFFFFFFFFFFFF PUSH1 0xA0 SHL PUSH0 SLOAD AND OR PUSH0 SSTORE PUSH0 DUP1 RETURN JUMPDEST PUSH3 0x461BCD PUSH1 0xE5 SHL PUSH1 0x80 MSTORE PUSH1 0x20 PUSH1 0x84 MSTORE PUSH1 0x16 PUSH1 0xA4 MSTORE PUSH22 0x4F6E6C792061646D696E2063616E2075706772616465 PUSH1 0x50 SHL PUSH1 0xC4 MSTORE PUSH1 0x64 PUSH1 0x80 REVERT JUMPDEST PUSH0 DUP1 REVERT JUMPDEST CALLVALUE PUSH2 0xC6 JUMPI PUSH0 CALLDATASIZE PUSH1 0x3 NOT ADD SLT PUSH2 0xC6 JUMPI PUSH0 SLOAD PUSH1 0x40 MLOAD PUSH1 0x1 PUSH1 0x1 PUSH1 0xA0 SHL SUB SWAP1 SWAP2 AND DUP2 MSTORE PUSH1 0x20 SWAP1 RETURN JUMPDEST CALLVALUE PUSH2 0xC6 JUMPI PUSH0 CALLDATASIZE PUSH1 0x3 NOT ADD SLT PUSH2 0xC6 JUMPI PUSH1 0x1 SLOAD PUSH1 0x40 MLOAD PUSH1 0x1 PUSH1 0x1 PUSH1 0xA0 SHL SUB SWAP1 SWAP2 AND DUP2 MSTORE PUSH1 0x20 SWAP1 RETURN JUMPDEST PUSH0 SLOAD PUSH1 0x1 PUSH1 0x1 PUSH1 0xA0 SHL SUB AND DUP1 ISZERO PUSH2 0x147 JUMPI PUSH0 DUP1 SWAP2 CALLDATASIZE DUP3 DUP1 CALLDATACOPY DUP2 CALLDATASIZE SWAP2 GAS DELEGATECALL RETURNDATASIZE PUSH0 DUP1 RETURNDATACOPY ISZERO PUSH2 0x143 JUMPI RETURNDATASIZE PUSH0 RETURN JUMPDEST RETURNDATASIZE PUSH0 REVERT JUMPDEST PUSH1 0x40 MLOAD PUSH3 0x461BCD PUSH1 0xE5 SHL DUP2 MSTORE PUSH1 0x20 PUSH1 0x4 DUP3 ADD MSTORE PUSH1 0x1F PUSH1 0x24 DUP3 ADD MSTORE PUSH32 0x496D706C656D656E746174696F6E20636F6E7472616374206E6F742073657400 PUSH1 0x44 DUP3 ADD MSTORE PUSH1 0x64 SWAP1 REVERT INVALID LOG2 PUSH5 0x6970667358 0x22 SLT KECCAK256 RETURN 0xB0 PUSH3 0x50226E BALANCE 0xD8 DUP6 PUSH28 0xC5EB6CC4D5671C447ACB63AC0C5DCF6540695D389FC964736F6C6343 STOP ADDMOD OR STOP CALLER "
		},
		"gasEstimates": {
			"creation": {
				"codeDepositCost": "90000",
				"executionCost": "infinite",
				"totalCost": "infinite"
			},
			"external": {
				"": "infinite",
				"admin()": "2324",
				"implementation()": "2305",
				"upgradeTo(address)": "26525"
			}
		},
		"methodIdentifiers": {
			"admin()": "f851a440",
			"implementation()": "5c60da1b",
			"upgradeTo(address)": "3659cfe6"
		}
	},
	"abi": [
		{
			"inputs": [
				{
					"internalType": "address",
					"name": "logic",
					"type": "address"
				},
				{
					"internalType": "address",
					"name": "adminAddress",
					"type": "address"
				}
			],
			"stateMutability": "nonpayable",
			"type": "constructor"
		},
		{
			"stateMutability": "payable",
			"type": "fallback"
		},
		{
			"inputs": [],
			"name": "admin",
			"outputs": [
				{
					"internalType": "address",
					"name": "",
					"type": "address"
				}
			],
			"stateMutability": "view",
			"type": "function"
		},
		{
			"inputs": [],
			"name": "implementation",
			"outputs": [
				{
					"internalType": "address",
					"name": "",
					"type": "address"
				}
			],
			"stateMutability": "view",
			"type": "function"
		},
		{
			"inputs": [
				{
					"internalType": "address",
					"name": "newImplementation",
					"type": "address"
				}
			],
			"name": "upgradeTo",
			"outputs": [],
			"stateMutability": "nonpayable",
			"type": "function"
		},
		{
			"stateMutability": "payable",
			"type": "receive"
		}
	]
}