{"abi":[{"type":"function","name":"BLAST","inputs":[],"outputs":[{"name":"","type":"address","internalType":"contract IBlast"}],"stateMutability":"view"},{"type":"function","name":"USDB","inputs":[],"outputs":[{"name":"","type":"address","internalType":"contract IERC20Rebasing"}],"stateMutability":"view"},{"type":"function","name":"admin","inputs":[],"outputs":[{"name":"","type":"address","internalType":"address"}],"stateMutability":"view"},{"type":"function","name":"calculateRiskPoolBalance","inputs":[{"name":"_potId","type":"uint256","internalType":"uint256"},{"name":"_amount","type":"uint256","internalType":"uint256"}],"outputs":[{"name":"","type":"uint256","internalType":"uint256"}],"stateMutability":"view"},{"type":"function","name":"changeAdminSigner","inputs":[{"name":"newAdmin","type":"address","internalType":"address"}],"outputs":[],"stateMutability":"nonpayable"},{"type":"function","name":"claimFunds","inputs":[{"name":"claimAmount","type":"uint256","internalType":"uint256"},{"name":"merkleProof","type":"bytes32[]","internalType":"bytes32[]"}],"outputs":[],"stateMutability":"nonpayable"},{"type":"function","name":"claimMyContractsGas","inputs":[],"outputs":[],"stateMutability":"nonpayable"},{"type":"function","name":"claimReward","inputs":[{"name":"_potId","type":"uint256","internalType":"uint256"}],"outputs":[],"stateMutability":"nonpayable"},{"type":"function","name":"configureGas","inputs":[],"outputs":[],"stateMutability":"nonpayable"},{"type":"function","name":"createPot","inputs":[{"name":"_name","type":"string","internalType":"string"},{"name":"userCommitment","type":"bytes32","internalType":"bytes32"},{"name":"_rotationCycleInSeconds","type":"uint256","internalType":"uint256"},{"name":"_interestDenominator","type":"uint256","internalType":"uint256"},{"name":"_interestNumerator","type":"uint256","internalType":"uint256"},{"name":"_numParticipants","type":"uint256","internalType":"uint256"},{"name":"_amount","type":"uint256","internalType":"uint256"}],"outputs":[],"stateMutability":"payable"},{"type":"function","name":"getEntropyFee","inputs":[],"outputs":[{"name":"fee","type":"uint256","internalType":"uint256"}],"stateMutability":"view"},{"type":"function","name":"getEthSignedMessageHash","inputs":[{"name":"_messageHash","type":"bytes32","internalType":"bytes32"}],"outputs":[{"name":"","type":"bytes32","internalType":"bytes32"}],"stateMutability":"pure"},{"type":"function","name":"getParticipantIndex","inputs":[{"name":"_potId","type":"uint256","internalType":"uint256"},{"name":"participant","type":"address","internalType":"address"}],"outputs":[{"name":"","type":"uint256","internalType":"uint256"}],"stateMutability":"view"},{"type":"function","name":"getRiskPoolBalance","inputs":[{"name":"potId","type":"uint256","internalType":"uint256"}],"outputs":[{"name":"riskPoolBalance","type":"uint256","internalType":"uint256"}],"stateMutability":"view"},{"type":"function","name":"hasClaimed","inputs":[{"name":"","type":"address","internalType":"address"}],"outputs":[{"name":"","type":"uint256","internalType":"uint256"}],"stateMutability":"view"},{"type":"function","name":"hasJoinedPot","inputs":[{"name":"","type":"uint256","internalType":"uint256"},{"name":"","type":"uint256","internalType":"uint256"},{"name":"","type":"address","internalType":"address"}],"outputs":[{"name":"","type":"bool","internalType":"bool"}],"stateMutability":"view"},{"type":"function","name":"initialize","inputs":[{"name":"_entropy","type":"address","internalType":"address"}],"outputs":[],"stateMutability":"nonpayable"},{"type":"function","name":"joinPot","inputs":[{"name":"_potId","type":"uint256","internalType":"uint256"},{"name":"signature","type":"bytes","internalType":"bytes"},{"name":"nonce","type":"uint256","internalType":"uint256"}],"outputs":[],"stateMutability":"nonpayable"},{"type":"function","name":"merkleRoot","inputs":[],"outputs":[{"name":"","type":"bytes32","internalType":"bytes32"}],"stateMutability":"view"},{"type":"function","name":"owner","inputs":[],"outputs":[{"name":"","type":"address","internalType":"address"}],"stateMutability":"view"},{"type":"function","name":"potCreationFee","inputs":[],"outputs":[{"name":"","type":"uint256","internalType":"uint256"}],"stateMutability":"view"},{"type":"function","name":"pots","inputs":[{"name":"","type":"uint256","internalType":"uint256"}],"outputs":[{"name":"name","type":"string","internalType":"string"},{"name":"amount","type":"uint256","internalType":"uint256"},{"name":"totalDepositedAmount","type":"uint256","internalType":"uint256"},{"name":"riskPoolBalance","type":"uint256","internalType":"uint256"},{"name":"useRiskPoolBalance","type":"uint256","internalType":"uint256"},{"name":"rotationCycleInSeconds","type":"uint256","internalType":"uint256"},{"name":"lastRotationTime","type":"uint256","internalType":"uint256"},{"name":"interestNumerator","type":"uint256","internalType":"uint256"},{"name":"interestDenominator","type":"uint256","internalType":"uint256"},{"name":"numParticipants","type":"uint256","internalType":"uint256"},{"name":"currentRound","type":"uint256","internalType":"uint256"},{"name":"sequenceNumber","type":"uint64","internalType":"uint64"},{"name":"potCreator","type":"address","internalType":"address"}],"stateMutability":"view"},{"type":"function","name":"renounceOwnership","inputs":[],"outputs":[],"stateMutability":"nonpayable"},{"type":"function","name":"rotateLiquidity","inputs":[{"name":"_potId","type":"uint256","internalType":"uint256"},{"name":"userCommitment","type":"bytes32","internalType":"bytes32"},{"name":"userRandom","type":"bytes32","internalType":"bytes32"},{"name":"providerRandom","type":"bytes32","internalType":"bytes32"}],"outputs":[],"stateMutability":"payable"},{"type":"function","name":"setMerkleRoot","inputs":[{"name":"_merkleRoot","type":"bytes32","internalType":"bytes32"},{"name":"_amount","type":"uint256","internalType":"uint256"}],"outputs":[],"stateMutability":"payable"},{"type":"function","name":"totalRevenue","inputs":[],"outputs":[{"name":"","type":"uint256","internalType":"uint256"}],"stateMutability":"view"},{"type":"function","name":"totalYielDeposited","inputs":[],"outputs":[{"name":"","type":"uint256","internalType":"uint256"}],"stateMutability":"view"},{"type":"function","name":"transferOwnership","inputs":[{"name":"newOwner","type":"address","internalType":"address"}],"outputs":[],"stateMutability":"nonpayable"},{"type":"function","name":"updatePotCreationFee","inputs":[{"name":"_amount","type":"uint256","internalType":"uint256"}],"outputs":[],"stateMutability":"nonpayable"},{"type":"function","name":"usdbToken","inputs":[],"outputs":[{"name":"","type":"address","internalType":"contract IERC20"}],"stateMutability":"view"},{"type":"function","name":"useRiskPool","inputs":[{"name":"_potId","type":"uint256","internalType":"uint256"},{"name":"_amount","type":"uint256","internalType":"uint256"},{"name":"signature","type":"bytes","internalType":"bytes"},{"name":"nonce","type":"uint256","internalType":"uint256"}],"outputs":[],"stateMutability":"nonpayable"},{"type":"function","name":"withdrawFromPot","inputs":[{"name":"_potId","type":"uint256","internalType":"uint256"},{"name":"_index","type":"uint256","internalType":"uint256"},{"name":"_isWinner","type":"bool","internalType":"bool"}],"outputs":[],"stateMutability":"nonpayable"},{"type":"function","name":"withdrawRevenue","inputs":[{"name":"_isUsdb","type":"bool","internalType":"bool"}],"outputs":[],"stateMutability":"nonpayable"},{"type":"event","name":"Initialized","inputs":[{"name":"version","type":"uint64","indexed":false,"internalType":"uint64"}],"anonymous":false},{"type":"event","name":"OwnershipTransferred","inputs":[{"name":"previousOwner","type":"address","indexed":true,"internalType":"address"},{"name":"newOwner","type":"address","indexed":true,"internalType":"address"}],"anonymous":false},{"type":"event","name":"ParticipantJoined","inputs":[{"name":"potId","type":"uint256","indexed":false,"internalType":"uint256"},{"name":"name","type":"string","indexed":false,"internalType":"string"},{"name":"participant","type":"address","indexed":false,"internalType":"address"},{"name":"amount","type":"uint256","indexed":false,"internalType":"uint256"},{"name":"rotationCycleInSeconds","type":"uint256","indexed":false,"internalType":"uint256"},{"name":"_interestDenominator","type":"uint256","indexed":false,"internalType":"uint256"},{"name":"_interestNumerator","type":"uint256","indexed":false,"internalType":"uint256"},{"name":"_numParticipants","type":"uint256","indexed":false,"internalType":"uint256"}],"anonymous":false},{"type":"event","name":"ParticipantRemoved","inputs":[{"name":"potId","type":"uint256","indexed":false,"internalType":"uint256"},{"name":"participant","type":"address","indexed":false,"internalType":"address"}],"anonymous":false},{"type":"event","name":"PotCreated","inputs":[{"name":"potId","type":"uint256","indexed":false,"internalType":"uint256"},{"name":"name","type":"string","indexed":false,"internalType":"string"},{"name":"creator","type":"address","indexed":false,"internalType":"address"},{"name":"amount","type":"uint256","indexed":false,"internalType":"uint256"},{"name":"rotationCycleInSeconds","type":"uint256","indexed":false,"internalType":"uint256"},{"name":"_interestDenominator","type":"uint256","indexed":false,"internalType":"uint256"},{"name":"_interestNumerator","type":"uint256","indexed":false,"internalType":"uint256"},{"name":"_numParticipants","type":"uint256","indexed":false,"internalType":"uint256"},{"name":"sequenceNumber","type":"uint64","indexed":false,"internalType":"uint64"},{"name":"userCommitment","type":"bytes32","indexed":false,"internalType":"bytes32"}],"anonymous":false},{"type":"event","name":"RewardClaimed","inputs":[{"name":"potId","type":"uint256","indexed":false,"internalType":"uint256"},{"name":"winner","type":"address","indexed":false,"internalType":"address"},{"name":"amount","type":"uint256","indexed":false,"internalType":"uint256"}],"anonymous":false},{"type":"event","name":"RotationCompleted","inputs":[{"name":"potId","type":"uint256","indexed":false,"internalType":"uint256"},{"name":"winner","type":"address","indexed":false,"internalType":"address"},{"name":"round","type":"uint256","indexed":false,"internalType":"uint256"},{"name":"sequenceNumber","type":"uint64","indexed":false,"internalType":"uint64"},{"name":"userCommitment","type":"bytes32","indexed":false,"internalType":"bytes32"},{"name":"usedRiskPoolBalance","type":"uint256","indexed":false,"internalType":"uint256"},{"name":"amount","type":"uint256","indexed":false,"internalType":"uint256"}],"anonymous":false},{"type":"error","name":"ECDSAInvalidSignature","inputs":[]},{"type":"error","name":"ECDSAInvalidSignatureLength","inputs":[{"name":"length","type":"uint256","internalType":"uint256"}]},{"type":"error","name":"ECDSAInvalidSignatureS","inputs":[{"name":"s","type":"bytes32","internalType":"bytes32"}]},{"type":"error","name":"InvalidInitialization","inputs":[]},{"type":"error","name":"NotInitializing","inputs":[]},{"type":"error","name":"OwnableInvalidOwner","inputs":[{"name":"owner","type":"address","internalType":"address"}]},{"type":"error","name":"OwnableUnauthorizedAccount","inputs":[{"name":"account","type":"address","internalType":"address"}]}],"bytecode":{"object":"0x6080806040523461001b5760016004556128aa90816100218239f35b600080fdfe608080604052600436101561001357600080fd5b600090813560e01c90816307dd3f4414612132575080630ab93941146120d85780630fae644314611af7578063210eaeae146118425780632d971e63146117c25780632eb4a7ab146117a457806331a0edec146117815780634a80409e146117585780634d781b311461172b5780634da1ec40146116ce57806361e7d805146113e5578063715018a61461137a57806373b2e80e1461134157806377d5d2dc146112c85780637c382d0b146112695780637d77990c146112475780637f5ef00514611214578063818c5548146110da57806382199e3f146110b75780638da5cb5b1461108157806391dc969e1461103c57806397d7577614611019578063ae169a5014610eeb578063b7db43c814610de3578063bf2d9e0b14610dc5578063c3c3df4f14610c54578063c4d66de8146109d3578063ca829f10146105dd578063ec71687b146105bf578063f2fde38b14610592578063f78aedf9146101de578063f851a440146101b55763fa5408011461018c57600080fd5b346101b25760203660031901126101b25760206101aa600435612632565b604051908152f35b80fd5b50346101b257806003193601126101b2576002546040516001600160a01b039091168152602090f35b50346101b25760603660031901126101b257600435906024356001600160401b03811161058e5761021390369060040161220f565b918082526020600a81526040832093600c85019283549160098701928354111561055b57818652600c84526040862090600a8801549182885285526040872033600052855260ff604060002054166104f8576040518581018481523360601b6bffffffffffffffffffffffff191660208201526034810184905260443560548201526102e093926102f09290916102c3916102bb81607484015b03601f198101835282612192565b519020612632565b6002546001600160a01b03959086169286926102e99291906126ae565b909291926126ea565b1614612572565b828752600c85526040872090875284526040862033600052845260406000209060019560ff199260018482541617905587866103768b600181019560028754920161033c8382546122c6565b90556008546040516323b872dd60e01b81523360048201523060248201526044810193909352919485939190921691839182906064820190565b03925af19081156104ed5790610393918a916104c0575b50612446565b33600052600f8901865260ff60406000205416156104af575b505460058801549160078901549360088a015495549660405198610100928a5282828b01528a9b80546103de8161222d565b80958d01526101209560018216918260001461048457505060011461043c575b508a6000805160206128558339815191528b808f8d8d8d8d8d3360408801526060870152608086015260a085015260c084015260e08301520390a180f35b9093949b508a52808a20928a935b838510610471575050505086010196816000805160206128558339815191528738806103fe565b8054858c0187015293820193810161044a565b16868d015250505050151560051b8701019750816000805160206128558339815191528738806103fe565b6104ba9033906123b3565b386103ac565b6104e09150883d8a116104e6575b6104d88183612192565b810190612337565b3861038d565b503d6104ce565b6040513d8b823e3d90fd5b60405162461bcd60e51b815260048101869052603560248201527f596f75206861766520616c7265616479206a6f696e6564207468697320706f74604482015274081a5b881d1a194818dd5c9c995b9d081c9bdd5b99605a1b6064820152608490fd5b60405162461bcd60e51b815260048101859052600b60248201526a141bdd081a5cc8199d5b1b60aa1b6044820152606490fd5b5080fd5b50346101b25760203660031901126101b2576105bc6105af6121f9565b6105b7612675565b6125be565b80f35b50346101b257806003193601126101b2576020600654604051908152f35b5060803660031901126101b2576004358152600a6020526040812061060b60068201546005830154906122c6565b42108015906109b4575b1561096f578154600154600b830154604051639371df5160e01b81526001600160a01b0392831660048201526001600160401b039091166024820152604480359082015260648035908201529291602091849160849183918891165af191821561096457839261092c575b50600c8101918254908115610918576106a0610707939286920685612385565b905460039190911b1c6001600160a01b03166106bf81600d85016123b3565b6002830154926106e060646106d6818704876123f6565b95046005546122c6565b6005556106ef84600435612484565b94859461070260048401549788926123f6565b6122c6565b9382600052600e820160205284604060002055610729600383019182546122c6565b905582600482015581600052600f81016020526040600020600160ff1982541617905542600682015560018060a01b0383541660018060a01b03600154169060405190631711922960e31b8252826004830152602082602481845afa801561090d576001600160801b0360649160209489916108e0575b5016936107ae8534146122e9565b60405194859384926393cbf21760e01b8452600484015260243560248401528960448401525af180156108d5576002936001600160401b0360e0927f9ef3fbd1495a53d36401c5153be21a35a6214297031b5e106b12307835851d2f9488916108a6575b501696876001600160401b0319600b8701541617600b860155600a85019889549860405193600435855260208501528960408501526060840152602435608084015260a083015260c0820152a18554948515159485610894575b5050015583835561087b578280f35b61088e918352602083209081019061236e565b38808280f35b61089d90612328565b9055388061086c565b6108c8915060203d6020116108ce575b6108c08183612192565b81019061234f565b38610812565b503d6108b6565b6040513d86823e3d90fd5b6109009150853d8711610906575b6108f88183612192565b8101906122a7565b386107a0565b503d6108ee565b6040513d88823e3d90fd5b634e487b7160e01b85526012600452602485fd5b9091506020813d60201161095c575b8161094860209383612192565b8101031261095857519038610680565b8280fd5b3d915061093b565b6040513d85823e3d90fd5b60405162461bcd60e51b815260206004820152601960248201527f4e65787420726f746174696f6e206e6f742079657420647565000000000000006044820152606490fd5b5060098101546109cd600c830154600d840154906122c6565b14610615565b50346101b25760208060031936011261058e576109ee6121f9565b907ff0c57e16840df040f15088dc2f81fe391c3923bec73e23a9662efc9c229c6a009182549060ff8260401c1615916001600160401b03811680159081610c4c575b6001149081610c42575b159081610c39575b50610c275767ffffffffffffffff198116600117855582610c08575b50610a6761276f565b610a6f61276f565b610a78336125be565b604051631a33757d60e01b8152600260048201526003604360981b019084816024818a865af1908115610bfd578591610bcf575b50506bffffffffffffffffffffffff60a01b90816008541617600855732536fe9ab3f511540f2f9e2ec2a805005c3dd80091823b15610bc057866040516336b91f2b60e01b815281816024818373e4860d3973802c7c42450d7b9741921c7711d039998a60048401525af18015610bc457610bac575b505060018060a01b0316818754161786557352deaa1c84233f7bb8c8a45baede41091c616506816001541617600155600254161760025566038d7ea4c68000600655610b6c578280f35b7fc7f505b2f371ae2175ee4913f4499e1f2633a7b5936321eed1cdaeb6115181d29168ff000000000000000019815416905560405160018152a138808280f35b610bb59061214e565b610bc0578638610b22565b8680fd5b6040513d84823e3d90fd5b813d8311610bf6575b610be28183612192565b81010312610bf1578338610aac565b600080fd5b503d610bd8565b6040513d89823e3d90fd5b68ffffffffffffffffff19166801000000000000000117845538610a5e565b60405163f92ee8a960e01b8152600490fd5b90501538610a42565b303b159150610a3a565b849150610a30565b50346101b25760203660031901126101b2576004358152600a6020526040812060405190828154610c848161222d565b80855291600191808316908115610d9d5750600114610d5e575b505050610cb082610d02940383612192565b6001810154906002810154906003810154600482015460058301546006840154600785015491600886015493600987015495600b600a890154980154986040519c8d9c8d6101a0908181520190612267565b9a60208d015260408c015260608b015260808a015260a089015260c088015260e08701526101008601526101208501526101408401526001600160401b03811661016084015260018060a01b039060401c166101808301520390f35b9450828552602085205b828610610d8557505050610cb0826020610d029582010194610c9e565b80546020878701810191909152909501948101610d68565b610d02975086935060209250610cb094915060ff191682840152151560051b82010194610c9e565b50346101b257806003193601126101b2576020600554604051908152f35b50346101b25760203660031901126101b2576004358015158103610bf157610e09612675565b15610ebe576005548015610e8057600582905560085460405163a9059cbb60e01b815233600482015260248101929092526020908290604490829086906001600160a01b03165af18015610bc4576105bc918391610e675750612446565b6104e0915060203d6020116104e6576104d88183612192565b60405162461bcd60e51b81526020600482015260166024820152754e6f20726576656e756520746f20776974686472617760501b6044820152606490fd5b8080808047818115610ee2575b3390f115610ed65780f35b604051903d90823e3d90fd5b506108fc610ecb565b50346101b25760208060031936011261058e5760043590818352600a8152600e60408420013360005280825260406000205415610fdf57336000818152918352604091829020805490869055600854925163a9059cbb60e01b815260048101929092526024820181905290939183908590604490829089906001600160a01b03165af1928315610fd457610fa96060947f24b5efa61dd1cfc659205a97fb8ed868f3cb8c81922bab2b96423e5de1de2cb7968891610fbd5750612446565b60405192835233908301526040820152a180f35b6104e09150833d85116104e6576104d88183612192565b6040513d87823e3d90fd5b60405162461bcd60e51b81526004810183905260126024820152714e6f2072657761726420746f20636c61696d60701b6044820152606490fd5b50346101b257806003193601126101b2576040516002604360981b018152602090f35b50346101b25760203660031901126101b2576110566121f9565b61105e612675565b60018060a01b03166bffffffffffffffffffffffff60a01b600254161760025580f35b50346101b257806003193601126101b257600080516020612835833981519152546040516001600160a01b039091168152602090f35b50346101b25760203660031901126101b2576110d1612675565b60043560065580f35b50346101b25760803660031901126101b2576024356004356044356001600160401b0381116112105761111461118491369060040161220f565b828552600a6020908152604080872081519283019586523360601b6bffffffffffffffffffffffff19169183019190915260548201869052606435607483015293611166916102bb81609481016102ad565b6002546001600160a01b039081169290916102e9916102e0916126ae565b600381019182548181106111a5578160046111a09401556123f6565b905580f35b60405162461bcd60e51b815260206004820152603860248201527f616d6f756e742073686f756c64206265206c657373207468616e206f7220657160448201527f75616c20746f207269736b20706f6f6c2062616c616e636500000000000000006064820152608490fd5b8380fd5b50346101b25760403660031901126101b2576024356001600160a01b0381168103610bf1576101aa6020916004356124e1565b50346101b25760403660031901126101b25760206101aa602435600435612484565b5060403660031901126101b257602435611281612675565b60043560035581808280156112be575b8280929181923390f1156112b1576112ab906007546122c6565b60075580f35b50604051903d90823e3d90fd5b6108fc9150611291565b50346101b257806003193601126101b2576112e1612675565b604051634aa7d2f760e11b8152306004820152336024820152602081604481856002604360981b015af18015610bc457611319575080f35b602090813d831161133a575b61132f8183612192565b81010312610bf15780f35b503d611325565b50346101b25760203660031901126101b2576020906040906001600160a01b036113696121f9565b168152600983522054604051908152f35b50346101b257806003193601126101b257611393612675565b60008051602061283583398151915280546001600160a01b031981169091556000906001600160a01b03167f8be0079c531659141344cd1fd0a4f28419497f9722a3daafe3b4186f6b6457e08280a380f35b50346101b25760403660031901126101b2576001600160401b03806024351161058e5736602360243501121561058e5760243560040135116101b25736602480356004013560051b81350101116101b25760405160208101903360601b825260043560348201526034815261145981612177565b519020600354906040519061147a60206024356004013560051b0183612192565b602480356004810135845201602083015b602480356004013560051b8135010182106116be5750509083915b81518310156114e95760208360051b83010151908181106000146114d85785526020526001604085205b9201916114a6565b9085526020526001604085206114d0565b91505003611688573381526009602052604081205460043581101561163057611514906004356123f6565b80600754106115f357602061157c839233845260098352600435604085205561153f816007546123f6565b60075560085460405163a9059cbb60e01b81523360048201526024810192909252909384926001600160a01b039092169183919082906044820190565b03925af1908115610bc45782916115d4575b50156115975780f35b60405162461bcd60e51b8152602060048201526015602482015274165a595b19081d1c985b9cd9995c8819985a5b1959605a1b6044820152606490fd5b6115ed915060203d6020116104e6576104d88183612192565b3861158e565b60405162461bcd60e51b8152602060048201526015602482015274139bc8199d5b991cc81a5b881d1a19481d985d5b1d605a1b6044820152606490fd5b60405162461bcd60e51b815260206004820152602a60248201527f4e6f2066756e6473206c65667420746f20636c61696d206f7220616c726561646044820152693c9031b630b4b6b2b21760b11b6064820152608490fd5b60405162461bcd60e51b815260206004820152600e60248201526d24b73b30b634b210383937b7b31760911b6044820152606490fd5b813581526020918201910161148b565b50346101b25760603660031901126101b2576044356001600160a01b0381169190829003610bf1576040906004358152600c60205281812060243582526020522090600052602052602060ff604060002054166040519015158152f35b50346101b25760203660031901126101b257600360406020926004358152600a8452200154604051908152f35b50346101b257806003193601126101b2576008546040516001600160a01b039091168152602090f35b50346101b257806003193601126101b2576040516003604360981b018152602090f35b50346101b257806003193601126101b2576020600354604051908152f35b50346101b257806003193601126101b2578054600154604051631711922960e31b81526001600160a01b0391821660048201529160209183916024918391165afa908115610bc45760209291611825575b506001600160801b0360405191168152f35b61183c9150823d8411610906576108f88183612192565b38611813565b50346101b25760603660031901126101b25760443590811560043560243582158503610bf157818452602090600a82526040852095600c83526040862094600a8801958654885284526040872033600052845260ff6040600020541615611ab257819081611aa4575b8115611a89575b5015611a445715611a1157600d86018054909160001982019182116119fd57966118ec8493838a61192c958b9c036119b5575b5050612403565b6008546001919091015460405163a9059cbb60e01b815233600482015260248101919091529687926001600160a01b039092169183919082906044820190565b03925af1928315610fd45761196b6040947fcef8fac05afb87995942422eac900de6af11a555d80d075340af81db492119fe96889161199e5750612446565b828652600c82528386209054865281528285203360005281528260002060ff19815416905582519182523390820152a180f35b6104e09150843d86116104e6576104d88183612192565b6119cf6119c56119f69385612385565b9190549285612385565b81546001600160a01b03600392831b81811b199092169490921b9490941c1690921b179055565b38806118e5565b634e487b7160e01b87526011600452602487fd5b600c86018054909160001982019182116119fd5796611a3f8493838a61192c958b9c036119b5575050612403565b6118ec565b60405162461bcd60e51b815260048101849052601e60248201527f496e76616c696420696e64657820666f72207061727469636970616e747300006044820152606490fd5b905080611a97575b386118b2565b50600c8701548210611a91565b600d890154841091506118ab565b60405162461bcd60e51b815260048101859052601c60248201527f596f752068617665206e6f74206a6f696e6564207468697320706f74000000006044820152606490fd5b5060e03660031901126101b2576004356001600160401b03811161058e573660238201121561058e57611b349036906024816004013591016121b3565b8154600154604051631711922960e31b81526001600160a01b0391821660048201529293929160209183916024918391165afa908115610bc45782916120b9575b50611b95611b8e6006546001600160801b0384166122c6565b34146122e9565b6044351561207457606435156120215760643560843511611fc057600454611bbc81612328565b60049081556008546040516323b872dd60e01b8152339281019290925230602483015260c43560448301526020908290606490829088906001600160a01b03165af19081156108d5578491611fa1575b5015611f4a5782546001546040516393cbf21760e01b81526001600160a01b03918216600482015260248035908201526044810186905293602092859260649284926001600160801b0390911691165af1918215610964578392611f29575b50808352600a60205260408320938051946001600160401b038611611f1557611c94815461222d565b601f8111611eda575b50602095601f8111600114611e62579081611e23939287986000805160206128558339815191529891611e57575b508160011b916000199060031b1c19161781555b60c43560018201558660038201556001600160401b03600b8201951694805486600160401b600160e01b033360401b169163ffffffff60e01b161717905560443560058201556084356007820155606435600882015542600682015560a4356009820155611d61600a8201916001835560c4356002820155600c3391016123b3565b838752600c602052604087209054875260205260408620336000526020526040600020600160ff198254161790557f37bb26f2981ad94b38afe928452cad1bca628b82f1781d95ec69d53acf5d0d9b60405180611dcb610140878352806020840152820185612267565b33604083015260c4356060830152604435608083015260843560a083015260643560c083015260a43560e083015261010097888301526024356101208301520390a16040519384938452806020850152830190612267565b33604083015260c4356060830152604435608083015260843560a083015260643560c083015260a43560e08301520390a180f35b905083015138611ccb565b81865260208620865b601f1983168110611ec25750816001916000805160206128558339815191529899611e23969594601f19811610611ea9575b5050811b018155611cdf565b85015160001960f88460031b161c191690553880611e9d565b84890151825560209889019860019092019101611e6b565b611f059082875260208720601f890160051c81019160208a10611f0b575b601f0160051c019061236e565b38611c9d565b9091508190611ef8565b634e487b7160e01b85526041600452602485fd5b611f4391925060203d6020116108ce576108c08183612192565b9038611c6b565b60405162461bcd60e51b815260206004820152602960248201527f43726561746f722073686f756c64206465706f7369742074686520696e697469604482015268185b08185b5bdd5b9d60ba1b6064820152608490fd5b611fba915060203d6020116104e6576104d88183612192565b38611c0c565b60405162461bcd60e51b815260206004820152603360248201527f4e756d657261746f72206d757374206265206c657373207468616e206f72206560448201527238bab0b6103a37903232b737b6b4b730ba37b960691b6064820152608490fd5b60405162461bcd60e51b815260206004820152602560248201527f496e7465726573742064656e6f6d696e61746f72206d75737420626520706f73604482015264697469766560d81b6064820152608490fd5b60405162461bcd60e51b815260206004820152601f60248201527f526f746174696f6e206379636c65206d75737420626520706f736974697665006044820152606490fd5b6120d2915060203d602011610906576108f88183612192565b38611b75565b50346101b257806003193601126101b2576120f1612675565b806002604360981b01803b1561212f578190600460405180948193634e606c4760e01b83525af18015610bc457612126575080f35b6105bc9061214e565b50fd5b90503461058e578160031936011261058e576020906007548152f35b6001600160401b03811161216157604052565b634e487b7160e01b600052604160045260246000fd5b606081019081106001600160401b0382111761216157604052565b90601f801991011681019081106001600160401b0382111761216157604052565b9291926001600160401b03821161216157604051916121dc601f8201601f191660200184612192565b829481845281830111610bf1578281602093846000960137010152565b600435906001600160a01b0382168203610bf157565b9080601f83011215610bf15781602061222a933591016121b3565b90565b90600182811c9216801561225d575b602083101461224757565b634e487b7160e01b600052602260045260246000fd5b91607f169161223c565b919082519283825260005b848110612293575050826000602080949584010152601f8019910116010190565b602081830181015184830182015201612272565b90816020910312610bf157516001600160801b0381168103610bf15790565b919082018092116122d357565b634e487b7160e01b600052601160045260246000fd5b156122f057565b60405162461bcd60e51b815260206004820152601060248201526f496e73756666696369656e742066656560801b6044820152606490fd5b60001981146122d35760010190565b90816020910312610bf157518015158103610bf15790565b90816020910312610bf157516001600160401b0381168103610bf15790565b818110612379575050565b6000815560010161236e565b805482101561239d5760005260206000200190600090565b634e487b7160e01b600052603260045260246000fd5b90815491600160401b83101561216157826123d69160016123f495018155612385565b90919060018060a01b038084549260031b9316831b921b1916179055565b565b919082039182116122d357565b8054801561243057600019019061241a8282612385565b81549060018060a01b039060031b1b1916905555565b634e487b7160e01b600052603160045260246000fd5b1561244d57565b60405162461bcd60e51b815260206004820152600f60248201526e151c985b9cd9995c8819985a5b1959608a1b6044820152606490fd5b906000918252600a602052604082206007810154918281029281840414901517156124cd57600801549182156124b957500490565b634e487b7160e01b81526012600452602490fd5b634e487b7160e01b83526011600452602483fd5b600052600a602052604060002090600c600092018054925b83811061253d5760405162461bcd60e51b815260206004820152601560248201527414185c9d1a58da5c185b9d081b9bdd08199bdd5b99605a1b6044820152606490fd5b6125478183612385565b905460039190911b1c6001600160a01b039081169084161461256b576001016124f9565b9250505090565b1561257957565b60405162461bcd60e51b815260206004820152601d60248201527f5369676e617475726520766572696669636174696f6e206661696c65640000006044820152606490fd5b6001600160a01b039081169081156126195760008051602061283583398151915280546001600160a01b031981168417909155167f8be0079c531659141344cd1fd0a4f28419497f9722a3daafe3b4186f6b6457e0600080a3565b604051631e4fbdf760e01b815260006004820152602490fd5b60405160208101917f19457468657265756d205369676e6564204d6573736167653a0a3332000000008352603c820152603c815261266f81612177565b51902090565b600080516020612835833981519152546001600160a01b0316330361269657565b60405163118cdaa760e01b8152336004820152602490fd5b81519190604183036126df576126d892506020820151906060604084015193015160001a906127b0565b9192909190565b505060009160029190565b600481101561275957806126fc575050565b600181036127165760405163f645eedf60e01b8152600490fd5b600281036127375760405163fce698f760e01b815260048101839052602490fd5b6003146127415750565b602490604051906335e2f38360e21b82526004820152fd5b634e487b7160e01b600052602160045260246000fd5b60ff7ff0c57e16840df040f15088dc2f81fe391c3923bec73e23a9662efc9c229c6a005460401c161561279e57565b604051631afcd79f60e31b8152600490fd5b91907f7fffffffffffffffffffffffffffffff5d576e7357a4501ddfe92f46681b20a0841161282857926020929160ff608095604051948552168484015260408301526060820152600092839182805260015afa15610ed65780516001600160a01b0381161561281f57918190565b50809160019190565b5050506000916003919056fe9016d09d72d40fdae2fd8ceac6b6234c7706214fd39c1cd1e609a0528c19930043d2f309913f6afc5d717f60864d2d192b69963d25204b6a12765e2795bf027fa26469706673582212204f6a552c4070ff3a33c7c8abefc6a3a39d48c4b110fc4a5a76698e85c861ea1e64736f6c63430008170033","linkReferences":{}},"methodIdentifiers":{"BLAST()":"97d75776","USDB()":"31a0edec","admin()":"f851a440","calculateRiskPoolBalance(uint256,uint256)":"7d77990c","changeAdminSigner(address)":"91dc969e","claimFunds(uint256,bytes32[])":"61e7d805","claimMyContractsGas()":"77d5d2dc","claimReward(uint256)":"ae169a50","configureGas()":"0ab93941","createPot(string,bytes32,uint256,uint256,uint256,uint256,uint256)":"0fae6443","getEntropyFee()":"2d971e63","getEthSignedMessageHash(bytes32)":"fa540801","getParticipantIndex(uint256,address)":"7f5ef005","getRiskPoolBalance(uint256)":"4d781b31","hasClaimed(address)":"73b2e80e","hasJoinedPot(uint256,uint256,address)":"4da1ec40","initialize(address)":"c4d66de8","joinPot(uint256,bytes,uint256)":"f78aedf9","merkleRoot()":"2eb4a7ab","owner()":"8da5cb5b","potCreationFee()":"ec71687b","pots(uint256)":"c3c3df4f","renounceOwnership()":"715018a6","rotateLiquidity(uint256,bytes32,bytes32,bytes32)":"ca829f10","setMerkleRoot(bytes32,uint256)":"7c382d0b","totalRevenue()":"bf2d9e0b","totalYielDeposited()":"07dd3f44","transferOwnership(address)":"f2fde38b","updatePotCreationFee(uint256)":"82199e3f","usdbToken()":"4a80409e","useRiskPool(uint256,uint256,bytes,uint256)":"818c5548","withdrawFromPot(uint256,uint256,bool)":"210eaeae","withdrawRevenue(bool)":"b7db43c8"},"id":3}