{"abi":[{"type":"function","name":"BLAST","inputs":[],"outputs":[{"name":"","type":"address","internalType":"contract IBlast"}],"stateMutability":"view"},{"type":"function","name":"USDB","inputs":[],"outputs":[{"name":"","type":"address","internalType":"contract IERC20Rebasing"}],"stateMutability":"view"},{"type":"function","name":"admin","inputs":[],"outputs":[{"name":"","type":"address","internalType":"address"}],"stateMutability":"view"},{"type":"function","name":"calculateRiskPoolBalance","inputs":[{"name":"_potId","type":"uint256","internalType":"uint256"},{"name":"_amount","type":"uint256","internalType":"uint256"}],"outputs":[{"name":"","type":"uint256","internalType":"uint256"}],"stateMutability":"view"},{"type":"function","name":"changeAdminSigner","inputs":[{"name":"newAdmin","type":"address","internalType":"address"}],"outputs":[],"stateMutability":"nonpayable"},{"type":"function","name":"claimFunds","inputs":[{"name":"claimAmount","type":"uint256","internalType":"uint256"},{"name":"merkleProof","type":"bytes32[]","internalType":"bytes32[]"}],"outputs":[],"stateMutability":"nonpayable"},{"type":"function","name":"claimMyContractsGas","inputs":[],"outputs":[],"stateMutability":"nonpayable"},{"type":"function","name":"claimReward","inputs":[{"name":"_potId","type":"uint256","internalType":"uint256"}],"outputs":[],"stateMutability":"nonpayable"},{"type":"function","name":"configureGas","inputs":[],"outputs":[],"stateMutability":"nonpayable"},{"type":"function","name":"createPot","inputs":[{"name":"_name","type":"string","internalType":"string"},{"name":"userCommitment","type":"bytes32","internalType":"bytes32"},{"name":"_rotationCycleInSeconds","type":"uint256","internalType":"uint256"},{"name":"_interestDenominator","type":"uint256","internalType":"uint256"},{"name":"_interestNumerator","type":"uint256","internalType":"uint256"},{"name":"_numParticipants","type":"uint256","internalType":"uint256"},{"name":"_amount","type":"uint256","internalType":"uint256"}],"outputs":[],"stateMutability":"payable"},{"type":"function","name":"getEntropyFee","inputs":[],"outputs":[{"name":"fee","type":"uint256","internalType":"uint256"}],"stateMutability":"view"},{"type":"function","name":"getEthSignedMessageHash","inputs":[{"name":"_messageHash","type":"bytes32","internalType":"bytes32"}],"outputs":[{"name":"","type":"bytes32","internalType":"bytes32"}],"stateMutability":"pure"},{"type":"function","name":"getParticipantIndex","inputs":[{"name":"_potId","type":"uint256","internalType":"uint256"},{"name":"participant","type":"address","internalType":"address"}],"outputs":[{"name":"","type":"uint256","internalType":"uint256"}],"stateMutability":"view"},{"type":"function","name":"getRiskPoolBalance","inputs":[{"name":"potId","type":"uint256","internalType":"uint256"}],"outputs":[{"name":"riskPoolBalance","type":"uint256","internalType":"uint256"}],"stateMutability":"view"},{"type":"function","name":"hasClaimed","inputs":[{"name":"","type":"address","internalType":"address"}],"outputs":[{"name":"","type":"uint256","internalType":"uint256"}],"stateMutability":"view"},{"type":"function","name":"hasJoinedPot","inputs":[{"name":"","type":"uint256","internalType":"uint256"},{"name":"","type":"uint256","internalType":"uint256"},{"name":"","type":"address","internalType":"address"}],"outputs":[{"name":"","type":"bool","internalType":"bool"}],"stateMutability":"view"},{"type":"function","name":"initialize","inputs":[{"name":"_entropy","type":"address","internalType":"address"}],"outputs":[],"stateMutability":"nonpayable"},{"type":"function","name":"joinPot","inputs":[{"name":"_potId","type":"uint256","internalType":"uint256"},{"name":"signature","type":"bytes","internalType":"bytes"},{"name":"nonce","type":"uint256","internalType":"uint256"}],"outputs":[],"stateMutability":"nonpayable"},{"type":"function","name":"merkleRoot","inputs":[],"outputs":[{"name":"","type":"bytes32","internalType":"bytes32"}],"stateMutability":"view"},{"type":"function","name":"owner","inputs":[],"outputs":[{"name":"","type":"address","internalType":"address"}],"stateMutability":"view"},{"type":"function","name":"potCreationFee","inputs":[],"outputs":[{"name":"","type":"uint256","internalType":"uint256"}],"stateMutability":"view"},{"type":"function","name":"pots","inputs":[{"name":"","type":"uint256","internalType":"uint256"}],"outputs":[{"name":"name","type":"string","internalType":"string"},{"name":"amount","type":"uint256","internalType":"uint256"},{"name":"totalDepositedAmount","type":"uint256","internalType":"uint256"},{"name":"riskPoolBalance","type":"uint256","internalType":"uint256"},{"name":"useRiskPoolBalance","type":"uint256","internalType":"uint256"},{"name":"rotationCycleInSeconds","type":"uint256","internalType":"uint256"},{"name":"lastRotationTime","type":"uint256","internalType":"uint256"},{"name":"interestNumerator","type":"uint256","internalType":"uint256"},{"name":"interestDenominator","type":"uint256","internalType":"uint256"},{"name":"numParticipants","type":"uint256","internalType":"uint256"},{"name":"currentRound","type":"uint256","internalType":"uint256"},{"name":"sequenceNumber","type":"uint64","internalType":"uint64"},{"name":"potCreator","type":"address","internalType":"address"}],"stateMutability":"view"},{"type":"function","name":"recipient","inputs":[],"outputs":[{"name":"","type":"address","internalType":"address payable"}],"stateMutability":"view"},{"type":"function","name":"renounceOwnership","inputs":[],"outputs":[],"stateMutability":"nonpayable"},{"type":"function","name":"rotateLiquidity","inputs":[{"name":"_potId","type":"uint256","internalType":"uint256"},{"name":"userCommitment","type":"bytes32","internalType":"bytes32"},{"name":"userRandom","type":"bytes32","internalType":"bytes32"},{"name":"providerRandom","type":"bytes32","internalType":"bytes32"}],"outputs":[],"stateMutability":"payable"},{"type":"function","name":"sendEther","inputs":[],"outputs":[],"stateMutability":"payable"},{"type":"function","name":"setMerkleRoot","inputs":[{"name":"_merkleRoot","type":"bytes32","internalType":"bytes32"},{"name":"_amount","type":"uint256","internalType":"uint256"}],"outputs":[],"stateMutability":"payable"},{"type":"function","name":"setRecipient","inputs":[{"name":"_recipient","type":"address","internalType":"address payable"}],"outputs":[],"stateMutability":"nonpayable"},{"type":"function","name":"totalRevenue","inputs":[],"outputs":[{"name":"","type":"uint256","internalType":"uint256"}],"stateMutability":"view"},{"type":"function","name":"totalYielDeposited","inputs":[],"outputs":[{"name":"","type":"uint256","internalType":"uint256"}],"stateMutability":"view"},{"type":"function","name":"transferOwnership","inputs":[{"name":"newOwner","type":"address","internalType":"address"}],"outputs":[],"stateMutability":"nonpayable"},{"type":"function","name":"updatePotCreationFee","inputs":[{"name":"_amount","type":"uint256","internalType":"uint256"}],"outputs":[],"stateMutability":"nonpayable"},{"type":"function","name":"usdbToken","inputs":[],"outputs":[{"name":"","type":"address","internalType":"contract IERC20"}],"stateMutability":"view"},{"type":"function","name":"useRiskPool","inputs":[{"name":"_potId","type":"uint256","internalType":"uint256"},{"name":"_amount","type":"uint256","internalType":"uint256"},{"name":"signature","type":"bytes","internalType":"bytes"},{"name":"nonce","type":"uint256","internalType":"uint256"}],"outputs":[],"stateMutability":"nonpayable"},{"type":"function","name":"userCreated","inputs":[{"name":"","type":"address","internalType":"address"}],"outputs":[{"name":"","type":"bool","internalType":"bool"}],"stateMutability":"view"},{"type":"function","name":"withdrawFromPot","inputs":[{"name":"_potId","type":"uint256","internalType":"uint256"},{"name":"_index","type":"uint256","internalType":"uint256"},{"name":"_isWinner","type":"bool","internalType":"bool"}],"outputs":[],"stateMutability":"nonpayable"},{"type":"function","name":"withdrawRevenue","inputs":[{"name":"_isUsdb","type":"bool","internalType":"bool"}],"outputs":[],"stateMutability":"nonpayable"},{"type":"event","name":"Initialized","inputs":[{"name":"version","type":"uint64","indexed":false,"internalType":"uint64"}],"anonymous":false},{"type":"event","name":"OwnershipTransferred","inputs":[{"name":"previousOwner","type":"address","indexed":true,"internalType":"address"},{"name":"newOwner","type":"address","indexed":true,"internalType":"address"}],"anonymous":false},{"type":"event","name":"ParticipantJoined","inputs":[{"name":"potId","type":"uint256","indexed":false,"internalType":"uint256"},{"name":"name","type":"string","indexed":false,"internalType":"string"},{"name":"participant","type":"address","indexed":false,"internalType":"address"},{"name":"amount","type":"uint256","indexed":false,"internalType":"uint256"},{"name":"rotationCycleInSeconds","type":"uint256","indexed":false,"internalType":"uint256"},{"name":"_interestDenominator","type":"uint256","indexed":false,"internalType":"uint256"},{"name":"_interestNumerator","type":"uint256","indexed":false,"internalType":"uint256"},{"name":"_numParticipants","type":"uint256","indexed":false,"internalType":"uint256"}],"anonymous":false},{"type":"event","name":"ParticipantRemoved","inputs":[{"name":"potId","type":"uint256","indexed":false,"internalType":"uint256"},{"name":"participant","type":"address","indexed":false,"internalType":"address"}],"anonymous":false},{"type":"event","name":"PotCreated","inputs":[{"name":"potId","type":"uint256","indexed":false,"internalType":"uint256"},{"name":"name","type":"string","indexed":false,"internalType":"string"},{"name":"creator","type":"address","indexed":false,"internalType":"address"},{"name":"amount","type":"uint256","indexed":false,"internalType":"uint256"},{"name":"rotationCycleInSeconds","type":"uint256","indexed":false,"internalType":"uint256"},{"name":"_interestDenominator","type":"uint256","indexed":false,"internalType":"uint256"},{"name":"_interestNumerator","type":"uint256","indexed":false,"internalType":"uint256"},{"name":"_numParticipants","type":"uint256","indexed":false,"internalType":"uint256"},{"name":"sequenceNumber","type":"uint64","indexed":false,"internalType":"uint64"},{"name":"userCommitment","type":"bytes32","indexed":false,"internalType":"bytes32"}],"anonymous":false},{"type":"event","name":"RewardClaimed","inputs":[{"name":"potId","type":"uint256","indexed":false,"internalType":"uint256"},{"name":"winner","type":"address","indexed":false,"internalType":"address"},{"name":"amount","type":"uint256","indexed":false,"internalType":"uint256"}],"anonymous":false},{"type":"event","name":"RotationCompleted","inputs":[{"name":"potId","type":"uint256","indexed":false,"internalType":"uint256"},{"name":"winner","type":"address","indexed":false,"internalType":"address"},{"name":"round","type":"uint256","indexed":false,"internalType":"uint256"},{"name":"sequenceNumber","type":"uint64","indexed":false,"internalType":"uint64"},{"name":"userCommitment","type":"bytes32","indexed":false,"internalType":"bytes32"},{"name":"usedRiskPoolBalance","type":"uint256","indexed":false,"internalType":"uint256"},{"name":"amount","type":"uint256","indexed":false,"internalType":"uint256"}],"anonymous":false},{"type":"event","name":"UserCreated","inputs":[{"name":"user","type":"address","indexed":false,"internalType":"address"}],"anonymous":false},{"type":"error","name":"ECDSAInvalidSignature","inputs":[]},{"type":"error","name":"ECDSAInvalidSignatureLength","inputs":[{"name":"length","type":"uint256","internalType":"uint256"}]},{"type":"error","name":"ECDSAInvalidSignatureS","inputs":[{"name":"s","type":"bytes32","internalType":"bytes32"}]},{"type":"error","name":"InvalidInitialization","inputs":[]},{"type":"error","name":"NotInitializing","inputs":[]},{"type":"error","name":"OwnableInvalidOwner","inputs":[{"name":"owner","type":"address","internalType":"address"}]},{"type":"error","name":"OwnableUnauthorizedAccount","inputs":[{"name":"account","type":"address","internalType":"address"}]}],"bytecode":{"object":"0x6080806040523461001b576001600455612b4c90816100218239f35b600080fdfe608080604052600436101561001357600080fd5b600090813560e01c90816307dd3f44146123d4575080630ab939411461237a5780630e29df22146122585780630fae644314611c0e578063210eaeae146119595780632d971e63146118d95780632eb4a7ab146118bb57806331a0edec146118985780633bbed4a0146118535780634a80409e1461182a5780634d781b31146117fd5780634da1ec40146117a057806361e7d805146114b757806366d003ac1461148e578063715018a61461142357806373b2e80e146113ea57806377d5d2dc146113715780637c382d0b146113125780637d77990c146112f05780637f5ef005146112bd578063818c55481461118357806382199e3f146111605780638da5cb5b1461112a57806391dc969e146110ea57806397d75776146110c7578063a22187ec14611088578063ae169a5014610f5a578063b7db43c814610e52578063bf2d9e0b14610e34578063c3c3df4f14610cc3578063c4d66de814610a47578063ca829f1014610609578063ec71687b146105eb578063f2fde38b146105be578063f78aedf91461020a578063f851a440146101e15763fa540801146101b857600080fd5b346101de5760203660031901126101de5760206101d66004356128d4565b604051908152f35b80fd5b50346101de57806003193601126101de576002546040516001600160a01b039091168152602090f35b50346101de5760603660031901126101de57600435906024356001600160401b0381116105ba5761023f9036906004016124b1565b918082526020600c81526040832093600c85019283549160098701928354111561058757818652600e84526040862090600a8801549182885285526040872033600052855260ff60406000205416610524576040518581018481523360601b6bffffffffffffffffffffffff1916602082015260348101849052604435605482015261030c939261031c9290916102ef916102e781607484015b03601f198101835282612434565b5190206128d4565b6002546001600160a01b0395908616928692610315929190612950565b9092919261298c565b1614612814565b828752600e85526040872090875284526040862033600052845260406000209060019560ff199260018482541617905587866103a28b6001810195600287549201610368838254612568565b90556008546040516323b872dd60e01b81523360048201523060248201526044810193909352919485939190921691839182906064820190565b03925af190811561051957906103bf918a916104ec575b506126e8565b33600052600f8901865260ff60406000205416156104db575b505460058801549160078901549360088a015495549660405198610100928a5282828b01528a9b805461040a816124cf565b80958d0152610120956001821691826000146104b0575050600114610468575b508a600080516020612af78339815191528b808f8d8d8d8d8d3360408801526060870152608086015260a085015260c084015260e08301520390a180f35b9093949b508a52808a20928a935b83851061049d57505050508601019681600080516020612af783398151915287388061042a565b8054858c01870152938201938101610476565b16868d015250505050151560051b870101975081600080516020612af783398151915287388061042a565b6104e6903390612655565b386103d8565b61050c9150883d8a11610512575b6105048183612434565b8101906125d9565b386103b9565b503d6104fa565b6040513d8b823e3d90fd5b60405162461bcd60e51b815260048101869052603560248201527f596f75206861766520616c7265616479206a6f696e6564207468697320706f74604482015274081a5b881d1a194818dd5c9c995b9d081c9bdd5b99605a1b6064820152608490fd5b60405162461bcd60e51b815260048101859052600b60248201526a141bdd081a5cc8199d5b1b60aa1b6044820152606490fd5b5080fd5b50346101de5760203660031901126101de576105e86105db61249b565b6105e3612917565b612860565b80f35b50346101de57806003193601126101de576020600654604051908152f35b5060803660031901126101de576004358152600c602052604081206002810154156109e9576106416006820154600583015490612568565b42106109a4578154600154600b830154604051639371df5160e01b81526001600160a01b0392831660048201526001600160401b0390911660248201526044803590820152606480359082015291602091839160849183918891165af1908115610999578391610963575b50600c82015490811561094f57610732916106cb9106600c8401612627565b905460039190911b1c6001600160a01b03166106ea81600d8501612655565b60028301549061070b606461070181850485612698565b9304600554612568565b60055561071a82600435612726565b92839261072d6004870154958692612698565b612568565b9181600052600e85016020528260406000205561075460038601918254612568565b905584600485015580600052600f84016020526040600020600160ff1982541617905542600685015560018060a01b038554169060018060a01b03600154169160405190631711922960e31b8252836004830152602082602481845afa8015610944576001600160801b036064916020948b91610917575b5016946107da86341461258b565b60405195869384926393cbf21760e01b8452600484015260243560248401528b60448401525af190811561090c576001600160401b0360e0927f9ef3fbd1495a53d36401c5153be21a35a6214297031b5e106b12307835851d2f9489916108dd575b501693846001600160401b0319600b8901541617600b880155600a87019586549560405193600435855260208501528660408501526060840152602435608084015260a083015260c0820152a1600c8301549182151591826108cb575b505083600284015583600c8401556108af578280f35b600c6108c5920183526020832090810190612610565b38808280f35b6108d4906125ca565b90553880610899565b6108ff915060203d602011610905575b6108f78183612434565b8101906125f1565b3861083c565b503d6108ed565b6040513d88823e3d90fd5b6109379150853d871161093d575b61092f8183612434565b810190612549565b386107cc565b503d610925565b6040513d8a823e3d90fd5b634e487b7160e01b84526012600452602484fd5b90506020813d602011610991575b8161097e60209383612434565b8101031261098d5751386106ac565b8280fd5b3d9150610971565b6040513d85823e3d90fd5b60405162461bcd60e51b815260206004820152601960248201527f4e65787420726f746174696f6e206e6f742079657420647565000000000000006044820152606490fd5b60405162461bcd60e51b815260206004820152603060248201527f546f74616c206465706f736974656420616d6f756e74206d757374206265206760448201526f726561746572207468616e207a65726f60801b6064820152608490fd5b50346101de576020806003193601126105ba57610a6261249b565b907ff0c57e16840df040f15088dc2f81fe391c3923bec73e23a9662efc9c229c6a009182549060ff8260401c1615916001600160401b03811680159081610cbb575b6001149081610cb1575b159081610ca8575b50610c965767ffffffffffffffff198116600117855582610c77575b50610adb612a11565b610ae3612a11565b610aec33612860565b604051631a33757d60e01b8152600260048201526003604360981b019084816024818a865af1908115610c6c578591610c3e575b50506001600160601b0360a01b90816008541617600855732536fe9ab3f511540f2f9e2ec2a805005c3dd80091823b15610c2f57866040516336b91f2b60e01b815281816024818373e4860d3973802c7c42450d7b9741921c7711d039998a60048401525af18015610c3357610c1b575b505060018060a01b0316818754161786557352deaa1c84233f7bb8c8a45baede41091c616506816001541617600155600254161760025566038d7ea4c68000600655610bdb578280f35b7fc7f505b2f371ae2175ee4913f4499e1f2633a7b5936321eed1cdaeb6115181d29168ff000000000000000019815416905560405160018152a138808280f35b610c24906123f0565b610c2f578638610b91565b8680fd5b6040513d84823e3d90fd5b813d8311610c65575b610c518183612434565b81010312610c60578338610b20565b600080fd5b503d610c47565b6040513d89823e3d90fd5b68ffffffffffffffffff19166801000000000000000117845538610ad2565b60405163f92ee8a960e01b8152600490fd5b90501538610ab6565b303b159150610aae565b849150610aa4565b50346101de5760203660031901126101de576004358152600c6020526040812060405190828154610cf3816124cf565b80855291600191808316908115610e0c5750600114610dcd575b505050610d1f82610d71940383612434565b6001810154906002810154906003810154600482015460058301546006840154600785015491600886015493600987015495600b600a890154980154986040519c8d9c8d6101a0908181520190612509565b9a60208d015260408c015260608b015260808a015260a089015260c088015260e08701526101008601526101208501526101408401526001600160401b03811661016084015260018060a01b039060401c166101808301520390f35b9450828552602085205b828610610df457505050610d1f826020610d719582010194610d0d565b80546020878701810191909152909501948101610dd7565b610d71975086935060209250610d1f94915060ff191682840152151560051b82010194610d0d565b50346101de57806003193601126101de576020600554604051908152f35b50346101de5760203660031901126101de576004358015158103610c6057610e78612917565b15610f2d576005548015610eef57600582905560085460405163a9059cbb60e01b815233600482015260248101929092526020908290604490829086906001600160a01b03165af18015610c33576105e8918391610ed657506126e8565b61050c915060203d602011610512576105048183612434565b60405162461bcd60e51b81526020600482015260166024820152754e6f20726576656e756520746f20776974686472617760501b6044820152606490fd5b8080808047818115610f51575b3390f115610f455780f35b604051903d90823e3d90fd5b506108fc610f3a565b50346101de576020806003193601126105ba5760043590818352600c8152600e6040842001336000528082526040600020541561104e57336000818152918352604091829020805490869055600854925163a9059cbb60e01b815260048101929092526024820181905290939183908590604490829089906001600160a01b03165af1928315611043576110186060947f24b5efa61dd1cfc659205a97fb8ed868f3cb8c81922bab2b96423e5de1de2cb796889161102c57506126e8565b60405192835233908301526040820152a180f35b61050c9150833d8511610512576105048183612434565b6040513d87823e3d90fd5b60405162461bcd60e51b81526004810183905260126024820152714e6f2072657761726420746f20636c61696d60701b6044820152606490fd5b50346101de5760203660031901126101de5760209060ff906040906001600160a01b036110b361249b565b168152600a84522054166040519015158152f35b50346101de57806003193601126101de576040516002604360981b018152602090f35b50346101de5760203660031901126101de5761110461249b565b61110c612917565b60018060a01b03166001600160601b0360a01b600254161760025580f35b50346101de57806003193601126101de57600080516020612ad7833981519152546040516001600160a01b039091168152602090f35b50346101de5760203660031901126101de5761117a612917565b60043560065580f35b50346101de5760803660031901126101de576024356004356044356001600160401b0381116112b9576111bd61122d9136906004016124b1565b828552600c6020908152604080872081519283019586523360601b6bffffffffffffffffffffffff1916918301919091526054820186905260643560748301529361120f916102e781609481016102d9565b6002546001600160a01b039081169290916103159161030c91612950565b6003810191825481811061124e57816004611249940155612698565b905580f35b60405162461bcd60e51b815260206004820152603860248201527f616d6f756e742073686f756c64206265206c657373207468616e206f7220657160448201527f75616c20746f207269736b20706f6f6c2062616c616e636500000000000000006064820152608490fd5b8380fd5b50346101de5760403660031901126101de576024356001600160a01b0381168103610c60576101d6602091600435612783565b50346101de5760403660031901126101de5760206101d6602435600435612726565b5060403660031901126101de5760243561132a612917565b6004356003558180828015611367575b8280929181923390f11561135a5761135490600754612568565b60075580f35b50604051903d90823e3d90fd5b6108fc915061133a565b50346101de57806003193601126101de5761138a612917565b604051634aa7d2f760e11b8152306004820152336024820152602081604481856002604360981b015af18015610c33576113c2575080f35b602090813d83116113e3575b6113d88183612434565b81010312610c605780f35b503d6113ce565b50346101de5760203660031901126101de576020906040906001600160a01b0361141261249b565b168152600b83522054604051908152f35b50346101de57806003193601126101de5761143c612917565b600080516020612ad783398151915280546001600160a01b031981169091556000906001600160a01b03167f8be0079c531659141344cd1fd0a4f28419497f9722a3daafe3b4186f6b6457e08280a380f35b50346101de57806003193601126101de576009546040516001600160a01b039091168152602090f35b50346101de5760403660031901126101de576001600160401b0380602435116105ba573660236024350112156105ba5760243560040135116101de5736602480356004013560051b81350101116101de5760405160208101903360601b825260043560348201526034815261152b81612419565b519020600354906040519061154c60206024356004013560051b0183612434565b602480356004810135845201602083015b602480356004013560051b8135010182106117905750509083915b81518310156115bb5760208360051b83010151908181106000146115aa5785526020526001604085205b920191611578565b9085526020526001604085206115a2565b9150500361175a57338152600b6020526040812054600435811015611702576115e690600435612698565b80600754106116c557602061164e8392338452600b8352600435604085205561161181600754612698565b60075560085460405163a9059cbb60e01b81523360048201526024810192909252909384926001600160a01b039092169183919082906044820190565b03925af1908115610c335782916116a6575b50156116695780f35b60405162461bcd60e51b8152602060048201526015602482015274165a595b19081d1c985b9cd9995c8819985a5b1959605a1b6044820152606490fd5b6116bf915060203d602011610512576105048183612434565b38611660565b60405162461bcd60e51b8152602060048201526015602482015274139bc8199d5b991cc81a5b881d1a19481d985d5b1d605a1b6044820152606490fd5b60405162461bcd60e51b815260206004820152602a60248201527f4e6f2066756e6473206c65667420746f20636c61696d206f7220616c726561646044820152693c9031b630b4b6b2b21760b11b6064820152608490fd5b60405162461bcd60e51b815260206004820152600e60248201526d24b73b30b634b210383937b7b31760911b6044820152606490fd5b813581526020918201910161155d565b50346101de5760603660031901126101de576044356001600160a01b0381169190829003610c60576040906004358152600e60205281812060243582526020522090600052602052602060ff604060002054166040519015158152f35b50346101de5760203660031901126101de57600360406020926004358152600c8452200154604051908152f35b50346101de57806003193601126101de576008546040516001600160a01b039091168152602090f35b50346101de5760203660031901126101de576004356001600160a01b038116908190036105ba57611882612917565b6001600160601b0360a01b600954161760095580f35b50346101de57806003193601126101de576040516003604360981b018152602090f35b50346101de57806003193601126101de576020600354604051908152f35b50346101de57806003193601126101de578054600154604051631711922960e31b81526001600160a01b0391821660048201529160209183916024918391165afa908115610c33576020929161193c575b506001600160801b0360405191168152f35b6119539150823d841161093d5761092f8183612434565b3861192a565b50346101de5760603660031901126101de5760443590811560043560243582158503610c6057818452602090600c82526040852095600e83526040862094600a8801958654885284526040872033600052845260ff6040600020541615611bc957819081611bbb575b8115611ba0575b5015611b5b5715611b2857600d8601805490916000198201918211611b145796611a038493838a611a43958b9c03611acc575b50506126a5565b6008546001919091015460405163a9059cbb60e01b815233600482015260248101919091529687926001600160a01b039092169183919082906044820190565b03925af192831561104357611a826040947fcef8fac05afb87995942422eac900de6af11a555d80d075340af81db492119fe968891611ab557506126e8565b828652600e82528386209054865281528285203360005281528260002060ff19815416905582519182523390820152a180f35b61050c9150843d8611610512576105048183612434565b611ae6611adc611b0d9385612627565b9190549285612627565b81546001600160a01b03600392831b81811b199092169490921b9490941c1690921b179055565b38806119fc565b634e487b7160e01b87526011600452602487fd5b600c8601805490916000198201918211611b145796611b568493838a611a43958b9c03611acc5750506126a5565b611a03565b60405162461bcd60e51b815260048101849052601e60248201527f496e76616c696420696e64657820666f72207061727469636970616e747300006044820152606490fd5b905080611bae575b386119c9565b50600c8701548210611ba8565b600d890154841091506119c2565b60405162461bcd60e51b815260048101859052601c60248201527f596f752068617665206e6f74206a6f696e6564207468697320706f74000000006044820152606490fd5b5060e03660031901126101de576004356001600160401b0381116105ba57366023820112156105ba57611c4b903690602481600401359101612455565b8154600154604051631711922960e31b81526001600160a01b0391821660048201529293929160209183916024918391165afa908115610c33578291612239575b50611cac611ca56006546001600160801b038416612568565b341461258b565b604435156121f457606435156121a157606435608435116121405760c435156120ea57600454611cdb816125ca565b60049081556008546040516323b872dd60e01b8152339281019290925230602483015260c43560448301526020908290606490829088906001600160a01b03165af19081156120df5784916120c0575b50156120695782546001546040516393cbf21760e01b81526001600160a01b03918216600482015260248035908201526044810186905293602092859260649284926001600160801b0390911691165af1918215610999578392612048575b50808352600c60205260408320938051946001600160401b03861161203457611db381546124cf565b601f8111611ff9575b50602095601f8111600114611f81579081611f4293928798600080516020612af78339815191529891611f76575b508160011b916000199060031b1c19161781555b60c43560018201558660038201556001600160401b03600b8201951694805486600160401b600160e01b033360401b169163ffffffff60e01b161717905560443560058201556084356007820155606435600882015542600682015560a4356009820155611e80600a8201916001835560c4356002820155600c339101612655565b838752600e602052604087209054875260205260408620336000526020526040600020600160ff198254161790557f37bb26f2981ad94b38afe928452cad1bca628b82f1781d95ec69d53acf5d0d9b60405180611eea610140878352806020840152820185612509565b33604083015260c4356060830152604435608083015260843560a083015260643560c083015260a43560e083015261010097888301526024356101208301520390a16040519384938452806020850152830190612509565b33604083015260c4356060830152604435608083015260843560a083015260643560c083015260a43560e08301520390a180f35b905083015138611dea565b81865260208620865b601f1983168110611fe1575081600191600080516020612af78339815191529899611f42969594601f19811610611fc8575b5050811b018155611dfe565b85015160001960f88460031b161c191690553880611fbc565b84890151825560209889019860019092019101611f8a565b6120249082875260208720601f890160051c81019160208a1061202a575b601f0160051c0190612610565b38611dbc565b9091508190612017565b634e487b7160e01b85526041600452602485fd5b61206291925060203d602011610905576108f78183612434565b9038611d8a565b60405162461bcd60e51b815260206004820152602960248201527f43726561746f722073686f756c64206465706f7369742074686520696e697469604482015268185b08185b5bdd5b9d60ba1b6064820152608490fd5b6120d9915060203d602011610512576105048183612434565b38611d2b565b6040513d86823e3d90fd5b60405162461bcd60e51b815260206004820152602860248201527f4465706f73697420616d6f756e74206d7573742062652067726561746572207460448201526768616e207a65726f60c01b6064820152608490fd5b60405162461bcd60e51b815260206004820152603360248201527f4e756d657261746f72206d757374206265206c657373207468616e206f72206560448201527238bab0b6103a37903232b737b6b4b730ba37b960691b6064820152608490fd5b60405162461bcd60e51b815260206004820152602560248201527f496e7465726573742064656e6f6d696e61746f72206d75737420626520706f73604482015264697469766560d81b6064820152608490fd5b60405162461bcd60e51b815260206004820152601f60248201527f526f746174696f6e206379636c65206d75737420626520706f736974697665006044820152606490fd5b612252915060203d60201161093d5761092f8183612434565b38611c8c565b50806003193601126101de573381526020600a815260ff604083205416612336576611c37937e0800034036122f3578180808060018060a01b0360095416819034156122e9575b3491f11561135a577f0b0376a109cbb578b709f85f6a7befcdac3ac1ab251c99ede87f30c9572ac4d390338352600a815260408320600160ff19825416179055604051338152a180f35b6108fc915061229f565b6064906040519062461bcd60e51b825280600483015260248201527f506c65617365206465706f7369742065786163746c7920302e303035204554486044820152fd5b6064906040519062461bcd60e51b82526004820152601a60248201527f596f75206861766520616c7265616479206465706f73697465640000000000006044820152fd5b50346101de57806003193601126101de57612393612917565b806002604360981b01803b156123d1578190600460405180948193634e606c4760e01b83525af18015610c33576123c8575080f35b6105e8906123f0565b50fd5b9050346105ba57816003193601126105ba576020906007548152f35b6001600160401b03811161240357604052565b634e487b7160e01b600052604160045260246000fd5b606081019081106001600160401b0382111761240357604052565b90601f801991011681019081106001600160401b0382111761240357604052565b9291926001600160401b038211612403576040519161247e601f8201601f191660200184612434565b829481845281830111610c60578281602093846000960137010152565b600435906001600160a01b0382168203610c6057565b9080601f83011215610c60578160206124cc93359101612455565b90565b90600182811c921680156124ff575b60208310146124e957565b634e487b7160e01b600052602260045260246000fd5b91607f16916124de565b919082519283825260005b848110612535575050826000602080949584010152601f8019910116010190565b602081830181015184830182015201612514565b90816020910312610c6057516001600160801b0381168103610c605790565b9190820180921161257557565b634e487b7160e01b600052601160045260246000fd5b1561259257565b60405162461bcd60e51b815260206004820152601060248201526f496e73756666696369656e742066656560801b6044820152606490fd5b60001981146125755760010190565b90816020910312610c6057518015158103610c605790565b90816020910312610c6057516001600160401b0381168103610c605790565b81811061261b575050565b60008155600101612610565b805482101561263f5760005260206000200190600090565b634e487b7160e01b600052603260045260246000fd5b90815491600160401b831015612403578261267891600161269695018155612627565b90919060018060a01b038084549260031b9316831b921b1916179055565b565b9190820391821161257557565b805480156126d25760001901906126bc8282612627565b81549060018060a01b039060031b1b1916905555565b634e487b7160e01b600052603160045260246000fd5b156126ef57565b60405162461bcd60e51b815260206004820152600f60248201526e151c985b9cd9995c8819985a5b1959608a1b6044820152606490fd5b906000918252600c6020526040822060078101549182810292818404149015171561276f576008015491821561275b57500490565b634e487b7160e01b81526012600452602490fd5b634e487b7160e01b83526011600452602483fd5b600052600c602052604060002090600c600092018054925b8381106127df5760405162461bcd60e51b815260206004820152601560248201527414185c9d1a58da5c185b9d081b9bdd08199bdd5b99605a1b6044820152606490fd5b6127e98183612627565b905460039190911b1c6001600160a01b039081169084161461280d5760010161279b565b9250505090565b1561281b57565b60405162461bcd60e51b815260206004820152601d60248201527f5369676e617475726520766572696669636174696f6e206661696c65640000006044820152606490fd5b6001600160a01b039081169081156128bb57600080516020612ad783398151915280546001600160a01b031981168417909155167f8be0079c531659141344cd1fd0a4f28419497f9722a3daafe3b4186f6b6457e0600080a3565b604051631e4fbdf760e01b815260006004820152602490fd5b60405160208101917f19457468657265756d205369676e6564204d6573736167653a0a3332000000008352603c820152603c815261291181612419565b51902090565b600080516020612ad7833981519152546001600160a01b0316330361293857565b60405163118cdaa760e01b8152336004820152602490fd5b81519190604183036129815761297a92506020820151906060604084015193015160001a90612a52565b9192909190565b505060009160029190565b60048110156129fb578061299e575050565b600181036129b85760405163f645eedf60e01b8152600490fd5b600281036129d95760405163fce698f760e01b815260048101839052602490fd5b6003146129e35750565b602490604051906335e2f38360e21b82526004820152fd5b634e487b7160e01b600052602160045260246000fd5b60ff7ff0c57e16840df040f15088dc2f81fe391c3923bec73e23a9662efc9c229c6a005460401c1615612a4057565b604051631afcd79f60e31b8152600490fd5b91907f7fffffffffffffffffffffffffffffff5d576e7357a4501ddfe92f46681b20a08411612aca57926020929160ff608095604051948552168484015260408301526060820152600092839182805260015afa15610f455780516001600160a01b03811615612ac157918190565b50809160019190565b5050506000916003919056fe9016d09d72d40fdae2fd8ceac6b6234c7706214fd39c1cd1e609a0528c19930043d2f309913f6afc5d717f60864d2d192b69963d25204b6a12765e2795bf027fa264697066735822122023c13dc515606a914dba023ad0bb44c4179eac9f9b38d6df6aa8ec0c6bea461264736f6c63430008170033","linkReferences":{}},"methodIdentifiers":{"BLAST()":"97d75776","USDB()":"31a0edec","admin()":"f851a440","calculateRiskPoolBalance(uint256,uint256)":"7d77990c","changeAdminSigner(address)":"91dc969e","claimFunds(uint256,bytes32[])":"61e7d805","claimMyContractsGas()":"77d5d2dc","claimReward(uint256)":"ae169a50","configureGas()":"0ab93941","createPot(string,bytes32,uint256,uint256,uint256,uint256,uint256)":"0fae6443","getEntropyFee()":"2d971e63","getEthSignedMessageHash(bytes32)":"fa540801","getParticipantIndex(uint256,address)":"7f5ef005","getRiskPoolBalance(uint256)":"4d781b31","hasClaimed(address)":"73b2e80e","hasJoinedPot(uint256,uint256,address)":"4da1ec40","initialize(address)":"c4d66de8","joinPot(uint256,bytes,uint256)":"f78aedf9","merkleRoot()":"2eb4a7ab","owner()":"8da5cb5b","potCreationFee()":"ec71687b","pots(uint256)":"c3c3df4f","recipient()":"66d003ac","renounceOwnership()":"715018a6","rotateLiquidity(uint256,bytes32,bytes32,bytes32)":"ca829f10","sendEther()":"0e29df22","setMerkleRoot(bytes32,uint256)":"7c382d0b","setRecipient(address)":"3bbed4a0","totalRevenue()":"bf2d9e0b","totalYielDeposited()":"07dd3f44","transferOwnership(address)":"f2fde38b","updatePotCreationFee(uint256)":"82199e3f","usdbToken()":"4a80409e","useRiskPool(uint256,uint256,bytes,uint256)":"818c5548","userCreated(address)":"a22187ec","withdrawFromPot(uint256,uint256,bool)":"210eaeae","withdrawRevenue(bool)":"b7db43c8"},"id":3}