{"abi":[{"type":"function","name":"BLAST","inputs":[],"outputs":[{"name":"","type":"address","internalType":"contract IBlast"}],"stateMutability":"view"},{"type":"function","name":"USDB","inputs":[],"outputs":[{"name":"","type":"address","internalType":"contract IERC20Rebasing"}],"stateMutability":"view"},{"type":"function","name":"admin","inputs":[],"outputs":[{"name":"","type":"address","internalType":"address"}],"stateMutability":"view"},{"type":"function","name":"calculateRiskPoolBalance","inputs":[{"name":"_potId","type":"uint256","internalType":"uint256"},{"name":"_amount","type":"uint256","internalType":"uint256"}],"outputs":[{"name":"","type":"uint256","internalType":"uint256"}],"stateMutability":"view"},{"type":"function","name":"changeAdminSigner","inputs":[{"name":"newAdmin","type":"address","internalType":"address"}],"outputs":[],"stateMutability":"nonpayable"},{"type":"function","name":"claimFunds","inputs":[{"name":"claimAmount","type":"uint256","internalType":"uint256"},{"name":"merkleProof","type":"bytes32[]","internalType":"bytes32[]"}],"outputs":[],"stateMutability":"nonpayable"},{"type":"function","name":"claimMyContractsGas","inputs":[],"outputs":[],"stateMutability":"nonpayable"},{"type":"function","name":"claimReward","inputs":[{"name":"_potId","type":"uint256","internalType":"uint256"}],"outputs":[],"stateMutability":"nonpayable"},{"type":"function","name":"createPot","inputs":[{"name":"_name","type":"string","internalType":"string"},{"name":"userCommitment","type":"bytes32","internalType":"bytes32"},{"name":"_rotationCycleInSeconds","type":"uint256","internalType":"uint256"},{"name":"_interestDenominator","type":"uint256","internalType":"uint256"},{"name":"_interestNumerator","type":"uint256","internalType":"uint256"},{"name":"_numParticipants","type":"uint256","internalType":"uint256"},{"name":"_amount","type":"uint256","internalType":"uint256"}],"outputs":[],"stateMutability":"payable"},{"type":"function","name":"getEntropyFee","inputs":[],"outputs":[{"name":"fee","type":"uint256","internalType":"uint256"}],"stateMutability":"view"},{"type":"function","name":"getEthSignedMessageHash","inputs":[{"name":"_messageHash","type":"bytes32","internalType":"bytes32"}],"outputs":[{"name":"","type":"bytes32","internalType":"bytes32"}],"stateMutability":"pure"},{"type":"function","name":"getRiskPoolBalance","inputs":[{"name":"potId","type":"uint256","internalType":"uint256"}],"outputs":[{"name":"riskPoolBalance","type":"uint256","internalType":"uint256"}],"stateMutability":"view"},{"type":"function","name":"hasClaimed","inputs":[{"name":"","type":"address","internalType":"address"}],"outputs":[{"name":"","type":"uint256","internalType":"uint256"}],"stateMutability":"view"},{"type":"function","name":"hasJoinedPot","inputs":[{"name":"","type":"uint256","internalType":"uint256"},{"name":"","type":"uint256","internalType":"uint256"},{"name":"","type":"address","internalType":"address"}],"outputs":[{"name":"","type":"bool","internalType":"bool"}],"stateMutability":"view"},{"type":"function","name":"initialize","inputs":[],"outputs":[],"stateMutability":"nonpayable"},{"type":"function","name":"joinPot","inputs":[{"name":"_potId","type":"uint256","internalType":"uint256"},{"name":"signature","type":"bytes","internalType":"bytes"},{"name":"nonce","type":"uint256","internalType":"uint256"}],"outputs":[],"stateMutability":"nonpayable"},{"type":"function","name":"merkleRoot","inputs":[],"outputs":[{"name":"","type":"bytes32","internalType":"bytes32"}],"stateMutability":"view"},{"type":"function","name":"owner","inputs":[],"outputs":[{"name":"","type":"address","internalType":"address"}],"stateMutability":"view"},{"type":"function","name":"potCreationFee","inputs":[],"outputs":[{"name":"","type":"uint256","internalType":"uint256"}],"stateMutability":"view"},{"type":"function","name":"pots","inputs":[{"name":"","type":"uint256","internalType":"uint256"}],"outputs":[{"name":"name","type":"string","internalType":"string"},{"name":"amount","type":"uint256","internalType":"uint256"},{"name":"riskPoolBalance","type":"uint256","internalType":"uint256"},{"name":"useRiskPoolBalance","type":"uint256","internalType":"uint256"},{"name":"rotationCycleInSeconds","type":"uint256","internalType":"uint256"},{"name":"lastRotationTime","type":"uint256","internalType":"uint256"},{"name":"interestNumerator","type":"uint256","internalType":"uint256"},{"name":"interestDenominator","type":"uint256","internalType":"uint256"},{"name":"numParticipants","type":"uint256","internalType":"uint256"},{"name":"currentRound","type":"uint256","internalType":"uint256"},{"name":"sequenceNumber","type":"uint64","internalType":"uint64"},{"name":"potCreator","type":"address","internalType":"address"}],"stateMutability":"view"},{"type":"function","name":"renounceOwnership","inputs":[],"outputs":[],"stateMutability":"nonpayable"},{"type":"function","name":"rotateLiquidity","inputs":[{"name":"_potId","type":"uint256","internalType":"uint256"},{"name":"userCommitment","type":"bytes32","internalType":"bytes32"},{"name":"userRandom","type":"bytes32","internalType":"bytes32"},{"name":"providerRandom","type":"bytes32","internalType":"bytes32"}],"outputs":[],"stateMutability":"payable"},{"type":"function","name":"setMerkleRoot","inputs":[{"name":"_merkleRoot","type":"bytes32","internalType":"bytes32"},{"name":"_amount","type":"uint256","internalType":"uint256"}],"outputs":[],"stateMutability":"payable"},{"type":"function","name":"totalRevenue","inputs":[],"outputs":[{"name":"","type":"uint256","internalType":"uint256"}],"stateMutability":"view"},{"type":"function","name":"totalYielDeposited","inputs":[],"outputs":[{"name":"","type":"uint256","internalType":"uint256"}],"stateMutability":"view"},{"type":"function","name":"transferOwnership","inputs":[{"name":"newOwner","type":"address","internalType":"address"}],"outputs":[],"stateMutability":"nonpayable"},{"type":"function","name":"updatePotCreationFee","inputs":[{"name":"_amount","type":"uint256","internalType":"uint256"}],"outputs":[],"stateMutability":"nonpayable"},{"type":"function","name":"usdbToken","inputs":[],"outputs":[{"name":"","type":"address","internalType":"contract IERC20"}],"stateMutability":"view"},{"type":"function","name":"useRiskPool","inputs":[{"name":"_potId","type":"uint256","internalType":"uint256"},{"name":"_amount","type":"uint256","internalType":"uint256"},{"name":"signature","type":"bytes","internalType":"bytes"},{"name":"nonce","type":"uint256","internalType":"uint256"}],"outputs":[],"stateMutability":"nonpayable"},{"type":"function","name":"withdrawFromPot","inputs":[{"name":"_potId","type":"uint256","internalType":"uint256"},{"name":"_index","type":"uint256","internalType":"uint256"},{"name":"_isWinner","type":"bool","internalType":"bool"}],"outputs":[],"stateMutability":"nonpayable"},{"type":"function","name":"withdrawRevenue","inputs":[{"name":"_isUsdb","type":"bool","internalType":"bool"}],"outputs":[],"stateMutability":"nonpayable"},{"type":"event","name":"Initialized","inputs":[{"name":"version","type":"uint64","indexed":false,"internalType":"uint64"}],"anonymous":false},{"type":"event","name":"OwnershipTransferred","inputs":[{"name":"previousOwner","type":"address","indexed":true,"internalType":"address"},{"name":"newOwner","type":"address","indexed":true,"internalType":"address"}],"anonymous":false},{"type":"event","name":"ParticipantJoined","inputs":[{"name":"potId","type":"uint256","indexed":false,"internalType":"uint256"},{"name":"name","type":"string","indexed":false,"internalType":"string"},{"name":"participant","type":"address","indexed":false,"internalType":"address"},{"name":"amount","type":"uint256","indexed":false,"internalType":"uint256"},{"name":"rotationCycleInSeconds","type":"uint256","indexed":false,"internalType":"uint256"},{"name":"_interestDenominator","type":"uint256","indexed":false,"internalType":"uint256"},{"name":"_interestNumerator","type":"uint256","indexed":false,"internalType":"uint256"},{"name":"_numParticipants","type":"uint256","indexed":false,"internalType":"uint256"}],"anonymous":false},{"type":"event","name":"ParticipantRemoved","inputs":[{"name":"potId","type":"uint256","indexed":false,"internalType":"uint256"},{"name":"participant","type":"address","indexed":false,"internalType":"address"}],"anonymous":false},{"type":"event","name":"PotCreated","inputs":[{"name":"potId","type":"uint256","indexed":false,"internalType":"uint256"},{"name":"name","type":"string","indexed":false,"internalType":"string"},{"name":"creator","type":"address","indexed":false,"internalType":"address"},{"name":"amount","type":"uint256","indexed":false,"internalType":"uint256"},{"name":"rotationCycleInSeconds","type":"uint256","indexed":false,"internalType":"uint256"},{"name":"_interestDenominator","type":"uint256","indexed":false,"internalType":"uint256"},{"name":"_interestNumerator","type":"uint256","indexed":false,"internalType":"uint256"},{"name":"_numParticipants","type":"uint256","indexed":false,"internalType":"uint256"},{"name":"sequenceNumber","type":"uint64","indexed":false,"internalType":"uint64"},{"name":"userCommitment","type":"bytes32","indexed":false,"internalType":"bytes32"}],"anonymous":false},{"type":"event","name":"RewardClaimed","inputs":[{"name":"potId","type":"uint256","indexed":false,"internalType":"uint256"},{"name":"winner","type":"address","indexed":false,"internalType":"address"},{"name":"amount","type":"uint256","indexed":false,"internalType":"uint256"}],"anonymous":false},{"type":"event","name":"RotationCompleted","inputs":[{"name":"potId","type":"uint256","indexed":false,"internalType":"uint256"},{"name":"winner","type":"address","indexed":false,"internalType":"address"},{"name":"round","type":"uint256","indexed":false,"internalType":"uint256"},{"name":"sequenceNumber","type":"uint64","indexed":false,"internalType":"uint64"},{"name":"userCommitment","type":"bytes32","indexed":false,"internalType":"bytes32"},{"name":"usedRiskPoolBalance","type":"uint256","indexed":false,"internalType":"uint256"},{"name":"amount","type":"uint256","indexed":false,"internalType":"uint256"}],"anonymous":false},{"type":"error","name":"ECDSAInvalidSignature","inputs":[]},{"type":"error","name":"ECDSAInvalidSignatureLength","inputs":[{"name":"length","type":"uint256","internalType":"uint256"}]},{"type":"error","name":"ECDSAInvalidSignatureS","inputs":[{"name":"s","type":"bytes32","internalType":"bytes32"}]},{"type":"error","name":"InvalidInitialization","inputs":[]},{"type":"error","name":"NotInitializing","inputs":[]},{"type":"error","name":"OwnableInvalidOwner","inputs":[{"name":"owner","type":"address","internalType":"address"}]},{"type":"error","name":"OwnableUnauthorizedAccount","inputs":[{"name":"account","type":"address","internalType":"address"}]}],"bytecode":{"object":"0x6080806040523461001b5760016004556125f490816100218239f35b600080fdfe608080604052600436101561001357600080fd5b600090813560e01c90816307dd3f4414611f15575080630fae644314611933578063210eaeae146117035780632d971e63146116835780632eb4a7ab1461166557806331a0edec14610c965780634a80409e1461163c5780634d781b311461160f5780634da1ec40146115b857806361e7d805146112cf578063715018a61461126557806373b2e80e1461122c57806377d5d2dc146111b35780637c382d0b146111545780637d77990c146111325780638129fc1c14610e91578063818c554814610d5757806382199e3f14610d345780638da5cb5b14610cfe57806391dc969e14610cb957806397d7577614610c96578063ae169a5014610b68578063b7db43c814610a5b578063bf2d9e0b14610a3d578063c3c3df4f146108e2578063ca829f10146105ad578063ec71687b1461058f578063f2fde38b14610562578063f78aedf9146101c8578063f851a4401461019f5763fa5408011461017657600080fd5b3461019c57602036600319011261019c57602061019460043561237c565b604051908152f35b80fd5b503461019c578060031936011261019c576002546040516001600160a01b039091168152602090f35b503461019c57606036600319011261019c576004356024356001600160401b03811161055e576101fc903690600401611ff2565b918181526020600a81526040822092600b84019081549160088601928354111561052b57818552600c84526040852060098701549081875285526040862033600052855260ff604060002054166104c8576040518581018481523360601b6bffffffffffffffffffffffff19166020820152603481018390526044356054820152979896976102cb976102db9290916102ae916102a681607484015b03601f198101835282611f75565b51902061237c565b6002546001600160a01b0399908a16928a926102d4929190612439565b90929192612475565b161461227e565b828752600c85526040808820918852908552808720336000818152918752908290208054600160ff1991821681179092556008548b8301805495516323b872dd60e01b8152600481019590955230602486015260448501959095529198909492918891839160649183918e91165af19081156104bd5790610363918a91610490575b506122ca565b33600052600e8901865260ff604060002054161561047f575b505460048801549160068901549360078a015495549660405198610100928a5282828b01528a9b80546103ae81612010565b80958d01526101209560018216918260001461045457505060011461040c575b508a60008051602061259f8339815191528b808f8d8d8d8d8d3360408801526060870152608086015260a085015260c084015260e08301520390a180f35b9093949b508a52808a20928a935b8385106104415750505050860101968160008051602061259f8339815191528738806103ce565b8054858c0187015293820193810161041a565b16868d015250505050151560051b87010197508160008051602061259f8339815191528738806103ce565b61048a903390612196565b3861037c565b6104b09150883d8a116104b6575b6104a88183611f75565b81019061211a565b3861035d565b503d61049e565b6040513d8b823e3d90fd5b60405162461bcd60e51b815260048101869052603560248201527f596f75206861766520616c7265616479206a6f696e6564207468697320706f74604482015274081a5b881d1a194818dd5c9c995b9d081c9bdd5b99605a1b6064820152608490fd5b60405162461bcd60e51b815260048101859052600b60248201526a141bdd081a5cc8199d5b1b60aa1b6044820152606490fd5b8280fd5b503461019c57602036600319011261019c5761058c61057f611fdc565b6105876123bf565b612308565b80f35b503461019c578060031936011261019c576020600654604051908152f35b50608036600319011261019c576004356024358183526020600a8152604084209160018060a01b03938486541694806001541691600a860195856001600160401b03946084868a5416918c6040519c8d948593639371df5160e01b855260048501526024840152604435604484015260643560648401525af19788156104bd5789986108af575b50600b810197885490811561089b576106528b93928692068b612168565b90549060031b1c169561066887600c8401612196565b826106798b54600185015490612229565b9261069461068b6064860480966121d9565b946005546120a9565b6005556106a1848761223c565b9485946106be60038401916106b983549889926121d9565b6120a9565b968b600052600d84018d52876040600020556106df600285019182546120a9565b90555588600052600e81018a526040600020600160ff198254161790554260058201558682541696600154169660405190631711922960e31b82528860048301528b82602481845afa8015610890576001600160801b036064918e948791610863575b5016996107508b34146120cc565b6040519a8b9384926393cbf21760e01b845260048401528860248401528760448401525af1978815610858577f9ef3fbd1495a53d36401c5153be21a35a6214297031b5e106b12307835851d2f9860e0986009949161082b575b50169a8b6001600160401b03198254161790550198895497604051958652898601528760408601526060850152608084015260a083015260c0820152a18354928315159182610819575b5050848455610801578380f35b610812928452832090810190612151565b3880808380f35b6108229061210b565b905538806107f4565b61084b91508c8d3d10610851575b6108438183611f75565b810190612132565b386107aa565b503d610839565b6040513d84823e3d90fd5b6108839150853d8711610889575b61087b8183611f75565b81019061208a565b38610742565b503d610871565b6040513d86823e3d90fd5b634e487b7160e01b8b52601260045260248bfd5b9097508581813d83116108db575b6108c78183611f75565b810103126108d757519638610634565b8880fd5b503d6108bd565b503461019c57602080600319360112610a39576004358252600a815260408220906040519183815461091381612010565b80865291600191808316908115610a1757506001146109df575b50505061093f8361098b950384611f75565b6001810154906002810154600382015460048301546005840154600685015491600786015493600887015495600a6009890154980154986040519c8d9c8d61018090818152019061204a565b9a8c015260408b015260608a0152608089015260a088015260c087015260e08601526101008501526101208401526001600160401b03811661014084015260018060a01b039060401c166101608301520390f35b95508286528386205b828710610a045750505061093f838361098b968201019561092d565b80548688018601529584019581016109e8565b60ff191686880152505050151560051b83018201935061093f8361098b61092d565b5080fd5b503461019c578060031936011261019c576020600554604051908152f35b503461019c57602036600319011261019c576004358015158103610b6357610a816123bf565b15610b36576005548015610af857600582905560085460405163a9059cbb60e01b815233600482015260248101929092526020908290604490829086906001600160a01b03165af180156108585761058c918391610adf57506122ca565b6104b0915060203d6020116104b6576104a88183611f75565b60405162461bcd60e51b81526020600482015260166024820152754e6f20726576656e756520746f20776974686472617760501b6044820152606490fd5b8080808047818115610b5a575b3390f115610b4e5780f35b604051903d90823e3d90fd5b506108fc610b43565b600080fd5b503461019c57602080600319360112610a395760043590818352600a8152600d60408420013360005280825260406000205415610c5c57336000818152918352604091829020805490869055600854925163a9059cbb60e01b815260048101929092526024820181905290939183908590604490829089906001600160a01b03165af1928315610c5157610c266060947f24b5efa61dd1cfc659205a97fb8ed868f3cb8c81922bab2b96423e5de1de2cb7968891610c3a57506122ca565b60405192835233908301526040820152a180f35b6104b09150833d85116104b6576104a88183611f75565b6040513d87823e3d90fd5b60405162461bcd60e51b81526004810183905260126024820152714e6f2072657761726420746f20636c61696d60701b6044820152606490fd5b503461019c578060031936011261019c576040516022602160991b018152602090f35b503461019c57602036600319011261019c57610cd3611fdc565b610cdb6123bf565b60018060a01b03166bffffffffffffffffffffffff60a01b600254161760025580f35b503461019c578060031936011261019c5760008051602061257f833981519152546040516001600160a01b039091168152602090f35b503461019c57602036600319011261019c57610d4e6123bf565b60043560065580f35b503461019c57608036600319011261019c576024356004356044356001600160401b038111610e8d57610d91610e01913690600401611ff2565b828552600a6020908152604080872081519283019586523360601b6bffffffffffffffffffffffff19169183019190915260548201869052606435607483015293610de3916102a68160948101610298565b6002546001600160a01b039081169290916102d4916102cb91612439565b60028101918254818110610e2257816003610e1d9401556121d9565b905580f35b60405162461bcd60e51b815260206004820152603860248201527f616d6f756e742073686f756c64206265206c657373207468616e206f7220657160448201527f75616c20746f207269736b20706f6f6c2062616c616e636500000000000000006064820152608490fd5b8380fd5b503461019c578060031936011261019c577ff0c57e16840df040f15088dc2f81fe391c3923bec73e23a9662efc9c229c6a00805460ff8160401c1615906001600160401b0381168015908161112a575b6001149081611120575b159081611117575b506111055767ffffffffffffffff1981166001178355816110e6575b50610f186123f8565b610f206123f8565b610f2933612308565b604051631a33757d60e01b8152600260048201526022602160991b019060208160248188865af18015610c51576110bb575b50836bffffffffffffffffffffffff60a01b9180836008541617600855803b15610a39578190600460405180948193634e606c4760e01b83525af18015610c51576110a8575b50732fc95838c71e76ec69ff817983bff17c710f34e090813b156110a457846040516336b91f2b60e01b815281816024818373e4860d3973802c7c42450d7b9741921c7711d039988960048401525af1801561085857611090575b50817398046bd286715d3b0bc227dd7a956b83d8978603915416178555736cc14824ea2918f5de5c2f75a9da968ad4bd6344816001541617600155600254161760025566038d7ea4c68000600655611052575080f35b68ff00000000000000001981541690557fc7f505b2f371ae2175ee4913f4499e1f2633a7b5936321eed1cdaeb6115181d2602060405160018152a180f35b61109990611f31565b6110a4578438610ffc565b8480fd5b6110b490949194611f31565b9238610fa1565b602090813d83116110df575b6110d18183611f75565b81010312610e8d5738610f5b565b503d6110c7565b68ffffffffffffffffff19166801000000000000000117825538610f0f565b60405163f92ee8a960e01b8152600490fd5b90501538610ef3565b303b159150610eeb565b839150610ee1565b503461019c57604036600319011261019c57602061019460243560043561223c565b50604036600319011261019c5760243561116c6123bf565b60043560035581808280156111a9575b8280929181923390f11561119c57611196906007546120a9565b60075580f35b50604051903d90823e3d90fd5b6108fc915061117c565b503461019c578060031936011261019c576111cc6123bf565b604051634aa7d2f760e11b8152306004820152336024820152602081604481856022602160991b015af1801561085857611204575080f35b602090813d8311611225575b61121a8183611f75565b8101031261019c5780f35b503d611210565b503461019c57602036600319011261019c576020906040906001600160a01b03611254611fdc565b168152600983522054604051908152f35b503461019c578060031936011261019c5761127e6123bf565b60008051602061257f83398151915280546001600160a01b0319811690915581906001600160a01b03167f8be0079c531659141344cd1fd0a4f28419497f9722a3daafe3b4186f6b6457e08280a380f35b503461019c57604036600319011261019c576001600160401b038060243511610a3957366023602435011215610a3957602435600401351161019c5736602480356004013560051b813501011161019c5760405160208101903360601b825260043560348201526034815261134381611f5a565b519020600354906040519061136460206024356004013560051b0183611f75565b602480356004810135845201602083015b602480356004013560051b8135010182106115a85750509083915b81518310156113d35760208360051b83010151908181106000146113c25785526020526001604085205b920191611390565b9085526020526001604085206113ba565b91505003611572573381526009602052604081205460043581101561151a576113fe906004356121d9565b80600754106114dd5760206114668392338452600983526004356040852055611429816007546121d9565b60075560085460405163a9059cbb60e01b81523360048201526024810192909252909384926001600160a01b039092169183919082906044820190565b03925af19081156108585782916114be575b50156114815780f35b60405162461bcd60e51b8152602060048201526015602482015274165a595b19081d1c985b9cd9995c8819985a5b1959605a1b6044820152606490fd5b6114d7915060203d6020116104b6576104a88183611f75565b38611478565b60405162461bcd60e51b8152602060048201526015602482015274139bc8199d5b991cc81a5b881d1a19481d985d5b1d605a1b6044820152606490fd5b60405162461bcd60e51b815260206004820152602a60248201527f4e6f2066756e6473206c65667420746f20636c61696d206f7220616c726561646044820152693c9031b630b4b6b2b21760b11b6064820152608490fd5b60405162461bcd60e51b815260206004820152600e60248201526d24b73b30b634b210383937b7b31760911b6044820152606490fd5b8135815260209182019101611375565b503461019c57606036600319011261019c576044356001600160a01b03811690819003610a3957604060209260ff926004358252600c85528282206024358352855282822090825284522054166040519015158152f35b503461019c57602036600319011261019c57600260406020926004358152600a8452200154604051908152f35b503461019c578060031936011261019c576008546040516001600160a01b039091168152602090f35b503461019c578060031936011261019c576020600354604051908152f35b503461019c578060031936011261019c578054600154604051631711922960e31b81526001600160a01b0391821660048201529160209183916024918391165afa90811561085857602092916116e6575b506001600160801b0360405191168152f35b6116fd9150823d84116108895761087b8183611f75565b386116d4565b503461019c57606036600319011261019c576004356044356024358115801583036110a457838552602092600a84526040862091600c85526040872060098401548852855260408720338852855260ff604088205416156118ee578190816118e0575b81156118c5575b5015611880571561182f57600c0180549091600019820191821161181b577fcef8fac05afb87995942422eac900de6af11a555d80d075340af81db492119fe94928282604096946117c594036117d3575b50506121e6565b82519182523390820152a180f35b6117ed6117e36118149385612168565b9190549285612168565b81546001600160a01b03600392831b81811b199092169490921b9490941c1690921b179055565b38806117be565b634e487b7160e01b86526011600452602486fd5b600b0180549091600019820191821161181b577fcef8fac05afb87995942422eac900de6af11a555d80d075340af81db492119fe949282826040969461187b94036117d35750506121e6565b6117c5565b60405162461bcd60e51b815260048101859052601e60248201527f496e76616c696420696e64657820666f72207061727469636970616e747300006044820152606490fd5b9050806118d3575b3861176d565b50600b82015483106118cd565b600c84015485109150611766565b60405162461bcd60e51b815260048101869052601c60248201527f596f752068617665206e6f74206a6f696e6564207468697320706f74000000006044820152606490fd5b5060e036600319011261019c576004356001600160401b038111610a395736602382011215610a3957611970903690602481600401359101611f96565b8154600154604051631711922960e31b81526001600160a01b0391821660048201529293929160209183916024918391165afa908115610858578291611ef6575b506119d16119ca6006546001600160801b0384166120a9565b34146120cc565b60443515611eb15760643515611e5e5760643560843511611dfd576004546119f88161210b565b60049081556008546040516323b872dd60e01b8152339281019290925230602483015260c43560448301526020908290606490829088906001600160a01b03165af1908115610890578491611dde575b5015611d875782546001546040516393cbf21760e01b81526001600160a01b03918216600482015260248035908201526044810186905293602092859260649284926001600160801b0390911691165af1918215611d7c578392611d5b575b50808352600a60205260408320938051946001600160401b038611611d4757611ad08154612010565b601f8111611d0c575b50602095601f8111600114611c94579081611c559392879860008051602061259f8339815191529891611c89575b508160011b916000199060031b1c19161781555b60c43560018201558660028201556001600160401b03600a8201951694805486600160401b600160e01b033360401b169163ffffffff60e01b161717905560443560048201556084356006820155606435600782015542600582015560a4356008820155611b95600982019160018355600b339101612196565b838752600c60205260408720905487526020526040862033875260205260408620600160ff198254161790557f37bb26f2981ad94b38afe928452cad1bca628b82f1781d95ec69d53acf5d0d9b60405180611bfd61014087835280602084015282018561204a565b33604083015260c4356060830152604435608083015260843560a083015260643560c083015260a43560e083015261010097888301526024356101208301520390a1604051938493845280602085015283019061204a565b33604083015260c4356060830152604435608083015260843560a083015260643560c083015260a43560e08301520390a180f35b905083015138611b07565b81865260208620865b601f1983168110611cf457508160019160008051602061259f8339815191529899611c55969594601f19811610611cdb575b5050811b018155611b1b565b85015160001960f88460031b161c191690553880611ccf565b84890151825560209889019860019092019101611c9d565b611d379082875260208720601f890160051c81019160208a10611d3d575b601f0160051c0190612151565b38611ad9565b9091508190611d2a565b634e487b7160e01b85526041600452602485fd5b611d7591925060203d602011610851576108438183611f75565b9038611aa7565b6040513d85823e3d90fd5b60405162461bcd60e51b815260206004820152602960248201527f43726561746f722073686f756c64206465706f7369742074686520696e697469604482015268185b08185b5bdd5b9d60ba1b6064820152608490fd5b611df7915060203d6020116104b6576104a88183611f75565b38611a48565b60405162461bcd60e51b815260206004820152603360248201527f4e756d657261746f72206d757374206265206c657373207468616e206f72206560448201527238bab0b6103a37903232b737b6b4b730ba37b960691b6064820152608490fd5b60405162461bcd60e51b815260206004820152602560248201527f496e7465726573742064656e6f6d696e61746f72206d75737420626520706f73604482015264697469766560d81b6064820152608490fd5b60405162461bcd60e51b815260206004820152601f60248201527f526f746174696f6e206379636c65206d75737420626520706f736974697665006044820152606490fd5b611f0f915060203d6020116108895761087b8183611f75565b386119b1565b905034610a395781600319360112610a39576020906007548152f35b6001600160401b038111611f4457604052565b634e487b7160e01b600052604160045260246000fd5b606081019081106001600160401b03821117611f4457604052565b90601f801991011681019081106001600160401b03821117611f4457604052565b9291926001600160401b038211611f445760405191611fbf601f8201601f191660200184611f75565b829481845281830111610b63578281602093846000960137010152565b600435906001600160a01b0382168203610b6357565b9080601f83011215610b635781602061200d93359101611f96565b90565b90600182811c92168015612040575b602083101461202a57565b634e487b7160e01b600052602260045260246000fd5b91607f169161201f565b919082519283825260005b848110612076575050826000602080949584010152601f8019910116010190565b602081830181015184830182015201612055565b90816020910312610b6357516001600160801b0381168103610b635790565b919082018092116120b657565b634e487b7160e01b600052601160045260246000fd5b156120d357565b60405162461bcd60e51b815260206004820152601060248201526f496e73756666696369656e742066656560801b6044820152606490fd5b60001981146120b65760010190565b90816020910312610b6357518015158103610b635790565b90816020910312610b6357516001600160401b0381168103610b635790565b81811061215c575050565b60008155600101612151565b80548210156121805760005260206000200190600090565b634e487b7160e01b600052603260045260246000fd5b90815491600160401b831015611f4457826121b99160016121d795018155612168565b90919060018060a01b038084549260031b9316831b921b1916179055565b565b919082039182116120b657565b805480156122135760001901906121fd8282612168565b81549060018060a01b039060031b1b1916905555565b634e487b7160e01b600052603160045260246000fd5b818102929181159184041417156120b657565b600052600a602052600761225a604060002092600684015490612229565b910154908115612268570490565b634e487b7160e01b600052601260045260246000fd5b1561228557565b60405162461bcd60e51b815260206004820152601d60248201527f5369676e617475726520766572696669636174696f6e206661696c65640000006044820152606490fd5b156122d157565b60405162461bcd60e51b815260206004820152600f60248201526e151c985b9cd9995c8819985a5b1959608a1b6044820152606490fd5b6001600160a01b039081169081156123635760008051602061257f83398151915280546001600160a01b031981168417909155167f8be0079c531659141344cd1fd0a4f28419497f9722a3daafe3b4186f6b6457e0600080a3565b604051631e4fbdf760e01b815260006004820152602490fd5b60405160208101917f19457468657265756d205369676e6564204d6573736167653a0a3332000000008352603c820152603c81526123b981611f5a565b51902090565b60008051602061257f833981519152546001600160a01b031633036123e057565b60405163118cdaa760e01b8152336004820152602490fd5b60ff7ff0c57e16840df040f15088dc2f81fe391c3923bec73e23a9662efc9c229c6a005460401c161561242757565b604051631afcd79f60e31b8152600490fd5b815191906041830361246a5761246392506020820151906060604084015193015160001a906124fa565b9192909190565b505060009160029190565b60048110156124e45780612487575050565b600181036124a15760405163f645eedf60e01b8152600490fd5b600281036124c25760405163fce698f760e01b815260048101839052602490fd5b6003146124cc5750565b602490604051906335e2f38360e21b82526004820152fd5b634e487b7160e01b600052602160045260246000fd5b91907f7fffffffffffffffffffffffffffffff5d576e7357a4501ddfe92f46681b20a0841161257257926020929160ff608095604051948552168484015260408301526060820152600092839182805260015afa15610b4e5780516001600160a01b0381161561256957918190565b50809160019190565b5050506000916003919056fe9016d09d72d40fdae2fd8ceac6b6234c7706214fd39c1cd1e609a0528c19930043d2f309913f6afc5d717f60864d2d192b69963d25204b6a12765e2795bf027fa264697066735822122061cfcab3d47dc3a5e0d6507bb24e63b8c885416579cfed7604ece3af9e3b95fd64736f6c63430008170033","linkReferences":{}},"methodIdentifiers":{"BLAST()":"97d75776","USDB()":"31a0edec","admin()":"f851a440","calculateRiskPoolBalance(uint256,uint256)":"7d77990c","changeAdminSigner(address)":"91dc969e","claimFunds(uint256,bytes32[])":"61e7d805","claimMyContractsGas()":"77d5d2dc","claimReward(uint256)":"ae169a50","createPot(string,bytes32,uint256,uint256,uint256,uint256,uint256)":"0fae6443","getEntropyFee()":"2d971e63","getEthSignedMessageHash(bytes32)":"fa540801","getRiskPoolBalance(uint256)":"4d781b31","hasClaimed(address)":"73b2e80e","hasJoinedPot(uint256,uint256,address)":"4da1ec40","initialize()":"8129fc1c","joinPot(uint256,bytes,uint256)":"f78aedf9","merkleRoot()":"2eb4a7ab","owner()":"8da5cb5b","potCreationFee()":"ec71687b","pots(uint256)":"c3c3df4f","renounceOwnership()":"715018a6","rotateLiquidity(uint256,bytes32,bytes32,bytes32)":"ca829f10","setMerkleRoot(bytes32,uint256)":"7c382d0b","totalRevenue()":"bf2d9e0b","totalYielDeposited()":"07dd3f44","transferOwnership(address)":"f2fde38b","updatePotCreationFee(uint256)":"82199e3f","usdbToken()":"4a80409e","useRiskPool(uint256,uint256,bytes,uint256)":"818c5548","withdrawFromPot(uint256,uint256,bool)":"210eaeae","withdrawRevenue(bool)":"b7db43c8"},"id":3}